{
	"contracts/CrowdFunding.sol": {
		"CrowdFunding": {
			"abi": [
				{
					"inputs": [
						{
							"internalType": "address",
							"name": "beneficiary_",
							"type": "address"
						},
						{
							"internalType": "uint256",
							"name": "fundingGoal_",
							"type": "uint256"
						}
					],
					"stateMutability": "nonpayable",
					"type": "constructor"
				},
				{
					"inputs": [],
					"name": "AVAILABLED",
					"outputs": [
						{
							"internalType": "bool",
							"name": "",
							"type": "bool"
						}
					],
					"stateMutability": "view",
					"type": "function"
				},
				{
					"inputs": [],
					"name": "beneficiary",
					"outputs": [
						{
							"internalType": "address",
							"name": "",
							"type": "address"
						}
					],
					"stateMutability": "view",
					"type": "function"
				},
				{
					"inputs": [],
					"name": "close",
					"outputs": [
						{
							"internalType": "bool",
							"name": "",
							"type": "bool"
						}
					],
					"stateMutability": "nonpayable",
					"type": "function"
				},
				{
					"inputs": [],
					"name": "contribute",
					"outputs": [],
					"stateMutability": "payable",
					"type": "function"
				},
				{
					"inputs": [
						{
							"internalType": "address",
							"name": "",
							"type": "address"
						}
					],
					"name": "funders",
					"outputs": [
						{
							"internalType": "uint256",
							"name": "",
							"type": "uint256"
						}
					],
					"stateMutability": "view",
					"type": "function"
				},
				{
					"inputs": [
						{
							"internalType": "uint256",
							"name": "",
							"type": "uint256"
						}
					],
					"name": "fundersKey",
					"outputs": [
						{
							"internalType": "address",
							"name": "",
							"type": "address"
						}
					],
					"stateMutability": "view",
					"type": "function"
				},
				{
					"inputs": [],
					"name": "fundersLenght",
					"outputs": [
						{
							"internalType": "uint256",
							"name": "",
							"type": "uint256"
						}
					],
					"stateMutability": "view",
					"type": "function"
				},
				{
					"inputs": [],
					"name": "fundingAmount",
					"outputs": [
						{
							"internalType": "uint256",
							"name": "",
							"type": "uint256"
						}
					],
					"stateMutability": "view",
					"type": "function"
				},
				{
					"inputs": [],
					"name": "fundingGoal",
					"outputs": [
						{
							"internalType": "uint256",
							"name": "",
							"type": "uint256"
						}
					],
					"stateMutability": "view",
					"type": "function"
				}
			],
			"devdoc": {
				"kind": "dev",
				"methods": {},
				"version": 1
			},
			"evm": {
				"assembly": "    /* \"contracts/CrowdFunding.sol\":61:2351  contract CrowdFunding {... */\n  mstore(0x40, 0xc0)\n    /* \"contracts/CrowdFunding.sol\":501:505  true */\n  0x01\n    /* \"contracts/CrowdFunding.sol\":476:505  bool public AVAILABLED = true */\n  0x04\n  exp(0x0100, 0x00)\n  dup2\n  sload\n  dup2\n  0xff\n  mul\n  not\n  and\n  swap1\n  dup4\n  iszero\n  iszero\n  mul\n  or\n  swap1\n  sstore\n  pop\n    /* \"contracts/CrowdFunding.sol\":631:769  constructor(address beneficiary_, uint256 fundingGoal_) {... */\n  callvalue\n  dup1\n  iszero\n  tag_1\n  jumpi\n  0x00\n  dup1\n  revert\ntag_1:\n  pop\n  mload(0x40)\n  sub(codesize, bytecodeSize)\n  dup1\n  bytecodeSize\n  dup4\n  codecopy\n  dup2\n  dup2\n  add\n  0x40\n  mstore\n  dup2\n  add\n  swap1\n  tag_2\n  swap2\n  swap1\n  tag_3\n  jump\t// in\ntag_2:\n    /* \"contracts/CrowdFunding.sol\":712:724  beneficiary_ */\n  dup2\n    /* \"contracts/CrowdFunding.sol\":698:724  beneficiary = beneficiary_ */\n  0xffffffffffffffffffffffffffffffffffffffff\n  and\n  0x80\n  dup2\n  0xffffffffffffffffffffffffffffffffffffffff\n  and\n  dup2\n  mstore\n  pop\n  pop\n    /* \"contracts/CrowdFunding.sol\":749:761  fundingGoal_ */\n  dup1\n    /* \"contracts/CrowdFunding.sol\":735:761  fundingGoal = fundingGoal_ */\n  0xa0\n  dup2\n  dup2\n  mstore\n  pop\n  pop\n    /* \"contracts/CrowdFunding.sol\":631:769  constructor(address beneficiary_, uint256 fundingGoal_) {... */\n  pop\n  pop\n    /* \"contracts/CrowdFunding.sol\":61:2351  contract CrowdFunding {... */\n  jump(tag_6)\n    /* \"#utility.yul\":88:205   */\ntag_8:\n    /* \"#utility.yul\":197:198   */\n  0x00\n    /* \"#utility.yul\":194:195   */\n  dup1\n    /* \"#utility.yul\":187:199   */\n  revert\n    /* \"#utility.yul\":334:460   */\ntag_10:\n    /* \"#utility.yul\":371:378   */\n  0x00\n    /* \"#utility.yul\":411:453   */\n  0xffffffffffffffffffffffffffffffffffffffff\n    /* \"#utility.yul\":404:409   */\n  dup3\n    /* \"#utility.yul\":400:454   */\n  and\n    /* \"#utility.yul\":389:454   */\n  swap1\n  pop\n    /* \"#utility.yul\":334:460   */\n  swap2\n  swap1\n  pop\n  jump\t// out\n    /* \"#utility.yul\":466:562   */\ntag_11:\n    /* \"#utility.yul\":503:510   */\n  0x00\n    /* \"#utility.yul\":532:556   */\n  tag_23\n    /* \"#utility.yul\":550:555   */\n  dup3\n    /* \"#utility.yul\":532:556   */\n  tag_10\n  jump\t// in\ntag_23:\n    /* \"#utility.yul\":521:556   */\n  swap1\n  pop\n    /* \"#utility.yul\":466:562   */\n  swap2\n  swap1\n  pop\n  jump\t// out\n    /* \"#utility.yul\":568:690   */\ntag_12:\n    /* \"#utility.yul\":641:665   */\n  tag_25\n    /* \"#utility.yul\":659:664   */\n  dup2\n    /* \"#utility.yul\":641:665   */\n  tag_11\n  jump\t// in\ntag_25:\n    /* \"#utility.yul\":634:639   */\n  dup2\n    /* \"#utility.yul\":631:666   */\n  eq\n    /* \"#utility.yul\":621:684   */\n  tag_26\n  jumpi\n    /* \"#utility.yul\":680:681   */\n  0x00\n    /* \"#utility.yul\":677:678   */\n  dup1\n    /* \"#utility.yul\":670:682   */\n  revert\n    /* \"#utility.yul\":621:684   */\ntag_26:\n    /* \"#utility.yul\":568:690   */\n  pop\n  jump\t// out\n    /* \"#utility.yul\":696:839   */\ntag_13:\n    /* \"#utility.yul\":753:758   */\n  0x00\n    /* \"#utility.yul\":784:790   */\n  dup2\n    /* \"#utility.yul\":778:791   */\n  mload\n    /* \"#utility.yul\":769:791   */\n  swap1\n  pop\n    /* \"#utility.yul\":800:833   */\n  tag_28\n    /* \"#utility.yul\":827:832   */\n  dup2\n    /* \"#utility.yul\":800:833   */\n  tag_12\n  jump\t// in\ntag_28:\n    /* \"#utility.yul\":696:839   */\n  swap3\n  swap2\n  pop\n  pop\n  jump\t// out\n    /* \"#utility.yul\":845:922   */\ntag_14:\n    /* \"#utility.yul\":882:889   */\n  0x00\n    /* \"#utility.yul\":911:916   */\n  dup2\n    /* \"#utility.yul\":900:916   */\n  swap1\n  pop\n    /* \"#utility.yul\":845:922   */\n  swap2\n  swap1\n  pop\n  jump\t// out\n    /* \"#utility.yul\":928:1050   */\ntag_15:\n    /* \"#utility.yul\":1001:1025   */\n  tag_31\n    /* \"#utility.yul\":1019:1024   */\n  dup2\n    /* \"#utility.yul\":1001:1025   */\n  tag_14\n  jump\t// in\ntag_31:\n    /* \"#utility.yul\":994:999   */\n  dup2\n    /* \"#utility.yul\":991:1026   */\n  eq\n    /* \"#utility.yul\":981:1044   */\n  tag_32\n  jumpi\n    /* \"#utility.yul\":1040:1041   */\n  0x00\n    /* \"#utility.yul\":1037:1038   */\n  dup1\n    /* \"#utility.yul\":1030:1042   */\n  revert\n    /* \"#utility.yul\":981:1044   */\ntag_32:\n    /* \"#utility.yul\":928:1050   */\n  pop\n  jump\t// out\n    /* \"#utility.yul\":1056:1199   */\ntag_16:\n    /* \"#utility.yul\":1113:1118   */\n  0x00\n    /* \"#utility.yul\":1144:1150   */\n  dup2\n    /* \"#utility.yul\":1138:1151   */\n  mload\n    /* \"#utility.yul\":1129:1151   */\n  swap1\n  pop\n    /* \"#utility.yul\":1160:1193   */\n  tag_34\n    /* \"#utility.yul\":1187:1192   */\n  dup2\n    /* \"#utility.yul\":1160:1193   */\n  tag_15\n  jump\t// in\ntag_34:\n    /* \"#utility.yul\":1056:1199   */\n  swap3\n  swap2\n  pop\n  pop\n  jump\t// out\n    /* \"#utility.yul\":1205:1712   */\ntag_3:\n    /* \"#utility.yul\":1284:1290   */\n  0x00\n    /* \"#utility.yul\":1292:1298   */\n  dup1\n    /* \"#utility.yul\":1341:1343   */\n  0x40\n    /* \"#utility.yul\":1329:1338   */\n  dup4\n    /* \"#utility.yul\":1320:1327   */\n  dup6\n    /* \"#utility.yul\":1316:1339   */\n  sub\n    /* \"#utility.yul\":1312:1344   */\n  slt\n    /* \"#utility.yul\":1309:1428   */\n  iszero\n  tag_36\n  jumpi\n    /* \"#utility.yul\":1347:1426   */\n  tag_37\n  tag_8\n  jump\t// in\ntag_37:\n    /* \"#utility.yul\":1309:1428   */\ntag_36:\n    /* \"#utility.yul\":1467:1468   */\n  0x00\n    /* \"#utility.yul\":1492:1556   */\n  tag_38\n    /* \"#utility.yul\":1548:1555   */\n  dup6\n    /* \"#utility.yul\":1539:1545   */\n  dup3\n    /* \"#utility.yul\":1528:1537   */\n  dup7\n    /* \"#utility.yul\":1524:1546   */\n  add\n    /* \"#utility.yul\":1492:1556   */\n  tag_13\n  jump\t// in\ntag_38:\n    /* \"#utility.yul\":1482:1556   */\n  swap3\n  pop\n    /* \"#utility.yul\":1438:1566   */\n  pop\n    /* \"#utility.yul\":1605:1607   */\n  0x20\n    /* \"#utility.yul\":1631:1695   */\n  tag_39\n    /* \"#utility.yul\":1687:1694   */\n  dup6\n    /* \"#utility.yul\":1678:1684   */\n  dup3\n    /* \"#utility.yul\":1667:1676   */\n  dup7\n    /* \"#utility.yul\":1663:1685   */\n  add\n    /* \"#utility.yul\":1631:1695   */\n  tag_16\n  jump\t// in\ntag_39:\n    /* \"#utility.yul\":1621:1695   */\n  swap2\n  pop\n    /* \"#utility.yul\":1576:1705   */\n  pop\n    /* \"#utility.yul\":1205:1712   */\n  swap3\n  pop\n  swap3\n  swap1\n  pop\n  jump\t// out\n    /* \"contracts/CrowdFunding.sol\":61:2351  contract CrowdFunding {... */\ntag_6:\n  mload(0x80)\n  mload(0xa0)\n  codecopy(0x00, dataOffset(sub_0), dataSize(sub_0))\n  0x00\n  assignImmutable(\"0xceebf77a833b30520287ddd9478ff51abbdffa30aa90a8d655dba0e8a79ce0c1\")\n  0x00\n  assignImmutable(\"0x2a80e1ef1d7842f27f2e6be0972bb708b9a135c38860dbe73c27c3486c34f4de\")\n  return(0x00, dataSize(sub_0))\nstop\n\nsub_0: assembly {\n        /* \"contracts/CrowdFunding.sol\":61:2351  contract CrowdFunding {... */\n      mstore(0x40, 0x80)\n      jumpi(tag_1, lt(calldatasize, 0x04))\n      shr(0xe0, calldataload(0x00))\n      dup1\n      0x7a3a0e84\n      gt\n      tag_11\n      jumpi\n      dup1\n      0x7a3a0e84\n      eq\n      tag_6\n      jumpi\n      dup1\n      0x8625749f\n      eq\n      tag_7\n      jumpi\n      dup1\n      0xd7ac1677\n      eq\n      tag_8\n      jumpi\n      dup1\n      0xd7bb99ba\n      eq\n      tag_9\n      jumpi\n      dup1\n      0xf781fbcc\n      eq\n      tag_10\n      jumpi\n      jump(tag_1)\n    tag_11:\n      dup1\n      0x031b3677\n      eq\n      tag_2\n      jumpi\n      dup1\n      0x04a79c97\n      eq\n      tag_3\n      jumpi\n      dup1\n      0x38af3eed\n      eq\n      tag_4\n      jumpi\n      dup1\n      0x43d726d6\n      eq\n      tag_5\n      jumpi\n    tag_1:\n      0x00\n      dup1\n      revert\n        /* \"contracts/CrowdFunding.sol\":282:324  mapping(address => uint256) public funders */\n    tag_2:\n      callvalue\n      dup1\n      iszero\n      tag_12\n      jumpi\n      0x00\n      dup1\n      revert\n    tag_12:\n      pop\n      tag_13\n      0x04\n      dup1\n      calldatasize\n      sub\n      dup2\n      add\n      swap1\n      tag_14\n      swap2\n      swap1\n      tag_15\n      jump\t// in\n    tag_14:\n      tag_16\n      jump\t// in\n    tag_13:\n      mload(0x40)\n      tag_17\n      swap2\n      swap1\n      tag_18\n      jump\t// in\n    tag_17:\n      mload(0x40)\n      dup1\n      swap2\n      sub\n      swap1\n      return\n        /* \"contracts/CrowdFunding.sol\":209:237  uint256 public fundingAmount */\n    tag_3:\n      callvalue\n      dup1\n      iszero\n      tag_19\n      jumpi\n      0x00\n      dup1\n      revert\n    tag_19:\n      pop\n      tag_20\n      tag_21\n      jump\t// in\n    tag_20:\n      mload(0x40)\n      tag_22\n      swap2\n      swap1\n      tag_18\n      jump\t// in\n    tag_22:\n      mload(0x40)\n      dup1\n      swap2\n      sub\n      swap1\n      return\n        /* \"contracts/CrowdFunding.sol\":90:126  address public immutable beneficiary */\n    tag_4:\n      callvalue\n      dup1\n      iszero\n      tag_23\n      jumpi\n      0x00\n      dup1\n      revert\n    tag_23:\n      pop\n      tag_24\n      tag_25\n      jump\t// in\n    tag_24:\n      mload(0x40)\n      tag_26\n      swap2\n      swap1\n      tag_27\n      jump\t// in\n    tag_26:\n      mload(0x40)\n      dup1\n      swap2\n      sub\n      swap1\n      return\n        /* \"contracts/CrowdFunding.sol\":1874:2217  function close() external returns(bool) {... */\n    tag_5:\n      callvalue\n      dup1\n      iszero\n      tag_28\n      jumpi\n      0x00\n      dup1\n      revert\n    tag_28:\n      pop\n      tag_29\n      tag_30\n      jump\t// in\n    tag_29:\n      mload(0x40)\n      tag_31\n      swap2\n      swap1\n      tag_32\n      jump\t// in\n    tag_31:\n      mload(0x40)\n      dup1\n      swap2\n      sub\n      swap1\n      return\n        /* \"contracts/CrowdFunding.sol\":148:184  uint256 public immutable fundingGoal */\n    tag_6:\n      callvalue\n      dup1\n      iszero\n      tag_33\n      jumpi\n      0x00\n      dup1\n      revert\n    tag_33:\n      pop\n      tag_34\n      tag_35\n      jump\t// in\n    tag_34:\n      mload(0x40)\n      tag_36\n      swap2\n      swap1\n      tag_18\n      jump\t// in\n    tag_36:\n      mload(0x40)\n      dup1\n      swap2\n      sub\n      swap1\n      return\n        /* \"contracts/CrowdFunding.sol\":2251:2348  function fundersLenght() public view returns(uint256) {... */\n    tag_7:\n      callvalue\n      dup1\n      iszero\n      tag_37\n      jumpi\n      0x00\n      dup1\n      revert\n    tag_37:\n      pop\n      tag_38\n      tag_39\n      jump\t// in\n    tag_38:\n      mload(0x40)\n      tag_40\n      swap2\n      swap1\n      tag_18\n      jump\t// in\n    tag_40:\n      mload(0x40)\n      dup1\n      swap2\n      sub\n      swap1\n      return\n        /* \"contracts/CrowdFunding.sol\":420:447  address[] public fundersKey */\n    tag_8:\n      callvalue\n      dup1\n      iszero\n      tag_41\n      jumpi\n      0x00\n      dup1\n      revert\n    tag_41:\n      pop\n      tag_42\n      0x04\n      dup1\n      calldatasize\n      sub\n      dup2\n      add\n      swap1\n      tag_43\n      swap2\n      swap1\n      tag_44\n      jump\t// in\n    tag_43:\n      tag_45\n      jump\t// in\n    tag_42:\n      mload(0x40)\n      tag_46\n      swap2\n      swap1\n      tag_27\n      jump\t// in\n    tag_46:\n      mload(0x40)\n      dup1\n      swap2\n      sub\n      swap1\n      return\n        /* \"contracts/CrowdFunding.sol\":865:1845  function contribute() external payable {... */\n    tag_9:\n      tag_47\n      tag_48\n      jump\t// in\n    tag_47:\n      stop\n        /* \"contracts/CrowdFunding.sol\":476:505  bool public AVAILABLED = true */\n    tag_10:\n      callvalue\n      dup1\n      iszero\n      tag_49\n      jumpi\n      0x00\n      dup1\n      revert\n    tag_49:\n      pop\n      tag_50\n      tag_51\n      jump\t// in\n    tag_50:\n      mload(0x40)\n      tag_52\n      swap2\n      swap1\n      tag_32\n      jump\t// in\n    tag_52:\n      mload(0x40)\n      dup1\n      swap2\n      sub\n      swap1\n      return\n        /* \"contracts/CrowdFunding.sol\":282:324  mapping(address => uint256) public funders */\n    tag_16:\n      mstore(0x20, 0x01)\n      dup1\n      0x00\n      mstore\n      keccak256(0x00, 0x40)\n      0x00\n      swap2\n      pop\n      swap1\n      pop\n      sload\n      dup2\n      jump\t// out\n        /* \"contracts/CrowdFunding.sol\":209:237  uint256 public fundingAmount */\n    tag_21:\n      sload(0x00)\n      dup2\n      jump\t// out\n        /* \"contracts/CrowdFunding.sol\":90:126  address public immutable beneficiary */\n    tag_25:\n      immutable(\"0x2a80e1ef1d7842f27f2e6be0972bb708b9a135c38860dbe73c27c3486c34f4de\")\n      dup2\n      jump\t// out\n        /* \"contracts/CrowdFunding.sol\":1874:2217  function close() external returns(bool) {... */\n    tag_30:\n        /* \"contracts/CrowdFunding.sol\":1908:1912  bool */\n      0x00\n        /* \"contracts/CrowdFunding.sol\":1944:1955  fundingGoal */\n      immutable(\"0xceebf77a833b30520287ddd9478ff51abbdffa30aa90a8d655dba0e8a79ce0c1\")\n        /* \"contracts/CrowdFunding.sol\":1928:1941  fundingAmount */\n      sload(0x00)\n        /* \"contracts/CrowdFunding.sol\":1928:1955  fundingAmount < fundingGoal */\n      lt\n        /* \"contracts/CrowdFunding.sol\":1925:2018  if(fundingAmount < fundingGoal){//不符合关系条件... */\n      iszero\n      tag_54\n      jumpi\n        /* \"contracts/CrowdFunding.sol\":2001:2006  false */\n      0x00\n        /* \"contracts/CrowdFunding.sol\":1994:2006  return false */\n      swap1\n      pop\n      jump(tag_53)\n        /* \"contracts/CrowdFunding.sol\":1925:2018  if(fundingAmount < fundingGoal){//不符合关系条件... */\n    tag_54:\n        /* \"contracts/CrowdFunding.sol\":2036:2047  beneficiary */\n      immutable(\"0x2a80e1ef1d7842f27f2e6be0972bb708b9a135c38860dbe73c27c3486c34f4de\")\n        /* \"contracts/CrowdFunding.sol\":2028:2057  payable(beneficiary).transfer */\n      0xffffffffffffffffffffffffffffffffffffffff\n      and\n        /* \"contracts/CrowdFunding.sol\":2028:2072  payable(beneficiary).transfer(fundingAmount) */\n      0x08fc\n        /* \"contracts/CrowdFunding.sol\":2058:2071  fundingAmount */\n      sload(0x00)\n        /* \"contracts/CrowdFunding.sol\":2028:2072  payable(beneficiary).transfer(fundingAmount) */\n      swap1\n      dup2\n      iszero\n      mul\n      swap1\n      mload(0x40)\n      0x00\n      mload(0x40)\n      dup1\n      dup4\n      sub\n      dup2\n      dup6\n      dup9\n      dup9\n      call\n      swap4\n      pop\n      pop\n      pop\n      pop\n      iszero\n      dup1\n      iszero\n      tag_56\n      jumpi\n      returndatasize\n      0x00\n      dup1\n      returndatacopy\n      revert(0x00, returndatasize)\n    tag_56:\n      pop\n        /* \"contracts/CrowdFunding.sol\":2143:2144  0 */\n      0x00\n        /* \"contracts/CrowdFunding.sol\":2127:2140  fundingAmount */\n      dup1\n        /* \"contracts/CrowdFunding.sol\":2127:2144  fundingAmount = 0 */\n      dup2\n      swap1\n      sstore\n      pop\n        /* \"contracts/CrowdFunding.sol\":2168:2173  false */\n      0x00\n        /* \"contracts/CrowdFunding.sol\":2155:2165  AVAILABLED */\n      0x04\n      0x00\n        /* \"contracts/CrowdFunding.sol\":2155:2173  AVAILABLED = false */\n      0x0100\n      exp\n      dup2\n      sload\n      dup2\n      0xff\n      mul\n      not\n      and\n      swap1\n      dup4\n      iszero\n      iszero\n      mul\n      or\n      swap1\n      sstore\n      pop\n        /* \"contracts/CrowdFunding.sol\":2205:2209  true */\n      0x01\n        /* \"contracts/CrowdFunding.sol\":2198:2209  return true */\n      swap1\n      pop\n        /* \"contracts/CrowdFunding.sol\":1874:2217  function close() external returns(bool) {... */\n    tag_53:\n      swap1\n      jump\t// out\n        /* \"contracts/CrowdFunding.sol\":148:184  uint256 public immutable fundingGoal */\n    tag_35:\n      immutable(\"0xceebf77a833b30520287ddd9478ff51abbdffa30aa90a8d655dba0e8a79ce0c1\")\n      dup2\n      jump\t// out\n        /* \"contracts/CrowdFunding.sol\":2251:2348  function fundersLenght() public view returns(uint256) {... */\n    tag_39:\n        /* \"contracts/CrowdFunding.sol\":2296:2303  uint256 */\n      0x00\n        /* \"contracts/CrowdFunding.sol\":2323:2333  fundersKey */\n      0x03\n        /* \"contracts/CrowdFunding.sol\":2323:2340  fundersKey.length */\n      dup1\n      sload\n      swap1\n      pop\n        /* \"contracts/CrowdFunding.sol\":2316:2340  return fundersKey.length */\n      swap1\n      pop\n        /* \"contracts/CrowdFunding.sol\":2251:2348  function fundersLenght() public view returns(uint256) {... */\n      swap1\n      jump\t// out\n        /* \"contracts/CrowdFunding.sol\":420:447  address[] public fundersKey */\n    tag_45:\n      0x03\n      dup2\n      dup2\n      sload\n      dup2\n      lt\n      tag_58\n      jumpi\n      0x00\n      dup1\n      revert\n    tag_58:\n      swap1\n      0x00\n      mstore\n      keccak256(0x00, 0x20)\n      add\n      0x00\n      swap2\n      pop\n      sload\n      swap1\n      0x0100\n      exp\n      swap1\n      div\n      0xffffffffffffffffffffffffffffffffffffffff\n      and\n      dup2\n      jump\t// out\n        /* \"contracts/CrowdFunding.sol\":865:1845  function contribute() external payable {... */\n    tag_48:\n        /* \"contracts/CrowdFunding.sol\":923:933  AVAILABLED */\n      0x04\n      0x00\n      swap1\n      sload\n      swap1\n      0x0100\n      exp\n      swap1\n      div\n      0xff\n      and\n        /* \"contracts/CrowdFunding.sol\":915:960  require(AVAILABLED, \"CrowdFunding is closed\") */\n      tag_61\n      jumpi\n      mload(0x40)\n      0x08c379a000000000000000000000000000000000000000000000000000000000\n      dup2\n      mstore\n      0x04\n      add\n      tag_62\n      swap1\n      tag_63\n      jump\t// in\n    tag_62:\n      mload(0x40)\n      dup1\n      swap2\n      sub\n      swap1\n      revert\n    tag_61:\n        /* \"contracts/CrowdFunding.sol\":971:1001  uint256 potentialFundingAmount */\n      0x00\n        /* \"contracts/CrowdFunding.sol\":1020:1029  msg.value */\n      callvalue\n        /* \"contracts/CrowdFunding.sol\":1004:1017  fundingAmount */\n      sload(0x00)\n        /* \"contracts/CrowdFunding.sol\":1004:1029  fundingAmount + msg.value */\n      tag_64\n      swap2\n      swap1\n      tag_65\n      jump\t// in\n    tag_64:\n        /* \"contracts/CrowdFunding.sol\":971:1029  uint256 potentialFundingAmount = fundingAmount + msg.value */\n      swap1\n      pop\n        /* \"contracts/CrowdFunding.sol\":1040:1060  uint256 refundAmount */\n      0x00\n        /* \"contracts/CrowdFunding.sol\":1179:1190  fundingGoal */\n      immutable(\"0xceebf77a833b30520287ddd9478ff51abbdffa30aa90a8d655dba0e8a79ce0c1\")\n        /* \"contracts/CrowdFunding.sol\":1154:1176  potentialFundingAmount */\n      dup3\n        /* \"contracts/CrowdFunding.sol\":1154:1190  potentialFundingAmount > fundingGoal */\n      gt\n        /* \"contracts/CrowdFunding.sol\":1150:1498  if (potentialFundingAmount > fundingGoal) {... */\n      iszero\n      tag_66\n      jumpi\n        /* \"contracts/CrowdFunding.sol\":1247:1258  fundingGoal */\n      immutable(\"0xceebf77a833b30520287ddd9478ff51abbdffa30aa90a8d655dba0e8a79ce0c1\")\n        /* \"contracts/CrowdFunding.sol\":1222:1244  potentialFundingAmount */\n      dup3\n        /* \"contracts/CrowdFunding.sol\":1222:1258  potentialFundingAmount - fundingGoal */\n      tag_67\n      swap2\n      swap1\n      tag_68\n      jump\t// in\n    tag_67:\n        /* \"contracts/CrowdFunding.sol\":1207:1258  refundAmount = potentialFundingAmount - fundingGoal */\n      swap1\n      pop\n        /* \"contracts/CrowdFunding.sol\":1309:1321  refundAmount */\n      dup1\n        /* \"contracts/CrowdFunding.sol\":1297:1306  msg.value */\n      callvalue\n        /* \"contracts/CrowdFunding.sol\":1297:1321  msg.value - refundAmount */\n      tag_69\n      swap2\n      swap1\n      tag_68\n      jump\t// in\n    tag_69:\n        /* \"contracts/CrowdFunding.sol\":1273:1280  funders */\n      0x01\n        /* \"contracts/CrowdFunding.sol\":1273:1292  funders[msg.sender] */\n      0x00\n        /* \"contracts/CrowdFunding.sol\":1281:1291  msg.sender */\n      caller\n        /* \"contracts/CrowdFunding.sol\":1273:1292  funders[msg.sender] */\n      0xffffffffffffffffffffffffffffffffffffffff\n      and\n      0xffffffffffffffffffffffffffffffffffffffff\n      and\n      dup2\n      mstore\n      0x20\n      add\n      swap1\n      dup2\n      mstore\n      0x20\n      add\n      0x00\n      keccak256\n      0x00\n        /* \"contracts/CrowdFunding.sol\":1273:1322  funders[msg.sender] += (msg.value - refundAmount) */\n      dup3\n      dup3\n      sload\n      tag_70\n      swap2\n      swap1\n      tag_65\n      jump\t// in\n    tag_70:\n      swap3\n      pop\n      pop\n      dup2\n      swap1\n      sstore\n      pop\n        /* \"contracts/CrowdFunding.sol\":1367:1379  refundAmount */\n      dup1\n        /* \"contracts/CrowdFunding.sol\":1355:1364  msg.value */\n      callvalue\n        /* \"contracts/CrowdFunding.sol\":1355:1379  msg.value - refundAmount */\n      tag_71\n      swap2\n      swap1\n      tag_68\n      jump\t// in\n    tag_71:\n        /* \"contracts/CrowdFunding.sol\":1337:1350  fundingAmount */\n      0x00\n      dup1\n        /* \"contracts/CrowdFunding.sol\":1337:1380  fundingAmount += (msg.value - refundAmount) */\n      dup3\n      dup3\n      sload\n      tag_72\n      swap2\n      swap1\n      tag_65\n      jump\t// in\n    tag_72:\n      swap3\n      pop\n      pop\n      dup2\n      swap1\n      sstore\n      pop\n        /* \"contracts/CrowdFunding.sol\":1150:1498  if (potentialFundingAmount > fundingGoal) {... */\n      jump(tag_73)\n    tag_66:\n        /* \"contracts/CrowdFunding.sol\":1436:1445  msg.value */\n      callvalue\n        /* \"contracts/CrowdFunding.sol\":1413:1420  funders */\n      0x01\n        /* \"contracts/CrowdFunding.sol\":1413:1432  funders[msg.sender] */\n      0x00\n        /* \"contracts/CrowdFunding.sol\":1421:1431  msg.sender */\n      caller\n        /* \"contracts/CrowdFunding.sol\":1413:1432  funders[msg.sender] */\n      0xffffffffffffffffffffffffffffffffffffffff\n      and\n      0xffffffffffffffffffffffffffffffffffffffff\n      and\n      dup2\n      mstore\n      0x20\n      add\n      swap1\n      dup2\n      mstore\n      0x20\n      add\n      0x00\n      keccak256\n      0x00\n        /* \"contracts/CrowdFunding.sol\":1413:1445  funders[msg.sender] += msg.value */\n      dup3\n      dup3\n      sload\n      tag_74\n      swap2\n      swap1\n      tag_65\n      jump\t// in\n    tag_74:\n      swap3\n      pop\n      pop\n      dup2\n      swap1\n      sstore\n      pop\n        /* \"contracts/CrowdFunding.sol\":1477:1486  msg.value */\n      callvalue\n        /* \"contracts/CrowdFunding.sol\":1460:1473  fundingAmount */\n      0x00\n      dup1\n        /* \"contracts/CrowdFunding.sol\":1460:1486  fundingAmount += msg.value */\n      dup3\n      dup3\n      sload\n      tag_75\n      swap2\n      swap1\n      tag_65\n      jump\t// in\n    tag_75:\n      swap3\n      pop\n      pop\n      dup2\n      swap1\n      sstore\n      pop\n        /* \"contracts/CrowdFunding.sol\":1150:1498  if (potentialFundingAmount > fundingGoal) {... */\n    tag_73:\n        /* \"contracts/CrowdFunding.sol\":1547:1562  fundersInserted */\n      0x02\n        /* \"contracts/CrowdFunding.sol\":1547:1574  fundersInserted[msg.sender] */\n      0x00\n        /* \"contracts/CrowdFunding.sol\":1563:1573  msg.sender */\n      caller\n        /* \"contracts/CrowdFunding.sol\":1547:1574  fundersInserted[msg.sender] */\n      0xffffffffffffffffffffffffffffffffffffffff\n      and\n      0xffffffffffffffffffffffffffffffffffffffff\n      and\n      dup2\n      mstore\n      0x20\n      add\n      swap1\n      dup2\n      mstore\n      0x20\n      add\n      0x00\n      keccak256\n      0x00\n      swap1\n      sload\n      swap1\n      0x0100\n      exp\n      swap1\n      div\n      0xff\n      and\n        /* \"contracts/CrowdFunding.sol\":1542:1679  if (!fundersInserted[msg.sender]) {... */\n      tag_76\n      jumpi\n        /* \"contracts/CrowdFunding.sol\":1621:1625  true */\n      0x01\n        /* \"contracts/CrowdFunding.sol\":1591:1606  fundersInserted */\n      0x02\n        /* \"contracts/CrowdFunding.sol\":1591:1618  fundersInserted[msg.sender] */\n      0x00\n        /* \"contracts/CrowdFunding.sol\":1607:1617  msg.sender */\n      caller\n        /* \"contracts/CrowdFunding.sol\":1591:1618  fundersInserted[msg.sender] */\n      0xffffffffffffffffffffffffffffffffffffffff\n      and\n      0xffffffffffffffffffffffffffffffffffffffff\n      and\n      dup2\n      mstore\n      0x20\n      add\n      swap1\n      dup2\n      mstore\n      0x20\n      add\n      0x00\n      keccak256\n      0x00\n        /* \"contracts/CrowdFunding.sol\":1591:1625  fundersInserted[msg.sender] = true */\n      0x0100\n      exp\n      dup2\n      sload\n      dup2\n      0xff\n      mul\n      not\n      and\n      swap1\n      dup4\n      iszero\n      iszero\n      mul\n      or\n      swap1\n      sstore\n      pop\n        /* \"contracts/CrowdFunding.sol\":1640:1650  fundersKey */\n      0x03\n        /* \"contracts/CrowdFunding.sol\":1656:1666  msg.sender */\n      caller\n        /* \"contracts/CrowdFunding.sol\":1640:1667  fundersKey.push(msg.sender) */\n      swap1\n      dup1\n      0x01\n      dup2\n      sload\n      add\n      dup1\n      dup3\n      sstore\n      dup1\n      swap2\n      pop\n      pop\n      0x01\n      swap1\n      sub\n      swap1\n      0x00\n      mstore\n      keccak256(0x00, 0x20)\n      add\n      0x00\n      swap1\n      swap2\n      swap1\n      swap2\n      swap1\n      swap2\n      0x0100\n      exp\n      dup2\n      sload\n      dup2\n      0xffffffffffffffffffffffffffffffffffffffff\n      mul\n      not\n      and\n      swap1\n      dup4\n      0xffffffffffffffffffffffffffffffffffffffff\n      and\n      mul\n      or\n      swap1\n      sstore\n      pop\n        /* \"contracts/CrowdFunding.sol\":1542:1679  if (!fundersInserted[msg.sender]) {... */\n    tag_76:\n        /* \"contracts/CrowdFunding.sol\":1766:1767  0 */\n      0x00\n        /* \"contracts/CrowdFunding.sol\":1751:1763  refundAmount */\n      dup2\n        /* \"contracts/CrowdFunding.sol\":1751:1767  refundAmount > 0 */\n      gt\n        /* \"contracts/CrowdFunding.sol\":1747:1838  if (refundAmount > 0) {... */\n      iszero\n      tag_78\n      jumpi\n        /* \"contracts/CrowdFunding.sol\":1792:1802  msg.sender */\n      caller\n        /* \"contracts/CrowdFunding.sol\":1784:1812  payable(msg.sender).transfer */\n      0xffffffffffffffffffffffffffffffffffffffff\n      and\n        /* \"contracts/CrowdFunding.sol\":1784:1826  payable(msg.sender).transfer(refundAmount) */\n      0x08fc\n        /* \"contracts/CrowdFunding.sol\":1813:1825  refundAmount */\n      dup3\n        /* \"contracts/CrowdFunding.sol\":1784:1826  payable(msg.sender).transfer(refundAmount) */\n      swap1\n      dup2\n      iszero\n      mul\n      swap1\n      mload(0x40)\n      0x00\n      mload(0x40)\n      dup1\n      dup4\n      sub\n      dup2\n      dup6\n      dup9\n      dup9\n      call\n      swap4\n      pop\n      pop\n      pop\n      pop\n      iszero\n      dup1\n      iszero\n      tag_80\n      jumpi\n      returndatasize\n      0x00\n      dup1\n      returndatacopy\n      revert(0x00, returndatasize)\n    tag_80:\n      pop\n        /* \"contracts/CrowdFunding.sol\":1747:1838  if (refundAmount > 0) {... */\n    tag_78:\n        /* \"contracts/CrowdFunding.sol\":904:1845  {... */\n      pop\n      pop\n        /* \"contracts/CrowdFunding.sol\":865:1845  function contribute() external payable {... */\n      jump\t// out\n        /* \"contracts/CrowdFunding.sol\":476:505  bool public AVAILABLED = true */\n    tag_51:\n      0x04\n      0x00\n      swap1\n      sload\n      swap1\n      0x0100\n      exp\n      swap1\n      div\n      0xff\n      and\n      dup2\n      jump\t// out\n        /* \"#utility.yul\":88:205   */\n    tag_82:\n        /* \"#utility.yul\":197:198   */\n      0x00\n        /* \"#utility.yul\":194:195   */\n      dup1\n        /* \"#utility.yul\":187:199   */\n      revert\n        /* \"#utility.yul\":334:460   */\n    tag_84:\n        /* \"#utility.yul\":371:378   */\n      0x00\n        /* \"#utility.yul\":411:453   */\n      0xffffffffffffffffffffffffffffffffffffffff\n        /* \"#utility.yul\":404:409   */\n      dup3\n        /* \"#utility.yul\":400:454   */\n      and\n        /* \"#utility.yul\":389:454   */\n      swap1\n      pop\n        /* \"#utility.yul\":334:460   */\n      swap2\n      swap1\n      pop\n      jump\t// out\n        /* \"#utility.yul\":466:562   */\n    tag_85:\n        /* \"#utility.yul\":503:510   */\n      0x00\n        /* \"#utility.yul\":532:556   */\n      tag_105\n        /* \"#utility.yul\":550:555   */\n      dup3\n        /* \"#utility.yul\":532:556   */\n      tag_84\n      jump\t// in\n    tag_105:\n        /* \"#utility.yul\":521:556   */\n      swap1\n      pop\n        /* \"#utility.yul\":466:562   */\n      swap2\n      swap1\n      pop\n      jump\t// out\n        /* \"#utility.yul\":568:690   */\n    tag_86:\n        /* \"#utility.yul\":641:665   */\n      tag_107\n        /* \"#utility.yul\":659:664   */\n      dup2\n        /* \"#utility.yul\":641:665   */\n      tag_85\n      jump\t// in\n    tag_107:\n        /* \"#utility.yul\":634:639   */\n      dup2\n        /* \"#utility.yul\":631:666   */\n      eq\n        /* \"#utility.yul\":621:684   */\n      tag_108\n      jumpi\n        /* \"#utility.yul\":680:681   */\n      0x00\n        /* \"#utility.yul\":677:678   */\n      dup1\n        /* \"#utility.yul\":670:682   */\n      revert\n        /* \"#utility.yul\":621:684   */\n    tag_108:\n        /* \"#utility.yul\":568:690   */\n      pop\n      jump\t// out\n        /* \"#utility.yul\":696:835   */\n    tag_87:\n        /* \"#utility.yul\":742:747   */\n      0x00\n        /* \"#utility.yul\":780:786   */\n      dup2\n        /* \"#utility.yul\":767:787   */\n      calldataload\n        /* \"#utility.yul\":758:787   */\n      swap1\n      pop\n        /* \"#utility.yul\":796:829   */\n      tag_110\n        /* \"#utility.yul\":823:828   */\n      dup2\n        /* \"#utility.yul\":796:829   */\n      tag_86\n      jump\t// in\n    tag_110:\n        /* \"#utility.yul\":696:835   */\n      swap3\n      swap2\n      pop\n      pop\n      jump\t// out\n        /* \"#utility.yul\":841:1170   */\n    tag_15:\n        /* \"#utility.yul\":900:906   */\n      0x00\n        /* \"#utility.yul\":949:951   */\n      0x20\n        /* \"#utility.yul\":937:946   */\n      dup3\n        /* \"#utility.yul\":928:935   */\n      dup5\n        /* \"#utility.yul\":924:947   */\n      sub\n        /* \"#utility.yul\":920:952   */\n      slt\n        /* \"#utility.yul\":917:1036   */\n      iszero\n      tag_112\n      jumpi\n        /* \"#utility.yul\":955:1034   */\n      tag_113\n      tag_82\n      jump\t// in\n    tag_113:\n        /* \"#utility.yul\":917:1036   */\n    tag_112:\n        /* \"#utility.yul\":1075:1076   */\n      0x00\n        /* \"#utility.yul\":1100:1153   */\n      tag_114\n        /* \"#utility.yul\":1145:1152   */\n      dup5\n        /* \"#utility.yul\":1136:1142   */\n      dup3\n        /* \"#utility.yul\":1125:1134   */\n      dup6\n        /* \"#utility.yul\":1121:1143   */\n      add\n        /* \"#utility.yul\":1100:1153   */\n      tag_87\n      jump\t// in\n    tag_114:\n        /* \"#utility.yul\":1090:1153   */\n      swap2\n      pop\n        /* \"#utility.yul\":1046:1163   */\n      pop\n        /* \"#utility.yul\":841:1170   */\n      swap3\n      swap2\n      pop\n      pop\n      jump\t// out\n        /* \"#utility.yul\":1176:1253   */\n    tag_88:\n        /* \"#utility.yul\":1213:1220   */\n      0x00\n        /* \"#utility.yul\":1242:1247   */\n      dup2\n        /* \"#utility.yul\":1231:1247   */\n      swap1\n      pop\n        /* \"#utility.yul\":1176:1253   */\n      swap2\n      swap1\n      pop\n      jump\t// out\n        /* \"#utility.yul\":1259:1377   */\n    tag_89:\n        /* \"#utility.yul\":1346:1370   */\n      tag_117\n        /* \"#utility.yul\":1364:1369   */\n      dup2\n        /* \"#utility.yul\":1346:1370   */\n      tag_88\n      jump\t// in\n    tag_117:\n        /* \"#utility.yul\":1341:1344   */\n      dup3\n        /* \"#utility.yul\":1334:1371   */\n      mstore\n        /* \"#utility.yul\":1259:1377   */\n      pop\n      pop\n      jump\t// out\n        /* \"#utility.yul\":1383:1605   */\n    tag_18:\n        /* \"#utility.yul\":1476:1480   */\n      0x00\n        /* \"#utility.yul\":1514:1516   */\n      0x20\n        /* \"#utility.yul\":1503:1512   */\n      dup3\n        /* \"#utility.yul\":1499:1517   */\n      add\n        /* \"#utility.yul\":1491:1517   */\n      swap1\n      pop\n        /* \"#utility.yul\":1527:1598   */\n      tag_119\n        /* \"#utility.yul\":1595:1596   */\n      0x00\n        /* \"#utility.yul\":1584:1593   */\n      dup4\n        /* \"#utility.yul\":1580:1597   */\n      add\n        /* \"#utility.yul\":1571:1577   */\n      dup5\n        /* \"#utility.yul\":1527:1598   */\n      tag_89\n      jump\t// in\n    tag_119:\n        /* \"#utility.yul\":1383:1605   */\n      swap3\n      swap2\n      pop\n      pop\n      jump\t// out\n        /* \"#utility.yul\":1611:1729   */\n    tag_90:\n        /* \"#utility.yul\":1698:1722   */\n      tag_121\n        /* \"#utility.yul\":1716:1721   */\n      dup2\n        /* \"#utility.yul\":1698:1722   */\n      tag_85\n      jump\t// in\n    tag_121:\n        /* \"#utility.yul\":1693:1696   */\n      dup3\n        /* \"#utility.yul\":1686:1723   */\n      mstore\n        /* \"#utility.yul\":1611:1729   */\n      pop\n      pop\n      jump\t// out\n        /* \"#utility.yul\":1735:1957   */\n    tag_27:\n        /* \"#utility.yul\":1828:1832   */\n      0x00\n        /* \"#utility.yul\":1866:1868   */\n      0x20\n        /* \"#utility.yul\":1855:1864   */\n      dup3\n        /* \"#utility.yul\":1851:1869   */\n      add\n        /* \"#utility.yul\":1843:1869   */\n      swap1\n      pop\n        /* \"#utility.yul\":1879:1950   */\n      tag_123\n        /* \"#utility.yul\":1947:1948   */\n      0x00\n        /* \"#utility.yul\":1936:1945   */\n      dup4\n        /* \"#utility.yul\":1932:1949   */\n      add\n        /* \"#utility.yul\":1923:1929   */\n      dup5\n        /* \"#utility.yul\":1879:1950   */\n      tag_90\n      jump\t// in\n    tag_123:\n        /* \"#utility.yul\":1735:1957   */\n      swap3\n      swap2\n      pop\n      pop\n      jump\t// out\n        /* \"#utility.yul\":1963:2053   */\n    tag_91:\n        /* \"#utility.yul\":1997:2004   */\n      0x00\n        /* \"#utility.yul\":2040:2045   */\n      dup2\n        /* \"#utility.yul\":2033:2046   */\n      iszero\n        /* \"#utility.yul\":2026:2047   */\n      iszero\n        /* \"#utility.yul\":2015:2047   */\n      swap1\n      pop\n        /* \"#utility.yul\":1963:2053   */\n      swap2\n      swap1\n      pop\n      jump\t// out\n        /* \"#utility.yul\":2059:2168   */\n    tag_92:\n        /* \"#utility.yul\":2140:2161   */\n      tag_126\n        /* \"#utility.yul\":2155:2160   */\n      dup2\n        /* \"#utility.yul\":2140:2161   */\n      tag_91\n      jump\t// in\n    tag_126:\n        /* \"#utility.yul\":2135:2138   */\n      dup3\n        /* \"#utility.yul\":2128:2162   */\n      mstore\n        /* \"#utility.yul\":2059:2168   */\n      pop\n      pop\n      jump\t// out\n        /* \"#utility.yul\":2174:2384   */\n    tag_32:\n        /* \"#utility.yul\":2261:2265   */\n      0x00\n        /* \"#utility.yul\":2299:2301   */\n      0x20\n        /* \"#utility.yul\":2288:2297   */\n      dup3\n        /* \"#utility.yul\":2284:2302   */\n      add\n        /* \"#utility.yul\":2276:2302   */\n      swap1\n      pop\n        /* \"#utility.yul\":2312:2377   */\n      tag_128\n        /* \"#utility.yul\":2374:2375   */\n      0x00\n        /* \"#utility.yul\":2363:2372   */\n      dup4\n        /* \"#utility.yul\":2359:2376   */\n      add\n        /* \"#utility.yul\":2350:2356   */\n      dup5\n        /* \"#utility.yul\":2312:2377   */\n      tag_92\n      jump\t// in\n    tag_128:\n        /* \"#utility.yul\":2174:2384   */\n      swap3\n      swap2\n      pop\n      pop\n      jump\t// out\n        /* \"#utility.yul\":2390:2512   */\n    tag_93:\n        /* \"#utility.yul\":2463:2487   */\n      tag_130\n        /* \"#utility.yul\":2481:2486   */\n      dup2\n        /* \"#utility.yul\":2463:2487   */\n      tag_88\n      jump\t// in\n    tag_130:\n        /* \"#utility.yul\":2456:2461   */\n      dup2\n        /* \"#utility.yul\":2453:2488   */\n      eq\n        /* \"#utility.yul\":2443:2506   */\n      tag_131\n      jumpi\n        /* \"#utility.yul\":2502:2503   */\n      0x00\n        /* \"#utility.yul\":2499:2500   */\n      dup1\n        /* \"#utility.yul\":2492:2504   */\n      revert\n        /* \"#utility.yul\":2443:2506   */\n    tag_131:\n        /* \"#utility.yul\":2390:2512   */\n      pop\n      jump\t// out\n        /* \"#utility.yul\":2518:2657   */\n    tag_94:\n        /* \"#utility.yul\":2564:2569   */\n      0x00\n        /* \"#utility.yul\":2602:2608   */\n      dup2\n        /* \"#utility.yul\":2589:2609   */\n      calldataload\n        /* \"#utility.yul\":2580:2609   */\n      swap1\n      pop\n        /* \"#utility.yul\":2618:2651   */\n      tag_133\n        /* \"#utility.yul\":2645:2650   */\n      dup2\n        /* \"#utility.yul\":2618:2651   */\n      tag_93\n      jump\t// in\n    tag_133:\n        /* \"#utility.yul\":2518:2657   */\n      swap3\n      swap2\n      pop\n      pop\n      jump\t// out\n        /* \"#utility.yul\":2663:2992   */\n    tag_44:\n        /* \"#utility.yul\":2722:2728   */\n      0x00\n        /* \"#utility.yul\":2771:2773   */\n      0x20\n        /* \"#utility.yul\":2759:2768   */\n      dup3\n        /* \"#utility.yul\":2750:2757   */\n      dup5\n        /* \"#utility.yul\":2746:2769   */\n      sub\n        /* \"#utility.yul\":2742:2774   */\n      slt\n        /* \"#utility.yul\":2739:2858   */\n      iszero\n      tag_135\n      jumpi\n        /* \"#utility.yul\":2777:2856   */\n      tag_136\n      tag_82\n      jump\t// in\n    tag_136:\n        /* \"#utility.yul\":2739:2858   */\n    tag_135:\n        /* \"#utility.yul\":2897:2898   */\n      0x00\n        /* \"#utility.yul\":2922:2975   */\n      tag_137\n        /* \"#utility.yul\":2967:2974   */\n      dup5\n        /* \"#utility.yul\":2958:2964   */\n      dup3\n        /* \"#utility.yul\":2947:2956   */\n      dup6\n        /* \"#utility.yul\":2943:2965   */\n      add\n        /* \"#utility.yul\":2922:2975   */\n      tag_94\n      jump\t// in\n    tag_137:\n        /* \"#utility.yul\":2912:2975   */\n      swap2\n      pop\n        /* \"#utility.yul\":2868:2985   */\n      pop\n        /* \"#utility.yul\":2663:2992   */\n      swap3\n      swap2\n      pop\n      pop\n      jump\t// out\n        /* \"#utility.yul\":2998:3167   */\n    tag_95:\n        /* \"#utility.yul\":3082:3093   */\n      0x00\n        /* \"#utility.yul\":3116:3122   */\n      dup3\n        /* \"#utility.yul\":3111:3114   */\n      dup3\n        /* \"#utility.yul\":3104:3123   */\n      mstore\n        /* \"#utility.yul\":3156:3160   */\n      0x20\n        /* \"#utility.yul\":3151:3154   */\n      dup3\n        /* \"#utility.yul\":3147:3161   */\n      add\n        /* \"#utility.yul\":3132:3161   */\n      swap1\n      pop\n        /* \"#utility.yul\":2998:3167   */\n      swap3\n      swap2\n      pop\n      pop\n      jump\t// out\n        /* \"#utility.yul\":3173:3345   */\n    tag_96:\n        /* \"#utility.yul\":3313:3337   */\n      0x43726f776446756e64696e6720697320636c6f73656400000000000000000000\n        /* \"#utility.yul\":3309:3310   */\n      0x00\n        /* \"#utility.yul\":3301:3307   */\n      dup3\n        /* \"#utility.yul\":3297:3311   */\n      add\n        /* \"#utility.yul\":3290:3338   */\n      mstore\n        /* \"#utility.yul\":3173:3345   */\n      pop\n      jump\t// out\n        /* \"#utility.yul\":3351:3717   */\n    tag_97:\n        /* \"#utility.yul\":3493:3496   */\n      0x00\n        /* \"#utility.yul\":3514:3581   */\n      tag_141\n        /* \"#utility.yul\":3578:3580   */\n      0x16\n        /* \"#utility.yul\":3573:3576   */\n      dup4\n        /* \"#utility.yul\":3514:3581   */\n      tag_95\n      jump\t// in\n    tag_141:\n        /* \"#utility.yul\":3507:3581   */\n      swap2\n      pop\n        /* \"#utility.yul\":3590:3683   */\n      tag_142\n        /* \"#utility.yul\":3679:3682   */\n      dup3\n        /* \"#utility.yul\":3590:3683   */\n      tag_96\n      jump\t// in\n    tag_142:\n        /* \"#utility.yul\":3708:3710   */\n      0x20\n        /* \"#utility.yul\":3703:3706   */\n      dup3\n        /* \"#utility.yul\":3699:3711   */\n      add\n        /* \"#utility.yul\":3692:3711   */\n      swap1\n      pop\n        /* \"#utility.yul\":3351:3717   */\n      swap2\n      swap1\n      pop\n      jump\t// out\n        /* \"#utility.yul\":3723:4142   */\n    tag_63:\n        /* \"#utility.yul\":3889:3893   */\n      0x00\n        /* \"#utility.yul\":3927:3929   */\n      0x20\n        /* \"#utility.yul\":3916:3925   */\n      dup3\n        /* \"#utility.yul\":3912:3930   */\n      add\n        /* \"#utility.yul\":3904:3930   */\n      swap1\n      pop\n        /* \"#utility.yul\":3976:3985   */\n      dup2\n        /* \"#utility.yul\":3970:3974   */\n      dup2\n        /* \"#utility.yul\":3966:3986   */\n      sub\n        /* \"#utility.yul\":3962:3963   */\n      0x00\n        /* \"#utility.yul\":3951:3960   */\n      dup4\n        /* \"#utility.yul\":3947:3964   */\n      add\n        /* \"#utility.yul\":3940:3987   */\n      mstore\n        /* \"#utility.yul\":4004:4135   */\n      tag_144\n        /* \"#utility.yul\":4130:4134   */\n      dup2\n        /* \"#utility.yul\":4004:4135   */\n      tag_97\n      jump\t// in\n    tag_144:\n        /* \"#utility.yul\":3996:4135   */\n      swap1\n      pop\n        /* \"#utility.yul\":3723:4142   */\n      swap2\n      swap1\n      pop\n      jump\t// out\n        /* \"#utility.yul\":4148:4328   */\n    tag_98:\n        /* \"#utility.yul\":4196:4273   */\n      0x4e487b7100000000000000000000000000000000000000000000000000000000\n        /* \"#utility.yul\":4193:4194   */\n      0x00\n        /* \"#utility.yul\":4186:4274   */\n      mstore\n        /* \"#utility.yul\":4293:4297   */\n      0x11\n        /* \"#utility.yul\":4290:4291   */\n      0x04\n        /* \"#utility.yul\":4283:4298   */\n      mstore\n        /* \"#utility.yul\":4317:4321   */\n      0x24\n        /* \"#utility.yul\":4314:4315   */\n      0x00\n        /* \"#utility.yul\":4307:4322   */\n      revert\n        /* \"#utility.yul\":4334:4525   */\n    tag_65:\n        /* \"#utility.yul\":4374:4377   */\n      0x00\n        /* \"#utility.yul\":4393:4413   */\n      tag_147\n        /* \"#utility.yul\":4411:4412   */\n      dup3\n        /* \"#utility.yul\":4393:4413   */\n      tag_88\n      jump\t// in\n    tag_147:\n        /* \"#utility.yul\":4388:4413   */\n      swap2\n      pop\n        /* \"#utility.yul\":4427:4447   */\n      tag_148\n        /* \"#utility.yul\":4445:4446   */\n      dup4\n        /* \"#utility.yul\":4427:4447   */\n      tag_88\n      jump\t// in\n    tag_148:\n        /* \"#utility.yul\":4422:4447   */\n      swap3\n      pop\n        /* \"#utility.yul\":4470:4471   */\n      dup3\n        /* \"#utility.yul\":4467:4468   */\n      dup3\n        /* \"#utility.yul\":4463:4472   */\n      add\n        /* \"#utility.yul\":4456:4472   */\n      swap1\n      pop\n        /* \"#utility.yul\":4491:4494   */\n      dup1\n        /* \"#utility.yul\":4488:4489   */\n      dup3\n        /* \"#utility.yul\":4485:4495   */\n      gt\n        /* \"#utility.yul\":4482:4518   */\n      iszero\n      tag_149\n      jumpi\n        /* \"#utility.yul\":4498:4516   */\n      tag_150\n      tag_98\n      jump\t// in\n    tag_150:\n        /* \"#utility.yul\":4482:4518   */\n    tag_149:\n        /* \"#utility.yul\":4334:4525   */\n      swap3\n      swap2\n      pop\n      pop\n      jump\t// out\n        /* \"#utility.yul\":4531:4725   */\n    tag_68:\n        /* \"#utility.yul\":4571:4575   */\n      0x00\n        /* \"#utility.yul\":4591:4611   */\n      tag_152\n        /* \"#utility.yul\":4609:4610   */\n      dup3\n        /* \"#utility.yul\":4591:4611   */\n      tag_88\n      jump\t// in\n    tag_152:\n        /* \"#utility.yul\":4586:4611   */\n      swap2\n      pop\n        /* \"#utility.yul\":4625:4645   */\n      tag_153\n        /* \"#utility.yul\":4643:4644   */\n      dup4\n        /* \"#utility.yul\":4625:4645   */\n      tag_88\n      jump\t// in\n    tag_153:\n        /* \"#utility.yul\":4620:4645   */\n      swap3\n      pop\n        /* \"#utility.yul\":4669:4670   */\n      dup3\n        /* \"#utility.yul\":4666:4667   */\n      dup3\n        /* \"#utility.yul\":4662:4671   */\n      sub\n        /* \"#utility.yul\":4654:4671   */\n      swap1\n      pop\n        /* \"#utility.yul\":4693:4694   */\n      dup2\n        /* \"#utility.yul\":4687:4691   */\n      dup2\n        /* \"#utility.yul\":4684:4695   */\n      gt\n        /* \"#utility.yul\":4681:4718   */\n      iszero\n      tag_154\n      jumpi\n        /* \"#utility.yul\":4698:4716   */\n      tag_155\n      tag_98\n      jump\t// in\n    tag_155:\n        /* \"#utility.yul\":4681:4718   */\n    tag_154:\n        /* \"#utility.yul\":4531:4725   */\n      swap3\n      swap2\n      pop\n      pop\n      jump\t// out\n\n    auxdata: 0xa2646970667358221220cbd719c1ab31e1c36dabed450343eeb4b6f7bb5af7bfc570475b9f70fa354ed264736f6c634300081a0033\n}\n",
				"bytecode": {
					"linkReferences": {},
					"object": "60c0604052600160045f6101000a81548160ff021916908315150217905550348015610029575f80fd5b50604051610abf380380610abf833981810160405281019061004b919061011f565b8173ffffffffffffffffffffffffffffffffffffffff1660808173ffffffffffffffffffffffffffffffffffffffff16815250508060a08181525050505061015d565b5f80fd5b5f73ffffffffffffffffffffffffffffffffffffffff82169050919050565b5f6100bb82610092565b9050919050565b6100cb816100b1565b81146100d5575f80fd5b50565b5f815190506100e6816100c2565b92915050565b5f819050919050565b6100fe816100ec565b8114610108575f80fd5b50565b5f81519050610119816100f5565b92915050565b5f80604083850312156101355761013461008e565b5b5f610142858286016100d8565b92505060206101538582860161010b565b9150509250929050565b60805160a05161092561019a5f395f818161024801528181610305015281816103cf01526103f701525f8181610223015261027901526109255ff3fe608060405260043610610085575f3560e01c80637a3a0e84116100585780637a3a0e84146101435780638625749f1461016d578063d7ac167714610197578063d7bb99ba146101d3578063f781fbcc146101dd57610085565b8063031b36771461008957806304a79c97146100c557806338af3eed146100ef57806343d726d614610119575b5f80fd5b348015610094575f80fd5b506100af60048036038101906100aa91906106d8565b610207565b6040516100bc919061071b565b60405180910390f35b3480156100d0575f80fd5b506100d961021c565b6040516100e6919061071b565b60405180910390f35b3480156100fa575f80fd5b50610103610221565b6040516101109190610743565b60405180910390f35b348015610124575f80fd5b5061012d610245565b60405161013a9190610776565b60405180910390f35b34801561014e575f80fd5b50610157610303565b604051610164919061071b565b60405180910390f35b348015610178575f80fd5b50610181610327565b60405161018e919061071b565b60405180910390f35b3480156101a2575f80fd5b506101bd60048036038101906101b891906107b9565b610333565b6040516101ca9190610743565b60405180910390f35b6101db61036e565b005b3480156101e8575f80fd5b506101f1610668565b6040516101fe9190610776565b60405180910390f35b6001602052805f5260405f205f915090505481565b5f5481565b7f000000000000000000000000000000000000000000000000000000000000000081565b5f7f00000000000000000000000000000000000000000000000000000000000000005f541015610277575f9050610300565b7f000000000000000000000000000000000000000000000000000000000000000073ffffffffffffffffffffffffffffffffffffffff166108fc5f5490811502906040515f60405180830381858888f193505050501580156102db573d5f803e3d5ffd5b505f80819055505f60045f6101000a81548160ff021916908315150217905550600190505b90565b7f000000000000000000000000000000000000000000000000000000000000000081565b5f600380549050905090565b60038181548110610342575f80fd5b905f5260205f20015f915054906101000a900473ffffffffffffffffffffffffffffffffffffffff1681565b60045f9054906101000a900460ff166103bc576040517f08c379a00000000000000000000000000000000000000000000000000000000081526004016103b39061083e565b60405180910390fd5b5f345f546103ca9190610889565b90505f7f00000000000000000000000000000000000000000000000000000000000000008211156104a8577f00000000000000000000000000000000000000000000000000000000000000008261042191906108bc565b9050803461042f91906108bc565b60015f3373ffffffffffffffffffffffffffffffffffffffff1673ffffffffffffffffffffffffffffffffffffffff1681526020019081526020015f205f82825461047a9190610889565b92505081905550803461048d91906108bc565b5f8082825461049c9190610889565b92505081905550610513565b3460015f3373ffffffffffffffffffffffffffffffffffffffff1673ffffffffffffffffffffffffffffffffffffffff1681526020019081526020015f205f8282546104f49190610889565b92505081905550345f8082825461050b9190610889565b925050819055505b60025f3373ffffffffffffffffffffffffffffffffffffffff1673ffffffffffffffffffffffffffffffffffffffff1681526020019081526020015f205f9054906101000a900460ff1661061757600160025f3373ffffffffffffffffffffffffffffffffffffffff1673ffffffffffffffffffffffffffffffffffffffff1681526020019081526020015f205f6101000a81548160ff021916908315150217905550600333908060018154018082558091505060019003905f5260205f20015f9091909190916101000a81548173ffffffffffffffffffffffffffffffffffffffff021916908373ffffffffffffffffffffffffffffffffffffffff1602179055505b5f811115610664573373ffffffffffffffffffffffffffffffffffffffff166108fc8290811502906040515f60405180830381858888f19350505050158015610662573d5f803e3d5ffd5b505b5050565b60045f9054906101000a900460ff1681565b5f80fd5b5f73ffffffffffffffffffffffffffffffffffffffff82169050919050565b5f6106a78261067e565b9050919050565b6106b78161069d565b81146106c1575f80fd5b50565b5f813590506106d2816106ae565b92915050565b5f602082840312156106ed576106ec61067a565b5b5f6106fa848285016106c4565b91505092915050565b5f819050919050565b61071581610703565b82525050565b5f60208201905061072e5f83018461070c565b92915050565b61073d8161069d565b82525050565b5f6020820190506107565f830184610734565b92915050565b5f8115159050919050565b6107708161075c565b82525050565b5f6020820190506107895f830184610767565b92915050565b61079881610703565b81146107a2575f80fd5b50565b5f813590506107b38161078f565b92915050565b5f602082840312156107ce576107cd61067a565b5b5f6107db848285016107a5565b91505092915050565b5f82825260208201905092915050565b7f43726f776446756e64696e6720697320636c6f736564000000000000000000005f82015250565b5f6108286016836107e4565b9150610833826107f4565b602082019050919050565b5f6020820190508181035f8301526108558161081c565b9050919050565b7f4e487b71000000000000000000000000000000000000000000000000000000005f52601160045260245ffd5b5f61089382610703565b915061089e83610703565b92508282019050808211156108b6576108b561085c565b5b92915050565b5f6108c682610703565b91506108d183610703565b92508282039050818111156108e9576108e861085c565b5b9291505056fea2646970667358221220cbd719c1ab31e1c36dabed450343eeb4b6f7bb5af7bfc570475b9f70fa354ed264736f6c634300081a0033",
					"opcodes": "PUSH1 0xC0 PUSH1 0x40 MSTORE PUSH1 0x1 PUSH1 0x4 PUSH0 PUSH2 0x100 EXP DUP2 SLOAD DUP2 PUSH1 0xFF MUL NOT AND SWAP1 DUP4 ISZERO ISZERO MUL OR SWAP1 SSTORE POP CALLVALUE DUP1 ISZERO PUSH2 0x29 JUMPI PUSH0 DUP1 REVERT JUMPDEST POP PUSH1 0x40 MLOAD PUSH2 0xABF CODESIZE SUB DUP1 PUSH2 0xABF DUP4 CODECOPY DUP2 DUP2 ADD PUSH1 0x40 MSTORE DUP2 ADD SWAP1 PUSH2 0x4B SWAP2 SWAP1 PUSH2 0x11F JUMP JUMPDEST DUP2 PUSH20 0xFFFFFFFFFFFFFFFFFFFFFFFFFFFFFFFFFFFFFFFF AND PUSH1 0x80 DUP2 PUSH20 0xFFFFFFFFFFFFFFFFFFFFFFFFFFFFFFFFFFFFFFFF AND DUP2 MSTORE POP POP DUP1 PUSH1 0xA0 DUP2 DUP2 MSTORE POP POP POP POP PUSH2 0x15D JUMP JUMPDEST PUSH0 DUP1 REVERT JUMPDEST PUSH0 PUSH20 0xFFFFFFFFFFFFFFFFFFFFFFFFFFFFFFFFFFFFFFFF DUP3 AND SWAP1 POP SWAP2 SWAP1 POP JUMP JUMPDEST PUSH0 PUSH2 0xBB DUP3 PUSH2 0x92 JUMP JUMPDEST SWAP1 POP SWAP2 SWAP1 POP JUMP JUMPDEST PUSH2 0xCB DUP2 PUSH2 0xB1 JUMP JUMPDEST DUP2 EQ PUSH2 0xD5 JUMPI PUSH0 DUP1 REVERT JUMPDEST POP JUMP JUMPDEST PUSH0 DUP2 MLOAD SWAP1 POP PUSH2 0xE6 DUP2 PUSH2 0xC2 JUMP JUMPDEST SWAP3 SWAP2 POP POP JUMP JUMPDEST PUSH0 DUP2 SWAP1 POP SWAP2 SWAP1 POP JUMP JUMPDEST PUSH2 0xFE DUP2 PUSH2 0xEC JUMP JUMPDEST DUP2 EQ PUSH2 0x108 JUMPI PUSH0 DUP1 REVERT JUMPDEST POP JUMP JUMPDEST PUSH0 DUP2 MLOAD SWAP1 POP PUSH2 0x119 DUP2 PUSH2 0xF5 JUMP JUMPDEST SWAP3 SWAP2 POP POP JUMP JUMPDEST PUSH0 DUP1 PUSH1 0x40 DUP4 DUP6 SUB SLT ISZERO PUSH2 0x135 JUMPI PUSH2 0x134 PUSH2 0x8E JUMP JUMPDEST JUMPDEST PUSH0 PUSH2 0x142 DUP6 DUP3 DUP7 ADD PUSH2 0xD8 JUMP JUMPDEST SWAP3 POP POP PUSH1 0x20 PUSH2 0x153 DUP6 DUP3 DUP7 ADD PUSH2 0x10B JUMP JUMPDEST SWAP2 POP POP SWAP3 POP SWAP3 SWAP1 POP JUMP JUMPDEST PUSH1 0x80 MLOAD PUSH1 0xA0 MLOAD PUSH2 0x925 PUSH2 0x19A PUSH0 CODECOPY PUSH0 DUP2 DUP2 PUSH2 0x248 ADD MSTORE DUP2 DUP2 PUSH2 0x305 ADD MSTORE DUP2 DUP2 PUSH2 0x3CF ADD MSTORE PUSH2 0x3F7 ADD MSTORE PUSH0 DUP2 DUP2 PUSH2 0x223 ADD MSTORE PUSH2 0x279 ADD MSTORE PUSH2 0x925 PUSH0 RETURN INVALID PUSH1 0x80 PUSH1 0x40 MSTORE PUSH1 0x4 CALLDATASIZE LT PUSH2 0x85 JUMPI PUSH0 CALLDATALOAD PUSH1 0xE0 SHR DUP1 PUSH4 0x7A3A0E84 GT PUSH2 0x58 JUMPI DUP1 PUSH4 0x7A3A0E84 EQ PUSH2 0x143 JUMPI DUP1 PUSH4 0x8625749F EQ PUSH2 0x16D JUMPI DUP1 PUSH4 0xD7AC1677 EQ PUSH2 0x197 JUMPI DUP1 PUSH4 0xD7BB99BA EQ PUSH2 0x1D3 JUMPI DUP1 PUSH4 0xF781FBCC EQ PUSH2 0x1DD JUMPI PUSH2 0x85 JUMP JUMPDEST DUP1 PUSH4 0x31B3677 EQ PUSH2 0x89 JUMPI DUP1 PUSH4 0x4A79C97 EQ PUSH2 0xC5 JUMPI DUP1 PUSH4 0x38AF3EED EQ PUSH2 0xEF JUMPI DUP1 PUSH4 0x43D726D6 EQ PUSH2 0x119 JUMPI JUMPDEST PUSH0 DUP1 REVERT JUMPDEST CALLVALUE DUP1 ISZERO PUSH2 0x94 JUMPI PUSH0 DUP1 REVERT JUMPDEST POP PUSH2 0xAF PUSH1 0x4 DUP1 CALLDATASIZE SUB DUP2 ADD SWAP1 PUSH2 0xAA SWAP2 SWAP1 PUSH2 0x6D8 JUMP JUMPDEST PUSH2 0x207 JUMP JUMPDEST PUSH1 0x40 MLOAD PUSH2 0xBC SWAP2 SWAP1 PUSH2 0x71B JUMP JUMPDEST PUSH1 0x40 MLOAD DUP1 SWAP2 SUB SWAP1 RETURN JUMPDEST CALLVALUE DUP1 ISZERO PUSH2 0xD0 JUMPI PUSH0 DUP1 REVERT JUMPDEST POP PUSH2 0xD9 PUSH2 0x21C JUMP JUMPDEST PUSH1 0x40 MLOAD PUSH2 0xE6 SWAP2 SWAP1 PUSH2 0x71B JUMP JUMPDEST PUSH1 0x40 MLOAD DUP1 SWAP2 SUB SWAP1 RETURN JUMPDEST CALLVALUE DUP1 ISZERO PUSH2 0xFA JUMPI PUSH0 DUP1 REVERT JUMPDEST POP PUSH2 0x103 PUSH2 0x221 JUMP JUMPDEST PUSH1 0x40 MLOAD PUSH2 0x110 SWAP2 SWAP1 PUSH2 0x743 JUMP JUMPDEST PUSH1 0x40 MLOAD DUP1 SWAP2 SUB SWAP1 RETURN JUMPDEST CALLVALUE DUP1 ISZERO PUSH2 0x124 JUMPI PUSH0 DUP1 REVERT JUMPDEST POP PUSH2 0x12D PUSH2 0x245 JUMP JUMPDEST PUSH1 0x40 MLOAD PUSH2 0x13A SWAP2 SWAP1 PUSH2 0x776 JUMP JUMPDEST PUSH1 0x40 MLOAD DUP1 SWAP2 SUB SWAP1 RETURN JUMPDEST CALLVALUE DUP1 ISZERO PUSH2 0x14E JUMPI PUSH0 DUP1 REVERT JUMPDEST POP PUSH2 0x157 PUSH2 0x303 JUMP JUMPDEST PUSH1 0x40 MLOAD PUSH2 0x164 SWAP2 SWAP1 PUSH2 0x71B JUMP JUMPDEST PUSH1 0x40 MLOAD DUP1 SWAP2 SUB SWAP1 RETURN JUMPDEST CALLVALUE DUP1 ISZERO PUSH2 0x178 JUMPI PUSH0 DUP1 REVERT JUMPDEST POP PUSH2 0x181 PUSH2 0x327 JUMP JUMPDEST PUSH1 0x40 MLOAD PUSH2 0x18E SWAP2 SWAP1 PUSH2 0x71B JUMP JUMPDEST PUSH1 0x40 MLOAD DUP1 SWAP2 SUB SWAP1 RETURN JUMPDEST CALLVALUE DUP1 ISZERO PUSH2 0x1A2 JUMPI PUSH0 DUP1 REVERT JUMPDEST POP PUSH2 0x1BD PUSH1 0x4 DUP1 CALLDATASIZE SUB DUP2 ADD SWAP1 PUSH2 0x1B8 SWAP2 SWAP1 PUSH2 0x7B9 JUMP JUMPDEST PUSH2 0x333 JUMP JUMPDEST PUSH1 0x40 MLOAD PUSH2 0x1CA SWAP2 SWAP1 PUSH2 0x743 JUMP JUMPDEST PUSH1 0x40 MLOAD DUP1 SWAP2 SUB SWAP1 RETURN JUMPDEST PUSH2 0x1DB PUSH2 0x36E JUMP JUMPDEST STOP JUMPDEST CALLVALUE DUP1 ISZERO PUSH2 0x1E8 JUMPI PUSH0 DUP1 REVERT JUMPDEST POP PUSH2 0x1F1 PUSH2 0x668 JUMP JUMPDEST PUSH1 0x40 MLOAD PUSH2 0x1FE SWAP2 SWAP1 PUSH2 0x776 JUMP JUMPDEST PUSH1 0x40 MLOAD DUP1 SWAP2 SUB SWAP1 RETURN JUMPDEST PUSH1 0x1 PUSH1 0x20 MSTORE DUP1 PUSH0 MSTORE PUSH1 0x40 PUSH0 KECCAK256 PUSH0 SWAP2 POP SWAP1 POP SLOAD DUP2 JUMP JUMPDEST PUSH0 SLOAD DUP2 JUMP JUMPDEST PUSH32 0x0 DUP2 JUMP JUMPDEST PUSH0 PUSH32 0x0 PUSH0 SLOAD LT ISZERO PUSH2 0x277 JUMPI PUSH0 SWAP1 POP PUSH2 0x300 JUMP JUMPDEST PUSH32 0x0 PUSH20 0xFFFFFFFFFFFFFFFFFFFFFFFFFFFFFFFFFFFFFFFF AND PUSH2 0x8FC PUSH0 SLOAD SWAP1 DUP2 ISZERO MUL SWAP1 PUSH1 0x40 MLOAD PUSH0 PUSH1 0x40 MLOAD DUP1 DUP4 SUB DUP2 DUP6 DUP9 DUP9 CALL SWAP4 POP POP POP POP ISZERO DUP1 ISZERO PUSH2 0x2DB JUMPI RETURNDATASIZE PUSH0 DUP1 RETURNDATACOPY RETURNDATASIZE PUSH0 REVERT JUMPDEST POP PUSH0 DUP1 DUP2 SWAP1 SSTORE POP PUSH0 PUSH1 0x4 PUSH0 PUSH2 0x100 EXP DUP2 SLOAD DUP2 PUSH1 0xFF MUL NOT AND SWAP1 DUP4 ISZERO ISZERO MUL OR SWAP1 SSTORE POP PUSH1 0x1 SWAP1 POP JUMPDEST SWAP1 JUMP JUMPDEST PUSH32 0x0 DUP2 JUMP JUMPDEST PUSH0 PUSH1 0x3 DUP1 SLOAD SWAP1 POP SWAP1 POP SWAP1 JUMP JUMPDEST PUSH1 0x3 DUP2 DUP2 SLOAD DUP2 LT PUSH2 0x342 JUMPI PUSH0 DUP1 REVERT JUMPDEST SWAP1 PUSH0 MSTORE PUSH1 0x20 PUSH0 KECCAK256 ADD PUSH0 SWAP2 POP SLOAD SWAP1 PUSH2 0x100 EXP SWAP1 DIV PUSH20 0xFFFFFFFFFFFFFFFFFFFFFFFFFFFFFFFFFFFFFFFF AND DUP2 JUMP JUMPDEST PUSH1 0x4 PUSH0 SWAP1 SLOAD SWAP1 PUSH2 0x100 EXP SWAP1 DIV PUSH1 0xFF AND PUSH2 0x3BC JUMPI PUSH1 0x40 MLOAD PUSH32 0x8C379A000000000000000000000000000000000000000000000000000000000 DUP2 MSTORE PUSH1 0x4 ADD PUSH2 0x3B3 SWAP1 PUSH2 0x83E JUMP JUMPDEST PUSH1 0x40 MLOAD DUP1 SWAP2 SUB SWAP1 REVERT JUMPDEST PUSH0 CALLVALUE PUSH0 SLOAD PUSH2 0x3CA SWAP2 SWAP1 PUSH2 0x889 JUMP JUMPDEST SWAP1 POP PUSH0 PUSH32 0x0 DUP3 GT ISZERO PUSH2 0x4A8 JUMPI PUSH32 0x0 DUP3 PUSH2 0x421 SWAP2 SWAP1 PUSH2 0x8BC JUMP JUMPDEST SWAP1 POP DUP1 CALLVALUE PUSH2 0x42F SWAP2 SWAP1 PUSH2 0x8BC JUMP JUMPDEST PUSH1 0x1 PUSH0 CALLER PUSH20 0xFFFFFFFFFFFFFFFFFFFFFFFFFFFFFFFFFFFFFFFF AND PUSH20 0xFFFFFFFFFFFFFFFFFFFFFFFFFFFFFFFFFFFFFFFF AND DUP2 MSTORE PUSH1 0x20 ADD SWAP1 DUP2 MSTORE PUSH1 0x20 ADD PUSH0 KECCAK256 PUSH0 DUP3 DUP3 SLOAD PUSH2 0x47A SWAP2 SWAP1 PUSH2 0x889 JUMP JUMPDEST SWAP3 POP POP DUP2 SWAP1 SSTORE POP DUP1 CALLVALUE PUSH2 0x48D SWAP2 SWAP1 PUSH2 0x8BC JUMP JUMPDEST PUSH0 DUP1 DUP3 DUP3 SLOAD PUSH2 0x49C SWAP2 SWAP1 PUSH2 0x889 JUMP JUMPDEST SWAP3 POP POP DUP2 SWAP1 SSTORE POP PUSH2 0x513 JUMP JUMPDEST CALLVALUE PUSH1 0x1 PUSH0 CALLER PUSH20 0xFFFFFFFFFFFFFFFFFFFFFFFFFFFFFFFFFFFFFFFF AND PUSH20 0xFFFFFFFFFFFFFFFFFFFFFFFFFFFFFFFFFFFFFFFF AND DUP2 MSTORE PUSH1 0x20 ADD SWAP1 DUP2 MSTORE PUSH1 0x20 ADD PUSH0 KECCAK256 PUSH0 DUP3 DUP3 SLOAD PUSH2 0x4F4 SWAP2 SWAP1 PUSH2 0x889 JUMP JUMPDEST SWAP3 POP POP DUP2 SWAP1 SSTORE POP CALLVALUE PUSH0 DUP1 DUP3 DUP3 SLOAD PUSH2 0x50B SWAP2 SWAP1 PUSH2 0x889 JUMP JUMPDEST SWAP3 POP POP DUP2 SWAP1 SSTORE POP JUMPDEST PUSH1 0x2 PUSH0 CALLER PUSH20 0xFFFFFFFFFFFFFFFFFFFFFFFFFFFFFFFFFFFFFFFF AND PUSH20 0xFFFFFFFFFFFFFFFFFFFFFFFFFFFFFFFFFFFFFFFF AND DUP2 MSTORE PUSH1 0x20 ADD SWAP1 DUP2 MSTORE PUSH1 0x20 ADD PUSH0 KECCAK256 PUSH0 SWAP1 SLOAD SWAP1 PUSH2 0x100 EXP SWAP1 DIV PUSH1 0xFF AND PUSH2 0x617 JUMPI PUSH1 0x1 PUSH1 0x2 PUSH0 CALLER PUSH20 0xFFFFFFFFFFFFFFFFFFFFFFFFFFFFFFFFFFFFFFFF AND PUSH20 0xFFFFFFFFFFFFFFFFFFFFFFFFFFFFFFFFFFFFFFFF AND DUP2 MSTORE PUSH1 0x20 ADD SWAP1 DUP2 MSTORE PUSH1 0x20 ADD PUSH0 KECCAK256 PUSH0 PUSH2 0x100 EXP DUP2 SLOAD DUP2 PUSH1 0xFF MUL NOT AND SWAP1 DUP4 ISZERO ISZERO MUL OR SWAP1 SSTORE POP PUSH1 0x3 CALLER SWAP1 DUP1 PUSH1 0x1 DUP2 SLOAD ADD DUP1 DUP3 SSTORE DUP1 SWAP2 POP POP PUSH1 0x1 SWAP1 SUB SWAP1 PUSH0 MSTORE PUSH1 0x20 PUSH0 KECCAK256 ADD PUSH0 SWAP1 SWAP2 SWAP1 SWAP2 SWAP1 SWAP2 PUSH2 0x100 EXP DUP2 SLOAD DUP2 PUSH20 0xFFFFFFFFFFFFFFFFFFFFFFFFFFFFFFFFFFFFFFFF MUL NOT AND SWAP1 DUP4 PUSH20 0xFFFFFFFFFFFFFFFFFFFFFFFFFFFFFFFFFFFFFFFF AND MUL OR SWAP1 SSTORE POP JUMPDEST PUSH0 DUP2 GT ISZERO PUSH2 0x664 JUMPI CALLER PUSH20 0xFFFFFFFFFFFFFFFFFFFFFFFFFFFFFFFFFFFFFFFF AND PUSH2 0x8FC DUP3 SWAP1 DUP2 ISZERO MUL SWAP1 PUSH1 0x40 MLOAD PUSH0 PUSH1 0x40 MLOAD DUP1 DUP4 SUB DUP2 DUP6 DUP9 DUP9 CALL SWAP4 POP POP POP POP ISZERO DUP1 ISZERO PUSH2 0x662 JUMPI RETURNDATASIZE PUSH0 DUP1 RETURNDATACOPY RETURNDATASIZE PUSH0 REVERT JUMPDEST POP JUMPDEST POP POP JUMP JUMPDEST PUSH1 0x4 PUSH0 SWAP1 SLOAD SWAP1 PUSH2 0x100 EXP SWAP1 DIV PUSH1 0xFF AND DUP2 JUMP JUMPDEST PUSH0 DUP1 REVERT JUMPDEST PUSH0 PUSH20 0xFFFFFFFFFFFFFFFFFFFFFFFFFFFFFFFFFFFFFFFF DUP3 AND SWAP1 POP SWAP2 SWAP1 POP JUMP JUMPDEST PUSH0 PUSH2 0x6A7 DUP3 PUSH2 0x67E JUMP JUMPDEST SWAP1 POP SWAP2 SWAP1 POP JUMP JUMPDEST PUSH2 0x6B7 DUP2 PUSH2 0x69D JUMP JUMPDEST DUP2 EQ PUSH2 0x6C1 JUMPI PUSH0 DUP1 REVERT JUMPDEST POP JUMP JUMPDEST PUSH0 DUP2 CALLDATALOAD SWAP1 POP PUSH2 0x6D2 DUP2 PUSH2 0x6AE JUMP JUMPDEST SWAP3 SWAP2 POP POP JUMP JUMPDEST PUSH0 PUSH1 0x20 DUP3 DUP5 SUB SLT ISZERO PUSH2 0x6ED JUMPI PUSH2 0x6EC PUSH2 0x67A JUMP JUMPDEST JUMPDEST PUSH0 PUSH2 0x6FA DUP5 DUP3 DUP6 ADD PUSH2 0x6C4 JUMP JUMPDEST SWAP2 POP POP SWAP3 SWAP2 POP POP JUMP JUMPDEST PUSH0 DUP2 SWAP1 POP SWAP2 SWAP1 POP JUMP JUMPDEST PUSH2 0x715 DUP2 PUSH2 0x703 JUMP JUMPDEST DUP3 MSTORE POP POP JUMP JUMPDEST PUSH0 PUSH1 0x20 DUP3 ADD SWAP1 POP PUSH2 0x72E PUSH0 DUP4 ADD DUP5 PUSH2 0x70C JUMP JUMPDEST SWAP3 SWAP2 POP POP JUMP JUMPDEST PUSH2 0x73D DUP2 PUSH2 0x69D JUMP JUMPDEST DUP3 MSTORE POP POP JUMP JUMPDEST PUSH0 PUSH1 0x20 DUP3 ADD SWAP1 POP PUSH2 0x756 PUSH0 DUP4 ADD DUP5 PUSH2 0x734 JUMP JUMPDEST SWAP3 SWAP2 POP POP JUMP JUMPDEST PUSH0 DUP2 ISZERO ISZERO SWAP1 POP SWAP2 SWAP1 POP JUMP JUMPDEST PUSH2 0x770 DUP2 PUSH2 0x75C JUMP JUMPDEST DUP3 MSTORE POP POP JUMP JUMPDEST PUSH0 PUSH1 0x20 DUP3 ADD SWAP1 POP PUSH2 0x789 PUSH0 DUP4 ADD DUP5 PUSH2 0x767 JUMP JUMPDEST SWAP3 SWAP2 POP POP JUMP JUMPDEST PUSH2 0x798 DUP2 PUSH2 0x703 JUMP JUMPDEST DUP2 EQ PUSH2 0x7A2 JUMPI PUSH0 DUP1 REVERT JUMPDEST POP JUMP JUMPDEST PUSH0 DUP2 CALLDATALOAD SWAP1 POP PUSH2 0x7B3 DUP2 PUSH2 0x78F JUMP JUMPDEST SWAP3 SWAP2 POP POP JUMP JUMPDEST PUSH0 PUSH1 0x20 DUP3 DUP5 SUB SLT ISZERO PUSH2 0x7CE JUMPI PUSH2 0x7CD PUSH2 0x67A JUMP JUMPDEST JUMPDEST PUSH0 PUSH2 0x7DB DUP5 DUP3 DUP6 ADD PUSH2 0x7A5 JUMP JUMPDEST SWAP2 POP POP SWAP3 SWAP2 POP POP JUMP JUMPDEST PUSH0 DUP3 DUP3 MSTORE PUSH1 0x20 DUP3 ADD SWAP1 POP SWAP3 SWAP2 POP POP JUMP JUMPDEST PUSH32 0x43726F776446756E64696E6720697320636C6F73656400000000000000000000 PUSH0 DUP3 ADD MSTORE POP JUMP JUMPDEST PUSH0 PUSH2 0x828 PUSH1 0x16 DUP4 PUSH2 0x7E4 JUMP JUMPDEST SWAP2 POP PUSH2 0x833 DUP3 PUSH2 0x7F4 JUMP JUMPDEST PUSH1 0x20 DUP3 ADD SWAP1 POP SWAP2 SWAP1 POP JUMP JUMPDEST PUSH0 PUSH1 0x20 DUP3 ADD SWAP1 POP DUP2 DUP2 SUB PUSH0 DUP4 ADD MSTORE PUSH2 0x855 DUP2 PUSH2 0x81C JUMP JUMPDEST SWAP1 POP SWAP2 SWAP1 POP JUMP JUMPDEST PUSH32 0x4E487B7100000000000000000000000000000000000000000000000000000000 PUSH0 MSTORE PUSH1 0x11 PUSH1 0x4 MSTORE PUSH1 0x24 PUSH0 REVERT JUMPDEST PUSH0 PUSH2 0x893 DUP3 PUSH2 0x703 JUMP JUMPDEST SWAP2 POP PUSH2 0x89E DUP4 PUSH2 0x703 JUMP JUMPDEST SWAP3 POP DUP3 DUP3 ADD SWAP1 POP DUP1 DUP3 GT ISZERO PUSH2 0x8B6 JUMPI PUSH2 0x8B5 PUSH2 0x85C JUMP JUMPDEST JUMPDEST SWAP3 SWAP2 POP POP JUMP JUMPDEST PUSH0 PUSH2 0x8C6 DUP3 PUSH2 0x703 JUMP JUMPDEST SWAP2 POP PUSH2 0x8D1 DUP4 PUSH2 0x703 JUMP JUMPDEST SWAP3 POP DUP3 DUP3 SUB SWAP1 POP DUP2 DUP2 GT ISZERO PUSH2 0x8E9 JUMPI PUSH2 0x8E8 PUSH2 0x85C JUMP JUMPDEST JUMPDEST SWAP3 SWAP2 POP POP JUMP INVALID LOG2 PUSH5 0x6970667358 0x22 SLT KECCAK256 0xCB 0xD7 NOT 0xC1 0xAB BALANCE 0xE1 0xC3 PUSH14 0xABED450343EEB4B6F7BB5AF7BFC5 PUSH17 0x475B9F70FA354ED264736F6C634300081A STOP CALLER "
				},
				"gasEstimates": {
					"creation": {
						"codeDepositCost": "468200",
						"executionCost": "infinite",
						"totalCost": "infinite"
					},
					"external": {
						"AVAILABLED()": "2554",
						"beneficiary()": "infinite",
						"close()": "infinite",
						"contribute()": "infinite",
						"funders(address)": "2803",
						"fundersKey(uint256)": "4988",
						"fundersLenght()": "2462",
						"fundingAmount()": "2447",
						"fundingGoal()": "infinite"
					}
				},
				"methodIdentifiers": {
					"AVAILABLED()": "f781fbcc",
					"beneficiary()": "38af3eed",
					"close()": "43d726d6",
					"contribute()": "d7bb99ba",
					"funders(address)": "031b3677",
					"fundersKey(uint256)": "d7ac1677",
					"fundersLenght()": "8625749f",
					"fundingAmount()": "04a79c97",
					"fundingGoal()": "7a3a0e84"
				}
			},
			"storageLayout": {
				"storage": [
					{
						"astId": 7,
						"contract": "contracts/CrowdFunding.sol:CrowdFunding",
						"label": "fundingAmount",
						"offset": 0,
						"slot": "0",
						"type": "t_uint256"
					},
					{
						"astId": 11,
						"contract": "contracts/CrowdFunding.sol:CrowdFunding",
						"label": "funders",
						"offset": 0,
						"slot": "1",
						"type": "t_mapping(t_address,t_uint256)"
					},
					{
						"astId": 15,
						"contract": "contracts/CrowdFunding.sol:CrowdFunding",
						"label": "fundersInserted",
						"offset": 0,
						"slot": "2",
						"type": "t_mapping(t_address,t_bool)"
					},
					{
						"astId": 18,
						"contract": "contracts/CrowdFunding.sol:CrowdFunding",
						"label": "fundersKey",
						"offset": 0,
						"slot": "3",
						"type": "t_array(t_address)dyn_storage"
					},
					{
						"astId": 21,
						"contract": "contracts/CrowdFunding.sol:CrowdFunding",
						"label": "AVAILABLED",
						"offset": 0,
						"slot": "4",
						"type": "t_bool"
					}
				],
				"types": {
					"t_address": {
						"encoding": "inplace",
						"label": "address",
						"numberOfBytes": "20"
					},
					"t_array(t_address)dyn_storage": {
						"base": "t_address",
						"encoding": "dynamic_array",
						"label": "address[]",
						"numberOfBytes": "32"
					},
					"t_bool": {
						"encoding": "inplace",
						"label": "bool",
						"numberOfBytes": "1"
					},
					"t_mapping(t_address,t_bool)": {
						"encoding": "mapping",
						"key": "t_address",
						"label": "mapping(address => bool)",
						"numberOfBytes": "32",
						"value": "t_bool"
					},
					"t_mapping(t_address,t_uint256)": {
						"encoding": "mapping",
						"key": "t_address",
						"label": "mapping(address => uint256)",
						"numberOfBytes": "32",
						"value": "t_uint256"
					},
					"t_uint256": {
						"encoding": "inplace",
						"label": "uint256",
						"numberOfBytes": "32"
					}
				}
			},
			"userdoc": {
				"kind": "user",
				"methods": {},
				"version": 1
			}
		}
	}
}