{
	"contracts/MultiSignWallet2.sol": {
		"MultiSignWallet": {
			"abi": [
				{
					"inputs": [
						{
							"internalType": "address[]",
							"name": "_owners",
							"type": "address[]"
						},
						{
							"internalType": "uint256",
							"name": "_requiredSigns",
							"type": "uint256"
						}
					],
					"stateMutability": "nonpayable",
					"type": "constructor"
				},
				{
					"anonymous": false,
					"inputs": [
						{
							"indexed": true,
							"internalType": "uint256",
							"name": "txid",
							"type": "uint256"
						},
						{
							"indexed": true,
							"internalType": "address",
							"name": "sender",
							"type": "address"
						}
					],
					"name": "Approve",
					"type": "event"
				},
				{
					"anonymous": false,
					"inputs": [
						{
							"indexed": true,
							"internalType": "uint256",
							"name": "txid",
							"type": "uint256"
						},
						{
							"indexed": true,
							"internalType": "address",
							"name": "sender",
							"type": "address"
						}
					],
					"name": "Cancel",
					"type": "event"
				},
				{
					"anonymous": false,
					"inputs": [
						{
							"indexed": true,
							"internalType": "address",
							"name": "sender",
							"type": "address"
						},
						{
							"indexed": false,
							"internalType": "uint256",
							"name": "amount",
							"type": "uint256"
						}
					],
					"name": "Deposit",
					"type": "event"
				},
				{
					"anonymous": false,
					"inputs": [
						{
							"indexed": true,
							"internalType": "uint256",
							"name": "txid",
							"type": "uint256"
						}
					],
					"name": "Execute",
					"type": "event"
				},
				{
					"anonymous": false,
					"inputs": [
						{
							"indexed": true,
							"internalType": "uint256",
							"name": "txid",
							"type": "uint256"
						}
					],
					"name": "Submit",
					"type": "event"
				},
				{
					"inputs": [
						{
							"internalType": "uint256",
							"name": "txid",
							"type": "uint256"
						}
					],
					"name": "approve",
					"outputs": [],
					"stateMutability": "nonpayable",
					"type": "function"
				},
				{
					"inputs": [
						{
							"internalType": "uint256",
							"name": "txid",
							"type": "uint256"
						}
					],
					"name": "execute",
					"outputs": [],
					"stateMutability": "nonpayable",
					"type": "function"
				},
				{
					"inputs": [
						{
							"internalType": "uint256",
							"name": "txid",
							"type": "uint256"
						}
					],
					"name": "getApprovalCount",
					"outputs": [
						{
							"internalType": "uint256",
							"name": "count",
							"type": "uint256"
						}
					],
					"stateMutability": "view",
					"type": "function"
				},
				{
					"inputs": [
						{
							"internalType": "address",
							"name": "to",
							"type": "address"
						},
						{
							"internalType": "uint256",
							"name": "value",
							"type": "uint256"
						},
						{
							"internalType": "bytes",
							"name": "callData",
							"type": "bytes"
						}
					],
					"name": "submit",
					"outputs": [],
					"stateMutability": "nonpayable",
					"type": "function"
				},
				{
					"stateMutability": "payable",
					"type": "receive"
				}
			],
			"devdoc": {
				"kind": "dev",
				"methods": {},
				"version": 1
			},
			"evm": {
				"assembly": "    /* \"contracts/MultiSignWallet2.sol\":61:2926  contract MultiSignWallet {... */\n  mstore(0x40, 0x80)\n    /* \"contracts/MultiSignWallet2.sol\":689:1243  constructor(address[] memory _owners, uint _requiredSigns) {... */\n  callvalue\n  dup1\n  iszero\n  tag_1\n  jumpi\n  0x00\n  dup1\n  revert\ntag_1:\n  pop\n  mload(0x40)\n  sub(codesize, bytecodeSize)\n  dup1\n  bytecodeSize\n  dup4\n  codecopy\n  dup2\n  dup2\n  add\n  0x40\n  mstore\n  dup2\n  add\n  swap1\n  tag_2\n  swap2\n  swap1\n  tag_3\n  jump\t// in\ntag_2:\n    /* \"contracts/MultiSignWallet2.sol\":784:785  0 */\n  0x00\n    /* \"contracts/MultiSignWallet2.sol\":767:774  _owners */\n  dup3\n    /* \"contracts/MultiSignWallet2.sol\":767:781  _owners.length */\n  mload\n    /* \"contracts/MultiSignWallet2.sol\":767:785  _owners.length > 0 */\n  gt\n    /* \"contracts/MultiSignWallet2.sol\":759:814  require(_owners.length > 0, \"Input one owner at least\") */\n  tag_6\n  jumpi\n  mload(0x40)\n  0x08c379a000000000000000000000000000000000000000000000000000000000\n  dup2\n  mstore\n  0x04\n  add\n  tag_7\n  swap1\n  tag_8\n  jump\t// in\ntag_7:\n  mload(0x40)\n  dup1\n  swap2\n  sub\n  swap1\n  revert\ntag_6:\n    /* \"contracts/MultiSignWallet2.sol\":850:851  0 */\n  0x00\n    /* \"contracts/MultiSignWallet2.sol\":833:847  _requiredSigns */\n  dup2\n    /* \"contracts/MultiSignWallet2.sol\":833:851  _requiredSigns > 0 */\n  gt\n    /* \"contracts/MultiSignWallet2.sol\":833:887  _requiredSigns > 0 && _requiredSigns <= _owners.length */\n  dup1\n  iszero\n  tag_9\n  jumpi\n  pop\n    /* \"contracts/MultiSignWallet2.sol\":873:880  _owners */\n  dup2\n    /* \"contracts/MultiSignWallet2.sol\":873:887  _owners.length */\n  mload\n    /* \"contracts/MultiSignWallet2.sol\":855:869  _requiredSigns */\n  dup2\n    /* \"contracts/MultiSignWallet2.sol\":855:887  _requiredSigns <= _owners.length */\n  gt\n  iszero\n    /* \"contracts/MultiSignWallet2.sol\":833:887  _requiredSigns > 0 && _requiredSigns <= _owners.length */\ntag_9:\n    /* \"contracts/MultiSignWallet2.sol\":825:914  require(_requiredSigns > 0 && _requiredSigns <= _owners.length, \"Invalid required sings\") */\n  tag_10\n  jumpi\n  mload(0x40)\n  0x08c379a000000000000000000000000000000000000000000000000000000000\n  dup2\n  mstore\n  0x04\n  add\n  tag_11\n  swap1\n  tag_12\n  jump\t// in\ntag_11:\n  mload(0x40)\n  dup1\n  swap2\n  sub\n  swap1\n  revert\ntag_10:\n    /* \"contracts/MultiSignWallet2.sol\":929:937  uint idx */\n  0x00\n    /* \"contracts/MultiSignWallet2.sol\":925:1168  for(uint idx = 0; idx < _owners.length; idx++) {... */\ntag_13:\n    /* \"contracts/MultiSignWallet2.sol\":949:956  _owners */\n  dup3\n    /* \"contracts/MultiSignWallet2.sol\":949:963  _owners.length */\n  mload\n    /* \"contracts/MultiSignWallet2.sol\":943:946  idx */\n  dup2\n    /* \"contracts/MultiSignWallet2.sol\":943:963  idx < _owners.length */\n  lt\n    /* \"contracts/MultiSignWallet2.sol\":925:1168  for(uint idx = 0; idx < _owners.length; idx++) {... */\n  iszero\n  tag_14\n  jumpi\n    /* \"contracts/MultiSignWallet2.sol\":1019:1020  0 */\n  0x00\n    /* \"contracts/MultiSignWallet2.sol\":995:1021  _owners[idx] != address(0) */\n  0xffffffffffffffffffffffffffffffffffffffff\n  and\n    /* \"contracts/MultiSignWallet2.sol\":995:1002  _owners */\n  dup4\n    /* \"contracts/MultiSignWallet2.sol\":1003:1006  idx */\n  dup3\n    /* \"contracts/MultiSignWallet2.sol\":995:1007  _owners[idx] */\n  dup2\n  mload\n  dup2\n  lt\n  tag_16\n  jumpi\n  tag_17\n  tag_18\n  jump\t// in\ntag_17:\ntag_16:\n  0x20\n  mul\n  0x20\n  add\n  add\n  mload\n    /* \"contracts/MultiSignWallet2.sol\":995:1021  _owners[idx] != address(0) */\n  0xffffffffffffffffffffffffffffffffffffffff\n  and\n  sub\n    /* \"contracts/MultiSignWallet2.sol\":987:1047  require(_owners[idx] != address(0), \"Invalid owner address\") */\n  tag_19\n  jumpi\n  mload(0x40)\n  0x08c379a000000000000000000000000000000000000000000000000000000000\n  dup2\n  mstore\n  0x04\n  add\n  tag_20\n  swap1\n  tag_21\n  jump\t// in\ntag_20:\n  mload(0x40)\n  dup1\n  swap2\n  sub\n  swap1\n  revert\ntag_19:\n    /* \"contracts/MultiSignWallet2.sol\":1071:1078  isOwner */\n  0x02\n    /* \"contracts/MultiSignWallet2.sol\":1071:1092  isOwner[_owners[idx]] */\n  0x00\n    /* \"contracts/MultiSignWallet2.sol\":1079:1086  _owners */\n  dup5\n    /* \"contracts/MultiSignWallet2.sol\":1087:1090  idx */\n  dup4\n    /* \"contracts/MultiSignWallet2.sol\":1079:1091  _owners[idx] */\n  dup2\n  mload\n  dup2\n  lt\n  tag_22\n  jumpi\n  tag_23\n  tag_18\n  jump\t// in\ntag_23:\ntag_22:\n  0x20\n  mul\n  0x20\n  add\n  add\n  mload\n    /* \"contracts/MultiSignWallet2.sol\":1071:1092  isOwner[_owners[idx]] */\n  0xffffffffffffffffffffffffffffffffffffffff\n  and\n  0xffffffffffffffffffffffffffffffffffffffff\n  and\n  dup2\n  mstore\n  0x20\n  add\n  swap1\n  dup2\n  mstore\n  0x20\n  add\n  0x00\n  keccak256\n  0x00\n  swap1\n  sload\n  swap1\n  0x0100\n  exp\n  swap1\n  div\n  0xff\n  and\n    /* \"contracts/MultiSignWallet2.sol\":1070:1092  !isOwner[_owners[idx]] */\n  iszero\n    /* \"contracts/MultiSignWallet2.sol\":1062:1113  require(!isOwner[_owners[idx]], \"Owner deplicated\") */\n  tag_24\n  jumpi\n  mload(0x40)\n  0x08c379a000000000000000000000000000000000000000000000000000000000\n  dup2\n  mstore\n  0x04\n  add\n  tag_25\n  swap1\n  tag_26\n  jump\t// in\ntag_25:\n  mload(0x40)\n  dup1\n  swap2\n  sub\n  swap1\n  revert\ntag_24:\n    /* \"contracts/MultiSignWallet2.sol\":1152:1156  true */\n  0x01\n    /* \"contracts/MultiSignWallet2.sol\":1128:1135  isOwner */\n  0x02\n    /* \"contracts/MultiSignWallet2.sol\":1128:1149  isOwner[_owners[idx]] */\n  0x00\n    /* \"contracts/MultiSignWallet2.sol\":1136:1143  _owners */\n  dup6\n    /* \"contracts/MultiSignWallet2.sol\":1144:1147  idx */\n  dup5\n    /* \"contracts/MultiSignWallet2.sol\":1136:1148  _owners[idx] */\n  dup2\n  mload\n  dup2\n  lt\n  tag_27\n  jumpi\n  tag_28\n  tag_18\n  jump\t// in\ntag_28:\ntag_27:\n  0x20\n  mul\n  0x20\n  add\n  add\n  mload\n    /* \"contracts/MultiSignWallet2.sol\":1128:1149  isOwner[_owners[idx]] */\n  0xffffffffffffffffffffffffffffffffffffffff\n  and\n  0xffffffffffffffffffffffffffffffffffffffff\n  and\n  dup2\n  mstore\n  0x20\n  add\n  swap1\n  dup2\n  mstore\n  0x20\n  add\n  0x00\n  keccak256\n  0x00\n    /* \"contracts/MultiSignWallet2.sol\":1128:1156  isOwner[_owners[idx]] = true */\n  0x0100\n  exp\n  dup2\n  sload\n  dup2\n  0xff\n  mul\n  not\n  and\n  swap1\n  dup4\n  iszero\n  iszero\n  mul\n  or\n  swap1\n  sstore\n  pop\n    /* \"contracts/MultiSignWallet2.sol\":965:970  idx++ */\n  dup1\n  dup1\n  0x01\n  add\n  swap2\n  pop\n  pop\n    /* \"contracts/MultiSignWallet2.sol\":925:1168  for(uint idx = 0; idx < _owners.length; idx++) {... */\n  jump(tag_13)\ntag_14:\n  pop\n    /* \"contracts/MultiSignWallet2.sol\":1187:1194  _owners */\n  dup2\n    /* \"contracts/MultiSignWallet2.sol\":1178:1184  owners */\n  0x00\n    /* \"contracts/MultiSignWallet2.sol\":1178:1194  owners = _owners */\n  swap1\n  dup1\n  mload\n  swap1\n  0x20\n  add\n  swap1\n  tag_29\n  swap3\n  swap2\n  swap1\n  tag_30\n  jump\t// in\ntag_29:\n  pop\n    /* \"contracts/MultiSignWallet2.sol\":1221:1235  _requiredSigns */\n  dup1\n    /* \"contracts/MultiSignWallet2.sol\":1205:1218  requiredSigns */\n  0x01\n    /* \"contracts/MultiSignWallet2.sol\":1205:1235  requiredSigns = _requiredSigns */\n  dup2\n  swap1\n  sstore\n  pop\n    /* \"contracts/MultiSignWallet2.sol\":689:1243  constructor(address[] memory _owners, uint _requiredSigns) {... */\n  pop\n  pop\n    /* \"contracts/MultiSignWallet2.sol\":61:2926  contract MultiSignWallet {... */\n  jump(tag_31)\ntag_30:\n  dup3\n  dup1\n  sload\n  dup3\n  dup3\n  sstore\n  swap1\n  0x00\n  mstore\n  keccak256(0x00, 0x20)\n  swap1\n  dup2\n  add\n  swap3\n  dup3\n  iszero\n  tag_32\n  jumpi\n  swap2\n  0x20\n  mul\n  dup3\n  add\ntag_33:\n  dup3\n  dup2\n  gt\n  iszero\n  tag_34\n  jumpi\n  dup3\n  mload\n  dup3\n  exp(0x0100, 0x00)\n  dup2\n  sload\n  dup2\n  0xffffffffffffffffffffffffffffffffffffffff\n  mul\n  not\n  and\n  swap1\n  dup4\n  0xffffffffffffffffffffffffffffffffffffffff\n  and\n  mul\n  or\n  swap1\n  sstore\n  pop\n  swap2\n  0x20\n  add\n  swap2\n  swap1\n  0x01\n  add\n  swap1\n  jump(tag_33)\ntag_34:\ntag_32:\n  pop\n  swap1\n  pop\n  tag_35\n  swap2\n  swap1\n  tag_36\n  jump\t// in\ntag_35:\n  pop\n  swap1\n  jump\t// out\ntag_36:\ntag_37:\n  dup1\n  dup3\n  gt\n  iszero\n  tag_38\n  jumpi\n  0x00\n  dup2\n  0x00\n  swap1\n  sstore\n  pop\n  0x01\n  add\n  jump(tag_37)\ntag_38:\n  pop\n  swap1\n  jump\t// out\n    /* \"#utility.yul\":7:82   */\ntag_39:\n    /* \"#utility.yul\":40:46   */\n  0x00\n    /* \"#utility.yul\":73:75   */\n  0x40\n    /* \"#utility.yul\":67:76   */\n  mload\n    /* \"#utility.yul\":57:76   */\n  swap1\n  pop\n    /* \"#utility.yul\":7:82   */\n  swap1\n  jump\t// out\n    /* \"#utility.yul\":88:205   */\ntag_40:\n    /* \"#utility.yul\":197:198   */\n  0x00\n    /* \"#utility.yul\":194:195   */\n  dup1\n    /* \"#utility.yul\":187:199   */\n  revert\n    /* \"#utility.yul\":211:328   */\ntag_41:\n    /* \"#utility.yul\":320:321   */\n  0x00\n    /* \"#utility.yul\":317:318   */\n  dup1\n    /* \"#utility.yul\":310:322   */\n  revert\n    /* \"#utility.yul\":334:451   */\ntag_42:\n    /* \"#utility.yul\":443:444   */\n  0x00\n    /* \"#utility.yul\":440:441   */\n  dup1\n    /* \"#utility.yul\":433:445   */\n  revert\n    /* \"#utility.yul\":457:559   */\ntag_43:\n    /* \"#utility.yul\":498:504   */\n  0x00\n    /* \"#utility.yul\":549:551   */\n  0x1f\n    /* \"#utility.yul\":545:552   */\n  not\n    /* \"#utility.yul\":540:542   */\n  0x1f\n    /* \"#utility.yul\":533:538   */\n  dup4\n    /* \"#utility.yul\":529:543   */\n  add\n    /* \"#utility.yul\":525:553   */\n  and\n    /* \"#utility.yul\":515:553   */\n  swap1\n  pop\n    /* \"#utility.yul\":457:559   */\n  swap2\n  swap1\n  pop\n  jump\t// out\n    /* \"#utility.yul\":565:745   */\ntag_44:\n    /* \"#utility.yul\":613:690   */\n  0x4e487b7100000000000000000000000000000000000000000000000000000000\n    /* \"#utility.yul\":610:611   */\n  0x00\n    /* \"#utility.yul\":603:691   */\n  mstore\n    /* \"#utility.yul\":710:714   */\n  0x41\n    /* \"#utility.yul\":707:708   */\n  0x04\n    /* \"#utility.yul\":700:715   */\n  mstore\n    /* \"#utility.yul\":734:738   */\n  0x24\n    /* \"#utility.yul\":731:732   */\n  0x00\n    /* \"#utility.yul\":724:739   */\n  revert\n    /* \"#utility.yul\":751:1032   */\ntag_45:\n    /* \"#utility.yul\":834:861   */\n  tag_75\n    /* \"#utility.yul\":856:860   */\n  dup3\n    /* \"#utility.yul\":834:861   */\n  tag_43\n  jump\t// in\ntag_75:\n    /* \"#utility.yul\":826:832   */\n  dup2\n    /* \"#utility.yul\":822:862   */\n  add\n    /* \"#utility.yul\":964:970   */\n  dup2\n    /* \"#utility.yul\":952:962   */\n  dup2\n    /* \"#utility.yul\":949:971   */\n  lt\n    /* \"#utility.yul\":928:946   */\n  0xffffffffffffffff\n    /* \"#utility.yul\":916:926   */\n  dup3\n    /* \"#utility.yul\":913:947   */\n  gt\n    /* \"#utility.yul\":910:972   */\n  or\n    /* \"#utility.yul\":907:995   */\n  iszero\n  tag_76\n  jumpi\n    /* \"#utility.yul\":975:993   */\n  tag_77\n  tag_44\n  jump\t// in\ntag_77:\n    /* \"#utility.yul\":907:995   */\ntag_76:\n    /* \"#utility.yul\":1015:1025   */\n  dup1\n    /* \"#utility.yul\":1011:1013   */\n  0x40\n    /* \"#utility.yul\":1004:1026   */\n  mstore\n    /* \"#utility.yul\":794:1032   */\n  pop\n    /* \"#utility.yul\":751:1032   */\n  pop\n  pop\n  jump\t// out\n    /* \"#utility.yul\":1038:1167   */\ntag_46:\n    /* \"#utility.yul\":1072:1078   */\n  0x00\n    /* \"#utility.yul\":1099:1119   */\n  tag_79\n  tag_39\n  jump\t// in\ntag_79:\n    /* \"#utility.yul\":1089:1119   */\n  swap1\n  pop\n    /* \"#utility.yul\":1128:1161   */\n  tag_80\n    /* \"#utility.yul\":1156:1160   */\n  dup3\n    /* \"#utility.yul\":1148:1154   */\n  dup3\n    /* \"#utility.yul\":1128:1161   */\n  tag_45\n  jump\t// in\ntag_80:\n    /* \"#utility.yul\":1038:1167   */\n  swap2\n  swap1\n  pop\n  jump\t// out\n    /* \"#utility.yul\":1173:1484   */\ntag_47:\n    /* \"#utility.yul\":1250:1254   */\n  0x00\n    /* \"#utility.yul\":1340:1358   */\n  0xffffffffffffffff\n    /* \"#utility.yul\":1332:1338   */\n  dup3\n    /* \"#utility.yul\":1329:1359   */\n  gt\n    /* \"#utility.yul\":1326:1382   */\n  iszero\n  tag_82\n  jumpi\n    /* \"#utility.yul\":1362:1380   */\n  tag_83\n  tag_44\n  jump\t// in\ntag_83:\n    /* \"#utility.yul\":1326:1382   */\ntag_82:\n    /* \"#utility.yul\":1412:1416   */\n  0x20\n    /* \"#utility.yul\":1404:1410   */\n  dup3\n    /* \"#utility.yul\":1400:1417   */\n  mul\n    /* \"#utility.yul\":1392:1417   */\n  swap1\n  pop\n    /* \"#utility.yul\":1472:1476   */\n  0x20\n    /* \"#utility.yul\":1466:1470   */\n  dup2\n    /* \"#utility.yul\":1462:1477   */\n  add\n    /* \"#utility.yul\":1454:1477   */\n  swap1\n  pop\n    /* \"#utility.yul\":1173:1484   */\n  swap2\n  swap1\n  pop\n  jump\t// out\n    /* \"#utility.yul\":1490:1607   */\ntag_48:\n    /* \"#utility.yul\":1599:1600   */\n  0x00\n    /* \"#utility.yul\":1596:1597   */\n  dup1\n    /* \"#utility.yul\":1589:1601   */\n  revert\n    /* \"#utility.yul\":1613:1739   */\ntag_49:\n    /* \"#utility.yul\":1650:1657   */\n  0x00\n    /* \"#utility.yul\":1690:1732   */\n  0xffffffffffffffffffffffffffffffffffffffff\n    /* \"#utility.yul\":1683:1688   */\n  dup3\n    /* \"#utility.yul\":1679:1733   */\n  and\n    /* \"#utility.yul\":1668:1733   */\n  swap1\n  pop\n    /* \"#utility.yul\":1613:1739   */\n  swap2\n  swap1\n  pop\n  jump\t// out\n    /* \"#utility.yul\":1745:1841   */\ntag_50:\n    /* \"#utility.yul\":1782:1789   */\n  0x00\n    /* \"#utility.yul\":1811:1835   */\n  tag_87\n    /* \"#utility.yul\":1829:1834   */\n  dup3\n    /* \"#utility.yul\":1811:1835   */\n  tag_49\n  jump\t// in\ntag_87:\n    /* \"#utility.yul\":1800:1835   */\n  swap1\n  pop\n    /* \"#utility.yul\":1745:1841   */\n  swap2\n  swap1\n  pop\n  jump\t// out\n    /* \"#utility.yul\":1847:1969   */\ntag_51:\n    /* \"#utility.yul\":1920:1944   */\n  tag_89\n    /* \"#utility.yul\":1938:1943   */\n  dup2\n    /* \"#utility.yul\":1920:1944   */\n  tag_50\n  jump\t// in\ntag_89:\n    /* \"#utility.yul\":1913:1918   */\n  dup2\n    /* \"#utility.yul\":1910:1945   */\n  eq\n    /* \"#utility.yul\":1900:1963   */\n  tag_90\n  jumpi\n    /* \"#utility.yul\":1959:1960   */\n  0x00\n    /* \"#utility.yul\":1956:1957   */\n  dup1\n    /* \"#utility.yul\":1949:1961   */\n  revert\n    /* \"#utility.yul\":1900:1963   */\ntag_90:\n    /* \"#utility.yul\":1847:1969   */\n  pop\n  jump\t// out\n    /* \"#utility.yul\":1975:2118   */\ntag_52:\n    /* \"#utility.yul\":2032:2037   */\n  0x00\n    /* \"#utility.yul\":2063:2069   */\n  dup2\n    /* \"#utility.yul\":2057:2070   */\n  mload\n    /* \"#utility.yul\":2048:2070   */\n  swap1\n  pop\n    /* \"#utility.yul\":2079:2112   */\n  tag_92\n    /* \"#utility.yul\":2106:2111   */\n  dup2\n    /* \"#utility.yul\":2079:2112   */\n  tag_51\n  jump\t// in\ntag_92:\n    /* \"#utility.yul\":1975:2118   */\n  swap3\n  swap2\n  pop\n  pop\n  jump\t// out\n    /* \"#utility.yul\":2141:2873   */\ntag_53:\n    /* \"#utility.yul\":2248:2253   */\n  0x00\n    /* \"#utility.yul\":2273:2354   */\n  tag_94\n    /* \"#utility.yul\":2289:2353   */\n  tag_95\n    /* \"#utility.yul\":2346:2352   */\n  dup5\n    /* \"#utility.yul\":2289:2353   */\n  tag_47\n  jump\t// in\ntag_95:\n    /* \"#utility.yul\":2273:2354   */\n  tag_46\n  jump\t// in\ntag_94:\n    /* \"#utility.yul\":2264:2354   */\n  swap1\n  pop\n    /* \"#utility.yul\":2374:2379   */\n  dup1\n    /* \"#utility.yul\":2403:2409   */\n  dup4\n    /* \"#utility.yul\":2396:2401   */\n  dup3\n    /* \"#utility.yul\":2389:2410   */\n  mstore\n    /* \"#utility.yul\":2437:2441   */\n  0x20\n    /* \"#utility.yul\":2430:2435   */\n  dup3\n    /* \"#utility.yul\":2426:2442   */\n  add\n    /* \"#utility.yul\":2419:2442   */\n  swap1\n  pop\n    /* \"#utility.yul\":2490:2494   */\n  0x20\n    /* \"#utility.yul\":2482:2488   */\n  dup5\n    /* \"#utility.yul\":2478:2495   */\n  mul\n    /* \"#utility.yul\":2470:2476   */\n  dup4\n    /* \"#utility.yul\":2466:2496   */\n  add\n    /* \"#utility.yul\":2519:2522   */\n  dup6\n    /* \"#utility.yul\":2511:2517   */\n  dup2\n    /* \"#utility.yul\":2508:2523   */\n  gt\n    /* \"#utility.yul\":2505:2627   */\n  iszero\n  tag_96\n  jumpi\n    /* \"#utility.yul\":2538:2617   */\n  tag_97\n  tag_48\n  jump\t// in\ntag_97:\n    /* \"#utility.yul\":2505:2627   */\ntag_96:\n    /* \"#utility.yul\":2653:2659   */\n  dup4\n    /* \"#utility.yul\":2636:2867   */\ntag_98:\n    /* \"#utility.yul\":2670:2676   */\n  dup2\n    /* \"#utility.yul\":2665:2668   */\n  dup2\n    /* \"#utility.yul\":2662:2677   */\n  lt\n    /* \"#utility.yul\":2636:2867   */\n  iszero\n  tag_100\n  jumpi\n    /* \"#utility.yul\":2745:2748   */\n  dup1\n    /* \"#utility.yul\":2774:2822   */\n  tag_101\n    /* \"#utility.yul\":2818:2821   */\n  dup9\n    /* \"#utility.yul\":2806:2816   */\n  dup3\n    /* \"#utility.yul\":2774:2822   */\n  tag_52\n  jump\t// in\ntag_101:\n    /* \"#utility.yul\":2769:2772   */\n  dup5\n    /* \"#utility.yul\":2762:2823   */\n  mstore\n    /* \"#utility.yul\":2852:2856   */\n  0x20\n    /* \"#utility.yul\":2847:2850   */\n  dup5\n    /* \"#utility.yul\":2843:2857   */\n  add\n    /* \"#utility.yul\":2836:2857   */\n  swap4\n  pop\n    /* \"#utility.yul\":2712:2867   */\n  pop\n    /* \"#utility.yul\":2696:2700   */\n  0x20\n    /* \"#utility.yul\":2691:2694   */\n  dup2\n    /* \"#utility.yul\":2687:2701   */\n  add\n    /* \"#utility.yul\":2680:2701   */\n  swap1\n  pop\n    /* \"#utility.yul\":2636:2867   */\n  jump(tag_98)\ntag_100:\n    /* \"#utility.yul\":2640:2661   */\n  pop\n    /* \"#utility.yul\":2254:2873   */\n  pop\n  pop\n    /* \"#utility.yul\":2141:2873   */\n  swap4\n  swap3\n  pop\n  pop\n  pop\n  jump\t// out\n    /* \"#utility.yul\":2896:3281   */\ntag_54:\n    /* \"#utility.yul\":2978:2983   */\n  0x00\n    /* \"#utility.yul\":3027:3030   */\n  dup3\n    /* \"#utility.yul\":3020:3024   */\n  0x1f\n    /* \"#utility.yul\":3012:3018   */\n  dup4\n    /* \"#utility.yul\":3008:3025   */\n  add\n    /* \"#utility.yul\":3004:3031   */\n  slt\n    /* \"#utility.yul\":2994:3116   */\n  tag_103\n  jumpi\n    /* \"#utility.yul\":3035:3114   */\n  tag_104\n  tag_42\n  jump\t// in\ntag_104:\n    /* \"#utility.yul\":2994:3116   */\ntag_103:\n    /* \"#utility.yul\":3145:3151   */\n  dup2\n    /* \"#utility.yul\":3139:3152   */\n  mload\n    /* \"#utility.yul\":3170:3275   */\n  tag_105\n    /* \"#utility.yul\":3271:3274   */\n  dup5\n    /* \"#utility.yul\":3263:3269   */\n  dup3\n    /* \"#utility.yul\":3256:3260   */\n  0x20\n    /* \"#utility.yul\":3248:3254   */\n  dup7\n    /* \"#utility.yul\":3244:3261   */\n  add\n    /* \"#utility.yul\":3170:3275   */\n  tag_53\n  jump\t// in\ntag_105:\n    /* \"#utility.yul\":3161:3275   */\n  swap2\n  pop\n    /* \"#utility.yul\":2984:3281   */\n  pop\n    /* \"#utility.yul\":2896:3281   */\n  swap3\n  swap2\n  pop\n  pop\n  jump\t// out\n    /* \"#utility.yul\":3287:3364   */\ntag_55:\n    /* \"#utility.yul\":3324:3331   */\n  0x00\n    /* \"#utility.yul\":3353:3358   */\n  dup2\n    /* \"#utility.yul\":3342:3358   */\n  swap1\n  pop\n    /* \"#utility.yul\":3287:3364   */\n  swap2\n  swap1\n  pop\n  jump\t// out\n    /* \"#utility.yul\":3370:3492   */\ntag_56:\n    /* \"#utility.yul\":3443:3467   */\n  tag_108\n    /* \"#utility.yul\":3461:3466   */\n  dup2\n    /* \"#utility.yul\":3443:3467   */\n  tag_55\n  jump\t// in\ntag_108:\n    /* \"#utility.yul\":3436:3441   */\n  dup2\n    /* \"#utility.yul\":3433:3468   */\n  eq\n    /* \"#utility.yul\":3423:3486   */\n  tag_109\n  jumpi\n    /* \"#utility.yul\":3482:3483   */\n  0x00\n    /* \"#utility.yul\":3479:3480   */\n  dup1\n    /* \"#utility.yul\":3472:3484   */\n  revert\n    /* \"#utility.yul\":3423:3486   */\ntag_109:\n    /* \"#utility.yul\":3370:3492   */\n  pop\n  jump\t// out\n    /* \"#utility.yul\":3498:3641   */\ntag_57:\n    /* \"#utility.yul\":3555:3560   */\n  0x00\n    /* \"#utility.yul\":3586:3592   */\n  dup2\n    /* \"#utility.yul\":3580:3593   */\n  mload\n    /* \"#utility.yul\":3571:3593   */\n  swap1\n  pop\n    /* \"#utility.yul\":3602:3635   */\n  tag_111\n    /* \"#utility.yul\":3629:3634   */\n  dup2\n    /* \"#utility.yul\":3602:3635   */\n  tag_56\n  jump\t// in\ntag_111:\n    /* \"#utility.yul\":3498:3641   */\n  swap3\n  swap2\n  pop\n  pop\n  jump\t// out\n    /* \"#utility.yul\":3647:4357   */\ntag_3:\n    /* \"#utility.yul\":3751:3757   */\n  0x00\n    /* \"#utility.yul\":3759:3765   */\n  dup1\n    /* \"#utility.yul\":3808:3810   */\n  0x40\n    /* \"#utility.yul\":3796:3805   */\n  dup4\n    /* \"#utility.yul\":3787:3794   */\n  dup6\n    /* \"#utility.yul\":3783:3806   */\n  sub\n    /* \"#utility.yul\":3779:3811   */\n  slt\n    /* \"#utility.yul\":3776:3895   */\n  iszero\n  tag_113\n  jumpi\n    /* \"#utility.yul\":3814:3893   */\n  tag_114\n  tag_40\n  jump\t// in\ntag_114:\n    /* \"#utility.yul\":3776:3895   */\ntag_113:\n    /* \"#utility.yul\":3955:3956   */\n  0x00\n    /* \"#utility.yul\":3944:3953   */\n  dup4\n    /* \"#utility.yul\":3940:3957   */\n  add\n    /* \"#utility.yul\":3934:3958   */\n  mload\n    /* \"#utility.yul\":3985:4003   */\n  0xffffffffffffffff\n    /* \"#utility.yul\":3977:3983   */\n  dup2\n    /* \"#utility.yul\":3974:4004   */\n  gt\n    /* \"#utility.yul\":3971:4088   */\n  iszero\n  tag_115\n  jumpi\n    /* \"#utility.yul\":4007:4086   */\n  tag_116\n  tag_41\n  jump\t// in\ntag_116:\n    /* \"#utility.yul\":3971:4088   */\ntag_115:\n    /* \"#utility.yul\":4112:4201   */\n  tag_117\n    /* \"#utility.yul\":4193:4200   */\n  dup6\n    /* \"#utility.yul\":4184:4190   */\n  dup3\n    /* \"#utility.yul\":4173:4182   */\n  dup7\n    /* \"#utility.yul\":4169:4191   */\n  add\n    /* \"#utility.yul\":4112:4201   */\n  tag_54\n  jump\t// in\ntag_117:\n    /* \"#utility.yul\":4102:4201   */\n  swap3\n  pop\n    /* \"#utility.yul\":3905:4211   */\n  pop\n    /* \"#utility.yul\":4250:4252   */\n  0x20\n    /* \"#utility.yul\":4276:4340   */\n  tag_118\n    /* \"#utility.yul\":4332:4339   */\n  dup6\n    /* \"#utility.yul\":4323:4329   */\n  dup3\n    /* \"#utility.yul\":4312:4321   */\n  dup7\n    /* \"#utility.yul\":4308:4330   */\n  add\n    /* \"#utility.yul\":4276:4340   */\n  tag_57\n  jump\t// in\ntag_118:\n    /* \"#utility.yul\":4266:4340   */\n  swap2\n  pop\n    /* \"#utility.yul\":4221:4350   */\n  pop\n    /* \"#utility.yul\":3647:4357   */\n  swap3\n  pop\n  swap3\n  swap1\n  pop\n  jump\t// out\n    /* \"#utility.yul\":4363:4532   */\ntag_58:\n    /* \"#utility.yul\":4447:4458   */\n  0x00\n    /* \"#utility.yul\":4481:4487   */\n  dup3\n    /* \"#utility.yul\":4476:4479   */\n  dup3\n    /* \"#utility.yul\":4469:4488   */\n  mstore\n    /* \"#utility.yul\":4521:4525   */\n  0x20\n    /* \"#utility.yul\":4516:4519   */\n  dup3\n    /* \"#utility.yul\":4512:4526   */\n  add\n    /* \"#utility.yul\":4497:4526   */\n  swap1\n  pop\n    /* \"#utility.yul\":4363:4532   */\n  swap3\n  swap2\n  pop\n  pop\n  jump\t// out\n    /* \"#utility.yul\":4538:4712   */\ntag_59:\n    /* \"#utility.yul\":4678:4704   */\n  0x496e707574206f6e65206f776e6572206174206c656173740000000000000000\n    /* \"#utility.yul\":4674:4675   */\n  0x00\n    /* \"#utility.yul\":4666:4672   */\n  dup3\n    /* \"#utility.yul\":4662:4676   */\n  add\n    /* \"#utility.yul\":4655:4705   */\n  mstore\n    /* \"#utility.yul\":4538:4712   */\n  pop\n  jump\t// out\n    /* \"#utility.yul\":4718:5084   */\ntag_60:\n    /* \"#utility.yul\":4860:4863   */\n  0x00\n    /* \"#utility.yul\":4881:4948   */\n  tag_122\n    /* \"#utility.yul\":4945:4947   */\n  0x18\n    /* \"#utility.yul\":4940:4943   */\n  dup4\n    /* \"#utility.yul\":4881:4948   */\n  tag_58\n  jump\t// in\ntag_122:\n    /* \"#utility.yul\":4874:4948   */\n  swap2\n  pop\n    /* \"#utility.yul\":4957:5050   */\n  tag_123\n    /* \"#utility.yul\":5046:5049   */\n  dup3\n    /* \"#utility.yul\":4957:5050   */\n  tag_59\n  jump\t// in\ntag_123:\n    /* \"#utility.yul\":5075:5077   */\n  0x20\n    /* \"#utility.yul\":5070:5073   */\n  dup3\n    /* \"#utility.yul\":5066:5078   */\n  add\n    /* \"#utility.yul\":5059:5078   */\n  swap1\n  pop\n    /* \"#utility.yul\":4718:5084   */\n  swap2\n  swap1\n  pop\n  jump\t// out\n    /* \"#utility.yul\":5090:5509   */\ntag_8:\n    /* \"#utility.yul\":5256:5260   */\n  0x00\n    /* \"#utility.yul\":5294:5296   */\n  0x20\n    /* \"#utility.yul\":5283:5292   */\n  dup3\n    /* \"#utility.yul\":5279:5297   */\n  add\n    /* \"#utility.yul\":5271:5297   */\n  swap1\n  pop\n    /* \"#utility.yul\":5343:5352   */\n  dup2\n    /* \"#utility.yul\":5337:5341   */\n  dup2\n    /* \"#utility.yul\":5333:5353   */\n  sub\n    /* \"#utility.yul\":5329:5330   */\n  0x00\n    /* \"#utility.yul\":5318:5327   */\n  dup4\n    /* \"#utility.yul\":5314:5331   */\n  add\n    /* \"#utility.yul\":5307:5354   */\n  mstore\n    /* \"#utility.yul\":5371:5502   */\n  tag_125\n    /* \"#utility.yul\":5497:5501   */\n  dup2\n    /* \"#utility.yul\":5371:5502   */\n  tag_60\n  jump\t// in\ntag_125:\n    /* \"#utility.yul\":5363:5502   */\n  swap1\n  pop\n    /* \"#utility.yul\":5090:5509   */\n  swap2\n  swap1\n  pop\n  jump\t// out\n    /* \"#utility.yul\":5515:5687   */\ntag_61:\n    /* \"#utility.yul\":5655:5679   */\n  0x496e76616c69642072657175697265642073696e677300000000000000000000\n    /* \"#utility.yul\":5651:5652   */\n  0x00\n    /* \"#utility.yul\":5643:5649   */\n  dup3\n    /* \"#utility.yul\":5639:5653   */\n  add\n    /* \"#utility.yul\":5632:5680   */\n  mstore\n    /* \"#utility.yul\":5515:5687   */\n  pop\n  jump\t// out\n    /* \"#utility.yul\":5693:6059   */\ntag_62:\n    /* \"#utility.yul\":5835:5838   */\n  0x00\n    /* \"#utility.yul\":5856:5923   */\n  tag_128\n    /* \"#utility.yul\":5920:5922   */\n  0x16\n    /* \"#utility.yul\":5915:5918   */\n  dup4\n    /* \"#utility.yul\":5856:5923   */\n  tag_58\n  jump\t// in\ntag_128:\n    /* \"#utility.yul\":5849:5923   */\n  swap2\n  pop\n    /* \"#utility.yul\":5932:6025   */\n  tag_129\n    /* \"#utility.yul\":6021:6024   */\n  dup3\n    /* \"#utility.yul\":5932:6025   */\n  tag_61\n  jump\t// in\ntag_129:\n    /* \"#utility.yul\":6050:6052   */\n  0x20\n    /* \"#utility.yul\":6045:6048   */\n  dup3\n    /* \"#utility.yul\":6041:6053   */\n  add\n    /* \"#utility.yul\":6034:6053   */\n  swap1\n  pop\n    /* \"#utility.yul\":5693:6059   */\n  swap2\n  swap1\n  pop\n  jump\t// out\n    /* \"#utility.yul\":6065:6484   */\ntag_12:\n    /* \"#utility.yul\":6231:6235   */\n  0x00\n    /* \"#utility.yul\":6269:6271   */\n  0x20\n    /* \"#utility.yul\":6258:6267   */\n  dup3\n    /* \"#utility.yul\":6254:6272   */\n  add\n    /* \"#utility.yul\":6246:6272   */\n  swap1\n  pop\n    /* \"#utility.yul\":6318:6327   */\n  dup2\n    /* \"#utility.yul\":6312:6316   */\n  dup2\n    /* \"#utility.yul\":6308:6328   */\n  sub\n    /* \"#utility.yul\":6304:6305   */\n  0x00\n    /* \"#utility.yul\":6293:6302   */\n  dup4\n    /* \"#utility.yul\":6289:6306   */\n  add\n    /* \"#utility.yul\":6282:6329   */\n  mstore\n    /* \"#utility.yul\":6346:6477   */\n  tag_131\n    /* \"#utility.yul\":6472:6476   */\n  dup2\n    /* \"#utility.yul\":6346:6477   */\n  tag_62\n  jump\t// in\ntag_131:\n    /* \"#utility.yul\":6338:6477   */\n  swap1\n  pop\n    /* \"#utility.yul\":6065:6484   */\n  swap2\n  swap1\n  pop\n  jump\t// out\n    /* \"#utility.yul\":6490:6670   */\ntag_18:\n    /* \"#utility.yul\":6538:6615   */\n  0x4e487b7100000000000000000000000000000000000000000000000000000000\n    /* \"#utility.yul\":6535:6536   */\n  0x00\n    /* \"#utility.yul\":6528:6616   */\n  mstore\n    /* \"#utility.yul\":6635:6639   */\n  0x32\n    /* \"#utility.yul\":6632:6633   */\n  0x04\n    /* \"#utility.yul\":6625:6640   */\n  mstore\n    /* \"#utility.yul\":6659:6663   */\n  0x24\n    /* \"#utility.yul\":6656:6657   */\n  0x00\n    /* \"#utility.yul\":6649:6664   */\n  revert\n    /* \"#utility.yul\":6676:6847   */\ntag_63:\n    /* \"#utility.yul\":6816:6839   */\n  0x496e76616c6964206f776e657220616464726573730000000000000000000000\n    /* \"#utility.yul\":6812:6813   */\n  0x00\n    /* \"#utility.yul\":6804:6810   */\n  dup3\n    /* \"#utility.yul\":6800:6814   */\n  add\n    /* \"#utility.yul\":6793:6840   */\n  mstore\n    /* \"#utility.yul\":6676:6847   */\n  pop\n  jump\t// out\n    /* \"#utility.yul\":6853:7219   */\ntag_64:\n    /* \"#utility.yul\":6995:6998   */\n  0x00\n    /* \"#utility.yul\":7016:7083   */\n  tag_135\n    /* \"#utility.yul\":7080:7082   */\n  0x15\n    /* \"#utility.yul\":7075:7078   */\n  dup4\n    /* \"#utility.yul\":7016:7083   */\n  tag_58\n  jump\t// in\ntag_135:\n    /* \"#utility.yul\":7009:7083   */\n  swap2\n  pop\n    /* \"#utility.yul\":7092:7185   */\n  tag_136\n    /* \"#utility.yul\":7181:7184   */\n  dup3\n    /* \"#utility.yul\":7092:7185   */\n  tag_63\n  jump\t// in\ntag_136:\n    /* \"#utility.yul\":7210:7212   */\n  0x20\n    /* \"#utility.yul\":7205:7208   */\n  dup3\n    /* \"#utility.yul\":7201:7213   */\n  add\n    /* \"#utility.yul\":7194:7213   */\n  swap1\n  pop\n    /* \"#utility.yul\":6853:7219   */\n  swap2\n  swap1\n  pop\n  jump\t// out\n    /* \"#utility.yul\":7225:7644   */\ntag_21:\n    /* \"#utility.yul\":7391:7395   */\n  0x00\n    /* \"#utility.yul\":7429:7431   */\n  0x20\n    /* \"#utility.yul\":7418:7427   */\n  dup3\n    /* \"#utility.yul\":7414:7432   */\n  add\n    /* \"#utility.yul\":7406:7432   */\n  swap1\n  pop\n    /* \"#utility.yul\":7478:7487   */\n  dup2\n    /* \"#utility.yul\":7472:7476   */\n  dup2\n    /* \"#utility.yul\":7468:7488   */\n  sub\n    /* \"#utility.yul\":7464:7465   */\n  0x00\n    /* \"#utility.yul\":7453:7462   */\n  dup4\n    /* \"#utility.yul\":7449:7466   */\n  add\n    /* \"#utility.yul\":7442:7489   */\n  mstore\n    /* \"#utility.yul\":7506:7637   */\n  tag_138\n    /* \"#utility.yul\":7632:7636   */\n  dup2\n    /* \"#utility.yul\":7506:7637   */\n  tag_64\n  jump\t// in\ntag_138:\n    /* \"#utility.yul\":7498:7637   */\n  swap1\n  pop\n    /* \"#utility.yul\":7225:7644   */\n  swap2\n  swap1\n  pop\n  jump\t// out\n    /* \"#utility.yul\":7650:7816   */\ntag_65:\n    /* \"#utility.yul\":7790:7808   */\n  0x4f776e6572206465706c69636174656400000000000000000000000000000000\n    /* \"#utility.yul\":7786:7787   */\n  0x00\n    /* \"#utility.yul\":7778:7784   */\n  dup3\n    /* \"#utility.yul\":7774:7788   */\n  add\n    /* \"#utility.yul\":7767:7809   */\n  mstore\n    /* \"#utility.yul\":7650:7816   */\n  pop\n  jump\t// out\n    /* \"#utility.yul\":7822:8188   */\ntag_66:\n    /* \"#utility.yul\":7964:7967   */\n  0x00\n    /* \"#utility.yul\":7985:8052   */\n  tag_141\n    /* \"#utility.yul\":8049:8051   */\n  0x10\n    /* \"#utility.yul\":8044:8047   */\n  dup4\n    /* \"#utility.yul\":7985:8052   */\n  tag_58\n  jump\t// in\ntag_141:\n    /* \"#utility.yul\":7978:8052   */\n  swap2\n  pop\n    /* \"#utility.yul\":8061:8154   */\n  tag_142\n    /* \"#utility.yul\":8150:8153   */\n  dup3\n    /* \"#utility.yul\":8061:8154   */\n  tag_65\n  jump\t// in\ntag_142:\n    /* \"#utility.yul\":8179:8181   */\n  0x20\n    /* \"#utility.yul\":8174:8177   */\n  dup3\n    /* \"#utility.yul\":8170:8182   */\n  add\n    /* \"#utility.yul\":8163:8182   */\n  swap1\n  pop\n    /* \"#utility.yul\":7822:8188   */\n  swap2\n  swap1\n  pop\n  jump\t// out\n    /* \"#utility.yul\":8194:8613   */\ntag_26:\n    /* \"#utility.yul\":8360:8364   */\n  0x00\n    /* \"#utility.yul\":8398:8400   */\n  0x20\n    /* \"#utility.yul\":8387:8396   */\n  dup3\n    /* \"#utility.yul\":8383:8401   */\n  add\n    /* \"#utility.yul\":8375:8401   */\n  swap1\n  pop\n    /* \"#utility.yul\":8447:8456   */\n  dup2\n    /* \"#utility.yul\":8441:8445   */\n  dup2\n    /* \"#utility.yul\":8437:8457   */\n  sub\n    /* \"#utility.yul\":8433:8434   */\n  0x00\n    /* \"#utility.yul\":8422:8431   */\n  dup4\n    /* \"#utility.yul\":8418:8435   */\n  add\n    /* \"#utility.yul\":8411:8458   */\n  mstore\n    /* \"#utility.yul\":8475:8606   */\n  tag_144\n    /* \"#utility.yul\":8601:8605   */\n  dup2\n    /* \"#utility.yul\":8475:8606   */\n  tag_66\n  jump\t// in\ntag_144:\n    /* \"#utility.yul\":8467:8606   */\n  swap1\n  pop\n    /* \"#utility.yul\":8194:8613   */\n  swap2\n  swap1\n  pop\n  jump\t// out\n    /* \"contracts/MultiSignWallet2.sol\":61:2926  contract MultiSignWallet {... */\ntag_31:\n  dataSize(sub_0)\n  dup1\n  dataOffset(sub_0)\n  0x00\n  codecopy\n  0x00\n  return\nstop\n\nsub_0: assembly {\n        /* \"contracts/MultiSignWallet2.sol\":61:2926  contract MultiSignWallet {... */\n      mstore(0x40, 0x80)\n      jumpi(tag_1, lt(calldatasize, 0x04))\n      shr(0xe0, calldataload(0x00))\n      dup1\n      0x14de327f\n      eq\n      tag_3\n      jumpi\n      dup1\n      0xb759f954\n      eq\n      tag_4\n      jumpi\n      dup1\n      0xba7e7cab\n      eq\n      tag_5\n      jumpi\n      dup1\n      0xfe0d94c1\n      eq\n      tag_6\n      jumpi\n      jump(tag_2)\n    tag_1:\n      jumpi(tag_2, calldatasize)\n        /* \"contracts/MultiSignWallet2.sol\":1800:1810  msg.sender */\n      caller\n        /* \"contracts/MultiSignWallet2.sol\":1792:1822  Deposit(msg.sender, msg.value) */\n      0xffffffffffffffffffffffffffffffffffffffff\n      and\n      0xe1fffcc4923d04b559f4d29a8bfc6cda04eb5b0d3c460751c2402c5c5cc9109c\n        /* \"contracts/MultiSignWallet2.sol\":1812:1821  msg.value */\n      callvalue\n        /* \"contracts/MultiSignWallet2.sol\":1792:1822  Deposit(msg.sender, msg.value) */\n      mload(0x40)\n      tag_9\n      swap2\n      swap1\n      tag_10\n      jump\t// in\n    tag_9:\n      mload(0x40)\n      dup1\n      swap2\n      sub\n      swap1\n      log2\n        /* \"contracts/MultiSignWallet2.sol\":61:2926  contract MultiSignWallet {... */\n      stop\n    tag_2:\n      0x00\n      dup1\n      revert\n        /* \"contracts/MultiSignWallet2.sol\":1838:2023  function submit(address to, uint value, bytes calldata callData) public onlyOwner {... */\n    tag_3:\n      callvalue\n      dup1\n      iszero\n      tag_11\n      jumpi\n      0x00\n      dup1\n      revert\n    tag_11:\n      pop\n      tag_12\n      0x04\n      dup1\n      calldatasize\n      sub\n      dup2\n      add\n      swap1\n      tag_13\n      swap2\n      swap1\n      tag_14\n      jump\t// in\n    tag_13:\n      tag_15\n      jump\t// in\n    tag_12:\n      stop\n        /* \"contracts/MultiSignWallet2.sol\":2031:2206  function approve(uint txid) public onlyOwner isExisting(txid) notApproved(txid) {... */\n    tag_4:\n      callvalue\n      dup1\n      iszero\n      tag_16\n      jumpi\n      0x00\n      dup1\n      revert\n    tag_16:\n      pop\n      tag_17\n      0x04\n      dup1\n      calldatasize\n      sub\n      dup2\n      add\n      swap1\n      tag_18\n      swap2\n      swap1\n      tag_19\n      jump\t// in\n    tag_18:\n      tag_20\n      jump\t// in\n    tag_17:\n      stop\n        /* \"contracts/MultiSignWallet2.sol\":2659:2917  function getApprovalCount(uint txid) public view returns(uint count) {... */\n    tag_5:\n      callvalue\n      dup1\n      iszero\n      tag_21\n      jumpi\n      0x00\n      dup1\n      revert\n    tag_21:\n      pop\n      tag_22\n      0x04\n      dup1\n      calldatasize\n      sub\n      dup2\n      add\n      swap1\n      tag_23\n      swap2\n      swap1\n      tag_19\n      jump\t// in\n    tag_23:\n      tag_24\n      jump\t// in\n    tag_22:\n      mload(0x40)\n      tag_25\n      swap2\n      swap1\n      tag_10\n      jump\t// in\n    tag_25:\n      mload(0x40)\n      dup1\n      swap2\n      sub\n      swap1\n      return\n        /* \"contracts/MultiSignWallet2.sol\":2214:2651  function execute(uint txid) public onlyOwner isExisting(txid) notExecuted(txid) {... */\n    tag_6:\n      callvalue\n      dup1\n      iszero\n      tag_26\n      jumpi\n      0x00\n      dup1\n      revert\n    tag_26:\n      pop\n      tag_27\n      0x04\n      dup1\n      calldatasize\n      sub\n      dup2\n      add\n      swap1\n      tag_28\n      swap2\n      swap1\n      tag_19\n      jump\t// in\n    tag_28:\n      tag_29\n      jump\t// in\n    tag_27:\n      stop\n        /* \"contracts/MultiSignWallet2.sol\":1838:2023  function submit(address to, uint value, bytes calldata callData) public onlyOwner {... */\n    tag_15:\n        /* \"contracts/MultiSignWallet2.sol\":1291:1298  isOwner */\n      0x02\n        /* \"contracts/MultiSignWallet2.sol\":1291:1310  isOwner[msg.sender] */\n      0x00\n        /* \"contracts/MultiSignWallet2.sol\":1299:1309  msg.sender */\n      caller\n        /* \"contracts/MultiSignWallet2.sol\":1291:1310  isOwner[msg.sender] */\n      0xffffffffffffffffffffffffffffffffffffffff\n      and\n      0xffffffffffffffffffffffffffffffffffffffff\n      and\n      dup2\n      mstore\n      0x20\n      add\n      swap1\n      dup2\n      mstore\n      0x20\n      add\n      0x00\n      keccak256\n      0x00\n      swap1\n      sload\n      swap1\n      0x0100\n      exp\n      swap1\n      div\n      0xff\n      and\n        /* \"contracts/MultiSignWallet2.sol\":1283:1332  require(isOwner[msg.sender], \"You are not onwer\") */\n      tag_31\n      jumpi\n      mload(0x40)\n      0x08c379a000000000000000000000000000000000000000000000000000000000\n      dup2\n      mstore\n      0x04\n      add\n      tag_32\n      swap1\n      tag_33\n      jump\t// in\n    tag_32:\n      mload(0x40)\n      dup1\n      swap2\n      sub\n      swap1\n      revert\n    tag_31:\n        /* \"contracts/MultiSignWallet2.sol\":1931:1936  trans */\n      0x04\n        /* \"contracts/MultiSignWallet2.sol\":1942:1974  Tran(to, value, callData, false) */\n      mload(0x40)\n      dup1\n      0x80\n      add\n      0x40\n      mstore\n      dup1\n        /* \"contracts/MultiSignWallet2.sol\":1947:1949  to */\n      dup7\n        /* \"contracts/MultiSignWallet2.sol\":1942:1974  Tran(to, value, callData, false) */\n      0xffffffffffffffffffffffffffffffffffffffff\n      and\n      dup2\n      mstore\n      0x20\n      add\n        /* \"contracts/MultiSignWallet2.sol\":1951:1956  value */\n      dup6\n        /* \"contracts/MultiSignWallet2.sol\":1942:1974  Tran(to, value, callData, false) */\n      dup2\n      mstore\n      0x20\n      add\n        /* \"contracts/MultiSignWallet2.sol\":1958:1966  callData */\n      dup5\n      dup5\n        /* \"contracts/MultiSignWallet2.sol\":1942:1974  Tran(to, value, callData, false) */\n      dup1\n      dup1\n      0x1f\n      add\n      0x20\n      dup1\n      swap2\n      div\n      mul\n      0x20\n      add\n      mload(0x40)\n      swap1\n      dup2\n      add\n      0x40\n      mstore\n      dup1\n      swap4\n      swap3\n      swap2\n      swap1\n      dup2\n      dup2\n      mstore\n      0x20\n      add\n      dup4\n      dup4\n      dup1\n      dup3\n      dup5\n      calldatacopy\n      0x00\n      dup2\n      dup5\n      add\n      mstore\n      not(0x1f)\n      0x1f\n      dup3\n      add\n      and\n      swap1\n      pop\n      dup1\n      dup4\n      add\n      swap3\n      pop\n      pop\n      pop\n      pop\n      pop\n      pop\n      pop\n      dup2\n      mstore\n      0x20\n      add\n        /* \"contracts/MultiSignWallet2.sol\":1968:1973  false */\n      0x00\n        /* \"contracts/MultiSignWallet2.sol\":1942:1974  Tran(to, value, callData, false) */\n      iszero\n      iszero\n      dup2\n      mstore\n      pop\n        /* \"contracts/MultiSignWallet2.sol\":1931:1975  trans.push(Tran(to, value, callData, false)) */\n      swap1\n      dup1\n      0x01\n      dup2\n      sload\n      add\n      dup1\n      dup3\n      sstore\n      dup1\n      swap2\n      pop\n      pop\n      0x01\n      swap1\n      sub\n      swap1\n      0x00\n      mstore\n      keccak256(0x00, 0x20)\n      swap1\n      0x04\n      mul\n      add\n      0x00\n      swap1\n      swap2\n      swap1\n      swap2\n      swap1\n      swap2\n      pop\n      0x00\n      dup3\n      add\n      mload\n      dup2\n      0x00\n      add\n      exp(0x0100, 0x00)\n      dup2\n      sload\n      dup2\n      0xffffffffffffffffffffffffffffffffffffffff\n      mul\n      not\n      and\n      swap1\n      dup4\n      0xffffffffffffffffffffffffffffffffffffffff\n      and\n      mul\n      or\n      swap1\n      sstore\n      pop\n      0x20\n      dup3\n      add\n      mload\n      dup2\n      0x01\n      add\n      sstore\n      0x40\n      dup3\n      add\n      mload\n      dup2\n      0x02\n      add\n      swap1\n      dup2\n      tag_36\n      swap2\n      swap1\n      tag_37\n      jump\t// in\n    tag_36:\n      pop\n      0x60\n      dup3\n      add\n      mload\n      dup2\n      0x03\n      add\n      exp(0x0100, 0x00)\n      dup2\n      sload\n      dup2\n      0xff\n      mul\n      not\n      and\n      swap1\n      dup4\n      iszero\n      iszero\n      mul\n      or\n      swap1\n      sstore\n      pop\n      pop\n      pop\n        /* \"contracts/MultiSignWallet2.sol\":2013:2014  1 */\n      0x01\n        /* \"contracts/MultiSignWallet2.sol\":1998:2003  trans */\n      0x04\n        /* \"contracts/MultiSignWallet2.sol\":1998:2010  trans.length */\n      dup1\n      sload\n      swap1\n      pop\n        /* \"contracts/MultiSignWallet2.sol\":1998:2014  trans.length - 1 */\n      tag_38\n      swap2\n      swap1\n      tag_39\n      jump\t// in\n    tag_38:\n        /* \"contracts/MultiSignWallet2.sol\":1991:2015  Submit(trans.length - 1) */\n      0x08324b3d745b914e3abd4ffbfead91e3b78391a98c173202129215ab933adfbe\n      mload(0x40)\n      mload(0x40)\n      dup1\n      swap2\n      sub\n      swap1\n      log2\n        /* \"contracts/MultiSignWallet2.sol\":1838:2023  function submit(address to, uint value, bytes calldata callData) public onlyOwner {... */\n      pop\n      pop\n      pop\n      pop\n      jump\t// out\n        /* \"contracts/MultiSignWallet2.sol\":2031:2206  function approve(uint txid) public onlyOwner isExisting(txid) notApproved(txid) {... */\n    tag_20:\n        /* \"contracts/MultiSignWallet2.sol\":1291:1298  isOwner */\n      0x02\n        /* \"contracts/MultiSignWallet2.sol\":1291:1310  isOwner[msg.sender] */\n      0x00\n        /* \"contracts/MultiSignWallet2.sol\":1299:1309  msg.sender */\n      caller\n        /* \"contracts/MultiSignWallet2.sol\":1291:1310  isOwner[msg.sender] */\n      0xffffffffffffffffffffffffffffffffffffffff\n      and\n      0xffffffffffffffffffffffffffffffffffffffff\n      and\n      dup2\n      mstore\n      0x20\n      add\n      swap1\n      dup2\n      mstore\n      0x20\n      add\n      0x00\n      keccak256\n      0x00\n      swap1\n      sload\n      swap1\n      0x0100\n      exp\n      swap1\n      div\n      0xff\n      and\n        /* \"contracts/MultiSignWallet2.sol\":1283:1332  require(isOwner[msg.sender], \"You are not onwer\") */\n      tag_41\n      jumpi\n      mload(0x40)\n      0x08c379a000000000000000000000000000000000000000000000000000000000\n      dup2\n      mstore\n      0x04\n      add\n      tag_42\n      swap1\n      tag_33\n      jump\t// in\n    tag_42:\n      mload(0x40)\n      dup1\n      swap2\n      sub\n      swap1\n      revert\n    tag_41:\n        /* \"contracts/MultiSignWallet2.sol\":2087:2091  txid */\n      dup1\n        /* \"contracts/MultiSignWallet2.sol\":1415:1420  trans */\n      0x04\n        /* \"contracts/MultiSignWallet2.sol\":1415:1427  trans.length */\n      dup1\n      sload\n      swap1\n      pop\n        /* \"contracts/MultiSignWallet2.sol\":1408:1412  txid */\n      dup2\n        /* \"contracts/MultiSignWallet2.sol\":1408:1427  txid < trans.length */\n      lt\n        /* \"contracts/MultiSignWallet2.sol\":1400:1459  require(txid < trans.length, \"Transcation is not existing\") */\n      tag_44\n      jumpi\n      mload(0x40)\n      0x08c379a000000000000000000000000000000000000000000000000000000000\n      dup2\n      mstore\n      0x04\n      add\n      tag_45\n      swap1\n      tag_46\n      jump\t// in\n    tag_45:\n      mload(0x40)\n      dup1\n      swap2\n      sub\n      swap1\n      revert\n    tag_44:\n        /* \"contracts/MultiSignWallet2.sol\":2105:2109  txid */\n      dup2\n        /* \"contracts/MultiSignWallet2.sol\":1537:1547  isApproved */\n      0x03\n        /* \"contracts/MultiSignWallet2.sol\":1537:1553  isApproved[txid] */\n      0x00\n        /* \"contracts/MultiSignWallet2.sol\":1548:1552  txid */\n      dup3\n        /* \"contracts/MultiSignWallet2.sol\":1537:1553  isApproved[txid] */\n      dup2\n      mstore\n      0x20\n      add\n      swap1\n      dup2\n      mstore\n      0x20\n      add\n      0x00\n      keccak256\n        /* \"contracts/MultiSignWallet2.sol\":1537:1565  isApproved[txid][msg.sender] */\n      0x00\n        /* \"contracts/MultiSignWallet2.sol\":1554:1564  msg.sender */\n      caller\n        /* \"contracts/MultiSignWallet2.sol\":1537:1565  isApproved[txid][msg.sender] */\n      0xffffffffffffffffffffffffffffffffffffffff\n      and\n      0xffffffffffffffffffffffffffffffffffffffff\n      and\n      dup2\n      mstore\n      0x20\n      add\n      swap1\n      dup2\n      mstore\n      0x20\n      add\n      0x00\n      keccak256\n      0x00\n      swap1\n      sload\n      swap1\n      0x0100\n      exp\n      swap1\n      div\n      0xff\n      and\n        /* \"contracts/MultiSignWallet2.sol\":1536:1565  !isApproved[txid][msg.sender] */\n      iszero\n        /* \"contracts/MultiSignWallet2.sol\":1528:1593  require(!isApproved[txid][msg.sender], \"Transcation is approved\") */\n      tag_48\n      jumpi\n      mload(0x40)\n      0x08c379a000000000000000000000000000000000000000000000000000000000\n      dup2\n      mstore\n      0x04\n      add\n      tag_49\n      swap1\n      tag_50\n      jump\t// in\n    tag_49:\n      mload(0x40)\n      dup1\n      swap2\n      sub\n      swap1\n      revert\n    tag_48:\n        /* \"contracts/MultiSignWallet2.sol\":2153:2157  true */\n      0x01\n        /* \"contracts/MultiSignWallet2.sol\":2122:2132  isApproved */\n      0x03\n        /* \"contracts/MultiSignWallet2.sol\":2122:2138  isApproved[txid] */\n      0x00\n        /* \"contracts/MultiSignWallet2.sol\":2133:2137  txid */\n      dup6\n        /* \"contracts/MultiSignWallet2.sol\":2122:2138  isApproved[txid] */\n      dup2\n      mstore\n      0x20\n      add\n      swap1\n      dup2\n      mstore\n      0x20\n      add\n      0x00\n      keccak256\n        /* \"contracts/MultiSignWallet2.sol\":2122:2150  isApproved[txid][msg.sender] */\n      0x00\n        /* \"contracts/MultiSignWallet2.sol\":2139:2149  msg.sender */\n      caller\n        /* \"contracts/MultiSignWallet2.sol\":2122:2150  isApproved[txid][msg.sender] */\n      0xffffffffffffffffffffffffffffffffffffffff\n      and\n      0xffffffffffffffffffffffffffffffffffffffff\n      and\n      dup2\n      mstore\n      0x20\n      add\n      swap1\n      dup2\n      mstore\n      0x20\n      add\n      0x00\n      keccak256\n      0x00\n        /* \"contracts/MultiSignWallet2.sol\":2122:2157  isApproved[txid][msg.sender] = true */\n      0x0100\n      exp\n      dup2\n      sload\n      dup2\n      0xff\n      mul\n      not\n      and\n      swap1\n      dup4\n      iszero\n      iszero\n      mul\n      or\n      swap1\n      sstore\n      pop\n        /* \"contracts/MultiSignWallet2.sol\":2187:2197  msg.sender */\n      caller\n        /* \"contracts/MultiSignWallet2.sol\":2173:2198  Approve(txid, msg.sender) */\n      0xffffffffffffffffffffffffffffffffffffffff\n      and\n        /* \"contracts/MultiSignWallet2.sol\":2181:2185  txid */\n      dup4\n        /* \"contracts/MultiSignWallet2.sol\":2173:2198  Approve(txid, msg.sender) */\n      0x47ad3e4b0f4bdbe3ac08708bbc45053d2ff616911b39e65563fd9bd781909645\n      mload(0x40)\n      mload(0x40)\n      dup1\n      swap2\n      sub\n      swap1\n      log3\n        /* \"contracts/MultiSignWallet2.sol\":1470:1471  _ */\n      pop\n        /* \"contracts/MultiSignWallet2.sol\":1343:1344  _ */\n      pop\n        /* \"contracts/MultiSignWallet2.sol\":2031:2206  function approve(uint txid) public onlyOwner isExisting(txid) notApproved(txid) {... */\n      pop\n      jump\t// out\n        /* \"contracts/MultiSignWallet2.sol\":2659:2917  function getApprovalCount(uint txid) public view returns(uint count) {... */\n    tag_24:\n        /* \"contracts/MultiSignWallet2.sol\":2716:2726  uint count */\n      0x00\n        /* \"contracts/MultiSignWallet2.sol\":2743:2751  uint idx */\n      dup1\n        /* \"contracts/MultiSignWallet2.sol\":2754:2755  0 */\n      0x00\n        /* \"contracts/MultiSignWallet2.sol\":2743:2755  uint idx = 0 */\n      swap1\n      pop\n        /* \"contracts/MultiSignWallet2.sol\":2739:2887  for(uint idx = 0; idx < owners.length; idx++) {... */\n    tag_53:\n        /* \"contracts/MultiSignWallet2.sol\":2763:2769  owners */\n      0x00\n        /* \"contracts/MultiSignWallet2.sol\":2763:2776  owners.length */\n      dup1\n      sload\n      swap1\n      pop\n        /* \"contracts/MultiSignWallet2.sol\":2757:2760  idx */\n      dup2\n        /* \"contracts/MultiSignWallet2.sol\":2757:2776  idx < owners.length */\n      lt\n        /* \"contracts/MultiSignWallet2.sol\":2739:2887  for(uint idx = 0; idx < owners.length; idx++) {... */\n      iszero\n      tag_54\n      jumpi\n        /* \"contracts/MultiSignWallet2.sol\":2803:2813  isApproved */\n      0x03\n        /* \"contracts/MultiSignWallet2.sol\":2803:2819  isApproved[txid] */\n      0x00\n        /* \"contracts/MultiSignWallet2.sol\":2814:2818  txid */\n      dup5\n        /* \"contracts/MultiSignWallet2.sol\":2803:2819  isApproved[txid] */\n      dup2\n      mstore\n      0x20\n      add\n      swap1\n      dup2\n      mstore\n      0x20\n      add\n      0x00\n      keccak256\n        /* \"contracts/MultiSignWallet2.sol\":2803:2832  isApproved[txid][owners[idx]] */\n      0x00\n        /* \"contracts/MultiSignWallet2.sol\":2820:2826  owners */\n      dup1\n        /* \"contracts/MultiSignWallet2.sol\":2827:2830  idx */\n      dup4\n        /* \"contracts/MultiSignWallet2.sol\":2820:2831  owners[idx] */\n      dup2\n      sload\n      dup2\n      lt\n      tag_56\n      jumpi\n      tag_57\n      tag_58\n      jump\t// in\n    tag_57:\n    tag_56:\n      swap1\n      0x00\n      mstore\n      keccak256(0x00, 0x20)\n      add\n      0x00\n      swap1\n      sload\n      swap1\n      0x0100\n      exp\n      swap1\n      div\n      0xffffffffffffffffffffffffffffffffffffffff\n      and\n        /* \"contracts/MultiSignWallet2.sol\":2803:2832  isApproved[txid][owners[idx]] */\n      0xffffffffffffffffffffffffffffffffffffffff\n      and\n      0xffffffffffffffffffffffffffffffffffffffff\n      and\n      dup2\n      mstore\n      0x20\n      add\n      swap1\n      dup2\n      mstore\n      0x20\n      add\n      0x00\n      keccak256\n      0x00\n      swap1\n      sload\n      swap1\n      0x0100\n      exp\n      swap1\n      div\n      0xff\n      and\n        /* \"contracts/MultiSignWallet2.sol\":2800:2876  if(isApproved[txid][owners[idx]]) {... */\n      iszero\n      tag_60\n      jumpi\n        /* \"contracts/MultiSignWallet2.sol\":2853:2860  count++ */\n      dup2\n      dup1\n      tag_61\n      swap1\n      tag_62\n      jump\t// in\n    tag_61:\n      swap3\n      pop\n      pop\n        /* \"contracts/MultiSignWallet2.sol\":2800:2876  if(isApproved[txid][owners[idx]]) {... */\n    tag_60:\n        /* \"contracts/MultiSignWallet2.sol\":2778:2783  idx++ */\n      dup1\n      dup1\n      0x01\n      add\n      swap2\n      pop\n      pop\n        /* \"contracts/MultiSignWallet2.sol\":2739:2887  for(uint idx = 0; idx < owners.length; idx++) {... */\n      jump(tag_53)\n    tag_54:\n      pop\n        /* \"contracts/MultiSignWallet2.sol\":2659:2917  function getApprovalCount(uint txid) public view returns(uint count) {... */\n      swap2\n      swap1\n      pop\n      jump\t// out\n        /* \"contracts/MultiSignWallet2.sol\":2214:2651  function execute(uint txid) public onlyOwner isExisting(txid) notExecuted(txid) {... */\n    tag_29:\n        /* \"contracts/MultiSignWallet2.sol\":1291:1298  isOwner */\n      0x02\n        /* \"contracts/MultiSignWallet2.sol\":1291:1310  isOwner[msg.sender] */\n      0x00\n        /* \"contracts/MultiSignWallet2.sol\":1299:1309  msg.sender */\n      caller\n        /* \"contracts/MultiSignWallet2.sol\":1291:1310  isOwner[msg.sender] */\n      0xffffffffffffffffffffffffffffffffffffffff\n      and\n      0xffffffffffffffffffffffffffffffffffffffff\n      and\n      dup2\n      mstore\n      0x20\n      add\n      swap1\n      dup2\n      mstore\n      0x20\n      add\n      0x00\n      keccak256\n      0x00\n      swap1\n      sload\n      swap1\n      0x0100\n      exp\n      swap1\n      div\n      0xff\n      and\n        /* \"contracts/MultiSignWallet2.sol\":1283:1332  require(isOwner[msg.sender], \"You are not onwer\") */\n      tag_64\n      jumpi\n      mload(0x40)\n      0x08c379a000000000000000000000000000000000000000000000000000000000\n      dup2\n      mstore\n      0x04\n      add\n      tag_65\n      swap1\n      tag_33\n      jump\t// in\n    tag_65:\n      mload(0x40)\n      dup1\n      swap2\n      sub\n      swap1\n      revert\n    tag_64:\n        /* \"contracts/MultiSignWallet2.sol\":2270:2274  txid */\n      dup1\n        /* \"contracts/MultiSignWallet2.sol\":1415:1420  trans */\n      0x04\n        /* \"contracts/MultiSignWallet2.sol\":1415:1427  trans.length */\n      dup1\n      sload\n      swap1\n      pop\n        /* \"contracts/MultiSignWallet2.sol\":1408:1412  txid */\n      dup2\n        /* \"contracts/MultiSignWallet2.sol\":1408:1427  txid < trans.length */\n      lt\n        /* \"contracts/MultiSignWallet2.sol\":1400:1459  require(txid < trans.length, \"Transcation is not existing\") */\n      tag_67\n      jumpi\n      mload(0x40)\n      0x08c379a000000000000000000000000000000000000000000000000000000000\n      dup2\n      mstore\n      0x04\n      add\n      tag_68\n      swap1\n      tag_46\n      jump\t// in\n    tag_68:\n      mload(0x40)\n      dup1\n      swap2\n      sub\n      swap1\n      revert\n    tag_67:\n        /* \"contracts/MultiSignWallet2.sol\":2288:2292  txid */\n      dup2\n        /* \"contracts/MultiSignWallet2.sol\":1671:1676  trans */\n      0x04\n        /* \"contracts/MultiSignWallet2.sol\":1677:1681  txid */\n      dup2\n        /* \"contracts/MultiSignWallet2.sol\":1671:1682  trans[txid] */\n      dup2\n      sload\n      dup2\n      lt\n      tag_70\n      jumpi\n      tag_71\n      tag_58\n      jump\t// in\n    tag_71:\n    tag_70:\n      swap1\n      0x00\n      mstore\n      keccak256(0x00, 0x20)\n      swap1\n      0x04\n      mul\n      add\n        /* \"contracts/MultiSignWallet2.sol\":1671:1693  trans[txid].isExecuted */\n      0x03\n      add\n      0x00\n      swap1\n      sload\n      swap1\n      0x0100\n      exp\n      swap1\n      div\n      0xff\n      and\n        /* \"contracts/MultiSignWallet2.sol\":1670:1693  !trans[txid].isExecuted */\n      iszero\n        /* \"contracts/MultiSignWallet2.sol\":1662:1721  require(!trans[txid].isExecuted, \"Transcation is executed\") */\n      tag_73\n      jumpi\n      mload(0x40)\n      0x08c379a000000000000000000000000000000000000000000000000000000000\n      dup2\n      mstore\n      0x04\n      add\n      tag_74\n      swap1\n      tag_75\n      jump\t// in\n    tag_74:\n      mload(0x40)\n      dup1\n      swap2\n      sub\n      swap1\n      revert\n    tag_73:\n        /* \"contracts/MultiSignWallet2.sol\":2339:2352  requiredSigns */\n      sload(0x01)\n        /* \"contracts/MultiSignWallet2.sol\":2313:2335  getApprovalCount(txid) */\n      tag_77\n        /* \"contracts/MultiSignWallet2.sol\":2330:2334  txid */\n      dup5\n        /* \"contracts/MultiSignWallet2.sol\":2313:2329  getApprovalCount */\n      tag_24\n        /* \"contracts/MultiSignWallet2.sol\":2313:2335  getApprovalCount(txid) */\n      jump\t// in\n    tag_77:\n        /* \"contracts/MultiSignWallet2.sol\":2313:2352  getApprovalCount(txid) >= requiredSigns */\n      lt\n      iszero\n        /* \"contracts/MultiSignWallet2.sol\":2305:2398  require(getApprovalCount(txid) >= requiredSigns, \"Approval Count of this tx < requiredSigns\") */\n      tag_78\n      jumpi\n      mload(0x40)\n      0x08c379a000000000000000000000000000000000000000000000000000000000\n      dup2\n      mstore\n      0x04\n      add\n      tag_79\n      swap1\n      tag_80\n      jump\t// in\n    tag_79:\n      mload(0x40)\n      dup1\n      swap2\n      sub\n      swap1\n      revert\n    tag_78:\n        /* \"contracts/MultiSignWallet2.sol\":2409:2426  Tran storage tran */\n      0x00\n        /* \"contracts/MultiSignWallet2.sol\":2429:2434  trans */\n      0x04\n        /* \"contracts/MultiSignWallet2.sol\":2435:2439  txid */\n      dup5\n        /* \"contracts/MultiSignWallet2.sol\":2429:2440  trans[txid] */\n      dup2\n      sload\n      dup2\n      lt\n      tag_81\n      jumpi\n      tag_82\n      tag_58\n      jump\t// in\n    tag_82:\n    tag_81:\n      swap1\n      0x00\n      mstore\n      keccak256(0x00, 0x20)\n      swap1\n      0x04\n      mul\n      add\n        /* \"contracts/MultiSignWallet2.sol\":2409:2440  Tran storage tran = trans[txid] */\n      swap1\n      pop\n        /* \"contracts/MultiSignWallet2.sol\":2452:2463  bool sucess */\n      0x00\n        /* \"contracts/MultiSignWallet2.sol\":2468:2472  tran */\n      dup2\n        /* \"contracts/MultiSignWallet2.sol\":2468:2475  tran.to */\n      0x00\n      add\n      0x00\n      swap1\n      sload\n      swap1\n      0x0100\n      exp\n      swap1\n      div\n      0xffffffffffffffffffffffffffffffffffffffff\n      and\n        /* \"contracts/MultiSignWallet2.sol\":2468:2480  tran.to.call */\n      0xffffffffffffffffffffffffffffffffffffffff\n      and\n        /* \"contracts/MultiSignWallet2.sol\":2488:2509  address(this).balance */\n      selfbalance\n        /* \"contracts/MultiSignWallet2.sol\":2511:2515  tran */\n      dup4\n        /* \"contracts/MultiSignWallet2.sol\":2511:2524  tran.callData */\n      0x02\n      add\n        /* \"contracts/MultiSignWallet2.sol\":2468:2525  tran.to.call{value: address(this).balance}(tran.callData) */\n      mload(0x40)\n      tag_84\n      swap2\n      swap1\n      tag_85\n      jump\t// in\n    tag_84:\n      0x00\n      mload(0x40)\n      dup1\n      dup4\n      sub\n      dup2\n      dup6\n      dup8\n      gas\n      call\n      swap3\n      pop\n      pop\n      pop\n      returndatasize\n      dup1\n      0x00\n      dup2\n      eq\n      tag_88\n      jumpi\n      mload(0x40)\n      swap2\n      pop\n      and(add(returndatasize, 0x3f), not(0x1f))\n      dup3\n      add\n      0x40\n      mstore\n      returndatasize\n      dup3\n      mstore\n      returndatasize\n      0x00\n      0x20\n      dup5\n      add\n      returndatacopy\n      jump(tag_87)\n    tag_88:\n      0x60\n      swap2\n      pop\n    tag_87:\n      pop\n        /* \"contracts/MultiSignWallet2.sol\":2451:2525  (bool sucess,) = tran.to.call{value: address(this).balance}(tran.callData) */\n      pop\n      swap1\n      pop\n        /* \"contracts/MultiSignWallet2.sol\":2544:2550  sucess */\n      dup1\n        /* \"contracts/MultiSignWallet2.sol\":2536:2581  require(sucess, \"Transcation execute failed\") */\n      tag_89\n      jumpi\n      mload(0x40)\n      0x08c379a000000000000000000000000000000000000000000000000000000000\n      dup2\n      mstore\n      0x04\n      add\n      tag_90\n      swap1\n      tag_91\n      jump\t// in\n    tag_90:\n      mload(0x40)\n      dup1\n      swap2\n      sub\n      swap1\n      revert\n    tag_89:\n        /* \"contracts/MultiSignWallet2.sol\":2610:2614  true */\n      0x01\n        /* \"contracts/MultiSignWallet2.sol\":2592:2596  tran */\n      dup3\n        /* \"contracts/MultiSignWallet2.sol\":2592:2607  tran.isExecuted */\n      0x03\n      add\n      0x00\n        /* \"contracts/MultiSignWallet2.sol\":2592:2614  tran.isExecuted = true */\n      0x0100\n      exp\n      dup2\n      sload\n      dup2\n      0xff\n      mul\n      not\n      and\n      swap1\n      dup4\n      iszero\n      iszero\n      mul\n      or\n      swap1\n      sstore\n      pop\n        /* \"contracts/MultiSignWallet2.sol\":2638:2642  txid */\n      dup5\n        /* \"contracts/MultiSignWallet2.sol\":2630:2643  Execute(txid) */\n      0xddb556f1d2c1ec821e910b019d3685b229db152a0ecd517ca7e24b8bd7139289\n      mload(0x40)\n      mload(0x40)\n      dup1\n      swap2\n      sub\n      swap1\n      log2\n        /* \"contracts/MultiSignWallet2.sol\":2294:2651  {... */\n      pop\n      pop\n        /* \"contracts/MultiSignWallet2.sol\":1470:1471  _ */\n      pop\n        /* \"contracts/MultiSignWallet2.sol\":1343:1344  _ */\n      pop\n        /* \"contracts/MultiSignWallet2.sol\":2214:2651  function execute(uint txid) public onlyOwner isExisting(txid) notExecuted(txid) {... */\n      pop\n      jump\t// out\n        /* \"#utility.yul\":7:84   */\n    tag_92:\n        /* \"#utility.yul\":44:51   */\n      0x00\n        /* \"#utility.yul\":73:78   */\n      dup2\n        /* \"#utility.yul\":62:78   */\n      swap1\n      pop\n        /* \"#utility.yul\":7:84   */\n      swap2\n      swap1\n      pop\n      jump\t// out\n        /* \"#utility.yul\":90:208   */\n    tag_93:\n        /* \"#utility.yul\":177:201   */\n      tag_145\n        /* \"#utility.yul\":195:200   */\n      dup2\n        /* \"#utility.yul\":177:201   */\n      tag_92\n      jump\t// in\n    tag_145:\n        /* \"#utility.yul\":172:175   */\n      dup3\n        /* \"#utility.yul\":165:202   */\n      mstore\n        /* \"#utility.yul\":90:208   */\n      pop\n      pop\n      jump\t// out\n        /* \"#utility.yul\":214:436   */\n    tag_10:\n        /* \"#utility.yul\":307:311   */\n      0x00\n        /* \"#utility.yul\":345:347   */\n      0x20\n        /* \"#utility.yul\":334:343   */\n      dup3\n        /* \"#utility.yul\":330:348   */\n      add\n        /* \"#utility.yul\":322:348   */\n      swap1\n      pop\n        /* \"#utility.yul\":358:429   */\n      tag_147\n        /* \"#utility.yul\":426:427   */\n      0x00\n        /* \"#utility.yul\":415:424   */\n      dup4\n        /* \"#utility.yul\":411:428   */\n      add\n        /* \"#utility.yul\":402:408   */\n      dup5\n        /* \"#utility.yul\":358:429   */\n      tag_93\n      jump\t// in\n    tag_147:\n        /* \"#utility.yul\":214:436   */\n      swap3\n      swap2\n      pop\n      pop\n      jump\t// out\n        /* \"#utility.yul\":523:640   */\n    tag_95:\n        /* \"#utility.yul\":632:633   */\n      0x00\n        /* \"#utility.yul\":629:630   */\n      dup1\n        /* \"#utility.yul\":622:634   */\n      revert\n        /* \"#utility.yul\":646:763   */\n    tag_96:\n        /* \"#utility.yul\":755:756   */\n      0x00\n        /* \"#utility.yul\":752:753   */\n      dup1\n        /* \"#utility.yul\":745:757   */\n      revert\n        /* \"#utility.yul\":769:895   */\n    tag_97:\n        /* \"#utility.yul\":806:813   */\n      0x00\n        /* \"#utility.yul\":846:888   */\n      0xffffffffffffffffffffffffffffffffffffffff\n        /* \"#utility.yul\":839:844   */\n      dup3\n        /* \"#utility.yul\":835:889   */\n      and\n        /* \"#utility.yul\":824:889   */\n      swap1\n      pop\n        /* \"#utility.yul\":769:895   */\n      swap2\n      swap1\n      pop\n      jump\t// out\n        /* \"#utility.yul\":901:997   */\n    tag_98:\n        /* \"#utility.yul\":938:945   */\n      0x00\n        /* \"#utility.yul\":967:991   */\n      tag_153\n        /* \"#utility.yul\":985:990   */\n      dup3\n        /* \"#utility.yul\":967:991   */\n      tag_97\n      jump\t// in\n    tag_153:\n        /* \"#utility.yul\":956:991   */\n      swap1\n      pop\n        /* \"#utility.yul\":901:997   */\n      swap2\n      swap1\n      pop\n      jump\t// out\n        /* \"#utility.yul\":1003:1125   */\n    tag_99:\n        /* \"#utility.yul\":1076:1100   */\n      tag_155\n        /* \"#utility.yul\":1094:1099   */\n      dup2\n        /* \"#utility.yul\":1076:1100   */\n      tag_98\n      jump\t// in\n    tag_155:\n        /* \"#utility.yul\":1069:1074   */\n      dup2\n        /* \"#utility.yul\":1066:1101   */\n      eq\n        /* \"#utility.yul\":1056:1119   */\n      tag_156\n      jumpi\n        /* \"#utility.yul\":1115:1116   */\n      0x00\n        /* \"#utility.yul\":1112:1113   */\n      dup1\n        /* \"#utility.yul\":1105:1117   */\n      revert\n        /* \"#utility.yul\":1056:1119   */\n    tag_156:\n        /* \"#utility.yul\":1003:1125   */\n      pop\n      jump\t// out\n        /* \"#utility.yul\":1131:1270   */\n    tag_100:\n        /* \"#utility.yul\":1177:1182   */\n      0x00\n        /* \"#utility.yul\":1215:1221   */\n      dup2\n        /* \"#utility.yul\":1202:1222   */\n      calldataload\n        /* \"#utility.yul\":1193:1222   */\n      swap1\n      pop\n        /* \"#utility.yul\":1231:1264   */\n      tag_158\n        /* \"#utility.yul\":1258:1263   */\n      dup2\n        /* \"#utility.yul\":1231:1264   */\n      tag_99\n      jump\t// in\n    tag_158:\n        /* \"#utility.yul\":1131:1270   */\n      swap3\n      swap2\n      pop\n      pop\n      jump\t// out\n        /* \"#utility.yul\":1276:1398   */\n    tag_101:\n        /* \"#utility.yul\":1349:1373   */\n      tag_160\n        /* \"#utility.yul\":1367:1372   */\n      dup2\n        /* \"#utility.yul\":1349:1373   */\n      tag_92\n      jump\t// in\n    tag_160:\n        /* \"#utility.yul\":1342:1347   */\n      dup2\n        /* \"#utility.yul\":1339:1374   */\n      eq\n        /* \"#utility.yul\":1329:1392   */\n      tag_161\n      jumpi\n        /* \"#utility.yul\":1388:1389   */\n      0x00\n        /* \"#utility.yul\":1385:1386   */\n      dup1\n        /* \"#utility.yul\":1378:1390   */\n      revert\n        /* \"#utility.yul\":1329:1392   */\n    tag_161:\n        /* \"#utility.yul\":1276:1398   */\n      pop\n      jump\t// out\n        /* \"#utility.yul\":1404:1543   */\n    tag_102:\n        /* \"#utility.yul\":1450:1455   */\n      0x00\n        /* \"#utility.yul\":1488:1494   */\n      dup2\n        /* \"#utility.yul\":1475:1495   */\n      calldataload\n        /* \"#utility.yul\":1466:1495   */\n      swap1\n      pop\n        /* \"#utility.yul\":1504:1537   */\n      tag_163\n        /* \"#utility.yul\":1531:1536   */\n      dup2\n        /* \"#utility.yul\":1504:1537   */\n      tag_101\n      jump\t// in\n    tag_163:\n        /* \"#utility.yul\":1404:1543   */\n      swap3\n      swap2\n      pop\n      pop\n      jump\t// out\n        /* \"#utility.yul\":1549:1666   */\n    tag_103:\n        /* \"#utility.yul\":1658:1659   */\n      0x00\n        /* \"#utility.yul\":1655:1656   */\n      dup1\n        /* \"#utility.yul\":1648:1660   */\n      revert\n        /* \"#utility.yul\":1672:1789   */\n    tag_104:\n        /* \"#utility.yul\":1781:1782   */\n      0x00\n        /* \"#utility.yul\":1778:1779   */\n      dup1\n        /* \"#utility.yul\":1771:1783   */\n      revert\n        /* \"#utility.yul\":1795:1912   */\n    tag_105:\n        /* \"#utility.yul\":1904:1905   */\n      0x00\n        /* \"#utility.yul\":1901:1902   */\n      dup1\n        /* \"#utility.yul\":1894:1906   */\n      revert\n        /* \"#utility.yul\":1931:2483   */\n    tag_106:\n        /* \"#utility.yul\":1988:1996   */\n      0x00\n        /* \"#utility.yul\":1998:2004   */\n      dup1\n        /* \"#utility.yul\":2048:2051   */\n      dup4\n        /* \"#utility.yul\":2041:2045   */\n      0x1f\n        /* \"#utility.yul\":2033:2039   */\n      dup5\n        /* \"#utility.yul\":2029:2046   */\n      add\n        /* \"#utility.yul\":2025:2052   */\n      slt\n        /* \"#utility.yul\":2015:2137   */\n      tag_168\n      jumpi\n        /* \"#utility.yul\":2056:2135   */\n      tag_169\n      tag_103\n      jump\t// in\n    tag_169:\n        /* \"#utility.yul\":2015:2137   */\n    tag_168:\n        /* \"#utility.yul\":2169:2175   */\n      dup3\n        /* \"#utility.yul\":2156:2176   */\n      calldataload\n        /* \"#utility.yul\":2146:2176   */\n      swap1\n      pop\n        /* \"#utility.yul\":2199:2217   */\n      0xffffffffffffffff\n        /* \"#utility.yul\":2191:2197   */\n      dup2\n        /* \"#utility.yul\":2188:2218   */\n      gt\n        /* \"#utility.yul\":2185:2302   */\n      iszero\n      tag_170\n      jumpi\n        /* \"#utility.yul\":2221:2300   */\n      tag_171\n      tag_104\n      jump\t// in\n    tag_171:\n        /* \"#utility.yul\":2185:2302   */\n    tag_170:\n        /* \"#utility.yul\":2335:2339   */\n      0x20\n        /* \"#utility.yul\":2327:2333   */\n      dup4\n        /* \"#utility.yul\":2323:2340   */\n      add\n        /* \"#utility.yul\":2311:2340   */\n      swap2\n      pop\n        /* \"#utility.yul\":2389:2392   */\n      dup4\n        /* \"#utility.yul\":2381:2385   */\n      0x01\n        /* \"#utility.yul\":2373:2379   */\n      dup3\n        /* \"#utility.yul\":2369:2386   */\n      mul\n        /* \"#utility.yul\":2359:2367   */\n      dup4\n        /* \"#utility.yul\":2355:2387   */\n      add\n        /* \"#utility.yul\":2352:2393   */\n      gt\n        /* \"#utility.yul\":2349:2477   */\n      iszero\n      tag_172\n      jumpi\n        /* \"#utility.yul\":2396:2475   */\n      tag_173\n      tag_105\n      jump\t// in\n    tag_173:\n        /* \"#utility.yul\":2349:2477   */\n    tag_172:\n        /* \"#utility.yul\":1931:2483   */\n      swap3\n      pop\n      swap3\n      swap1\n      pop\n      jump\t// out\n        /* \"#utility.yul\":2489:3306   */\n    tag_14:\n        /* \"#utility.yul\":2577:2583   */\n      0x00\n        /* \"#utility.yul\":2585:2591   */\n      dup1\n        /* \"#utility.yul\":2593:2599   */\n      0x00\n        /* \"#utility.yul\":2601:2607   */\n      dup1\n        /* \"#utility.yul\":2650:2652   */\n      0x60\n        /* \"#utility.yul\":2638:2647   */\n      dup6\n        /* \"#utility.yul\":2629:2636   */\n      dup8\n        /* \"#utility.yul\":2625:2648   */\n      sub\n        /* \"#utility.yul\":2621:2653   */\n      slt\n        /* \"#utility.yul\":2618:2737   */\n      iszero\n      tag_175\n      jumpi\n        /* \"#utility.yul\":2656:2735   */\n      tag_176\n      tag_95\n      jump\t// in\n    tag_176:\n        /* \"#utility.yul\":2618:2737   */\n    tag_175:\n        /* \"#utility.yul\":2776:2777   */\n      0x00\n        /* \"#utility.yul\":2801:2854   */\n      tag_177\n        /* \"#utility.yul\":2846:2853   */\n      dup8\n        /* \"#utility.yul\":2837:2843   */\n      dup3\n        /* \"#utility.yul\":2826:2835   */\n      dup9\n        /* \"#utility.yul\":2822:2844   */\n      add\n        /* \"#utility.yul\":2801:2854   */\n      tag_100\n      jump\t// in\n    tag_177:\n        /* \"#utility.yul\":2791:2854   */\n      swap5\n      pop\n        /* \"#utility.yul\":2747:2864   */\n      pop\n        /* \"#utility.yul\":2903:2905   */\n      0x20\n        /* \"#utility.yul\":2929:2982   */\n      tag_178\n        /* \"#utility.yul\":2974:2981   */\n      dup8\n        /* \"#utility.yul\":2965:2971   */\n      dup3\n        /* \"#utility.yul\":2954:2963   */\n      dup9\n        /* \"#utility.yul\":2950:2972   */\n      add\n        /* \"#utility.yul\":2929:2982   */\n      tag_102\n      jump\t// in\n    tag_178:\n        /* \"#utility.yul\":2919:2982   */\n      swap4\n      pop\n        /* \"#utility.yul\":2874:2992   */\n      pop\n        /* \"#utility.yul\":3059:3061   */\n      0x40\n        /* \"#utility.yul\":3048:3057   */\n      dup6\n        /* \"#utility.yul\":3044:3062   */\n      add\n        /* \"#utility.yul\":3031:3063   */\n      calldataload\n        /* \"#utility.yul\":3090:3108   */\n      0xffffffffffffffff\n        /* \"#utility.yul\":3082:3088   */\n      dup2\n        /* \"#utility.yul\":3079:3109   */\n      gt\n        /* \"#utility.yul\":3076:3193   */\n      iszero\n      tag_179\n      jumpi\n        /* \"#utility.yul\":3112:3191   */\n      tag_180\n      tag_96\n      jump\t// in\n    tag_180:\n        /* \"#utility.yul\":3076:3193   */\n    tag_179:\n        /* \"#utility.yul\":3225:3289   */\n      tag_181\n        /* \"#utility.yul\":3281:3288   */\n      dup8\n        /* \"#utility.yul\":3272:3278   */\n      dup3\n        /* \"#utility.yul\":3261:3270   */\n      dup9\n        /* \"#utility.yul\":3257:3279   */\n      add\n        /* \"#utility.yul\":3225:3289   */\n      tag_106\n      jump\t// in\n    tag_181:\n        /* \"#utility.yul\":3207:3289   */\n      swap3\n      pop\n      swap3\n      pop\n        /* \"#utility.yul\":3002:3299   */\n      pop\n        /* \"#utility.yul\":2489:3306   */\n      swap3\n      swap6\n      swap2\n      swap5\n      pop\n      swap3\n      pop\n      jump\t// out\n        /* \"#utility.yul\":3312:3641   */\n    tag_19:\n        /* \"#utility.yul\":3371:3377   */\n      0x00\n        /* \"#utility.yul\":3420:3422   */\n      0x20\n        /* \"#utility.yul\":3408:3417   */\n      dup3\n        /* \"#utility.yul\":3399:3406   */\n      dup5\n        /* \"#utility.yul\":3395:3418   */\n      sub\n        /* \"#utility.yul\":3391:3423   */\n      slt\n        /* \"#utility.yul\":3388:3507   */\n      iszero\n      tag_183\n      jumpi\n        /* \"#utility.yul\":3426:3505   */\n      tag_184\n      tag_95\n      jump\t// in\n    tag_184:\n        /* \"#utility.yul\":3388:3507   */\n    tag_183:\n        /* \"#utility.yul\":3546:3547   */\n      0x00\n        /* \"#utility.yul\":3571:3624   */\n      tag_185\n        /* \"#utility.yul\":3616:3623   */\n      dup5\n        /* \"#utility.yul\":3607:3613   */\n      dup3\n        /* \"#utility.yul\":3596:3605   */\n      dup6\n        /* \"#utility.yul\":3592:3614   */\n      add\n        /* \"#utility.yul\":3571:3624   */\n      tag_102\n      jump\t// in\n    tag_185:\n        /* \"#utility.yul\":3561:3624   */\n      swap2\n      pop\n        /* \"#utility.yul\":3517:3634   */\n      pop\n        /* \"#utility.yul\":3312:3641   */\n      swap3\n      swap2\n      pop\n      pop\n      jump\t// out\n        /* \"#utility.yul\":3647:3816   */\n    tag_107:\n        /* \"#utility.yul\":3731:3742   */\n      0x00\n        /* \"#utility.yul\":3765:3771   */\n      dup3\n        /* \"#utility.yul\":3760:3763   */\n      dup3\n        /* \"#utility.yul\":3753:3772   */\n      mstore\n        /* \"#utility.yul\":3805:3809   */\n      0x20\n        /* \"#utility.yul\":3800:3803   */\n      dup3\n        /* \"#utility.yul\":3796:3810   */\n      add\n        /* \"#utility.yul\":3781:3810   */\n      swap1\n      pop\n        /* \"#utility.yul\":3647:3816   */\n      swap3\n      swap2\n      pop\n      pop\n      jump\t// out\n        /* \"#utility.yul\":3822:3989   */\n    tag_108:\n        /* \"#utility.yul\":3962:3981   */\n      0x596f7520617265206e6f74206f6e776572000000000000000000000000000000\n        /* \"#utility.yul\":3958:3959   */\n      0x00\n        /* \"#utility.yul\":3950:3956   */\n      dup3\n        /* \"#utility.yul\":3946:3960   */\n      add\n        /* \"#utility.yul\":3939:3982   */\n      mstore\n        /* \"#utility.yul\":3822:3989   */\n      pop\n      jump\t// out\n        /* \"#utility.yul\":3995:4361   */\n    tag_109:\n        /* \"#utility.yul\":4137:4140   */\n      0x00\n        /* \"#utility.yul\":4158:4225   */\n      tag_189\n        /* \"#utility.yul\":4222:4224   */\n      0x11\n        /* \"#utility.yul\":4217:4220   */\n      dup4\n        /* \"#utility.yul\":4158:4225   */\n      tag_107\n      jump\t// in\n    tag_189:\n        /* \"#utility.yul\":4151:4225   */\n      swap2\n      pop\n        /* \"#utility.yul\":4234:4327   */\n      tag_190\n        /* \"#utility.yul\":4323:4326   */\n      dup3\n        /* \"#utility.yul\":4234:4327   */\n      tag_108\n      jump\t// in\n    tag_190:\n        /* \"#utility.yul\":4352:4354   */\n      0x20\n        /* \"#utility.yul\":4347:4350   */\n      dup3\n        /* \"#utility.yul\":4343:4355   */\n      add\n        /* \"#utility.yul\":4336:4355   */\n      swap1\n      pop\n        /* \"#utility.yul\":3995:4361   */\n      swap2\n      swap1\n      pop\n      jump\t// out\n        /* \"#utility.yul\":4367:4786   */\n    tag_33:\n        /* \"#utility.yul\":4533:4537   */\n      0x00\n        /* \"#utility.yul\":4571:4573   */\n      0x20\n        /* \"#utility.yul\":4560:4569   */\n      dup3\n        /* \"#utility.yul\":4556:4574   */\n      add\n        /* \"#utility.yul\":4548:4574   */\n      swap1\n      pop\n        /* \"#utility.yul\":4620:4629   */\n      dup2\n        /* \"#utility.yul\":4614:4618   */\n      dup2\n        /* \"#utility.yul\":4610:4630   */\n      sub\n        /* \"#utility.yul\":4606:4607   */\n      0x00\n        /* \"#utility.yul\":4595:4604   */\n      dup4\n        /* \"#utility.yul\":4591:4608   */\n      add\n        /* \"#utility.yul\":4584:4631   */\n      mstore\n        /* \"#utility.yul\":4648:4779   */\n      tag_192\n        /* \"#utility.yul\":4774:4778   */\n      dup2\n        /* \"#utility.yul\":4648:4779   */\n      tag_109\n      jump\t// in\n    tag_192:\n        /* \"#utility.yul\":4640:4779   */\n      swap1\n      pop\n        /* \"#utility.yul\":4367:4786   */\n      swap2\n      swap1\n      pop\n      jump\t// out\n        /* \"#utility.yul\":4792:4890   */\n    tag_110:\n        /* \"#utility.yul\":4843:4849   */\n      0x00\n        /* \"#utility.yul\":4877:4882   */\n      dup2\n        /* \"#utility.yul\":4871:4883   */\n      mload\n        /* \"#utility.yul\":4861:4883   */\n      swap1\n      pop\n        /* \"#utility.yul\":4792:4890   */\n      swap2\n      swap1\n      pop\n      jump\t// out\n        /* \"#utility.yul\":4896:5076   */\n    tag_111:\n        /* \"#utility.yul\":4944:5021   */\n      0x4e487b7100000000000000000000000000000000000000000000000000000000\n        /* \"#utility.yul\":4941:4942   */\n      0x00\n        /* \"#utility.yul\":4934:5022   */\n      mstore\n        /* \"#utility.yul\":5041:5045   */\n      0x41\n        /* \"#utility.yul\":5038:5039   */\n      0x04\n        /* \"#utility.yul\":5031:5046   */\n      mstore\n        /* \"#utility.yul\":5065:5069   */\n      0x24\n        /* \"#utility.yul\":5062:5063   */\n      0x00\n        /* \"#utility.yul\":5055:5070   */\n      revert\n        /* \"#utility.yul\":5082:5262   */\n    tag_112:\n        /* \"#utility.yul\":5130:5207   */\n      0x4e487b7100000000000000000000000000000000000000000000000000000000\n        /* \"#utility.yul\":5127:5128   */\n      0x00\n        /* \"#utility.yul\":5120:5208   */\n      mstore\n        /* \"#utility.yul\":5227:5231   */\n      0x22\n        /* \"#utility.yul\":5224:5225   */\n      0x04\n        /* \"#utility.yul\":5217:5232   */\n      mstore\n        /* \"#utility.yul\":5251:5255   */\n      0x24\n        /* \"#utility.yul\":5248:5249   */\n      0x00\n        /* \"#utility.yul\":5241:5256   */\n      revert\n        /* \"#utility.yul\":5268:5588   */\n    tag_113:\n        /* \"#utility.yul\":5312:5318   */\n      0x00\n        /* \"#utility.yul\":5349:5350   */\n      0x02\n        /* \"#utility.yul\":5343:5347   */\n      dup3\n        /* \"#utility.yul\":5339:5351   */\n      div\n        /* \"#utility.yul\":5329:5351   */\n      swap1\n      pop\n        /* \"#utility.yul\":5396:5397   */\n      0x01\n        /* \"#utility.yul\":5390:5394   */\n      dup3\n        /* \"#utility.yul\":5386:5398   */\n      and\n        /* \"#utility.yul\":5417:5435   */\n      dup1\n        /* \"#utility.yul\":5407:5488   */\n      tag_197\n      jumpi\n        /* \"#utility.yul\":5473:5477   */\n      0x7f\n        /* \"#utility.yul\":5465:5471   */\n      dup3\n        /* \"#utility.yul\":5461:5478   */\n      and\n        /* \"#utility.yul\":5451:5478   */\n      swap2\n      pop\n        /* \"#utility.yul\":5407:5488   */\n    tag_197:\n        /* \"#utility.yul\":5535:5537   */\n      0x20\n        /* \"#utility.yul\":5527:5533   */\n      dup3\n        /* \"#utility.yul\":5524:5538   */\n      lt\n        /* \"#utility.yul\":5504:5522   */\n      dup2\n        /* \"#utility.yul\":5501:5539   */\n      sub\n        /* \"#utility.yul\":5498:5582   */\n      tag_198\n      jumpi\n        /* \"#utility.yul\":5554:5572   */\n      tag_199\n      tag_112\n      jump\t// in\n    tag_199:\n        /* \"#utility.yul\":5498:5582   */\n    tag_198:\n        /* \"#utility.yul\":5319:5588   */\n      pop\n        /* \"#utility.yul\":5268:5588   */\n      swap2\n      swap1\n      pop\n      jump\t// out\n        /* \"#utility.yul\":5594:5734   */\n    tag_114:\n        /* \"#utility.yul\":5642:5646   */\n      0x00\n        /* \"#utility.yul\":5665:5668   */\n      dup2\n        /* \"#utility.yul\":5657:5668   */\n      swap1\n      pop\n        /* \"#utility.yul\":5688:5691   */\n      dup2\n        /* \"#utility.yul\":5685:5686   */\n      0x00\n        /* \"#utility.yul\":5678:5692   */\n      mstore\n        /* \"#utility.yul\":5722:5726   */\n      0x20\n        /* \"#utility.yul\":5719:5720   */\n      0x00\n        /* \"#utility.yul\":5709:5727   */\n      keccak256\n        /* \"#utility.yul\":5701:5727   */\n      swap1\n      pop\n        /* \"#utility.yul\":5594:5734   */\n      swap2\n      swap1\n      pop\n      jump\t// out\n        /* \"#utility.yul\":5740:5833   */\n    tag_115:\n        /* \"#utility.yul\":5777:5783   */\n      0x00\n        /* \"#utility.yul\":5824:5826   */\n      0x20\n        /* \"#utility.yul\":5819:5821   */\n      0x1f\n        /* \"#utility.yul\":5812:5817   */\n      dup4\n        /* \"#utility.yul\":5808:5822   */\n      add\n        /* \"#utility.yul\":5804:5827   */\n      div\n        /* \"#utility.yul\":5794:5827   */\n      swap1\n      pop\n        /* \"#utility.yul\":5740:5833   */\n      swap2\n      swap1\n      pop\n      jump\t// out\n        /* \"#utility.yul\":5839:5946   */\n    tag_116:\n        /* \"#utility.yul\":5883:5891   */\n      0x00\n        /* \"#utility.yul\":5933:5938   */\n      dup3\n        /* \"#utility.yul\":5927:5931   */\n      dup3\n        /* \"#utility.yul\":5923:5939   */\n      shl\n        /* \"#utility.yul\":5902:5939   */\n      swap1\n      pop\n        /* \"#utility.yul\":5839:5946   */\n      swap3\n      swap2\n      pop\n      pop\n      jump\t// out\n        /* \"#utility.yul\":5952:6345   */\n    tag_117:\n        /* \"#utility.yul\":6021:6027   */\n      0x00\n        /* \"#utility.yul\":6071:6072   */\n      0x08\n        /* \"#utility.yul\":6059:6069   */\n      dup4\n        /* \"#utility.yul\":6055:6073   */\n      mul\n        /* \"#utility.yul\":6094:6191   */\n      tag_204\n        /* \"#utility.yul\":6124:6190   */\n      0xffffffffffffffffffffffffffffffffffffffffffffffffffffffffffffffff\n        /* \"#utility.yul\":6113:6122   */\n      dup3\n        /* \"#utility.yul\":6094:6191   */\n      tag_116\n      jump\t// in\n    tag_204:\n        /* \"#utility.yul\":6212:6251   */\n      tag_205\n        /* \"#utility.yul\":6242:6250   */\n      dup7\n        /* \"#utility.yul\":6231:6240   */\n      dup4\n        /* \"#utility.yul\":6212:6251   */\n      tag_116\n      jump\t// in\n    tag_205:\n        /* \"#utility.yul\":6200:6251   */\n      swap6\n      pop\n        /* \"#utility.yul\":6284:6288   */\n      dup1\n        /* \"#utility.yul\":6280:6289   */\n      not\n        /* \"#utility.yul\":6273:6278   */\n      dup5\n        /* \"#utility.yul\":6269:6290   */\n      and\n        /* \"#utility.yul\":6260:6290   */\n      swap4\n      pop\n        /* \"#utility.yul\":6333:6337   */\n      dup1\n        /* \"#utility.yul\":6323:6331   */\n      dup7\n        /* \"#utility.yul\":6319:6338   */\n      and\n        /* \"#utility.yul\":6312:6317   */\n      dup5\n        /* \"#utility.yul\":6309:6339   */\n      or\n        /* \"#utility.yul\":6299:6339   */\n      swap3\n      pop\n        /* \"#utility.yul\":6028:6345   */\n      pop\n      pop\n        /* \"#utility.yul\":5952:6345   */\n      swap4\n      swap3\n      pop\n      pop\n      pop\n      jump\t// out\n        /* \"#utility.yul\":6351:6411   */\n    tag_118:\n        /* \"#utility.yul\":6379:6382   */\n      0x00\n        /* \"#utility.yul\":6400:6405   */\n      dup2\n        /* \"#utility.yul\":6393:6405   */\n      swap1\n      pop\n        /* \"#utility.yul\":6351:6411   */\n      swap2\n      swap1\n      pop\n      jump\t// out\n        /* \"#utility.yul\":6417:6559   */\n    tag_119:\n        /* \"#utility.yul\":6467:6476   */\n      0x00\n        /* \"#utility.yul\":6500:6553   */\n      tag_208\n        /* \"#utility.yul\":6518:6552   */\n      tag_209\n        /* \"#utility.yul\":6527:6551   */\n      tag_210\n        /* \"#utility.yul\":6545:6550   */\n      dup5\n        /* \"#utility.yul\":6527:6551   */\n      tag_92\n      jump\t// in\n    tag_210:\n        /* \"#utility.yul\":6518:6552   */\n      tag_118\n      jump\t// in\n    tag_209:\n        /* \"#utility.yul\":6500:6553   */\n      tag_92\n      jump\t// in\n    tag_208:\n        /* \"#utility.yul\":6487:6553   */\n      swap1\n      pop\n        /* \"#utility.yul\":6417:6559   */\n      swap2\n      swap1\n      pop\n      jump\t// out\n        /* \"#utility.yul\":6565:6640   */\n    tag_120:\n        /* \"#utility.yul\":6608:6611   */\n      0x00\n        /* \"#utility.yul\":6629:6634   */\n      dup2\n        /* \"#utility.yul\":6622:6634   */\n      swap1\n      pop\n        /* \"#utility.yul\":6565:6640   */\n      swap2\n      swap1\n      pop\n      jump\t// out\n        /* \"#utility.yul\":6646:6915   */\n    tag_121:\n        /* \"#utility.yul\":6756:6795   */\n      tag_213\n        /* \"#utility.yul\":6787:6794   */\n      dup4\n        /* \"#utility.yul\":6756:6795   */\n      tag_119\n      jump\t// in\n    tag_213:\n        /* \"#utility.yul\":6817:6908   */\n      tag_214\n        /* \"#utility.yul\":6866:6907   */\n      tag_215\n        /* \"#utility.yul\":6890:6906   */\n      dup3\n        /* \"#utility.yul\":6866:6907   */\n      tag_120\n      jump\t// in\n    tag_215:\n        /* \"#utility.yul\":6858:6864   */\n      dup5\n        /* \"#utility.yul\":6851:6855   */\n      dup5\n        /* \"#utility.yul\":6845:6856   */\n      sload\n        /* \"#utility.yul\":6817:6908   */\n      tag_117\n      jump\t// in\n    tag_214:\n        /* \"#utility.yul\":6811:6815   */\n      dup3\n        /* \"#utility.yul\":6804:6909   */\n      sstore\n        /* \"#utility.yul\":6722:6915   */\n      pop\n        /* \"#utility.yul\":6646:6915   */\n      pop\n      pop\n      pop\n      jump\t// out\n        /* \"#utility.yul\":6921:6994   */\n    tag_122:\n        /* \"#utility.yul\":6966:6969   */\n      0x00\n        /* \"#utility.yul\":6921:6994   */\n      swap1\n      jump\t// out\n        /* \"#utility.yul\":7000:7189   */\n    tag_123:\n        /* \"#utility.yul\":7077:7109   */\n      tag_218\n      tag_122\n      jump\t// in\n    tag_218:\n        /* \"#utility.yul\":7118:7183   */\n      tag_219\n        /* \"#utility.yul\":7176:7182   */\n      dup2\n        /* \"#utility.yul\":7168:7174   */\n      dup5\n        /* \"#utility.yul\":7162:7166   */\n      dup5\n        /* \"#utility.yul\":7118:7183   */\n      tag_121\n      jump\t// in\n    tag_219:\n        /* \"#utility.yul\":7053:7189   */\n      pop\n        /* \"#utility.yul\":7000:7189   */\n      pop\n      pop\n      jump\t// out\n        /* \"#utility.yul\":7195:7381   */\n    tag_124:\n        /* \"#utility.yul\":7255:7375   */\n    tag_221:\n        /* \"#utility.yul\":7272:7275   */\n      dup2\n        /* \"#utility.yul\":7265:7270   */\n      dup2\n        /* \"#utility.yul\":7262:7276   */\n      lt\n        /* \"#utility.yul\":7255:7375   */\n      iszero\n      tag_223\n      jumpi\n        /* \"#utility.yul\":7326:7365   */\n      tag_224\n        /* \"#utility.yul\":7363:7364   */\n      0x00\n        /* \"#utility.yul\":7356:7361   */\n      dup3\n        /* \"#utility.yul\":7326:7365   */\n      tag_123\n      jump\t// in\n    tag_224:\n        /* \"#utility.yul\":7299:7300   */\n      0x01\n        /* \"#utility.yul\":7292:7297   */\n      dup2\n        /* \"#utility.yul\":7288:7301   */\n      add\n        /* \"#utility.yul\":7279:7301   */\n      swap1\n      pop\n        /* \"#utility.yul\":7255:7375   */\n      jump(tag_221)\n    tag_223:\n        /* \"#utility.yul\":7195:7381   */\n      pop\n      pop\n      jump\t// out\n        /* \"#utility.yul\":7387:7928   */\n    tag_125:\n        /* \"#utility.yul\":7487:7489   */\n      0x1f\n        /* \"#utility.yul\":7482:7485   */\n      dup3\n        /* \"#utility.yul\":7479:7490   */\n      gt\n        /* \"#utility.yul\":7476:7921   */\n      iszero\n      tag_226\n      jumpi\n        /* \"#utility.yul\":7521:7558   */\n      tag_227\n        /* \"#utility.yul\":7552:7557   */\n      dup2\n        /* \"#utility.yul\":7521:7558   */\n      tag_114\n      jump\t// in\n    tag_227:\n        /* \"#utility.yul\":7604:7633   */\n      tag_228\n        /* \"#utility.yul\":7622:7632   */\n      dup5\n        /* \"#utility.yul\":7604:7633   */\n      tag_115\n      jump\t// in\n    tag_228:\n        /* \"#utility.yul\":7594:7602   */\n      dup2\n        /* \"#utility.yul\":7590:7634   */\n      add\n        /* \"#utility.yul\":7787:7789   */\n      0x20\n        /* \"#utility.yul\":7775:7785   */\n      dup6\n        /* \"#utility.yul\":7772:7790   */\n      lt\n        /* \"#utility.yul\":7769:7818   */\n      iszero\n      tag_229\n      jumpi\n        /* \"#utility.yul\":7808:7816   */\n      dup2\n        /* \"#utility.yul\":7793:7816   */\n      swap1\n      pop\n        /* \"#utility.yul\":7769:7818   */\n    tag_229:\n        /* \"#utility.yul\":7831:7911   */\n      tag_230\n        /* \"#utility.yul\":7887:7909   */\n      tag_231\n        /* \"#utility.yul\":7905:7908   */\n      dup6\n        /* \"#utility.yul\":7887:7909   */\n      tag_115\n      jump\t// in\n    tag_231:\n        /* \"#utility.yul\":7877:7885   */\n      dup4\n        /* \"#utility.yul\":7873:7910   */\n      add\n        /* \"#utility.yul\":7860:7871   */\n      dup3\n        /* \"#utility.yul\":7831:7911   */\n      tag_124\n      jump\t// in\n    tag_230:\n        /* \"#utility.yul\":7491:7921   */\n      pop\n      pop\n        /* \"#utility.yul\":7476:7921   */\n    tag_226:\n        /* \"#utility.yul\":7387:7928   */\n      pop\n      pop\n      pop\n      jump\t// out\n        /* \"#utility.yul\":7934:8051   */\n    tag_126:\n        /* \"#utility.yul\":7988:7996   */\n      0x00\n        /* \"#utility.yul\":8038:8043   */\n      dup3\n        /* \"#utility.yul\":8032:8036   */\n      dup3\n        /* \"#utility.yul\":8028:8044   */\n      shr\n        /* \"#utility.yul\":8007:8044   */\n      swap1\n      pop\n        /* \"#utility.yul\":7934:8051   */\n      swap3\n      swap2\n      pop\n      pop\n      jump\t// out\n        /* \"#utility.yul\":8057:8226   */\n    tag_127:\n        /* \"#utility.yul\":8101:8107   */\n      0x00\n        /* \"#utility.yul\":8134:8185   */\n      tag_234\n        /* \"#utility.yul\":8182:8183   */\n      0x00\n        /* \"#utility.yul\":8178:8184   */\n      not\n        /* \"#utility.yul\":8170:8175   */\n      dup5\n        /* \"#utility.yul\":8167:8168   */\n      0x08\n        /* \"#utility.yul\":8163:8176   */\n      mul\n        /* \"#utility.yul\":8134:8185   */\n      tag_126\n      jump\t// in\n    tag_234:\n        /* \"#utility.yul\":8130:8186   */\n      not\n        /* \"#utility.yul\":8215:8219   */\n      dup1\n        /* \"#utility.yul\":8209:8213   */\n      dup4\n        /* \"#utility.yul\":8205:8220   */\n      and\n        /* \"#utility.yul\":8195:8220   */\n      swap2\n      pop\n        /* \"#utility.yul\":8108:8226   */\n      pop\n        /* \"#utility.yul\":8057:8226   */\n      swap3\n      swap2\n      pop\n      pop\n      jump\t// out\n        /* \"#utility.yul\":8231:8526   */\n    tag_128:\n        /* \"#utility.yul\":8307:8311   */\n      0x00\n        /* \"#utility.yul\":8453:8482   */\n      tag_236\n        /* \"#utility.yul\":8478:8481   */\n      dup4\n        /* \"#utility.yul\":8472:8476   */\n      dup4\n        /* \"#utility.yul\":8453:8482   */\n      tag_127\n      jump\t// in\n    tag_236:\n        /* \"#utility.yul\":8445:8482   */\n      swap2\n      pop\n        /* \"#utility.yul\":8515:8518   */\n      dup3\n        /* \"#utility.yul\":8512:8513   */\n      0x02\n        /* \"#utility.yul\":8508:8519   */\n      mul\n        /* \"#utility.yul\":8502:8506   */\n      dup3\n        /* \"#utility.yul\":8499:8520   */\n      or\n        /* \"#utility.yul\":8491:8520   */\n      swap1\n      pop\n        /* \"#utility.yul\":8231:8526   */\n      swap3\n      swap2\n      pop\n      pop\n      jump\t// out\n        /* \"#utility.yul\":8531:9921   */\n    tag_37:\n        /* \"#utility.yul\":8646:8682   */\n      tag_238\n        /* \"#utility.yul\":8678:8681   */\n      dup3\n        /* \"#utility.yul\":8646:8682   */\n      tag_110\n      jump\t// in\n    tag_238:\n        /* \"#utility.yul\":8747:8765   */\n      0xffffffffffffffff\n        /* \"#utility.yul\":8739:8745   */\n      dup2\n        /* \"#utility.yul\":8736:8766   */\n      gt\n        /* \"#utility.yul\":8733:8789   */\n      iszero\n      tag_239\n      jumpi\n        /* \"#utility.yul\":8769:8787   */\n      tag_240\n      tag_111\n      jump\t// in\n    tag_240:\n        /* \"#utility.yul\":8733:8789   */\n    tag_239:\n        /* \"#utility.yul\":8813:8851   */\n      tag_241\n        /* \"#utility.yul\":8845:8849   */\n      dup3\n        /* \"#utility.yul\":8839:8850   */\n      sload\n        /* \"#utility.yul\":8813:8851   */\n      tag_113\n      jump\t// in\n    tag_241:\n        /* \"#utility.yul\":8898:8964   */\n      tag_242\n        /* \"#utility.yul\":8957:8963   */\n      dup3\n        /* \"#utility.yul\":8949:8955   */\n      dup3\n        /* \"#utility.yul\":8943:8947   */\n      dup6\n        /* \"#utility.yul\":8898:8964   */\n      tag_125\n      jump\t// in\n    tag_242:\n        /* \"#utility.yul\":8991:8992   */\n      0x00\n        /* \"#utility.yul\":9015:9019   */\n      0x20\n        /* \"#utility.yul\":9002:9019   */\n      swap1\n      pop\n        /* \"#utility.yul\":9047:9049   */\n      0x1f\n        /* \"#utility.yul\":9039:9045   */\n      dup4\n        /* \"#utility.yul\":9036:9050   */\n      gt\n        /* \"#utility.yul\":9064:9065   */\n      0x01\n        /* \"#utility.yul\":9059:9676   */\n      dup2\n      eq\n      tag_244\n      jumpi\n        /* \"#utility.yul\":9720:9721   */\n      0x00\n        /* \"#utility.yul\":9737:9743   */\n      dup5\n        /* \"#utility.yul\":9734:9811   */\n      iszero\n      tag_245\n      jumpi\n        /* \"#utility.yul\":9786:9795   */\n      dup3\n        /* \"#utility.yul\":9781:9784   */\n      dup8\n        /* \"#utility.yul\":9777:9796   */\n      add\n        /* \"#utility.yul\":9771:9797   */\n      mload\n        /* \"#utility.yul\":9762:9797   */\n      swap1\n      pop\n        /* \"#utility.yul\":9734:9811   */\n    tag_245:\n        /* \"#utility.yul\":9837:9904   */\n      tag_246\n        /* \"#utility.yul\":9897:9903   */\n      dup6\n        /* \"#utility.yul\":9890:9895   */\n      dup3\n        /* \"#utility.yul\":9837:9904   */\n      tag_128\n      jump\t// in\n    tag_246:\n        /* \"#utility.yul\":9831:9835   */\n      dup7\n        /* \"#utility.yul\":9824:9905   */\n      sstore\n        /* \"#utility.yul\":9693:9915   */\n      pop\n        /* \"#utility.yul\":9029:9915   */\n      jump(tag_243)\n        /* \"#utility.yul\":9059:9676   */\n    tag_244:\n        /* \"#utility.yul\":9111:9115   */\n      0x1f\n        /* \"#utility.yul\":9107:9116   */\n      not\n        /* \"#utility.yul\":9099:9105   */\n      dup5\n        /* \"#utility.yul\":9095:9117   */\n      and\n        /* \"#utility.yul\":9145:9181   */\n      tag_247\n        /* \"#utility.yul\":9176:9180   */\n      dup7\n        /* \"#utility.yul\":9145:9181   */\n      tag_114\n      jump\t// in\n    tag_247:\n        /* \"#utility.yul\":9203:9204   */\n      0x00\n        /* \"#utility.yul\":9217:9425   */\n    tag_248:\n        /* \"#utility.yul\":9231:9238   */\n      dup3\n        /* \"#utility.yul\":9228:9229   */\n      dup2\n        /* \"#utility.yul\":9225:9239   */\n      lt\n        /* \"#utility.yul\":9217:9425   */\n      iszero\n      tag_250\n      jumpi\n        /* \"#utility.yul\":9310:9319   */\n      dup5\n        /* \"#utility.yul\":9305:9308   */\n      dup10\n        /* \"#utility.yul\":9301:9320   */\n      add\n        /* \"#utility.yul\":9295:9321   */\n      mload\n        /* \"#utility.yul\":9287:9293   */\n      dup3\n        /* \"#utility.yul\":9280:9322   */\n      sstore\n        /* \"#utility.yul\":9361:9362   */\n      0x01\n        /* \"#utility.yul\":9353:9359   */\n      dup3\n        /* \"#utility.yul\":9349:9363   */\n      add\n        /* \"#utility.yul\":9339:9363   */\n      swap2\n      pop\n        /* \"#utility.yul\":9408:9410   */\n      0x20\n        /* \"#utility.yul\":9397:9406   */\n      dup6\n        /* \"#utility.yul\":9393:9411   */\n      add\n        /* \"#utility.yul\":9380:9411   */\n      swap5\n      pop\n        /* \"#utility.yul\":9254:9258   */\n      0x20\n        /* \"#utility.yul\":9251:9252   */\n      dup2\n        /* \"#utility.yul\":9247:9259   */\n      add\n        /* \"#utility.yul\":9242:9259   */\n      swap1\n      pop\n        /* \"#utility.yul\":9217:9425   */\n      jump(tag_248)\n    tag_250:\n        /* \"#utility.yul\":9453:9459   */\n      dup7\n        /* \"#utility.yul\":9444:9451   */\n      dup4\n        /* \"#utility.yul\":9441:9460   */\n      lt\n        /* \"#utility.yul\":9438:9617   */\n      iszero\n      tag_251\n      jumpi\n        /* \"#utility.yul\":9511:9520   */\n      dup5\n        /* \"#utility.yul\":9506:9509   */\n      dup10\n        /* \"#utility.yul\":9502:9521   */\n      add\n        /* \"#utility.yul\":9496:9522   */\n      mload\n        /* \"#utility.yul\":9554:9602   */\n      tag_252\n        /* \"#utility.yul\":9596:9600   */\n      0x1f\n        /* \"#utility.yul\":9588:9594   */\n      dup10\n        /* \"#utility.yul\":9584:9601   */\n      and\n        /* \"#utility.yul\":9573:9582   */\n      dup3\n        /* \"#utility.yul\":9554:9602   */\n      tag_127\n      jump\t// in\n    tag_252:\n        /* \"#utility.yul\":9546:9552   */\n      dup4\n        /* \"#utility.yul\":9539:9603   */\n      sstore\n        /* \"#utility.yul\":9461:9617   */\n      pop\n        /* \"#utility.yul\":9438:9617   */\n    tag_251:\n        /* \"#utility.yul\":9663:9664   */\n      0x01\n        /* \"#utility.yul\":9659:9660   */\n      0x02\n        /* \"#utility.yul\":9651:9657   */\n      dup9\n        /* \"#utility.yul\":9647:9661   */\n      mul\n        /* \"#utility.yul\":9643:9665   */\n      add\n        /* \"#utility.yul\":9637:9641   */\n      dup9\n        /* \"#utility.yul\":9630:9666   */\n      sstore\n        /* \"#utility.yul\":9066:9676   */\n      pop\n      pop\n      pop\n        /* \"#utility.yul\":9029:9915   */\n    tag_243:\n      pop\n        /* \"#utility.yul\":8621:9921   */\n      pop\n      pop\n      pop\n        /* \"#utility.yul\":8531:9921   */\n      pop\n      pop\n      jump\t// out\n        /* \"#utility.yul\":9927:10107   */\n    tag_129:\n        /* \"#utility.yul\":9975:10052   */\n      0x4e487b7100000000000000000000000000000000000000000000000000000000\n        /* \"#utility.yul\":9972:9973   */\n      0x00\n        /* \"#utility.yul\":9965:10053   */\n      mstore\n        /* \"#utility.yul\":10072:10076   */\n      0x11\n        /* \"#utility.yul\":10069:10070   */\n      0x04\n        /* \"#utility.yul\":10062:10077   */\n      mstore\n        /* \"#utility.yul\":10096:10100   */\n      0x24\n        /* \"#utility.yul\":10093:10094   */\n      0x00\n        /* \"#utility.yul\":10086:10101   */\n      revert\n        /* \"#utility.yul\":10113:10307   */\n    tag_39:\n        /* \"#utility.yul\":10153:10157   */\n      0x00\n        /* \"#utility.yul\":10173:10193   */\n      tag_255\n        /* \"#utility.yul\":10191:10192   */\n      dup3\n        /* \"#utility.yul\":10173:10193   */\n      tag_92\n      jump\t// in\n    tag_255:\n        /* \"#utility.yul\":10168:10193   */\n      swap2\n      pop\n        /* \"#utility.yul\":10207:10227   */\n      tag_256\n        /* \"#utility.yul\":10225:10226   */\n      dup4\n        /* \"#utility.yul\":10207:10227   */\n      tag_92\n      jump\t// in\n    tag_256:\n        /* \"#utility.yul\":10202:10227   */\n      swap3\n      pop\n        /* \"#utility.yul\":10251:10252   */\n      dup3\n        /* \"#utility.yul\":10248:10249   */\n      dup3\n        /* \"#utility.yul\":10244:10253   */\n      sub\n        /* \"#utility.yul\":10236:10253   */\n      swap1\n      pop\n        /* \"#utility.yul\":10275:10276   */\n      dup2\n        /* \"#utility.yul\":10269:10273   */\n      dup2\n        /* \"#utility.yul\":10266:10277   */\n      gt\n        /* \"#utility.yul\":10263:10300   */\n      iszero\n      tag_257\n      jumpi\n        /* \"#utility.yul\":10280:10298   */\n      tag_258\n      tag_129\n      jump\t// in\n    tag_258:\n        /* \"#utility.yul\":10263:10300   */\n    tag_257:\n        /* \"#utility.yul\":10113:10307   */\n      swap3\n      swap2\n      pop\n      pop\n      jump\t// out\n        /* \"#utility.yul\":10313:10490   */\n    tag_130:\n        /* \"#utility.yul\":10453:10482   */\n      0x5472616e73636174696f6e206973206e6f74206578697374696e670000000000\n        /* \"#utility.yul\":10449:10450   */\n      0x00\n        /* \"#utility.yul\":10441:10447   */\n      dup3\n        /* \"#utility.yul\":10437:10451   */\n      add\n        /* \"#utility.yul\":10430:10483   */\n      mstore\n        /* \"#utility.yul\":10313:10490   */\n      pop\n      jump\t// out\n        /* \"#utility.yul\":10496:10862   */\n    tag_131:\n        /* \"#utility.yul\":10638:10641   */\n      0x00\n        /* \"#utility.yul\":10659:10726   */\n      tag_261\n        /* \"#utility.yul\":10723:10725   */\n      0x1b\n        /* \"#utility.yul\":10718:10721   */\n      dup4\n        /* \"#utility.yul\":10659:10726   */\n      tag_107\n      jump\t// in\n    tag_261:\n        /* \"#utility.yul\":10652:10726   */\n      swap2\n      pop\n        /* \"#utility.yul\":10735:10828   */\n      tag_262\n        /* \"#utility.yul\":10824:10827   */\n      dup3\n        /* \"#utility.yul\":10735:10828   */\n      tag_130\n      jump\t// in\n    tag_262:\n        /* \"#utility.yul\":10853:10855   */\n      0x20\n        /* \"#utility.yul\":10848:10851   */\n      dup3\n        /* \"#utility.yul\":10844:10856   */\n      add\n        /* \"#utility.yul\":10837:10856   */\n      swap1\n      pop\n        /* \"#utility.yul\":10496:10862   */\n      swap2\n      swap1\n      pop\n      jump\t// out\n        /* \"#utility.yul\":10868:11287   */\n    tag_46:\n        /* \"#utility.yul\":11034:11038   */\n      0x00\n        /* \"#utility.yul\":11072:11074   */\n      0x20\n        /* \"#utility.yul\":11061:11070   */\n      dup3\n        /* \"#utility.yul\":11057:11075   */\n      add\n        /* \"#utility.yul\":11049:11075   */\n      swap1\n      pop\n        /* \"#utility.yul\":11121:11130   */\n      dup2\n        /* \"#utility.yul\":11115:11119   */\n      dup2\n        /* \"#utility.yul\":11111:11131   */\n      sub\n        /* \"#utility.yul\":11107:11108   */\n      0x00\n        /* \"#utility.yul\":11096:11105   */\n      dup4\n        /* \"#utility.yul\":11092:11109   */\n      add\n        /* \"#utility.yul\":11085:11132   */\n      mstore\n        /* \"#utility.yul\":11149:11280   */\n      tag_264\n        /* \"#utility.yul\":11275:11279   */\n      dup2\n        /* \"#utility.yul\":11149:11280   */\n      tag_131\n      jump\t// in\n    tag_264:\n        /* \"#utility.yul\":11141:11280   */\n      swap1\n      pop\n        /* \"#utility.yul\":10868:11287   */\n      swap2\n      swap1\n      pop\n      jump\t// out\n        /* \"#utility.yul\":11293:11466   */\n    tag_132:\n        /* \"#utility.yul\":11433:11458   */\n      0x5472616e73636174696f6e20697320617070726f766564000000000000000000\n        /* \"#utility.yul\":11429:11430   */\n      0x00\n        /* \"#utility.yul\":11421:11427   */\n      dup3\n        /* \"#utility.yul\":11417:11431   */\n      add\n        /* \"#utility.yul\":11410:11459   */\n      mstore\n        /* \"#utility.yul\":11293:11466   */\n      pop\n      jump\t// out\n        /* \"#utility.yul\":11472:11838   */\n    tag_133:\n        /* \"#utility.yul\":11614:11617   */\n      0x00\n        /* \"#utility.yul\":11635:11702   */\n      tag_267\n        /* \"#utility.yul\":11699:11701   */\n      0x17\n        /* \"#utility.yul\":11694:11697   */\n      dup4\n        /* \"#utility.yul\":11635:11702   */\n      tag_107\n      jump\t// in\n    tag_267:\n        /* \"#utility.yul\":11628:11702   */\n      swap2\n      pop\n        /* \"#utility.yul\":11711:11804   */\n      tag_268\n        /* \"#utility.yul\":11800:11803   */\n      dup3\n        /* \"#utility.yul\":11711:11804   */\n      tag_132\n      jump\t// in\n    tag_268:\n        /* \"#utility.yul\":11829:11831   */\n      0x20\n        /* \"#utility.yul\":11824:11827   */\n      dup3\n        /* \"#utility.yul\":11820:11832   */\n      add\n        /* \"#utility.yul\":11813:11832   */\n      swap1\n      pop\n        /* \"#utility.yul\":11472:11838   */\n      swap2\n      swap1\n      pop\n      jump\t// out\n        /* \"#utility.yul\":11844:12263   */\n    tag_50:\n        /* \"#utility.yul\":12010:12014   */\n      0x00\n        /* \"#utility.yul\":12048:12050   */\n      0x20\n        /* \"#utility.yul\":12037:12046   */\n      dup3\n        /* \"#utility.yul\":12033:12051   */\n      add\n        /* \"#utility.yul\":12025:12051   */\n      swap1\n      pop\n        /* \"#utility.yul\":12097:12106   */\n      dup2\n        /* \"#utility.yul\":12091:12095   */\n      dup2\n        /* \"#utility.yul\":12087:12107   */\n      sub\n        /* \"#utility.yul\":12083:12084   */\n      0x00\n        /* \"#utility.yul\":12072:12081   */\n      dup4\n        /* \"#utility.yul\":12068:12085   */\n      add\n        /* \"#utility.yul\":12061:12108   */\n      mstore\n        /* \"#utility.yul\":12125:12256   */\n      tag_270\n        /* \"#utility.yul\":12251:12255   */\n      dup2\n        /* \"#utility.yul\":12125:12256   */\n      tag_133\n      jump\t// in\n    tag_270:\n        /* \"#utility.yul\":12117:12256   */\n      swap1\n      pop\n        /* \"#utility.yul\":11844:12263   */\n      swap2\n      swap1\n      pop\n      jump\t// out\n        /* \"#utility.yul\":12269:12449   */\n    tag_58:\n        /* \"#utility.yul\":12317:12394   */\n      0x4e487b7100000000000000000000000000000000000000000000000000000000\n        /* \"#utility.yul\":12314:12315   */\n      0x00\n        /* \"#utility.yul\":12307:12395   */\n      mstore\n        /* \"#utility.yul\":12414:12418   */\n      0x32\n        /* \"#utility.yul\":12411:12412   */\n      0x04\n        /* \"#utility.yul\":12404:12419   */\n      mstore\n        /* \"#utility.yul\":12438:12442   */\n      0x24\n        /* \"#utility.yul\":12435:12436   */\n      0x00\n        /* \"#utility.yul\":12428:12443   */\n      revert\n        /* \"#utility.yul\":12455:12688   */\n    tag_62:\n        /* \"#utility.yul\":12494:12497   */\n      0x00\n        /* \"#utility.yul\":12517:12541   */\n      tag_273\n        /* \"#utility.yul\":12535:12540   */\n      dup3\n        /* \"#utility.yul\":12517:12541   */\n      tag_92\n      jump\t// in\n    tag_273:\n        /* \"#utility.yul\":12508:12541   */\n      swap2\n      pop\n        /* \"#utility.yul\":12563:12629   */\n      0xffffffffffffffffffffffffffffffffffffffffffffffffffffffffffffffff\n        /* \"#utility.yul\":12556:12561   */\n      dup3\n        /* \"#utility.yul\":12553:12630   */\n      sub\n        /* \"#utility.yul\":12550:12653   */\n      tag_274\n      jumpi\n        /* \"#utility.yul\":12633:12651   */\n      tag_275\n      tag_129\n      jump\t// in\n    tag_275:\n        /* \"#utility.yul\":12550:12653   */\n    tag_274:\n        /* \"#utility.yul\":12680:12681   */\n      0x01\n        /* \"#utility.yul\":12673:12678   */\n      dup3\n        /* \"#utility.yul\":12669:12682   */\n      add\n        /* \"#utility.yul\":12662:12682   */\n      swap1\n      pop\n        /* \"#utility.yul\":12455:12688   */\n      swap2\n      swap1\n      pop\n      jump\t// out\n        /* \"#utility.yul\":12694:12867   */\n    tag_134:\n        /* \"#utility.yul\":12834:12859   */\n      0x5472616e73636174696f6e206973206578656375746564000000000000000000\n        /* \"#utility.yul\":12830:12831   */\n      0x00\n        /* \"#utility.yul\":12822:12828   */\n      dup3\n        /* \"#utility.yul\":12818:12832   */\n      add\n        /* \"#utility.yul\":12811:12860   */\n      mstore\n        /* \"#utility.yul\":12694:12867   */\n      pop\n      jump\t// out\n        /* \"#utility.yul\":12873:13239   */\n    tag_135:\n        /* \"#utility.yul\":13015:13018   */\n      0x00\n        /* \"#utility.yul\":13036:13103   */\n      tag_278\n        /* \"#utility.yul\":13100:13102   */\n      0x17\n        /* \"#utility.yul\":13095:13098   */\n      dup4\n        /* \"#utility.yul\":13036:13103   */\n      tag_107\n      jump\t// in\n    tag_278:\n        /* \"#utility.yul\":13029:13103   */\n      swap2\n      pop\n        /* \"#utility.yul\":13112:13205   */\n      tag_279\n        /* \"#utility.yul\":13201:13204   */\n      dup3\n        /* \"#utility.yul\":13112:13205   */\n      tag_134\n      jump\t// in\n    tag_279:\n        /* \"#utility.yul\":13230:13232   */\n      0x20\n        /* \"#utility.yul\":13225:13228   */\n      dup3\n        /* \"#utility.yul\":13221:13233   */\n      add\n        /* \"#utility.yul\":13214:13233   */\n      swap1\n      pop\n        /* \"#utility.yul\":12873:13239   */\n      swap2\n      swap1\n      pop\n      jump\t// out\n        /* \"#utility.yul\":13245:13664   */\n    tag_75:\n        /* \"#utility.yul\":13411:13415   */\n      0x00\n        /* \"#utility.yul\":13449:13451   */\n      0x20\n        /* \"#utility.yul\":13438:13447   */\n      dup3\n        /* \"#utility.yul\":13434:13452   */\n      add\n        /* \"#utility.yul\":13426:13452   */\n      swap1\n      pop\n        /* \"#utility.yul\":13498:13507   */\n      dup2\n        /* \"#utility.yul\":13492:13496   */\n      dup2\n        /* \"#utility.yul\":13488:13508   */\n      sub\n        /* \"#utility.yul\":13484:13485   */\n      0x00\n        /* \"#utility.yul\":13473:13482   */\n      dup4\n        /* \"#utility.yul\":13469:13486   */\n      add\n        /* \"#utility.yul\":13462:13509   */\n      mstore\n        /* \"#utility.yul\":13526:13657   */\n      tag_281\n        /* \"#utility.yul\":13652:13656   */\n      dup2\n        /* \"#utility.yul\":13526:13657   */\n      tag_135\n      jump\t// in\n    tag_281:\n        /* \"#utility.yul\":13518:13657   */\n      swap1\n      pop\n        /* \"#utility.yul\":13245:13664   */\n      swap2\n      swap1\n      pop\n      jump\t// out\n        /* \"#utility.yul\":13670:13898   */\n    tag_136:\n        /* \"#utility.yul\":13810:13844   */\n      0x417070726f76616c20436f756e74206f662074686973207478203c2072657175\n        /* \"#utility.yul\":13806:13807   */\n      0x00\n        /* \"#utility.yul\":13798:13804   */\n      dup3\n        /* \"#utility.yul\":13794:13808   */\n      add\n        /* \"#utility.yul\":13787:13845   */\n      mstore\n        /* \"#utility.yul\":13879:13890   */\n      0x697265645369676e730000000000000000000000000000000000000000000000\n        /* \"#utility.yul\":13874:13876   */\n      0x20\n        /* \"#utility.yul\":13866:13872   */\n      dup3\n        /* \"#utility.yul\":13862:13877   */\n      add\n        /* \"#utility.yul\":13855:13891   */\n      mstore\n        /* \"#utility.yul\":13670:13898   */\n      pop\n      jump\t// out\n        /* \"#utility.yul\":13904:14270   */\n    tag_137:\n        /* \"#utility.yul\":14046:14049   */\n      0x00\n        /* \"#utility.yul\":14067:14134   */\n      tag_284\n        /* \"#utility.yul\":14131:14133   */\n      0x29\n        /* \"#utility.yul\":14126:14129   */\n      dup4\n        /* \"#utility.yul\":14067:14134   */\n      tag_107\n      jump\t// in\n    tag_284:\n        /* \"#utility.yul\":14060:14134   */\n      swap2\n      pop\n        /* \"#utility.yul\":14143:14236   */\n      tag_285\n        /* \"#utility.yul\":14232:14235   */\n      dup3\n        /* \"#utility.yul\":14143:14236   */\n      tag_136\n      jump\t// in\n    tag_285:\n        /* \"#utility.yul\":14261:14263   */\n      0x40\n        /* \"#utility.yul\":14256:14259   */\n      dup3\n        /* \"#utility.yul\":14252:14264   */\n      add\n        /* \"#utility.yul\":14245:14264   */\n      swap1\n      pop\n        /* \"#utility.yul\":13904:14270   */\n      swap2\n      swap1\n      pop\n      jump\t// out\n        /* \"#utility.yul\":14276:14695   */\n    tag_80:\n        /* \"#utility.yul\":14442:14446   */\n      0x00\n        /* \"#utility.yul\":14480:14482   */\n      0x20\n        /* \"#utility.yul\":14469:14478   */\n      dup3\n        /* \"#utility.yul\":14465:14483   */\n      add\n        /* \"#utility.yul\":14457:14483   */\n      swap1\n      pop\n        /* \"#utility.yul\":14529:14538   */\n      dup2\n        /* \"#utility.yul\":14523:14527   */\n      dup2\n        /* \"#utility.yul\":14519:14539   */\n      sub\n        /* \"#utility.yul\":14515:14516   */\n      0x00\n        /* \"#utility.yul\":14504:14513   */\n      dup4\n        /* \"#utility.yul\":14500:14517   */\n      add\n        /* \"#utility.yul\":14493:14540   */\n      mstore\n        /* \"#utility.yul\":14557:14688   */\n      tag_287\n        /* \"#utility.yul\":14683:14687   */\n      dup2\n        /* \"#utility.yul\":14557:14688   */\n      tag_137\n      jump\t// in\n    tag_287:\n        /* \"#utility.yul\":14549:14688   */\n      swap1\n      pop\n        /* \"#utility.yul\":14276:14695   */\n      swap2\n      swap1\n      pop\n      jump\t// out\n        /* \"#utility.yul\":14701:14848   */\n    tag_138:\n        /* \"#utility.yul\":14802:14813   */\n      0x00\n        /* \"#utility.yul\":14839:14842   */\n      dup2\n        /* \"#utility.yul\":14824:14842   */\n      swap1\n      pop\n        /* \"#utility.yul\":14701:14848   */\n      swap3\n      swap2\n      pop\n      pop\n      jump\t// out\n        /* \"#utility.yul\":14876:15746   */\n    tag_139:\n        /* \"#utility.yul\":14977:14980   */\n      0x00\n        /* \"#utility.yul\":15014:15019   */\n      dup2\n        /* \"#utility.yul\":15008:15020   */\n      sload\n        /* \"#utility.yul\":15043:15079   */\n      tag_290\n        /* \"#utility.yul\":15069:15078   */\n      dup2\n        /* \"#utility.yul\":15043:15079   */\n      tag_113\n      jump\t// in\n    tag_290:\n        /* \"#utility.yul\":15095:15183   */\n      tag_291\n        /* \"#utility.yul\":15176:15182   */\n      dup2\n        /* \"#utility.yul\":15171:15174   */\n      dup7\n        /* \"#utility.yul\":15095:15183   */\n      tag_138\n      jump\t// in\n    tag_291:\n        /* \"#utility.yul\":15088:15183   */\n      swap5\n      pop\n        /* \"#utility.yul\":15214:15215   */\n      0x01\n        /* \"#utility.yul\":15203:15212   */\n      dup3\n        /* \"#utility.yul\":15199:15216   */\n      and\n        /* \"#utility.yul\":15230:15231   */\n      0x00\n        /* \"#utility.yul\":15225:15391   */\n      dup2\n      eq\n      tag_293\n      jumpi\n        /* \"#utility.yul\":15405:15406   */\n      0x01\n        /* \"#utility.yul\":15400:15740   */\n      dup2\n      eq\n      tag_294\n      jumpi\n        /* \"#utility.yul\":15192:15740   */\n      jump(tag_292)\n        /* \"#utility.yul\":15225:15391   */\n    tag_293:\n        /* \"#utility.yul\":15309:15313   */\n      0xff\n        /* \"#utility.yul\":15305:15314   */\n      not\n        /* \"#utility.yul\":15294:15303   */\n      dup4\n        /* \"#utility.yul\":15290:15315   */\n      and\n        /* \"#utility.yul\":15285:15288   */\n      dup7\n        /* \"#utility.yul\":15278:15316   */\n      mstore\n        /* \"#utility.yul\":15371:15377   */\n      dup2\n        /* \"#utility.yul\":15364:15378   */\n      iszero\n        /* \"#utility.yul\":15357:15379   */\n      iszero\n        /* \"#utility.yul\":15349:15355   */\n      dup3\n        /* \"#utility.yul\":15345:15380   */\n      mul\n        /* \"#utility.yul\":15340:15343   */\n      dup7\n        /* \"#utility.yul\":15336:15381   */\n      add\n        /* \"#utility.yul\":15329:15381   */\n      swap4\n      pop\n        /* \"#utility.yul\":15225:15391   */\n      jump(tag_292)\n        /* \"#utility.yul\":15400:15740   */\n    tag_294:\n        /* \"#utility.yul\":15467:15504   */\n      tag_295\n        /* \"#utility.yul\":15498:15503   */\n      dup6\n        /* \"#utility.yul\":15467:15504   */\n      tag_114\n      jump\t// in\n    tag_295:\n        /* \"#utility.yul\":15526:15527   */\n      0x00\n        /* \"#utility.yul\":15540:15694   */\n    tag_296:\n        /* \"#utility.yul\":15554:15560   */\n      dup4\n        /* \"#utility.yul\":15551:15552   */\n      dup2\n        /* \"#utility.yul\":15548:15561   */\n      lt\n        /* \"#utility.yul\":15540:15694   */\n      iszero\n      tag_298\n      jumpi\n        /* \"#utility.yul\":15628:15635   */\n      dup2\n        /* \"#utility.yul\":15622:15636   */\n      sload\n        /* \"#utility.yul\":15618:15619   */\n      dup2\n        /* \"#utility.yul\":15613:15616   */\n      dup10\n        /* \"#utility.yul\":15609:15620   */\n      add\n        /* \"#utility.yul\":15602:15637   */\n      mstore\n        /* \"#utility.yul\":15678:15679   */\n      0x01\n        /* \"#utility.yul\":15669:15676   */\n      dup3\n        /* \"#utility.yul\":15665:15680   */\n      add\n        /* \"#utility.yul\":15654:15680   */\n      swap2\n      pop\n        /* \"#utility.yul\":15576:15580   */\n      0x20\n        /* \"#utility.yul\":15573:15574   */\n      dup2\n        /* \"#utility.yul\":15569:15581   */\n      add\n        /* \"#utility.yul\":15564:15581   */\n      swap1\n      pop\n        /* \"#utility.yul\":15540:15694   */\n      jump(tag_296)\n    tag_298:\n        /* \"#utility.yul\":15723:15729   */\n      dup4\n        /* \"#utility.yul\":15718:15721   */\n      dup9\n        /* \"#utility.yul\":15714:15730   */\n      add\n        /* \"#utility.yul\":15707:15730   */\n      swap6\n      pop\n        /* \"#utility.yul\":15407:15740   */\n      pop\n      pop\n        /* \"#utility.yul\":15192:15740   */\n    tag_292:\n      pop\n        /* \"#utility.yul\":14981:15746   */\n      pop\n      pop\n        /* \"#utility.yul\":14876:15746   */\n      swap3\n      swap2\n      pop\n      pop\n      jump\t// out\n        /* \"#utility.yul\":15752:16017   */\n    tag_85:\n        /* \"#utility.yul\":15879:15882   */\n      0x00\n        /* \"#utility.yul\":15901:15991   */\n      tag_300\n        /* \"#utility.yul\":15987:15990   */\n      dup3\n        /* \"#utility.yul\":15978:15984   */\n      dup5\n        /* \"#utility.yul\":15901:15991   */\n      tag_139\n      jump\t// in\n    tag_300:\n        /* \"#utility.yul\":15894:15991   */\n      swap2\n      pop\n        /* \"#utility.yul\":16008:16011   */\n      dup2\n        /* \"#utility.yul\":16001:16011   */\n      swap1\n      pop\n        /* \"#utility.yul\":15752:16017   */\n      swap3\n      swap2\n      pop\n      pop\n      jump\t// out\n        /* \"#utility.yul\":16023:16199   */\n    tag_140:\n        /* \"#utility.yul\":16163:16191   */\n      0x5472616e73636174696f6e2065786563757465206661696c6564000000000000\n        /* \"#utility.yul\":16159:16160   */\n      0x00\n        /* \"#utility.yul\":16151:16157   */\n      dup3\n        /* \"#utility.yul\":16147:16161   */\n      add\n        /* \"#utility.yul\":16140:16192   */\n      mstore\n        /* \"#utility.yul\":16023:16199   */\n      pop\n      jump\t// out\n        /* \"#utility.yul\":16205:16571   */\n    tag_141:\n        /* \"#utility.yul\":16347:16350   */\n      0x00\n        /* \"#utility.yul\":16368:16435   */\n      tag_303\n        /* \"#utility.yul\":16432:16434   */\n      0x1a\n        /* \"#utility.yul\":16427:16430   */\n      dup4\n        /* \"#utility.yul\":16368:16435   */\n      tag_107\n      jump\t// in\n    tag_303:\n        /* \"#utility.yul\":16361:16435   */\n      swap2\n      pop\n        /* \"#utility.yul\":16444:16537   */\n      tag_304\n        /* \"#utility.yul\":16533:16536   */\n      dup3\n        /* \"#utility.yul\":16444:16537   */\n      tag_140\n      jump\t// in\n    tag_304:\n        /* \"#utility.yul\":16562:16564   */\n      0x20\n        /* \"#utility.yul\":16557:16560   */\n      dup3\n        /* \"#utility.yul\":16553:16565   */\n      add\n        /* \"#utility.yul\":16546:16565   */\n      swap1\n      pop\n        /* \"#utility.yul\":16205:16571   */\n      swap2\n      swap1\n      pop\n      jump\t// out\n        /* \"#utility.yul\":16577:16996   */\n    tag_91:\n        /* \"#utility.yul\":16743:16747   */\n      0x00\n        /* \"#utility.yul\":16781:16783   */\n      0x20\n        /* \"#utility.yul\":16770:16779   */\n      dup3\n        /* \"#utility.yul\":16766:16784   */\n      add\n        /* \"#utility.yul\":16758:16784   */\n      swap1\n      pop\n        /* \"#utility.yul\":16830:16839   */\n      dup2\n        /* \"#utility.yul\":16824:16828   */\n      dup2\n        /* \"#utility.yul\":16820:16840   */\n      sub\n        /* \"#utility.yul\":16816:16817   */\n      0x00\n        /* \"#utility.yul\":16805:16814   */\n      dup4\n        /* \"#utility.yul\":16801:16818   */\n      add\n        /* \"#utility.yul\":16794:16841   */\n      mstore\n        /* \"#utility.yul\":16858:16989   */\n      tag_306\n        /* \"#utility.yul\":16984:16988   */\n      dup2\n        /* \"#utility.yul\":16858:16989   */\n      tag_141\n      jump\t// in\n    tag_306:\n        /* \"#utility.yul\":16850:16989   */\n      swap1\n      pop\n        /* \"#utility.yul\":16577:16996   */\n      swap2\n      swap1\n      pop\n      jump\t// out\n\n    auxdata: 0xa26469706673582212201ac25ff766a15a490be80146297a01d3e87fd96bf5a40537d2e6f2e809a46d1d64736f6c634300081a0033\n}\n",
				"bytecode": {
					"linkReferences": {},
					"object": "608060405234801561000f575f80fd5b506040516119733803806119738339818101604052810190610031919061052b565b5f825111610074576040517f08c379a000000000000000000000000000000000000000000000000000000000815260040161006b906105df565b60405180910390fd5b5f81118015610084575081518111155b6100c3576040517f08c379a00000000000000000000000000000000000000000000000000000000081526004016100ba90610647565b60405180910390fd5b5f5b8251811015610276575f73ffffffffffffffffffffffffffffffffffffffff168382815181106100f8576100f7610665565b5b602002602001015173ffffffffffffffffffffffffffffffffffffffff1603610156576040517f08c379a000000000000000000000000000000000000000000000000000000000815260040161014d906106dc565b60405180910390fd5b60025f84838151811061016c5761016b610665565b5b602002602001015173ffffffffffffffffffffffffffffffffffffffff1673ffffffffffffffffffffffffffffffffffffffff1681526020019081526020015f205f9054906101000a900460ff16156101fa576040517f08c379a00000000000000000000000000000000000000000000000000000000081526004016101f190610744565b60405180910390fd5b600160025f85848151811061021257610211610665565b5b602002602001015173ffffffffffffffffffffffffffffffffffffffff1673ffffffffffffffffffffffffffffffffffffffff1681526020019081526020015f205f6101000a81548160ff02191690831515021790555080806001019150506100c5565b50815f908051906020019061028c92919061029b565b50806001819055505050610762565b828054828255905f5260205f20908101928215610311579160200282015b82811115610310578251825f6101000a81548173ffffffffffffffffffffffffffffffffffffffff021916908373ffffffffffffffffffffffffffffffffffffffff160217905550916020019190600101906102b9565b5b50905061031e9190610322565b5090565b5b80821115610339575f815f905550600101610323565b5090565b5f604051905090565b5f80fd5b5f80fd5b5f80fd5b5f601f19601f8301169050919050565b7f4e487b71000000000000000000000000000000000000000000000000000000005f52604160045260245ffd5b61039882610352565b810181811067ffffffffffffffff821117156103b7576103b6610362565b5b80604052505050565b5f6103c961033d565b90506103d5828261038f565b919050565b5f67ffffffffffffffff8211156103f4576103f3610362565b5b602082029050602081019050919050565b5f80fd5b5f73ffffffffffffffffffffffffffffffffffffffff82169050919050565b5f61043282610409565b9050919050565b61044281610428565b811461044c575f80fd5b50565b5f8151905061045d81610439565b92915050565b5f610475610470846103da565b6103c0565b9050808382526020820190506020840283018581111561049857610497610405565b5b835b818110156104c157806104ad888261044f565b84526020840193505060208101905061049a565b5050509392505050565b5f82601f8301126104df576104de61034e565b5b81516104ef848260208601610463565b91505092915050565b5f819050919050565b61050a816104f8565b8114610514575f80fd5b50565b5f8151905061052581610501565b92915050565b5f806040838503121561054157610540610346565b5b5f83015167ffffffffffffffff81111561055e5761055d61034a565b5b61056a858286016104cb565b925050602061057b85828601610517565b9150509250929050565b5f82825260208201905092915050565b7f496e707574206f6e65206f776e6572206174206c6561737400000000000000005f82015250565b5f6105c9601883610585565b91506105d482610595565b602082019050919050565b5f6020820190508181035f8301526105f6816105bd565b9050919050565b7f496e76616c69642072657175697265642073696e6773000000000000000000005f82015250565b5f610631601683610585565b915061063c826105fd565b602082019050919050565b5f6020820190508181035f83015261065e81610625565b9050919050565b7f4e487b71000000000000000000000000000000000000000000000000000000005f52603260045260245ffd5b7f496e76616c6964206f776e6572206164647265737300000000000000000000005f82015250565b5f6106c6601583610585565b91506106d182610692565b602082019050919050565b5f6020820190508181035f8301526106f3816106ba565b9050919050565b7f4f776e6572206465706c696361746564000000000000000000000000000000005f82015250565b5f61072e601083610585565b9150610739826106fa565b602082019050919050565b5f6020820190508181035f83015261075b81610722565b9050919050565b6112048061076f5f395ff3fe608060405260043610610042575f3560e01c806314de327f1461009b578063b759f954146100c3578063ba7e7cab146100eb578063fe0d94c11461012757610097565b36610097573373ffffffffffffffffffffffffffffffffffffffff167fe1fffcc4923d04b559f4d29a8bfc6cda04eb5b0d3c460751c2402c5c5cc9109c3460405161008d9190610912565b60405180910390a2005b5f80fd5b3480156100a6575f80fd5b506100c160048036038101906100bc9190610a18565b61014f565b005b3480156100ce575f80fd5b506100e960048036038101906100e49190610a89565b610345565b005b3480156100f6575f80fd5b50610111600480360381019061010c9190610a89565b61055d565b60405161011e9190610912565b60405180910390f35b348015610132575f80fd5b5061014d60048036038101906101489190610a89565b610629565b005b60025f3373ffffffffffffffffffffffffffffffffffffffff1673ffffffffffffffffffffffffffffffffffffffff1681526020019081526020015f205f9054906101000a900460ff166101d8576040517f08c379a00000000000000000000000000000000000000000000000000000000081526004016101cf90610b0e565b60405180910390fd5b600460405180608001604052808673ffffffffffffffffffffffffffffffffffffffff16815260200185815260200184848080601f0160208091040260200160405190810160405280939291908181526020018383808284375f81840152601f19601f8201169050808301925050505050505081526020015f1515815250908060018154018082558091505060019003905f5260205f2090600402015f909190919091505f820151815f015f6101000a81548173ffffffffffffffffffffffffffffffffffffffff021916908373ffffffffffffffffffffffffffffffffffffffff1602179055506020820151816001015560408201518160020190816102df9190610d5d565b506060820151816003015f6101000a81548160ff021916908315150217905550505060016004805490506103139190610e59565b7f08324b3d745b914e3abd4ffbfead91e3b78391a98c173202129215ab933adfbe60405160405180910390a250505050565b60025f3373ffffffffffffffffffffffffffffffffffffffff1673ffffffffffffffffffffffffffffffffffffffff1681526020019081526020015f205f9054906101000a900460ff166103ce576040517f08c379a00000000000000000000000000000000000000000000000000000000081526004016103c590610b0e565b60405180910390fd5b806004805490508110610416576040517f08c379a000000000000000000000000000000000000000000000000000000000815260040161040d90610ed6565b60405180910390fd5b8160035f8281526020019081526020015f205f3373ffffffffffffffffffffffffffffffffffffffff1673ffffffffffffffffffffffffffffffffffffffff1681526020019081526020015f205f9054906101000a900460ff16156104b0576040517f08c379a00000000000000000000000000000000000000000000000000000000081526004016104a790610f3e565b60405180910390fd5b600160035f8581526020019081526020015f205f3373ffffffffffffffffffffffffffffffffffffffff1673ffffffffffffffffffffffffffffffffffffffff1681526020019081526020015f205f6101000a81548160ff0219169083151502179055503373ffffffffffffffffffffffffffffffffffffffff16837f47ad3e4b0f4bdbe3ac08708bbc45053d2ff616911b39e65563fd9bd78190964560405160405180910390a3505050565b5f805f90505b5f805490508110156106235760035f8481526020019081526020015f205f80838154811061059457610593610f5c565b5b905f5260205f20015f9054906101000a900473ffffffffffffffffffffffffffffffffffffffff1673ffffffffffffffffffffffffffffffffffffffff1673ffffffffffffffffffffffffffffffffffffffff1681526020019081526020015f205f9054906101000a900460ff161561061657818061061290610f89565b9250505b8080600101915050610563565b50919050565b60025f3373ffffffffffffffffffffffffffffffffffffffff1673ffffffffffffffffffffffffffffffffffffffff1681526020019081526020015f205f9054906101000a900460ff166106b2576040517f08c379a00000000000000000000000000000000000000000000000000000000081526004016106a990610b0e565b60405180910390fd5b8060048054905081106106fa576040517f08c379a00000000000000000000000000000000000000000000000000000000081526004016106f190610ed6565b60405180910390fd5b816004818154811061070f5761070e610f5c565b5b905f5260205f2090600402016003015f9054906101000a900460ff161561076b576040517f08c379a00000000000000000000000000000000000000000000000000000000081526004016107629061101a565b60405180910390fd5b6001546107778461055d565b10156107b8576040517f08c379a00000000000000000000000000000000000000000000000000000000081526004016107af906110a8565b60405180910390fd5b5f600484815481106107cd576107cc610f5c565b5b905f5260205f20906004020190505f815f015f9054906101000a900473ffffffffffffffffffffffffffffffffffffffff1673ffffffffffffffffffffffffffffffffffffffff1647836002016040516108279190611150565b5f6040518083038185875af1925050503d805f8114610861576040519150601f19603f3d011682016040523d82523d5f602084013e610866565b606091505b50509050806108aa576040517f08c379a00000000000000000000000000000000000000000000000000000000081526004016108a1906111b0565b60405180910390fd5b6001826003015f6101000a81548160ff021916908315150217905550847fddb556f1d2c1ec821e910b019d3685b229db152a0ecd517ca7e24b8bd713928960405160405180910390a25050505050565b5f819050919050565b61090c816108fa565b82525050565b5f6020820190506109255f830184610903565b92915050565b5f80fd5b5f80fd5b5f73ffffffffffffffffffffffffffffffffffffffff82169050919050565b5f61095c82610933565b9050919050565b61096c81610952565b8114610976575f80fd5b50565b5f8135905061098781610963565b92915050565b610996816108fa565b81146109a0575f80fd5b50565b5f813590506109b18161098d565b92915050565b5f80fd5b5f80fd5b5f80fd5b5f8083601f8401126109d8576109d76109b7565b5b8235905067ffffffffffffffff8111156109f5576109f46109bb565b5b602083019150836001820283011115610a1157610a106109bf565b5b9250929050565b5f805f8060608587031215610a3057610a2f61092b565b5b5f610a3d87828801610979565b9450506020610a4e878288016109a3565b935050604085013567ffffffffffffffff811115610a6f57610a6e61092f565b5b610a7b878288016109c3565b925092505092959194509250565b5f60208284031215610a9e57610a9d61092b565b5b5f610aab848285016109a3565b91505092915050565b5f82825260208201905092915050565b7f596f7520617265206e6f74206f6e7765720000000000000000000000000000005f82015250565b5f610af8601183610ab4565b9150610b0382610ac4565b602082019050919050565b5f6020820190508181035f830152610b2581610aec565b9050919050565b5f81519050919050565b7f4e487b71000000000000000000000000000000000000000000000000000000005f52604160045260245ffd5b7f4e487b71000000000000000000000000000000000000000000000000000000005f52602260045260245ffd5b5f6002820490506001821680610ba757607f821691505b602082108103610bba57610bb9610b63565b5b50919050565b5f819050815f5260205f209050919050565b5f6020601f8301049050919050565b5f82821b905092915050565b5f60088302610c1c7fffffffffffffffffffffffffffffffffffffffffffffffffffffffffffffffff82610be1565b610c268683610be1565b95508019841693508086168417925050509392505050565b5f819050919050565b5f610c61610c5c610c57846108fa565b610c3e565b6108fa565b9050919050565b5f819050919050565b610c7a83610c47565b610c8e610c8682610c68565b848454610bed565b825550505050565b5f90565b610ca2610c96565b610cad818484610c71565b505050565b5b81811015610cd057610cc55f82610c9a565b600181019050610cb3565b5050565b601f821115610d1557610ce681610bc0565b610cef84610bd2565b81016020851015610cfe578190505b610d12610d0a85610bd2565b830182610cb2565b50505b505050565b5f82821c905092915050565b5f610d355f1984600802610d1a565b1980831691505092915050565b5f610d4d8383610d26565b9150826002028217905092915050565b610d6682610b2c565b67ffffffffffffffff811115610d7f57610d7e610b36565b5b610d898254610b90565b610d94828285610cd4565b5f60209050601f831160018114610dc5575f8415610db3578287015190505b610dbd8582610d42565b865550610e24565b601f198416610dd386610bc0565b5f5b82811015610dfa57848901518255600182019150602085019450602081019050610dd5565b86831015610e175784890151610e13601f891682610d26565b8355505b6001600288020188555050505b505050505050565b7f4e487b71000000000000000000000000000000000000000000000000000000005f52601160045260245ffd5b5f610e63826108fa565b9150610e6e836108fa565b9250828203905081811115610e8657610e85610e2c565b5b92915050565b7f5472616e73636174696f6e206973206e6f74206578697374696e6700000000005f82015250565b5f610ec0601b83610ab4565b9150610ecb82610e8c565b602082019050919050565b5f6020820190508181035f830152610eed81610eb4565b9050919050565b7f5472616e73636174696f6e20697320617070726f7665640000000000000000005f82015250565b5f610f28601783610ab4565b9150610f3382610ef4565b602082019050919050565b5f6020820190508181035f830152610f5581610f1c565b9050919050565b7f4e487b71000000000000000000000000000000000000000000000000000000005f52603260045260245ffd5b5f610f93826108fa565b91507fffffffffffffffffffffffffffffffffffffffffffffffffffffffffffffffff8203610fc557610fc4610e2c565b5b600182019050919050565b7f5472616e73636174696f6e2069732065786563757465640000000000000000005f82015250565b5f611004601783610ab4565b915061100f82610fd0565b602082019050919050565b5f6020820190508181035f83015261103181610ff8565b9050919050565b7f417070726f76616c20436f756e74206f662074686973207478203c20726571755f8201527f697265645369676e730000000000000000000000000000000000000000000000602082015250565b5f611092602983610ab4565b915061109d82611038565b604082019050919050565b5f6020820190508181035f8301526110bf81611086565b9050919050565b5f81905092915050565b5f81546110dc81610b90565b6110e681866110c6565b9450600182165f8114611100576001811461111557611147565b60ff1983168652811515820286019350611147565b61111e85610bc0565b5f5b8381101561113f57815481890152600182019150602081019050611120565b838801955050505b50505092915050565b5f61115b82846110d0565b915081905092915050565b7f5472616e73636174696f6e2065786563757465206661696c65640000000000005f82015250565b5f61119a601a83610ab4565b91506111a582611166565b602082019050919050565b5f6020820190508181035f8301526111c78161118e565b905091905056fea26469706673582212201ac25ff766a15a490be80146297a01d3e87fd96bf5a40537d2e6f2e809a46d1d64736f6c634300081a0033",
					"opcodes": "PUSH1 0x80 PUSH1 0x40 MSTORE CALLVALUE DUP1 ISZERO PUSH2 0xF JUMPI PUSH0 DUP1 REVERT JUMPDEST POP PUSH1 0x40 MLOAD PUSH2 0x1973 CODESIZE SUB DUP1 PUSH2 0x1973 DUP4 CODECOPY DUP2 DUP2 ADD PUSH1 0x40 MSTORE DUP2 ADD SWAP1 PUSH2 0x31 SWAP2 SWAP1 PUSH2 0x52B JUMP JUMPDEST PUSH0 DUP3 MLOAD GT PUSH2 0x74 JUMPI PUSH1 0x40 MLOAD PUSH32 0x8C379A000000000000000000000000000000000000000000000000000000000 DUP2 MSTORE PUSH1 0x4 ADD PUSH2 0x6B SWAP1 PUSH2 0x5DF JUMP JUMPDEST PUSH1 0x40 MLOAD DUP1 SWAP2 SUB SWAP1 REVERT JUMPDEST PUSH0 DUP2 GT DUP1 ISZERO PUSH2 0x84 JUMPI POP DUP2 MLOAD DUP2 GT ISZERO JUMPDEST PUSH2 0xC3 JUMPI PUSH1 0x40 MLOAD PUSH32 0x8C379A000000000000000000000000000000000000000000000000000000000 DUP2 MSTORE PUSH1 0x4 ADD PUSH2 0xBA SWAP1 PUSH2 0x647 JUMP JUMPDEST PUSH1 0x40 MLOAD DUP1 SWAP2 SUB SWAP1 REVERT JUMPDEST PUSH0 JUMPDEST DUP3 MLOAD DUP2 LT ISZERO PUSH2 0x276 JUMPI PUSH0 PUSH20 0xFFFFFFFFFFFFFFFFFFFFFFFFFFFFFFFFFFFFFFFF AND DUP4 DUP3 DUP2 MLOAD DUP2 LT PUSH2 0xF8 JUMPI PUSH2 0xF7 PUSH2 0x665 JUMP JUMPDEST JUMPDEST PUSH1 0x20 MUL PUSH1 0x20 ADD ADD MLOAD PUSH20 0xFFFFFFFFFFFFFFFFFFFFFFFFFFFFFFFFFFFFFFFF AND SUB PUSH2 0x156 JUMPI PUSH1 0x40 MLOAD PUSH32 0x8C379A000000000000000000000000000000000000000000000000000000000 DUP2 MSTORE PUSH1 0x4 ADD PUSH2 0x14D SWAP1 PUSH2 0x6DC JUMP JUMPDEST PUSH1 0x40 MLOAD DUP1 SWAP2 SUB SWAP1 REVERT JUMPDEST PUSH1 0x2 PUSH0 DUP5 DUP4 DUP2 MLOAD DUP2 LT PUSH2 0x16C JUMPI PUSH2 0x16B PUSH2 0x665 JUMP JUMPDEST JUMPDEST PUSH1 0x20 MUL PUSH1 0x20 ADD ADD MLOAD PUSH20 0xFFFFFFFFFFFFFFFFFFFFFFFFFFFFFFFFFFFFFFFF AND PUSH20 0xFFFFFFFFFFFFFFFFFFFFFFFFFFFFFFFFFFFFFFFF AND DUP2 MSTORE PUSH1 0x20 ADD SWAP1 DUP2 MSTORE PUSH1 0x20 ADD PUSH0 KECCAK256 PUSH0 SWAP1 SLOAD SWAP1 PUSH2 0x100 EXP SWAP1 DIV PUSH1 0xFF AND ISZERO PUSH2 0x1FA JUMPI PUSH1 0x40 MLOAD PUSH32 0x8C379A000000000000000000000000000000000000000000000000000000000 DUP2 MSTORE PUSH1 0x4 ADD PUSH2 0x1F1 SWAP1 PUSH2 0x744 JUMP JUMPDEST PUSH1 0x40 MLOAD DUP1 SWAP2 SUB SWAP1 REVERT JUMPDEST PUSH1 0x1 PUSH1 0x2 PUSH0 DUP6 DUP5 DUP2 MLOAD DUP2 LT PUSH2 0x212 JUMPI PUSH2 0x211 PUSH2 0x665 JUMP JUMPDEST JUMPDEST PUSH1 0x20 MUL PUSH1 0x20 ADD ADD MLOAD PUSH20 0xFFFFFFFFFFFFFFFFFFFFFFFFFFFFFFFFFFFFFFFF AND PUSH20 0xFFFFFFFFFFFFFFFFFFFFFFFFFFFFFFFFFFFFFFFF AND DUP2 MSTORE PUSH1 0x20 ADD SWAP1 DUP2 MSTORE PUSH1 0x20 ADD PUSH0 KECCAK256 PUSH0 PUSH2 0x100 EXP DUP2 SLOAD DUP2 PUSH1 0xFF MUL NOT AND SWAP1 DUP4 ISZERO ISZERO MUL OR SWAP1 SSTORE POP DUP1 DUP1 PUSH1 0x1 ADD SWAP2 POP POP PUSH2 0xC5 JUMP JUMPDEST POP DUP2 PUSH0 SWAP1 DUP1 MLOAD SWAP1 PUSH1 0x20 ADD SWAP1 PUSH2 0x28C SWAP3 SWAP2 SWAP1 PUSH2 0x29B JUMP JUMPDEST POP DUP1 PUSH1 0x1 DUP2 SWAP1 SSTORE POP POP POP PUSH2 0x762 JUMP JUMPDEST DUP3 DUP1 SLOAD DUP3 DUP3 SSTORE SWAP1 PUSH0 MSTORE PUSH1 0x20 PUSH0 KECCAK256 SWAP1 DUP2 ADD SWAP3 DUP3 ISZERO PUSH2 0x311 JUMPI SWAP2 PUSH1 0x20 MUL DUP3 ADD JUMPDEST DUP3 DUP2 GT ISZERO PUSH2 0x310 JUMPI DUP3 MLOAD DUP3 PUSH0 PUSH2 0x100 EXP DUP2 SLOAD DUP2 PUSH20 0xFFFFFFFFFFFFFFFFFFFFFFFFFFFFFFFFFFFFFFFF MUL NOT AND SWAP1 DUP4 PUSH20 0xFFFFFFFFFFFFFFFFFFFFFFFFFFFFFFFFFFFFFFFF AND MUL OR SWAP1 SSTORE POP SWAP2 PUSH1 0x20 ADD SWAP2 SWAP1 PUSH1 0x1 ADD SWAP1 PUSH2 0x2B9 JUMP JUMPDEST JUMPDEST POP SWAP1 POP PUSH2 0x31E SWAP2 SWAP1 PUSH2 0x322 JUMP JUMPDEST POP SWAP1 JUMP JUMPDEST JUMPDEST DUP1 DUP3 GT ISZERO PUSH2 0x339 JUMPI PUSH0 DUP2 PUSH0 SWAP1 SSTORE POP PUSH1 0x1 ADD PUSH2 0x323 JUMP JUMPDEST POP SWAP1 JUMP JUMPDEST PUSH0 PUSH1 0x40 MLOAD SWAP1 POP SWAP1 JUMP JUMPDEST PUSH0 DUP1 REVERT JUMPDEST PUSH0 DUP1 REVERT JUMPDEST PUSH0 DUP1 REVERT JUMPDEST PUSH0 PUSH1 0x1F NOT PUSH1 0x1F DUP4 ADD AND SWAP1 POP SWAP2 SWAP1 POP JUMP JUMPDEST PUSH32 0x4E487B7100000000000000000000000000000000000000000000000000000000 PUSH0 MSTORE PUSH1 0x41 PUSH1 0x4 MSTORE PUSH1 0x24 PUSH0 REVERT JUMPDEST PUSH2 0x398 DUP3 PUSH2 0x352 JUMP JUMPDEST DUP2 ADD DUP2 DUP2 LT PUSH8 0xFFFFFFFFFFFFFFFF DUP3 GT OR ISZERO PUSH2 0x3B7 JUMPI PUSH2 0x3B6 PUSH2 0x362 JUMP JUMPDEST JUMPDEST DUP1 PUSH1 0x40 MSTORE POP POP POP JUMP JUMPDEST PUSH0 PUSH2 0x3C9 PUSH2 0x33D JUMP JUMPDEST SWAP1 POP PUSH2 0x3D5 DUP3 DUP3 PUSH2 0x38F JUMP JUMPDEST SWAP2 SWAP1 POP JUMP JUMPDEST PUSH0 PUSH8 0xFFFFFFFFFFFFFFFF DUP3 GT ISZERO PUSH2 0x3F4 JUMPI PUSH2 0x3F3 PUSH2 0x362 JUMP JUMPDEST JUMPDEST PUSH1 0x20 DUP3 MUL SWAP1 POP PUSH1 0x20 DUP2 ADD SWAP1 POP SWAP2 SWAP1 POP JUMP JUMPDEST PUSH0 DUP1 REVERT JUMPDEST PUSH0 PUSH20 0xFFFFFFFFFFFFFFFFFFFFFFFFFFFFFFFFFFFFFFFF DUP3 AND SWAP1 POP SWAP2 SWAP1 POP JUMP JUMPDEST PUSH0 PUSH2 0x432 DUP3 PUSH2 0x409 JUMP JUMPDEST SWAP1 POP SWAP2 SWAP1 POP JUMP JUMPDEST PUSH2 0x442 DUP2 PUSH2 0x428 JUMP JUMPDEST DUP2 EQ PUSH2 0x44C JUMPI PUSH0 DUP1 REVERT JUMPDEST POP JUMP JUMPDEST PUSH0 DUP2 MLOAD SWAP1 POP PUSH2 0x45D DUP2 PUSH2 0x439 JUMP JUMPDEST SWAP3 SWAP2 POP POP JUMP JUMPDEST PUSH0 PUSH2 0x475 PUSH2 0x470 DUP5 PUSH2 0x3DA JUMP JUMPDEST PUSH2 0x3C0 JUMP JUMPDEST SWAP1 POP DUP1 DUP4 DUP3 MSTORE PUSH1 0x20 DUP3 ADD SWAP1 POP PUSH1 0x20 DUP5 MUL DUP4 ADD DUP6 DUP2 GT ISZERO PUSH2 0x498 JUMPI PUSH2 0x497 PUSH2 0x405 JUMP JUMPDEST JUMPDEST DUP4 JUMPDEST DUP2 DUP2 LT ISZERO PUSH2 0x4C1 JUMPI DUP1 PUSH2 0x4AD DUP9 DUP3 PUSH2 0x44F JUMP JUMPDEST DUP5 MSTORE PUSH1 0x20 DUP5 ADD SWAP4 POP POP PUSH1 0x20 DUP2 ADD SWAP1 POP PUSH2 0x49A JUMP JUMPDEST POP POP POP SWAP4 SWAP3 POP POP POP JUMP JUMPDEST PUSH0 DUP3 PUSH1 0x1F DUP4 ADD SLT PUSH2 0x4DF JUMPI PUSH2 0x4DE PUSH2 0x34E JUMP JUMPDEST JUMPDEST DUP2 MLOAD PUSH2 0x4EF DUP5 DUP3 PUSH1 0x20 DUP7 ADD PUSH2 0x463 JUMP JUMPDEST SWAP2 POP POP SWAP3 SWAP2 POP POP JUMP JUMPDEST PUSH0 DUP2 SWAP1 POP SWAP2 SWAP1 POP JUMP JUMPDEST PUSH2 0x50A DUP2 PUSH2 0x4F8 JUMP JUMPDEST DUP2 EQ PUSH2 0x514 JUMPI PUSH0 DUP1 REVERT JUMPDEST POP JUMP JUMPDEST PUSH0 DUP2 MLOAD SWAP1 POP PUSH2 0x525 DUP2 PUSH2 0x501 JUMP JUMPDEST SWAP3 SWAP2 POP POP JUMP JUMPDEST PUSH0 DUP1 PUSH1 0x40 DUP4 DUP6 SUB SLT ISZERO PUSH2 0x541 JUMPI PUSH2 0x540 PUSH2 0x346 JUMP JUMPDEST JUMPDEST PUSH0 DUP4 ADD MLOAD PUSH8 0xFFFFFFFFFFFFFFFF DUP2 GT ISZERO PUSH2 0x55E JUMPI PUSH2 0x55D PUSH2 0x34A JUMP JUMPDEST JUMPDEST PUSH2 0x56A DUP6 DUP3 DUP7 ADD PUSH2 0x4CB JUMP JUMPDEST SWAP3 POP POP PUSH1 0x20 PUSH2 0x57B DUP6 DUP3 DUP7 ADD PUSH2 0x517 JUMP JUMPDEST SWAP2 POP POP SWAP3 POP SWAP3 SWAP1 POP JUMP JUMPDEST PUSH0 DUP3 DUP3 MSTORE PUSH1 0x20 DUP3 ADD SWAP1 POP SWAP3 SWAP2 POP POP JUMP JUMPDEST PUSH32 0x496E707574206F6E65206F776E6572206174206C656173740000000000000000 PUSH0 DUP3 ADD MSTORE POP JUMP JUMPDEST PUSH0 PUSH2 0x5C9 PUSH1 0x18 DUP4 PUSH2 0x585 JUMP JUMPDEST SWAP2 POP PUSH2 0x5D4 DUP3 PUSH2 0x595 JUMP JUMPDEST PUSH1 0x20 DUP3 ADD SWAP1 POP SWAP2 SWAP1 POP JUMP JUMPDEST PUSH0 PUSH1 0x20 DUP3 ADD SWAP1 POP DUP2 DUP2 SUB PUSH0 DUP4 ADD MSTORE PUSH2 0x5F6 DUP2 PUSH2 0x5BD JUMP JUMPDEST SWAP1 POP SWAP2 SWAP1 POP JUMP JUMPDEST PUSH32 0x496E76616C69642072657175697265642073696E677300000000000000000000 PUSH0 DUP3 ADD MSTORE POP JUMP JUMPDEST PUSH0 PUSH2 0x631 PUSH1 0x16 DUP4 PUSH2 0x585 JUMP JUMPDEST SWAP2 POP PUSH2 0x63C DUP3 PUSH2 0x5FD JUMP JUMPDEST PUSH1 0x20 DUP3 ADD SWAP1 POP SWAP2 SWAP1 POP JUMP JUMPDEST PUSH0 PUSH1 0x20 DUP3 ADD SWAP1 POP DUP2 DUP2 SUB PUSH0 DUP4 ADD MSTORE PUSH2 0x65E DUP2 PUSH2 0x625 JUMP JUMPDEST SWAP1 POP SWAP2 SWAP1 POP JUMP JUMPDEST PUSH32 0x4E487B7100000000000000000000000000000000000000000000000000000000 PUSH0 MSTORE PUSH1 0x32 PUSH1 0x4 MSTORE PUSH1 0x24 PUSH0 REVERT JUMPDEST PUSH32 0x496E76616C6964206F776E657220616464726573730000000000000000000000 PUSH0 DUP3 ADD MSTORE POP JUMP JUMPDEST PUSH0 PUSH2 0x6C6 PUSH1 0x15 DUP4 PUSH2 0x585 JUMP JUMPDEST SWAP2 POP PUSH2 0x6D1 DUP3 PUSH2 0x692 JUMP JUMPDEST PUSH1 0x20 DUP3 ADD SWAP1 POP SWAP2 SWAP1 POP JUMP JUMPDEST PUSH0 PUSH1 0x20 DUP3 ADD SWAP1 POP DUP2 DUP2 SUB PUSH0 DUP4 ADD MSTORE PUSH2 0x6F3 DUP2 PUSH2 0x6BA JUMP JUMPDEST SWAP1 POP SWAP2 SWAP1 POP JUMP JUMPDEST PUSH32 0x4F776E6572206465706C69636174656400000000000000000000000000000000 PUSH0 DUP3 ADD MSTORE POP JUMP JUMPDEST PUSH0 PUSH2 0x72E PUSH1 0x10 DUP4 PUSH2 0x585 JUMP JUMPDEST SWAP2 POP PUSH2 0x739 DUP3 PUSH2 0x6FA JUMP JUMPDEST PUSH1 0x20 DUP3 ADD SWAP1 POP SWAP2 SWAP1 POP JUMP JUMPDEST PUSH0 PUSH1 0x20 DUP3 ADD SWAP1 POP DUP2 DUP2 SUB PUSH0 DUP4 ADD MSTORE PUSH2 0x75B DUP2 PUSH2 0x722 JUMP JUMPDEST SWAP1 POP SWAP2 SWAP1 POP JUMP JUMPDEST PUSH2 0x1204 DUP1 PUSH2 0x76F PUSH0 CODECOPY PUSH0 RETURN INVALID PUSH1 0x80 PUSH1 0x40 MSTORE PUSH1 0x4 CALLDATASIZE LT PUSH2 0x42 JUMPI PUSH0 CALLDATALOAD PUSH1 0xE0 SHR DUP1 PUSH4 0x14DE327F EQ PUSH2 0x9B JUMPI DUP1 PUSH4 0xB759F954 EQ PUSH2 0xC3 JUMPI DUP1 PUSH4 0xBA7E7CAB EQ PUSH2 0xEB JUMPI DUP1 PUSH4 0xFE0D94C1 EQ PUSH2 0x127 JUMPI PUSH2 0x97 JUMP JUMPDEST CALLDATASIZE PUSH2 0x97 JUMPI CALLER PUSH20 0xFFFFFFFFFFFFFFFFFFFFFFFFFFFFFFFFFFFFFFFF AND PUSH32 0xE1FFFCC4923D04B559F4D29A8BFC6CDA04EB5B0D3C460751C2402C5C5CC9109C CALLVALUE PUSH1 0x40 MLOAD PUSH2 0x8D SWAP2 SWAP1 PUSH2 0x912 JUMP JUMPDEST PUSH1 0x40 MLOAD DUP1 SWAP2 SUB SWAP1 LOG2 STOP JUMPDEST PUSH0 DUP1 REVERT JUMPDEST CALLVALUE DUP1 ISZERO PUSH2 0xA6 JUMPI PUSH0 DUP1 REVERT JUMPDEST POP PUSH2 0xC1 PUSH1 0x4 DUP1 CALLDATASIZE SUB DUP2 ADD SWAP1 PUSH2 0xBC SWAP2 SWAP1 PUSH2 0xA18 JUMP JUMPDEST PUSH2 0x14F JUMP JUMPDEST STOP JUMPDEST CALLVALUE DUP1 ISZERO PUSH2 0xCE JUMPI PUSH0 DUP1 REVERT JUMPDEST POP PUSH2 0xE9 PUSH1 0x4 DUP1 CALLDATASIZE SUB DUP2 ADD SWAP1 PUSH2 0xE4 SWAP2 SWAP1 PUSH2 0xA89 JUMP JUMPDEST PUSH2 0x345 JUMP JUMPDEST STOP JUMPDEST CALLVALUE DUP1 ISZERO PUSH2 0xF6 JUMPI PUSH0 DUP1 REVERT JUMPDEST POP PUSH2 0x111 PUSH1 0x4 DUP1 CALLDATASIZE SUB DUP2 ADD SWAP1 PUSH2 0x10C SWAP2 SWAP1 PUSH2 0xA89 JUMP JUMPDEST PUSH2 0x55D JUMP JUMPDEST PUSH1 0x40 MLOAD PUSH2 0x11E SWAP2 SWAP1 PUSH2 0x912 JUMP JUMPDEST PUSH1 0x40 MLOAD DUP1 SWAP2 SUB SWAP1 RETURN JUMPDEST CALLVALUE DUP1 ISZERO PUSH2 0x132 JUMPI PUSH0 DUP1 REVERT JUMPDEST POP PUSH2 0x14D PUSH1 0x4 DUP1 CALLDATASIZE SUB DUP2 ADD SWAP1 PUSH2 0x148 SWAP2 SWAP1 PUSH2 0xA89 JUMP JUMPDEST PUSH2 0x629 JUMP JUMPDEST STOP JUMPDEST PUSH1 0x2 PUSH0 CALLER PUSH20 0xFFFFFFFFFFFFFFFFFFFFFFFFFFFFFFFFFFFFFFFF AND PUSH20 0xFFFFFFFFFFFFFFFFFFFFFFFFFFFFFFFFFFFFFFFF AND DUP2 MSTORE PUSH1 0x20 ADD SWAP1 DUP2 MSTORE PUSH1 0x20 ADD PUSH0 KECCAK256 PUSH0 SWAP1 SLOAD SWAP1 PUSH2 0x100 EXP SWAP1 DIV PUSH1 0xFF AND PUSH2 0x1D8 JUMPI PUSH1 0x40 MLOAD PUSH32 0x8C379A000000000000000000000000000000000000000000000000000000000 DUP2 MSTORE PUSH1 0x4 ADD PUSH2 0x1CF SWAP1 PUSH2 0xB0E JUMP JUMPDEST PUSH1 0x40 MLOAD DUP1 SWAP2 SUB SWAP1 REVERT JUMPDEST PUSH1 0x4 PUSH1 0x40 MLOAD DUP1 PUSH1 0x80 ADD PUSH1 0x40 MSTORE DUP1 DUP7 PUSH20 0xFFFFFFFFFFFFFFFFFFFFFFFFFFFFFFFFFFFFFFFF AND DUP2 MSTORE PUSH1 0x20 ADD DUP6 DUP2 MSTORE PUSH1 0x20 ADD DUP5 DUP5 DUP1 DUP1 PUSH1 0x1F ADD PUSH1 0x20 DUP1 SWAP2 DIV MUL PUSH1 0x20 ADD PUSH1 0x40 MLOAD SWAP1 DUP2 ADD PUSH1 0x40 MSTORE DUP1 SWAP4 SWAP3 SWAP2 SWAP1 DUP2 DUP2 MSTORE PUSH1 0x20 ADD DUP4 DUP4 DUP1 DUP3 DUP5 CALLDATACOPY PUSH0 DUP2 DUP5 ADD MSTORE PUSH1 0x1F NOT PUSH1 0x1F DUP3 ADD AND SWAP1 POP DUP1 DUP4 ADD SWAP3 POP POP POP POP POP POP POP DUP2 MSTORE PUSH1 0x20 ADD PUSH0 ISZERO ISZERO DUP2 MSTORE POP SWAP1 DUP1 PUSH1 0x1 DUP2 SLOAD ADD DUP1 DUP3 SSTORE DUP1 SWAP2 POP POP PUSH1 0x1 SWAP1 SUB SWAP1 PUSH0 MSTORE PUSH1 0x20 PUSH0 KECCAK256 SWAP1 PUSH1 0x4 MUL ADD PUSH0 SWAP1 SWAP2 SWAP1 SWAP2 SWAP1 SWAP2 POP PUSH0 DUP3 ADD MLOAD DUP2 PUSH0 ADD PUSH0 PUSH2 0x100 EXP DUP2 SLOAD DUP2 PUSH20 0xFFFFFFFFFFFFFFFFFFFFFFFFFFFFFFFFFFFFFFFF MUL NOT AND SWAP1 DUP4 PUSH20 0xFFFFFFFFFFFFFFFFFFFFFFFFFFFFFFFFFFFFFFFF AND MUL OR SWAP1 SSTORE POP PUSH1 0x20 DUP3 ADD MLOAD DUP2 PUSH1 0x1 ADD SSTORE PUSH1 0x40 DUP3 ADD MLOAD DUP2 PUSH1 0x2 ADD SWAP1 DUP2 PUSH2 0x2DF SWAP2 SWAP1 PUSH2 0xD5D JUMP JUMPDEST POP PUSH1 0x60 DUP3 ADD MLOAD DUP2 PUSH1 0x3 ADD PUSH0 PUSH2 0x100 EXP DUP2 SLOAD DUP2 PUSH1 0xFF MUL NOT AND SWAP1 DUP4 ISZERO ISZERO MUL OR SWAP1 SSTORE POP POP POP PUSH1 0x1 PUSH1 0x4 DUP1 SLOAD SWAP1 POP PUSH2 0x313 SWAP2 SWAP1 PUSH2 0xE59 JUMP JUMPDEST PUSH32 0x8324B3D745B914E3ABD4FFBFEAD91E3B78391A98C173202129215AB933ADFBE PUSH1 0x40 MLOAD PUSH1 0x40 MLOAD DUP1 SWAP2 SUB SWAP1 LOG2 POP POP POP POP JUMP JUMPDEST PUSH1 0x2 PUSH0 CALLER PUSH20 0xFFFFFFFFFFFFFFFFFFFFFFFFFFFFFFFFFFFFFFFF AND PUSH20 0xFFFFFFFFFFFFFFFFFFFFFFFFFFFFFFFFFFFFFFFF AND DUP2 MSTORE PUSH1 0x20 ADD SWAP1 DUP2 MSTORE PUSH1 0x20 ADD PUSH0 KECCAK256 PUSH0 SWAP1 SLOAD SWAP1 PUSH2 0x100 EXP SWAP1 DIV PUSH1 0xFF AND PUSH2 0x3CE JUMPI PUSH1 0x40 MLOAD PUSH32 0x8C379A000000000000000000000000000000000000000000000000000000000 DUP2 MSTORE PUSH1 0x4 ADD PUSH2 0x3C5 SWAP1 PUSH2 0xB0E JUMP JUMPDEST PUSH1 0x40 MLOAD DUP1 SWAP2 SUB SWAP1 REVERT JUMPDEST DUP1 PUSH1 0x4 DUP1 SLOAD SWAP1 POP DUP2 LT PUSH2 0x416 JUMPI PUSH1 0x40 MLOAD PUSH32 0x8C379A000000000000000000000000000000000000000000000000000000000 DUP2 MSTORE PUSH1 0x4 ADD PUSH2 0x40D SWAP1 PUSH2 0xED6 JUMP JUMPDEST PUSH1 0x40 MLOAD DUP1 SWAP2 SUB SWAP1 REVERT JUMPDEST DUP2 PUSH1 0x3 PUSH0 DUP3 DUP2 MSTORE PUSH1 0x20 ADD SWAP1 DUP2 MSTORE PUSH1 0x20 ADD PUSH0 KECCAK256 PUSH0 CALLER PUSH20 0xFFFFFFFFFFFFFFFFFFFFFFFFFFFFFFFFFFFFFFFF AND PUSH20 0xFFFFFFFFFFFFFFFFFFFFFFFFFFFFFFFFFFFFFFFF AND DUP2 MSTORE PUSH1 0x20 ADD SWAP1 DUP2 MSTORE PUSH1 0x20 ADD PUSH0 KECCAK256 PUSH0 SWAP1 SLOAD SWAP1 PUSH2 0x100 EXP SWAP1 DIV PUSH1 0xFF AND ISZERO PUSH2 0x4B0 JUMPI PUSH1 0x40 MLOAD PUSH32 0x8C379A000000000000000000000000000000000000000000000000000000000 DUP2 MSTORE PUSH1 0x4 ADD PUSH2 0x4A7 SWAP1 PUSH2 0xF3E JUMP JUMPDEST PUSH1 0x40 MLOAD DUP1 SWAP2 SUB SWAP1 REVERT JUMPDEST PUSH1 0x1 PUSH1 0x3 PUSH0 DUP6 DUP2 MSTORE PUSH1 0x20 ADD SWAP1 DUP2 MSTORE PUSH1 0x20 ADD PUSH0 KECCAK256 PUSH0 CALLER PUSH20 0xFFFFFFFFFFFFFFFFFFFFFFFFFFFFFFFFFFFFFFFF AND PUSH20 0xFFFFFFFFFFFFFFFFFFFFFFFFFFFFFFFFFFFFFFFF AND DUP2 MSTORE PUSH1 0x20 ADD SWAP1 DUP2 MSTORE PUSH1 0x20 ADD PUSH0 KECCAK256 PUSH0 PUSH2 0x100 EXP DUP2 SLOAD DUP2 PUSH1 0xFF MUL NOT AND SWAP1 DUP4 ISZERO ISZERO MUL OR SWAP1 SSTORE POP CALLER PUSH20 0xFFFFFFFFFFFFFFFFFFFFFFFFFFFFFFFFFFFFFFFF AND DUP4 PUSH32 0x47AD3E4B0F4BDBE3AC08708BBC45053D2FF616911B39E65563FD9BD781909645 PUSH1 0x40 MLOAD PUSH1 0x40 MLOAD DUP1 SWAP2 SUB SWAP1 LOG3 POP POP POP JUMP JUMPDEST PUSH0 DUP1 PUSH0 SWAP1 POP JUMPDEST PUSH0 DUP1 SLOAD SWAP1 POP DUP2 LT ISZERO PUSH2 0x623 JUMPI PUSH1 0x3 PUSH0 DUP5 DUP2 MSTORE PUSH1 0x20 ADD SWAP1 DUP2 MSTORE PUSH1 0x20 ADD PUSH0 KECCAK256 PUSH0 DUP1 DUP4 DUP2 SLOAD DUP2 LT PUSH2 0x594 JUMPI PUSH2 0x593 PUSH2 0xF5C JUMP JUMPDEST JUMPDEST SWAP1 PUSH0 MSTORE PUSH1 0x20 PUSH0 KECCAK256 ADD PUSH0 SWAP1 SLOAD SWAP1 PUSH2 0x100 EXP SWAP1 DIV PUSH20 0xFFFFFFFFFFFFFFFFFFFFFFFFFFFFFFFFFFFFFFFF AND PUSH20 0xFFFFFFFFFFFFFFFFFFFFFFFFFFFFFFFFFFFFFFFF AND PUSH20 0xFFFFFFFFFFFFFFFFFFFFFFFFFFFFFFFFFFFFFFFF AND DUP2 MSTORE PUSH1 0x20 ADD SWAP1 DUP2 MSTORE PUSH1 0x20 ADD PUSH0 KECCAK256 PUSH0 SWAP1 SLOAD SWAP1 PUSH2 0x100 EXP SWAP1 DIV PUSH1 0xFF AND ISZERO PUSH2 0x616 JUMPI DUP2 DUP1 PUSH2 0x612 SWAP1 PUSH2 0xF89 JUMP JUMPDEST SWAP3 POP POP JUMPDEST DUP1 DUP1 PUSH1 0x1 ADD SWAP2 POP POP PUSH2 0x563 JUMP JUMPDEST POP SWAP2 SWAP1 POP JUMP JUMPDEST PUSH1 0x2 PUSH0 CALLER PUSH20 0xFFFFFFFFFFFFFFFFFFFFFFFFFFFFFFFFFFFFFFFF AND PUSH20 0xFFFFFFFFFFFFFFFFFFFFFFFFFFFFFFFFFFFFFFFF AND DUP2 MSTORE PUSH1 0x20 ADD SWAP1 DUP2 MSTORE PUSH1 0x20 ADD PUSH0 KECCAK256 PUSH0 SWAP1 SLOAD SWAP1 PUSH2 0x100 EXP SWAP1 DIV PUSH1 0xFF AND PUSH2 0x6B2 JUMPI PUSH1 0x40 MLOAD PUSH32 0x8C379A000000000000000000000000000000000000000000000000000000000 DUP2 MSTORE PUSH1 0x4 ADD PUSH2 0x6A9 SWAP1 PUSH2 0xB0E JUMP JUMPDEST PUSH1 0x40 MLOAD DUP1 SWAP2 SUB SWAP1 REVERT JUMPDEST DUP1 PUSH1 0x4 DUP1 SLOAD SWAP1 POP DUP2 LT PUSH2 0x6FA JUMPI PUSH1 0x40 MLOAD PUSH32 0x8C379A000000000000000000000000000000000000000000000000000000000 DUP2 MSTORE PUSH1 0x4 ADD PUSH2 0x6F1 SWAP1 PUSH2 0xED6 JUMP JUMPDEST PUSH1 0x40 MLOAD DUP1 SWAP2 SUB SWAP1 REVERT JUMPDEST DUP2 PUSH1 0x4 DUP2 DUP2 SLOAD DUP2 LT PUSH2 0x70F JUMPI PUSH2 0x70E PUSH2 0xF5C JUMP JUMPDEST JUMPDEST SWAP1 PUSH0 MSTORE PUSH1 0x20 PUSH0 KECCAK256 SWAP1 PUSH1 0x4 MUL ADD PUSH1 0x3 ADD PUSH0 SWAP1 SLOAD SWAP1 PUSH2 0x100 EXP SWAP1 DIV PUSH1 0xFF AND ISZERO PUSH2 0x76B JUMPI PUSH1 0x40 MLOAD PUSH32 0x8C379A000000000000000000000000000000000000000000000000000000000 DUP2 MSTORE PUSH1 0x4 ADD PUSH2 0x762 SWAP1 PUSH2 0x101A JUMP JUMPDEST PUSH1 0x40 MLOAD DUP1 SWAP2 SUB SWAP1 REVERT JUMPDEST PUSH1 0x1 SLOAD PUSH2 0x777 DUP5 PUSH2 0x55D JUMP JUMPDEST LT ISZERO PUSH2 0x7B8 JUMPI PUSH1 0x40 MLOAD PUSH32 0x8C379A000000000000000000000000000000000000000000000000000000000 DUP2 MSTORE PUSH1 0x4 ADD PUSH2 0x7AF SWAP1 PUSH2 0x10A8 JUMP JUMPDEST PUSH1 0x40 MLOAD DUP1 SWAP2 SUB SWAP1 REVERT JUMPDEST PUSH0 PUSH1 0x4 DUP5 DUP2 SLOAD DUP2 LT PUSH2 0x7CD JUMPI PUSH2 0x7CC PUSH2 0xF5C JUMP JUMPDEST JUMPDEST SWAP1 PUSH0 MSTORE PUSH1 0x20 PUSH0 KECCAK256 SWAP1 PUSH1 0x4 MUL ADD SWAP1 POP PUSH0 DUP2 PUSH0 ADD PUSH0 SWAP1 SLOAD SWAP1 PUSH2 0x100 EXP SWAP1 DIV PUSH20 0xFFFFFFFFFFFFFFFFFFFFFFFFFFFFFFFFFFFFFFFF AND PUSH20 0xFFFFFFFFFFFFFFFFFFFFFFFFFFFFFFFFFFFFFFFF AND SELFBALANCE DUP4 PUSH1 0x2 ADD PUSH1 0x40 MLOAD PUSH2 0x827 SWAP2 SWAP1 PUSH2 0x1150 JUMP JUMPDEST PUSH0 PUSH1 0x40 MLOAD DUP1 DUP4 SUB DUP2 DUP6 DUP8 GAS CALL SWAP3 POP POP POP RETURNDATASIZE DUP1 PUSH0 DUP2 EQ PUSH2 0x861 JUMPI PUSH1 0x40 MLOAD SWAP2 POP PUSH1 0x1F NOT PUSH1 0x3F RETURNDATASIZE ADD AND DUP3 ADD PUSH1 0x40 MSTORE RETURNDATASIZE DUP3 MSTORE RETURNDATASIZE PUSH0 PUSH1 0x20 DUP5 ADD RETURNDATACOPY PUSH2 0x866 JUMP JUMPDEST PUSH1 0x60 SWAP2 POP JUMPDEST POP POP SWAP1 POP DUP1 PUSH2 0x8AA JUMPI PUSH1 0x40 MLOAD PUSH32 0x8C379A000000000000000000000000000000000000000000000000000000000 DUP2 MSTORE PUSH1 0x4 ADD PUSH2 0x8A1 SWAP1 PUSH2 0x11B0 JUMP JUMPDEST PUSH1 0x40 MLOAD DUP1 SWAP2 SUB SWAP1 REVERT JUMPDEST PUSH1 0x1 DUP3 PUSH1 0x3 ADD PUSH0 PUSH2 0x100 EXP DUP2 SLOAD DUP2 PUSH1 0xFF MUL NOT AND SWAP1 DUP4 ISZERO ISZERO MUL OR SWAP1 SSTORE POP DUP5 PUSH32 0xDDB556F1D2C1EC821E910B019D3685B229DB152A0ECD517CA7E24B8BD7139289 PUSH1 0x40 MLOAD PUSH1 0x40 MLOAD DUP1 SWAP2 SUB SWAP1 LOG2 POP POP POP POP POP JUMP JUMPDEST PUSH0 DUP2 SWAP1 POP SWAP2 SWAP1 POP JUMP JUMPDEST PUSH2 0x90C DUP2 PUSH2 0x8FA JUMP JUMPDEST DUP3 MSTORE POP POP JUMP JUMPDEST PUSH0 PUSH1 0x20 DUP3 ADD SWAP1 POP PUSH2 0x925 PUSH0 DUP4 ADD DUP5 PUSH2 0x903 JUMP JUMPDEST SWAP3 SWAP2 POP POP JUMP JUMPDEST PUSH0 DUP1 REVERT JUMPDEST PUSH0 DUP1 REVERT JUMPDEST PUSH0 PUSH20 0xFFFFFFFFFFFFFFFFFFFFFFFFFFFFFFFFFFFFFFFF DUP3 AND SWAP1 POP SWAP2 SWAP1 POP JUMP JUMPDEST PUSH0 PUSH2 0x95C DUP3 PUSH2 0x933 JUMP JUMPDEST SWAP1 POP SWAP2 SWAP1 POP JUMP JUMPDEST PUSH2 0x96C DUP2 PUSH2 0x952 JUMP JUMPDEST DUP2 EQ PUSH2 0x976 JUMPI PUSH0 DUP1 REVERT JUMPDEST POP JUMP JUMPDEST PUSH0 DUP2 CALLDATALOAD SWAP1 POP PUSH2 0x987 DUP2 PUSH2 0x963 JUMP JUMPDEST SWAP3 SWAP2 POP POP JUMP JUMPDEST PUSH2 0x996 DUP2 PUSH2 0x8FA JUMP JUMPDEST DUP2 EQ PUSH2 0x9A0 JUMPI PUSH0 DUP1 REVERT JUMPDEST POP JUMP JUMPDEST PUSH0 DUP2 CALLDATALOAD SWAP1 POP PUSH2 0x9B1 DUP2 PUSH2 0x98D JUMP JUMPDEST SWAP3 SWAP2 POP POP JUMP JUMPDEST PUSH0 DUP1 REVERT JUMPDEST PUSH0 DUP1 REVERT JUMPDEST PUSH0 DUP1 REVERT JUMPDEST PUSH0 DUP1 DUP4 PUSH1 0x1F DUP5 ADD SLT PUSH2 0x9D8 JUMPI PUSH2 0x9D7 PUSH2 0x9B7 JUMP JUMPDEST JUMPDEST DUP3 CALLDATALOAD SWAP1 POP PUSH8 0xFFFFFFFFFFFFFFFF DUP2 GT ISZERO PUSH2 0x9F5 JUMPI PUSH2 0x9F4 PUSH2 0x9BB JUMP JUMPDEST JUMPDEST PUSH1 0x20 DUP4 ADD SWAP2 POP DUP4 PUSH1 0x1 DUP3 MUL DUP4 ADD GT ISZERO PUSH2 0xA11 JUMPI PUSH2 0xA10 PUSH2 0x9BF JUMP JUMPDEST JUMPDEST SWAP3 POP SWAP3 SWAP1 POP JUMP JUMPDEST PUSH0 DUP1 PUSH0 DUP1 PUSH1 0x60 DUP6 DUP8 SUB SLT ISZERO PUSH2 0xA30 JUMPI PUSH2 0xA2F PUSH2 0x92B JUMP JUMPDEST JUMPDEST PUSH0 PUSH2 0xA3D DUP8 DUP3 DUP9 ADD PUSH2 0x979 JUMP JUMPDEST SWAP5 POP POP PUSH1 0x20 PUSH2 0xA4E DUP8 DUP3 DUP9 ADD PUSH2 0x9A3 JUMP JUMPDEST SWAP4 POP POP PUSH1 0x40 DUP6 ADD CALLDATALOAD PUSH8 0xFFFFFFFFFFFFFFFF DUP2 GT ISZERO PUSH2 0xA6F JUMPI PUSH2 0xA6E PUSH2 0x92F JUMP JUMPDEST JUMPDEST PUSH2 0xA7B DUP8 DUP3 DUP9 ADD PUSH2 0x9C3 JUMP JUMPDEST SWAP3 POP SWAP3 POP POP SWAP3 SWAP6 SWAP2 SWAP5 POP SWAP3 POP JUMP JUMPDEST PUSH0 PUSH1 0x20 DUP3 DUP5 SUB SLT ISZERO PUSH2 0xA9E JUMPI PUSH2 0xA9D PUSH2 0x92B JUMP JUMPDEST JUMPDEST PUSH0 PUSH2 0xAAB DUP5 DUP3 DUP6 ADD PUSH2 0x9A3 JUMP JUMPDEST SWAP2 POP POP SWAP3 SWAP2 POP POP JUMP JUMPDEST PUSH0 DUP3 DUP3 MSTORE PUSH1 0x20 DUP3 ADD SWAP1 POP SWAP3 SWAP2 POP POP JUMP JUMPDEST PUSH32 0x596F7520617265206E6F74206F6E776572000000000000000000000000000000 PUSH0 DUP3 ADD MSTORE POP JUMP JUMPDEST PUSH0 PUSH2 0xAF8 PUSH1 0x11 DUP4 PUSH2 0xAB4 JUMP JUMPDEST SWAP2 POP PUSH2 0xB03 DUP3 PUSH2 0xAC4 JUMP JUMPDEST PUSH1 0x20 DUP3 ADD SWAP1 POP SWAP2 SWAP1 POP JUMP JUMPDEST PUSH0 PUSH1 0x20 DUP3 ADD SWAP1 POP DUP2 DUP2 SUB PUSH0 DUP4 ADD MSTORE PUSH2 0xB25 DUP2 PUSH2 0xAEC JUMP JUMPDEST SWAP1 POP SWAP2 SWAP1 POP JUMP JUMPDEST PUSH0 DUP2 MLOAD SWAP1 POP SWAP2 SWAP1 POP JUMP JUMPDEST PUSH32 0x4E487B7100000000000000000000000000000000000000000000000000000000 PUSH0 MSTORE PUSH1 0x41 PUSH1 0x4 MSTORE PUSH1 0x24 PUSH0 REVERT JUMPDEST PUSH32 0x4E487B7100000000000000000000000000000000000000000000000000000000 PUSH0 MSTORE PUSH1 0x22 PUSH1 0x4 MSTORE PUSH1 0x24 PUSH0 REVERT JUMPDEST PUSH0 PUSH1 0x2 DUP3 DIV SWAP1 POP PUSH1 0x1 DUP3 AND DUP1 PUSH2 0xBA7 JUMPI PUSH1 0x7F DUP3 AND SWAP2 POP JUMPDEST PUSH1 0x20 DUP3 LT DUP2 SUB PUSH2 0xBBA JUMPI PUSH2 0xBB9 PUSH2 0xB63 JUMP JUMPDEST JUMPDEST POP SWAP2 SWAP1 POP JUMP JUMPDEST PUSH0 DUP2 SWAP1 POP DUP2 PUSH0 MSTORE PUSH1 0x20 PUSH0 KECCAK256 SWAP1 POP SWAP2 SWAP1 POP JUMP JUMPDEST PUSH0 PUSH1 0x20 PUSH1 0x1F DUP4 ADD DIV SWAP1 POP SWAP2 SWAP1 POP JUMP JUMPDEST PUSH0 DUP3 DUP3 SHL SWAP1 POP SWAP3 SWAP2 POP POP JUMP JUMPDEST PUSH0 PUSH1 0x8 DUP4 MUL PUSH2 0xC1C PUSH32 0xFFFFFFFFFFFFFFFFFFFFFFFFFFFFFFFFFFFFFFFFFFFFFFFFFFFFFFFFFFFFFFFF DUP3 PUSH2 0xBE1 JUMP JUMPDEST PUSH2 0xC26 DUP7 DUP4 PUSH2 0xBE1 JUMP JUMPDEST SWAP6 POP DUP1 NOT DUP5 AND SWAP4 POP DUP1 DUP7 AND DUP5 OR SWAP3 POP POP POP SWAP4 SWAP3 POP POP POP JUMP JUMPDEST PUSH0 DUP2 SWAP1 POP SWAP2 SWAP1 POP JUMP JUMPDEST PUSH0 PUSH2 0xC61 PUSH2 0xC5C PUSH2 0xC57 DUP5 PUSH2 0x8FA JUMP JUMPDEST PUSH2 0xC3E JUMP JUMPDEST PUSH2 0x8FA JUMP JUMPDEST SWAP1 POP SWAP2 SWAP1 POP JUMP JUMPDEST PUSH0 DUP2 SWAP1 POP SWAP2 SWAP1 POP JUMP JUMPDEST PUSH2 0xC7A DUP4 PUSH2 0xC47 JUMP JUMPDEST PUSH2 0xC8E PUSH2 0xC86 DUP3 PUSH2 0xC68 JUMP JUMPDEST DUP5 DUP5 SLOAD PUSH2 0xBED JUMP JUMPDEST DUP3 SSTORE POP POP POP POP JUMP JUMPDEST PUSH0 SWAP1 JUMP JUMPDEST PUSH2 0xCA2 PUSH2 0xC96 JUMP JUMPDEST PUSH2 0xCAD DUP2 DUP5 DUP5 PUSH2 0xC71 JUMP JUMPDEST POP POP POP JUMP JUMPDEST JUMPDEST DUP2 DUP2 LT ISZERO PUSH2 0xCD0 JUMPI PUSH2 0xCC5 PUSH0 DUP3 PUSH2 0xC9A JUMP JUMPDEST PUSH1 0x1 DUP2 ADD SWAP1 POP PUSH2 0xCB3 JUMP JUMPDEST POP POP JUMP JUMPDEST PUSH1 0x1F DUP3 GT ISZERO PUSH2 0xD15 JUMPI PUSH2 0xCE6 DUP2 PUSH2 0xBC0 JUMP JUMPDEST PUSH2 0xCEF DUP5 PUSH2 0xBD2 JUMP JUMPDEST DUP2 ADD PUSH1 0x20 DUP6 LT ISZERO PUSH2 0xCFE JUMPI DUP2 SWAP1 POP JUMPDEST PUSH2 0xD12 PUSH2 0xD0A DUP6 PUSH2 0xBD2 JUMP JUMPDEST DUP4 ADD DUP3 PUSH2 0xCB2 JUMP JUMPDEST POP POP JUMPDEST POP POP POP JUMP JUMPDEST PUSH0 DUP3 DUP3 SHR SWAP1 POP SWAP3 SWAP2 POP POP JUMP JUMPDEST PUSH0 PUSH2 0xD35 PUSH0 NOT DUP5 PUSH1 0x8 MUL PUSH2 0xD1A JUMP JUMPDEST NOT DUP1 DUP4 AND SWAP2 POP POP SWAP3 SWAP2 POP POP JUMP JUMPDEST PUSH0 PUSH2 0xD4D DUP4 DUP4 PUSH2 0xD26 JUMP JUMPDEST SWAP2 POP DUP3 PUSH1 0x2 MUL DUP3 OR SWAP1 POP SWAP3 SWAP2 POP POP JUMP JUMPDEST PUSH2 0xD66 DUP3 PUSH2 0xB2C JUMP JUMPDEST PUSH8 0xFFFFFFFFFFFFFFFF DUP2 GT ISZERO PUSH2 0xD7F JUMPI PUSH2 0xD7E PUSH2 0xB36 JUMP JUMPDEST JUMPDEST PUSH2 0xD89 DUP3 SLOAD PUSH2 0xB90 JUMP JUMPDEST PUSH2 0xD94 DUP3 DUP3 DUP6 PUSH2 0xCD4 JUMP JUMPDEST PUSH0 PUSH1 0x20 SWAP1 POP PUSH1 0x1F DUP4 GT PUSH1 0x1 DUP2 EQ PUSH2 0xDC5 JUMPI PUSH0 DUP5 ISZERO PUSH2 0xDB3 JUMPI DUP3 DUP8 ADD MLOAD SWAP1 POP JUMPDEST PUSH2 0xDBD DUP6 DUP3 PUSH2 0xD42 JUMP JUMPDEST DUP7 SSTORE POP PUSH2 0xE24 JUMP JUMPDEST PUSH1 0x1F NOT DUP5 AND PUSH2 0xDD3 DUP7 PUSH2 0xBC0 JUMP JUMPDEST PUSH0 JUMPDEST DUP3 DUP2 LT ISZERO PUSH2 0xDFA JUMPI DUP5 DUP10 ADD MLOAD DUP3 SSTORE PUSH1 0x1 DUP3 ADD SWAP2 POP PUSH1 0x20 DUP6 ADD SWAP5 POP PUSH1 0x20 DUP2 ADD SWAP1 POP PUSH2 0xDD5 JUMP JUMPDEST DUP7 DUP4 LT ISZERO PUSH2 0xE17 JUMPI DUP5 DUP10 ADD MLOAD PUSH2 0xE13 PUSH1 0x1F DUP10 AND DUP3 PUSH2 0xD26 JUMP JUMPDEST DUP4 SSTORE POP JUMPDEST PUSH1 0x1 PUSH1 0x2 DUP9 MUL ADD DUP9 SSTORE POP POP POP JUMPDEST POP POP POP POP POP POP JUMP JUMPDEST PUSH32 0x4E487B7100000000000000000000000000000000000000000000000000000000 PUSH0 MSTORE PUSH1 0x11 PUSH1 0x4 MSTORE PUSH1 0x24 PUSH0 REVERT JUMPDEST PUSH0 PUSH2 0xE63 DUP3 PUSH2 0x8FA JUMP JUMPDEST SWAP2 POP PUSH2 0xE6E DUP4 PUSH2 0x8FA JUMP JUMPDEST SWAP3 POP DUP3 DUP3 SUB SWAP1 POP DUP2 DUP2 GT ISZERO PUSH2 0xE86 JUMPI PUSH2 0xE85 PUSH2 0xE2C JUMP JUMPDEST JUMPDEST SWAP3 SWAP2 POP POP JUMP JUMPDEST PUSH32 0x5472616E73636174696F6E206973206E6F74206578697374696E670000000000 PUSH0 DUP3 ADD MSTORE POP JUMP JUMPDEST PUSH0 PUSH2 0xEC0 PUSH1 0x1B DUP4 PUSH2 0xAB4 JUMP JUMPDEST SWAP2 POP PUSH2 0xECB DUP3 PUSH2 0xE8C JUMP JUMPDEST PUSH1 0x20 DUP3 ADD SWAP1 POP SWAP2 SWAP1 POP JUMP JUMPDEST PUSH0 PUSH1 0x20 DUP3 ADD SWAP1 POP DUP2 DUP2 SUB PUSH0 DUP4 ADD MSTORE PUSH2 0xEED DUP2 PUSH2 0xEB4 JUMP JUMPDEST SWAP1 POP SWAP2 SWAP1 POP JUMP JUMPDEST PUSH32 0x5472616E73636174696F6E20697320617070726F766564000000000000000000 PUSH0 DUP3 ADD MSTORE POP JUMP JUMPDEST PUSH0 PUSH2 0xF28 PUSH1 0x17 DUP4 PUSH2 0xAB4 JUMP JUMPDEST SWAP2 POP PUSH2 0xF33 DUP3 PUSH2 0xEF4 JUMP JUMPDEST PUSH1 0x20 DUP3 ADD SWAP1 POP SWAP2 SWAP1 POP JUMP JUMPDEST PUSH0 PUSH1 0x20 DUP3 ADD SWAP1 POP DUP2 DUP2 SUB PUSH0 DUP4 ADD MSTORE PUSH2 0xF55 DUP2 PUSH2 0xF1C JUMP JUMPDEST SWAP1 POP SWAP2 SWAP1 POP JUMP JUMPDEST PUSH32 0x4E487B7100000000000000000000000000000000000000000000000000000000 PUSH0 MSTORE PUSH1 0x32 PUSH1 0x4 MSTORE PUSH1 0x24 PUSH0 REVERT JUMPDEST PUSH0 PUSH2 0xF93 DUP3 PUSH2 0x8FA JUMP JUMPDEST SWAP2 POP PUSH32 0xFFFFFFFFFFFFFFFFFFFFFFFFFFFFFFFFFFFFFFFFFFFFFFFFFFFFFFFFFFFFFFFF DUP3 SUB PUSH2 0xFC5 JUMPI PUSH2 0xFC4 PUSH2 0xE2C JUMP JUMPDEST JUMPDEST PUSH1 0x1 DUP3 ADD SWAP1 POP SWAP2 SWAP1 POP JUMP JUMPDEST PUSH32 0x5472616E73636174696F6E206973206578656375746564000000000000000000 PUSH0 DUP3 ADD MSTORE POP JUMP JUMPDEST PUSH0 PUSH2 0x1004 PUSH1 0x17 DUP4 PUSH2 0xAB4 JUMP JUMPDEST SWAP2 POP PUSH2 0x100F DUP3 PUSH2 0xFD0 JUMP JUMPDEST PUSH1 0x20 DUP3 ADD SWAP1 POP SWAP2 SWAP1 POP JUMP JUMPDEST PUSH0 PUSH1 0x20 DUP3 ADD SWAP1 POP DUP2 DUP2 SUB PUSH0 DUP4 ADD MSTORE PUSH2 0x1031 DUP2 PUSH2 0xFF8 JUMP JUMPDEST SWAP1 POP SWAP2 SWAP1 POP JUMP JUMPDEST PUSH32 0x417070726F76616C20436F756E74206F662074686973207478203C2072657175 PUSH0 DUP3 ADD MSTORE PUSH32 0x697265645369676E730000000000000000000000000000000000000000000000 PUSH1 0x20 DUP3 ADD MSTORE POP JUMP JUMPDEST PUSH0 PUSH2 0x1092 PUSH1 0x29 DUP4 PUSH2 0xAB4 JUMP JUMPDEST SWAP2 POP PUSH2 0x109D DUP3 PUSH2 0x1038 JUMP JUMPDEST PUSH1 0x40 DUP3 ADD SWAP1 POP SWAP2 SWAP1 POP JUMP JUMPDEST PUSH0 PUSH1 0x20 DUP3 ADD SWAP1 POP DUP2 DUP2 SUB PUSH0 DUP4 ADD MSTORE PUSH2 0x10BF DUP2 PUSH2 0x1086 JUMP JUMPDEST SWAP1 POP SWAP2 SWAP1 POP JUMP JUMPDEST PUSH0 DUP2 SWAP1 POP SWAP3 SWAP2 POP POP JUMP JUMPDEST PUSH0 DUP2 SLOAD PUSH2 0x10DC DUP2 PUSH2 0xB90 JUMP JUMPDEST PUSH2 0x10E6 DUP2 DUP7 PUSH2 0x10C6 JUMP JUMPDEST SWAP5 POP PUSH1 0x1 DUP3 AND PUSH0 DUP2 EQ PUSH2 0x1100 JUMPI PUSH1 0x1 DUP2 EQ PUSH2 0x1115 JUMPI PUSH2 0x1147 JUMP JUMPDEST PUSH1 0xFF NOT DUP4 AND DUP7 MSTORE DUP2 ISZERO ISZERO DUP3 MUL DUP7 ADD SWAP4 POP PUSH2 0x1147 JUMP JUMPDEST PUSH2 0x111E DUP6 PUSH2 0xBC0 JUMP JUMPDEST PUSH0 JUMPDEST DUP4 DUP2 LT ISZERO PUSH2 0x113F JUMPI DUP2 SLOAD DUP2 DUP10 ADD MSTORE PUSH1 0x1 DUP3 ADD SWAP2 POP PUSH1 0x20 DUP2 ADD SWAP1 POP PUSH2 0x1120 JUMP JUMPDEST DUP4 DUP9 ADD SWAP6 POP POP POP JUMPDEST POP POP POP SWAP3 SWAP2 POP POP JUMP JUMPDEST PUSH0 PUSH2 0x115B DUP3 DUP5 PUSH2 0x10D0 JUMP JUMPDEST SWAP2 POP DUP2 SWAP1 POP SWAP3 SWAP2 POP POP JUMP JUMPDEST PUSH32 0x5472616E73636174696F6E2065786563757465206661696C6564000000000000 PUSH0 DUP3 ADD MSTORE POP JUMP JUMPDEST PUSH0 PUSH2 0x119A PUSH1 0x1A DUP4 PUSH2 0xAB4 JUMP JUMPDEST SWAP2 POP PUSH2 0x11A5 DUP3 PUSH2 0x1166 JUMP JUMPDEST PUSH1 0x20 DUP3 ADD SWAP1 POP SWAP2 SWAP1 POP JUMP JUMPDEST PUSH0 PUSH1 0x20 DUP3 ADD SWAP1 POP DUP2 DUP2 SUB PUSH0 DUP4 ADD MSTORE PUSH2 0x11C7 DUP2 PUSH2 0x118E JUMP JUMPDEST SWAP1 POP SWAP2 SWAP1 POP JUMP INVALID LOG2 PUSH5 0x6970667358 0x22 SLT KECCAK256 BYTE 0xC2 PUSH0 0xF7 PUSH7 0xA15A490BE80146 0x29 PUSH27 0x1D3E87FD96BF5A40537D2E6F2E809A46D1D64736F6C634300081A STOP CALLER "
				},
				"gasEstimates": {
					"creation": {
						"codeDepositCost": "922400",
						"executionCost": "infinite",
						"totalCost": "infinite"
					},
					"external": {
						"approve(uint256)": "33066",
						"execute(uint256)": "infinite",
						"getApprovalCount(uint256)": "infinite",
						"submit(address,uint256,bytes)": "infinite"
					}
				},
				"methodIdentifiers": {
					"approve(uint256)": "b759f954",
					"execute(uint256)": "fe0d94c1",
					"getApprovalCount(uint256)": "ba7e7cab",
					"submit(address,uint256,bytes)": "14de327f"
				}
			},
			"storageLayout": {
				"storage": [
					{
						"astId": 4,
						"contract": "contracts/MultiSignWallet2.sol:MultiSignWallet",
						"label": "owners",
						"offset": 0,
						"slot": "0",
						"type": "t_array(t_address)dyn_storage"
					},
					{
						"astId": 6,
						"contract": "contracts/MultiSignWallet2.sol:MultiSignWallet",
						"label": "requiredSigns",
						"offset": 0,
						"slot": "1",
						"type": "t_uint256"
					},
					{
						"astId": 10,
						"contract": "contracts/MultiSignWallet2.sol:MultiSignWallet",
						"label": "isOwner",
						"offset": 0,
						"slot": "2",
						"type": "t_mapping(t_address,t_bool)"
					},
					{
						"astId": 16,
						"contract": "contracts/MultiSignWallet2.sol:MultiSignWallet",
						"label": "isApproved",
						"offset": 0,
						"slot": "3",
						"type": "t_mapping(t_uint256,t_mapping(t_address,t_bool))"
					},
					{
						"astId": 29,
						"contract": "contracts/MultiSignWallet2.sol:MultiSignWallet",
						"label": "trans",
						"offset": 0,
						"slot": "4",
						"type": "t_array(t_struct(Tran)25_storage)dyn_storage"
					}
				],
				"types": {
					"t_address": {
						"encoding": "inplace",
						"label": "address",
						"numberOfBytes": "20"
					},
					"t_array(t_address)dyn_storage": {
						"base": "t_address",
						"encoding": "dynamic_array",
						"label": "address[]",
						"numberOfBytes": "32"
					},
					"t_array(t_struct(Tran)25_storage)dyn_storage": {
						"base": "t_struct(Tran)25_storage",
						"encoding": "dynamic_array",
						"label": "struct MultiSignWallet.Tran[]",
						"numberOfBytes": "32"
					},
					"t_bool": {
						"encoding": "inplace",
						"label": "bool",
						"numberOfBytes": "1"
					},
					"t_bytes_storage": {
						"encoding": "bytes",
						"label": "bytes",
						"numberOfBytes": "32"
					},
					"t_mapping(t_address,t_bool)": {
						"encoding": "mapping",
						"key": "t_address",
						"label": "mapping(address => bool)",
						"numberOfBytes": "32",
						"value": "t_bool"
					},
					"t_mapping(t_uint256,t_mapping(t_address,t_bool))": {
						"encoding": "mapping",
						"key": "t_uint256",
						"label": "mapping(uint256 => mapping(address => bool))",
						"numberOfBytes": "32",
						"value": "t_mapping(t_address,t_bool)"
					},
					"t_struct(Tran)25_storage": {
						"encoding": "inplace",
						"label": "struct MultiSignWallet.Tran",
						"members": [
							{
								"astId": 18,
								"contract": "contracts/MultiSignWallet2.sol:MultiSignWallet",
								"label": "to",
								"offset": 0,
								"slot": "0",
								"type": "t_address"
							},
							{
								"astId": 20,
								"contract": "contracts/MultiSignWallet2.sol:MultiSignWallet",
								"label": "value",
								"offset": 0,
								"slot": "1",
								"type": "t_uint256"
							},
							{
								"astId": 22,
								"contract": "contracts/MultiSignWallet2.sol:MultiSignWallet",
								"label": "callData",
								"offset": 0,
								"slot": "2",
								"type": "t_bytes_storage"
							},
							{
								"astId": 24,
								"contract": "contracts/MultiSignWallet2.sol:MultiSignWallet",
								"label": "isExecuted",
								"offset": 0,
								"slot": "3",
								"type": "t_bool"
							}
						],
						"numberOfBytes": "128"
					},
					"t_uint256": {
						"encoding": "inplace",
						"label": "uint256",
						"numberOfBytes": "32"
					}
				}
			},
			"userdoc": {
				"kind": "user",
				"methods": {},
				"version": 1
			}
		}
	}
}