{
	"contracts/MutiSignWallet.sol": {
		"MultiSigWallet": {
			"abi": [
				{
					"inputs": [
						{
							"internalType": "address[]",
							"name": "_owners",
							"type": "address[]"
						},
						{
							"internalType": "uint256",
							"name": "_requiredSigns",
							"type": "uint256"
						}
					],
					"stateMutability": "nonpayable",
					"type": "constructor"
				},
				{
					"anonymous": false,
					"inputs": [
						{
							"indexed": true,
							"internalType": "address",
							"name": "owner",
							"type": "address"
						},
						{
							"indexed": true,
							"internalType": "uint256",
							"name": "txId",
							"type": "uint256"
						}
					],
					"name": "Approve",
					"type": "event"
				},
				{
					"anonymous": false,
					"inputs": [
						{
							"indexed": true,
							"internalType": "address",
							"name": "sender",
							"type": "address"
						},
						{
							"indexed": false,
							"internalType": "uint256",
							"name": "amount",
							"type": "uint256"
						}
					],
					"name": "Deposit",
					"type": "event"
				},
				{
					"anonymous": false,
					"inputs": [
						{
							"indexed": true,
							"internalType": "uint256",
							"name": "txId",
							"type": "uint256"
						}
					],
					"name": "Execute",
					"type": "event"
				},
				{
					"anonymous": false,
					"inputs": [
						{
							"indexed": true,
							"internalType": "address",
							"name": "owner",
							"type": "address"
						},
						{
							"indexed": true,
							"internalType": "uint256",
							"name": "txId",
							"type": "uint256"
						}
					],
					"name": "Revoke",
					"type": "event"
				},
				{
					"anonymous": false,
					"inputs": [
						{
							"indexed": true,
							"internalType": "uint256",
							"name": "txId",
							"type": "uint256"
						}
					],
					"name": "Submit",
					"type": "event"
				},
				{
					"inputs": [
						{
							"internalType": "uint256",
							"name": "_txId",
							"type": "uint256"
						}
					],
					"name": "approve",
					"outputs": [],
					"stateMutability": "nonpayable",
					"type": "function"
				},
				{
					"inputs": [
						{
							"internalType": "uint256",
							"name": "",
							"type": "uint256"
						},
						{
							"internalType": "address",
							"name": "",
							"type": "address"
						}
					],
					"name": "approved",
					"outputs": [
						{
							"internalType": "bool",
							"name": "",
							"type": "bool"
						}
					],
					"stateMutability": "view",
					"type": "function"
				},
				{
					"inputs": [
						{
							"internalType": "uint256",
							"name": "_txId",
							"type": "uint256"
						}
					],
					"name": "execute",
					"outputs": [],
					"stateMutability": "nonpayable",
					"type": "function"
				},
				{
					"inputs": [
						{
							"internalType": "uint256",
							"name": "_txId",
							"type": "uint256"
						}
					],
					"name": "getApprovalCount",
					"outputs": [
						{
							"internalType": "uint256",
							"name": "count",
							"type": "uint256"
						}
					],
					"stateMutability": "view",
					"type": "function"
				},
				{
					"inputs": [],
					"name": "getBalance",
					"outputs": [
						{
							"internalType": "uint256",
							"name": "",
							"type": "uint256"
						}
					],
					"stateMutability": "view",
					"type": "function"
				},
				{
					"inputs": [
						{
							"internalType": "address",
							"name": "",
							"type": "address"
						}
					],
					"name": "isOwner",
					"outputs": [
						{
							"internalType": "bool",
							"name": "",
							"type": "bool"
						}
					],
					"stateMutability": "view",
					"type": "function"
				},
				{
					"inputs": [
						{
							"internalType": "uint256",
							"name": "",
							"type": "uint256"
						}
					],
					"name": "owners",
					"outputs": [
						{
							"internalType": "address",
							"name": "",
							"type": "address"
						}
					],
					"stateMutability": "view",
					"type": "function"
				},
				{
					"inputs": [],
					"name": "requiredSigns",
					"outputs": [
						{
							"internalType": "uint256",
							"name": "",
							"type": "uint256"
						}
					],
					"stateMutability": "view",
					"type": "function"
				},
				{
					"inputs": [
						{
							"internalType": "uint256",
							"name": "_txId",
							"type": "uint256"
						}
					],
					"name": "revoke",
					"outputs": [],
					"stateMutability": "nonpayable",
					"type": "function"
				},
				{
					"inputs": [
						{
							"internalType": "address",
							"name": "_to",
							"type": "address"
						},
						{
							"internalType": "uint256",
							"name": "_value",
							"type": "uint256"
						},
						{
							"internalType": "bytes",
							"name": "_data",
							"type": "bytes"
						}
					],
					"name": "submit",
					"outputs": [
						{
							"internalType": "uint256",
							"name": "",
							"type": "uint256"
						}
					],
					"stateMutability": "nonpayable",
					"type": "function"
				},
				{
					"inputs": [
						{
							"internalType": "uint256",
							"name": "",
							"type": "uint256"
						}
					],
					"name": "transactions",
					"outputs": [
						{
							"internalType": "address",
							"name": "to",
							"type": "address"
						},
						{
							"internalType": "uint256",
							"name": "value",
							"type": "uint256"
						},
						{
							"internalType": "bytes",
							"name": "data",
							"type": "bytes"
						},
						{
							"internalType": "bool",
							"name": "isExected",
							"type": "bool"
						}
					],
					"stateMutability": "view",
					"type": "function"
				},
				{
					"stateMutability": "payable",
					"type": "receive"
				}
			],
			"devdoc": {
				"kind": "dev",
				"methods": {},
				"version": 1
			},
			"evm": {
				"assembly": "    /* \"contracts/MutiSignWallet.sol\":61:3677  contract MultiSigWallet {... */\n  mstore(0x40, 0x80)\n    /* \"contracts/MutiSignWallet.sol\":1309:2001  constructor(address[] memory _owners, uint256 _requiredSigns) {... */\n  callvalue\n  dup1\n  iszero\n  tag_1\n  jumpi\n  0x00\n  dup1\n  revert\ntag_1:\n  pop\n  mload(0x40)\n  sub(codesize, bytecodeSize)\n  dup1\n  bytecodeSize\n  dup4\n  codecopy\n  dup2\n  dup2\n  add\n  0x40\n  mstore\n  dup2\n  add\n  swap1\n  tag_2\n  swap2\n  swap1\n  tag_3\n  jump\t// in\ntag_2:\n    /* \"contracts/MutiSignWallet.sol\":1407:1408  0 */\n  0x00\n    /* \"contracts/MutiSignWallet.sol\":1390:1397  _owners */\n  dup3\n    /* \"contracts/MutiSignWallet.sol\":1390:1404  _owners.length */\n  mload\n    /* \"contracts/MutiSignWallet.sol\":1390:1408  _owners.length > 0 */\n  gt\n    /* \"contracts/MutiSignWallet.sol\":1382:1439  require(_owners.length > 0, \"Must be one owner at least\") */\n  tag_6\n  jumpi\n  mload(0x40)\n  0x08c379a000000000000000000000000000000000000000000000000000000000\n  dup2\n  mstore\n  0x04\n  add\n  tag_7\n  swap1\n  tag_8\n  jump\t// in\ntag_7:\n  mload(0x40)\n  dup1\n  swap2\n  sub\n  swap1\n  revert\ntag_6:\n    /* \"contracts/MutiSignWallet.sol\":1489:1490  0 */\n  0x00\n    /* \"contracts/MutiSignWallet.sol\":1472:1486  _requiredSigns */\n  dup2\n    /* \"contracts/MutiSignWallet.sol\":1472:1490  _requiredSigns > 0 */\n  gt\n    /* \"contracts/MutiSignWallet.sol\":1472:1526  _requiredSigns > 0 && _requiredSigns <= _owners.length */\n  dup1\n  iszero\n  tag_9\n  jumpi\n  pop\n    /* \"contracts/MutiSignWallet.sol\":1512:1519  _owners */\n  dup2\n    /* \"contracts/MutiSignWallet.sol\":1512:1526  _owners.length */\n  mload\n    /* \"contracts/MutiSignWallet.sol\":1494:1508  _requiredSigns */\n  dup2\n    /* \"contracts/MutiSignWallet.sol\":1494:1526  _requiredSigns <= _owners.length */\n  gt\n  iszero\n    /* \"contracts/MutiSignWallet.sol\":1472:1526  _requiredSigns > 0 && _requiredSigns <= _owners.length */\ntag_9:\n    /* \"contracts/MutiSignWallet.sol\":1450:1598  require(... */\n  tag_10\n  jumpi\n  mload(0x40)\n  0x08c379a000000000000000000000000000000000000000000000000000000000\n  dup2\n  mstore\n  0x04\n  add\n  tag_11\n  swap1\n  tag_12\n  jump\t// in\ntag_11:\n  mload(0x40)\n  dup1\n  swap2\n  sub\n  swap1\n  revert\ntag_10:\n    /* \"contracts/MutiSignWallet.sol\":1614:1627  uint256 index */\n  0x00\n    /* \"contracts/MutiSignWallet.sol\":1609:1953  for (uint256 index = 0; index < _owners.length; index++) {... */\ntag_13:\n    /* \"contracts/MutiSignWallet.sol\":1641:1648  _owners */\n  dup3\n    /* \"contracts/MutiSignWallet.sol\":1641:1655  _owners.length */\n  mload\n    /* \"contracts/MutiSignWallet.sol\":1633:1638  index */\n  dup2\n    /* \"contracts/MutiSignWallet.sol\":1633:1655  index < _owners.length */\n  lt\n    /* \"contracts/MutiSignWallet.sol\":1609:1953  for (uint256 index = 0; index < _owners.length; index++) {... */\n  iszero\n  tag_14\n  jumpi\n    /* \"contracts/MutiSignWallet.sol\":1681:1694  address owner */\n  0x00\n    /* \"contracts/MutiSignWallet.sol\":1697:1704  _owners */\n  dup4\n    /* \"contracts/MutiSignWallet.sol\":1705:1710  index */\n  dup3\n    /* \"contracts/MutiSignWallet.sol\":1697:1711  _owners[index] */\n  dup2\n  mload\n  dup2\n  lt\n  tag_16\n  jumpi\n  tag_17\n  tag_18\n  jump\t// in\ntag_17:\ntag_16:\n  0x20\n  mul\n  0x20\n  add\n  add\n  mload\n    /* \"contracts/MutiSignWallet.sol\":1681:1711  address owner = _owners[index] */\n  swap1\n  pop\n    /* \"contracts/MutiSignWallet.sol\":1751:1752  0 */\n  0x00\n    /* \"contracts/MutiSignWallet.sol\":1734:1753  owner != address(0) */\n  0xffffffffffffffffffffffffffffffffffffffff\n  and\n    /* \"contracts/MutiSignWallet.sol\":1734:1739  owner */\n  dup2\n    /* \"contracts/MutiSignWallet.sol\":1734:1753  owner != address(0) */\n  0xffffffffffffffffffffffffffffffffffffffff\n  and\n  sub\n    /* \"contracts/MutiSignWallet.sol\":1726:1779  require(owner != address(0), \"Invalid owner address\") */\n  tag_19\n  jumpi\n  mload(0x40)\n  0x08c379a000000000000000000000000000000000000000000000000000000000\n  dup2\n  mstore\n  0x04\n  add\n  tag_20\n  swap1\n  tag_21\n  jump\t// in\ntag_20:\n  mload(0x40)\n  dup1\n  swap2\n  sub\n  swap1\n  revert\ntag_19:\n    /* \"contracts/MutiSignWallet.sol\":1803:1810  isOwner */\n  0x01\n    /* \"contracts/MutiSignWallet.sol\":1803:1817  isOwner[owner] */\n  0x00\n    /* \"contracts/MutiSignWallet.sol\":1811:1816  owner */\n  dup3\n    /* \"contracts/MutiSignWallet.sol\":1803:1817  isOwner[owner] */\n  0xffffffffffffffffffffffffffffffffffffffff\n  and\n  0xffffffffffffffffffffffffffffffffffffffff\n  and\n  dup2\n  mstore\n  0x20\n  add\n  swap1\n  dup2\n  mstore\n  0x20\n  add\n  0x00\n  keccak256\n  0x00\n  swap1\n  sload\n  swap1\n  0x0100\n  exp\n  swap1\n  div\n  0xff\n  and\n    /* \"contracts/MutiSignWallet.sol\":1802:1817  !isOwner[owner] */\n  iszero\n    /* \"contracts/MutiSignWallet.sol\":1794:1841  require(!isOwner[owner], \"Owner is not unique\") */\n  tag_22\n  jumpi\n  mload(0x40)\n  0x08c379a000000000000000000000000000000000000000000000000000000000\n  dup2\n  mstore\n  0x04\n  add\n  tag_23\n  swap1\n  tag_24\n  jump\t// in\ntag_23:\n  mload(0x40)\n  dup1\n  swap2\n  sub\n  swap1\n  revert\ntag_22:\n    /* \"contracts/MutiSignWallet.sol\":1904:1908  true */\n  0x01\n    /* \"contracts/MutiSignWallet.sol\":1887:1894  isOwner */\n  dup1\n    /* \"contracts/MutiSignWallet.sol\":1887:1901  isOwner[owner] */\n  0x00\n    /* \"contracts/MutiSignWallet.sol\":1895:1900  owner */\n  dup4\n    /* \"contracts/MutiSignWallet.sol\":1887:1901  isOwner[owner] */\n  0xffffffffffffffffffffffffffffffffffffffff\n  and\n  0xffffffffffffffffffffffffffffffffffffffff\n  and\n  dup2\n  mstore\n  0x20\n  add\n  swap1\n  dup2\n  mstore\n  0x20\n  add\n  0x00\n  keccak256\n  0x00\n    /* \"contracts/MutiSignWallet.sol\":1887:1908  isOwner[owner] = true */\n  0x0100\n  exp\n  dup2\n  sload\n  dup2\n  0xff\n  mul\n  not\n  and\n  swap1\n  dup4\n  iszero\n  iszero\n  mul\n  or\n  swap1\n  sstore\n  pop\n    /* \"contracts/MutiSignWallet.sol\":1923:1929  owners */\n  0x00\n    /* \"contracts/MutiSignWallet.sol\":1935:1940  owner */\n  dup2\n    /* \"contracts/MutiSignWallet.sol\":1923:1941  owners.push(owner) */\n  swap1\n  dup1\n  0x01\n  dup2\n  sload\n  add\n  dup1\n  dup3\n  sstore\n  dup1\n  swap2\n  pop\n  pop\n  0x01\n  swap1\n  sub\n  swap1\n  0x00\n  mstore\n  keccak256(0x00, 0x20)\n  add\n  0x00\n  swap1\n  swap2\n  swap1\n  swap2\n  swap1\n  swap2\n  0x0100\n  exp\n  dup2\n  sload\n  dup2\n  0xffffffffffffffffffffffffffffffffffffffff\n  mul\n  not\n  and\n  swap1\n  dup4\n  0xffffffffffffffffffffffffffffffffffffffff\n  and\n  mul\n  or\n  swap1\n  sstore\n  pop\n    /* \"contracts/MutiSignWallet.sol\":1666:1953  {... */\n  pop\n    /* \"contracts/MutiSignWallet.sol\":1657:1664  index++ */\n  dup1\n  dup1\n  0x01\n  add\n  swap2\n  pop\n  pop\n    /* \"contracts/MutiSignWallet.sol\":1609:1953  for (uint256 index = 0; index < _owners.length; index++) {... */\n  jump(tag_13)\ntag_14:\n  pop\n    /* \"contracts/MutiSignWallet.sol\":1979:1993  _requiredSigns */\n  dup1\n    /* \"contracts/MutiSignWallet.sol\":1963:1976  requiredSigns */\n  0x02\n    /* \"contracts/MutiSignWallet.sol\":1963:1993  requiredSigns = _requiredSigns */\n  dup2\n  swap1\n  sstore\n  pop\n    /* \"contracts/MutiSignWallet.sol\":1309:2001  constructor(address[] memory _owners, uint256 _requiredSigns) {... */\n  pop\n  pop\n    /* \"contracts/MutiSignWallet.sol\":61:3677  contract MultiSigWallet {... */\n  jump(tag_26)\n    /* \"#utility.yul\":7:82   */\ntag_27:\n    /* \"#utility.yul\":40:46   */\n  0x00\n    /* \"#utility.yul\":73:75   */\n  0x40\n    /* \"#utility.yul\":67:76   */\n  mload\n    /* \"#utility.yul\":57:76   */\n  swap1\n  pop\n    /* \"#utility.yul\":7:82   */\n  swap1\n  jump\t// out\n    /* \"#utility.yul\":88:205   */\ntag_28:\n    /* \"#utility.yul\":197:198   */\n  0x00\n    /* \"#utility.yul\":194:195   */\n  dup1\n    /* \"#utility.yul\":187:199   */\n  revert\n    /* \"#utility.yul\":211:328   */\ntag_29:\n    /* \"#utility.yul\":320:321   */\n  0x00\n    /* \"#utility.yul\":317:318   */\n  dup1\n    /* \"#utility.yul\":310:322   */\n  revert\n    /* \"#utility.yul\":334:451   */\ntag_30:\n    /* \"#utility.yul\":443:444   */\n  0x00\n    /* \"#utility.yul\":440:441   */\n  dup1\n    /* \"#utility.yul\":433:445   */\n  revert\n    /* \"#utility.yul\":457:559   */\ntag_31:\n    /* \"#utility.yul\":498:504   */\n  0x00\n    /* \"#utility.yul\":549:551   */\n  0x1f\n    /* \"#utility.yul\":545:552   */\n  not\n    /* \"#utility.yul\":540:542   */\n  0x1f\n    /* \"#utility.yul\":533:538   */\n  dup4\n    /* \"#utility.yul\":529:543   */\n  add\n    /* \"#utility.yul\":525:553   */\n  and\n    /* \"#utility.yul\":515:553   */\n  swap1\n  pop\n    /* \"#utility.yul\":457:559   */\n  swap2\n  swap1\n  pop\n  jump\t// out\n    /* \"#utility.yul\":565:745   */\ntag_32:\n    /* \"#utility.yul\":613:690   */\n  0x4e487b7100000000000000000000000000000000000000000000000000000000\n    /* \"#utility.yul\":610:611   */\n  0x00\n    /* \"#utility.yul\":603:691   */\n  mstore\n    /* \"#utility.yul\":710:714   */\n  0x41\n    /* \"#utility.yul\":707:708   */\n  0x04\n    /* \"#utility.yul\":700:715   */\n  mstore\n    /* \"#utility.yul\":734:738   */\n  0x24\n    /* \"#utility.yul\":731:732   */\n  0x00\n    /* \"#utility.yul\":724:739   */\n  revert\n    /* \"#utility.yul\":751:1032   */\ntag_33:\n    /* \"#utility.yul\":834:861   */\n  tag_63\n    /* \"#utility.yul\":856:860   */\n  dup3\n    /* \"#utility.yul\":834:861   */\n  tag_31\n  jump\t// in\ntag_63:\n    /* \"#utility.yul\":826:832   */\n  dup2\n    /* \"#utility.yul\":822:862   */\n  add\n    /* \"#utility.yul\":964:970   */\n  dup2\n    /* \"#utility.yul\":952:962   */\n  dup2\n    /* \"#utility.yul\":949:971   */\n  lt\n    /* \"#utility.yul\":928:946   */\n  0xffffffffffffffff\n    /* \"#utility.yul\":916:926   */\n  dup3\n    /* \"#utility.yul\":913:947   */\n  gt\n    /* \"#utility.yul\":910:972   */\n  or\n    /* \"#utility.yul\":907:995   */\n  iszero\n  tag_64\n  jumpi\n    /* \"#utility.yul\":975:993   */\n  tag_65\n  tag_32\n  jump\t// in\ntag_65:\n    /* \"#utility.yul\":907:995   */\ntag_64:\n    /* \"#utility.yul\":1015:1025   */\n  dup1\n    /* \"#utility.yul\":1011:1013   */\n  0x40\n    /* \"#utility.yul\":1004:1026   */\n  mstore\n    /* \"#utility.yul\":794:1032   */\n  pop\n    /* \"#utility.yul\":751:1032   */\n  pop\n  pop\n  jump\t// out\n    /* \"#utility.yul\":1038:1167   */\ntag_34:\n    /* \"#utility.yul\":1072:1078   */\n  0x00\n    /* \"#utility.yul\":1099:1119   */\n  tag_67\n  tag_27\n  jump\t// in\ntag_67:\n    /* \"#utility.yul\":1089:1119   */\n  swap1\n  pop\n    /* \"#utility.yul\":1128:1161   */\n  tag_68\n    /* \"#utility.yul\":1156:1160   */\n  dup3\n    /* \"#utility.yul\":1148:1154   */\n  dup3\n    /* \"#utility.yul\":1128:1161   */\n  tag_33\n  jump\t// in\ntag_68:\n    /* \"#utility.yul\":1038:1167   */\n  swap2\n  swap1\n  pop\n  jump\t// out\n    /* \"#utility.yul\":1173:1484   */\ntag_35:\n    /* \"#utility.yul\":1250:1254   */\n  0x00\n    /* \"#utility.yul\":1340:1358   */\n  0xffffffffffffffff\n    /* \"#utility.yul\":1332:1338   */\n  dup3\n    /* \"#utility.yul\":1329:1359   */\n  gt\n    /* \"#utility.yul\":1326:1382   */\n  iszero\n  tag_70\n  jumpi\n    /* \"#utility.yul\":1362:1380   */\n  tag_71\n  tag_32\n  jump\t// in\ntag_71:\n    /* \"#utility.yul\":1326:1382   */\ntag_70:\n    /* \"#utility.yul\":1412:1416   */\n  0x20\n    /* \"#utility.yul\":1404:1410   */\n  dup3\n    /* \"#utility.yul\":1400:1417   */\n  mul\n    /* \"#utility.yul\":1392:1417   */\n  swap1\n  pop\n    /* \"#utility.yul\":1472:1476   */\n  0x20\n    /* \"#utility.yul\":1466:1470   */\n  dup2\n    /* \"#utility.yul\":1462:1477   */\n  add\n    /* \"#utility.yul\":1454:1477   */\n  swap1\n  pop\n    /* \"#utility.yul\":1173:1484   */\n  swap2\n  swap1\n  pop\n  jump\t// out\n    /* \"#utility.yul\":1490:1607   */\ntag_36:\n    /* \"#utility.yul\":1599:1600   */\n  0x00\n    /* \"#utility.yul\":1596:1597   */\n  dup1\n    /* \"#utility.yul\":1589:1601   */\n  revert\n    /* \"#utility.yul\":1613:1739   */\ntag_37:\n    /* \"#utility.yul\":1650:1657   */\n  0x00\n    /* \"#utility.yul\":1690:1732   */\n  0xffffffffffffffffffffffffffffffffffffffff\n    /* \"#utility.yul\":1683:1688   */\n  dup3\n    /* \"#utility.yul\":1679:1733   */\n  and\n    /* \"#utility.yul\":1668:1733   */\n  swap1\n  pop\n    /* \"#utility.yul\":1613:1739   */\n  swap2\n  swap1\n  pop\n  jump\t// out\n    /* \"#utility.yul\":1745:1841   */\ntag_38:\n    /* \"#utility.yul\":1782:1789   */\n  0x00\n    /* \"#utility.yul\":1811:1835   */\n  tag_75\n    /* \"#utility.yul\":1829:1834   */\n  dup3\n    /* \"#utility.yul\":1811:1835   */\n  tag_37\n  jump\t// in\ntag_75:\n    /* \"#utility.yul\":1800:1835   */\n  swap1\n  pop\n    /* \"#utility.yul\":1745:1841   */\n  swap2\n  swap1\n  pop\n  jump\t// out\n    /* \"#utility.yul\":1847:1969   */\ntag_39:\n    /* \"#utility.yul\":1920:1944   */\n  tag_77\n    /* \"#utility.yul\":1938:1943   */\n  dup2\n    /* \"#utility.yul\":1920:1944   */\n  tag_38\n  jump\t// in\ntag_77:\n    /* \"#utility.yul\":1913:1918   */\n  dup2\n    /* \"#utility.yul\":1910:1945   */\n  eq\n    /* \"#utility.yul\":1900:1963   */\n  tag_78\n  jumpi\n    /* \"#utility.yul\":1959:1960   */\n  0x00\n    /* \"#utility.yul\":1956:1957   */\n  dup1\n    /* \"#utility.yul\":1949:1961   */\n  revert\n    /* \"#utility.yul\":1900:1963   */\ntag_78:\n    /* \"#utility.yul\":1847:1969   */\n  pop\n  jump\t// out\n    /* \"#utility.yul\":1975:2118   */\ntag_40:\n    /* \"#utility.yul\":2032:2037   */\n  0x00\n    /* \"#utility.yul\":2063:2069   */\n  dup2\n    /* \"#utility.yul\":2057:2070   */\n  mload\n    /* \"#utility.yul\":2048:2070   */\n  swap1\n  pop\n    /* \"#utility.yul\":2079:2112   */\n  tag_80\n    /* \"#utility.yul\":2106:2111   */\n  dup2\n    /* \"#utility.yul\":2079:2112   */\n  tag_39\n  jump\t// in\ntag_80:\n    /* \"#utility.yul\":1975:2118   */\n  swap3\n  swap2\n  pop\n  pop\n  jump\t// out\n    /* \"#utility.yul\":2141:2873   */\ntag_41:\n    /* \"#utility.yul\":2248:2253   */\n  0x00\n    /* \"#utility.yul\":2273:2354   */\n  tag_82\n    /* \"#utility.yul\":2289:2353   */\n  tag_83\n    /* \"#utility.yul\":2346:2352   */\n  dup5\n    /* \"#utility.yul\":2289:2353   */\n  tag_35\n  jump\t// in\ntag_83:\n    /* \"#utility.yul\":2273:2354   */\n  tag_34\n  jump\t// in\ntag_82:\n    /* \"#utility.yul\":2264:2354   */\n  swap1\n  pop\n    /* \"#utility.yul\":2374:2379   */\n  dup1\n    /* \"#utility.yul\":2403:2409   */\n  dup4\n    /* \"#utility.yul\":2396:2401   */\n  dup3\n    /* \"#utility.yul\":2389:2410   */\n  mstore\n    /* \"#utility.yul\":2437:2441   */\n  0x20\n    /* \"#utility.yul\":2430:2435   */\n  dup3\n    /* \"#utility.yul\":2426:2442   */\n  add\n    /* \"#utility.yul\":2419:2442   */\n  swap1\n  pop\n    /* \"#utility.yul\":2490:2494   */\n  0x20\n    /* \"#utility.yul\":2482:2488   */\n  dup5\n    /* \"#utility.yul\":2478:2495   */\n  mul\n    /* \"#utility.yul\":2470:2476   */\n  dup4\n    /* \"#utility.yul\":2466:2496   */\n  add\n    /* \"#utility.yul\":2519:2522   */\n  dup6\n    /* \"#utility.yul\":2511:2517   */\n  dup2\n    /* \"#utility.yul\":2508:2523   */\n  gt\n    /* \"#utility.yul\":2505:2627   */\n  iszero\n  tag_84\n  jumpi\n    /* \"#utility.yul\":2538:2617   */\n  tag_85\n  tag_36\n  jump\t// in\ntag_85:\n    /* \"#utility.yul\":2505:2627   */\ntag_84:\n    /* \"#utility.yul\":2653:2659   */\n  dup4\n    /* \"#utility.yul\":2636:2867   */\ntag_86:\n    /* \"#utility.yul\":2670:2676   */\n  dup2\n    /* \"#utility.yul\":2665:2668   */\n  dup2\n    /* \"#utility.yul\":2662:2677   */\n  lt\n    /* \"#utility.yul\":2636:2867   */\n  iszero\n  tag_88\n  jumpi\n    /* \"#utility.yul\":2745:2748   */\n  dup1\n    /* \"#utility.yul\":2774:2822   */\n  tag_89\n    /* \"#utility.yul\":2818:2821   */\n  dup9\n    /* \"#utility.yul\":2806:2816   */\n  dup3\n    /* \"#utility.yul\":2774:2822   */\n  tag_40\n  jump\t// in\ntag_89:\n    /* \"#utility.yul\":2769:2772   */\n  dup5\n    /* \"#utility.yul\":2762:2823   */\n  mstore\n    /* \"#utility.yul\":2852:2856   */\n  0x20\n    /* \"#utility.yul\":2847:2850   */\n  dup5\n    /* \"#utility.yul\":2843:2857   */\n  add\n    /* \"#utility.yul\":2836:2857   */\n  swap4\n  pop\n    /* \"#utility.yul\":2712:2867   */\n  pop\n    /* \"#utility.yul\":2696:2700   */\n  0x20\n    /* \"#utility.yul\":2691:2694   */\n  dup2\n    /* \"#utility.yul\":2687:2701   */\n  add\n    /* \"#utility.yul\":2680:2701   */\n  swap1\n  pop\n    /* \"#utility.yul\":2636:2867   */\n  jump(tag_86)\ntag_88:\n    /* \"#utility.yul\":2640:2661   */\n  pop\n    /* \"#utility.yul\":2254:2873   */\n  pop\n  pop\n    /* \"#utility.yul\":2141:2873   */\n  swap4\n  swap3\n  pop\n  pop\n  pop\n  jump\t// out\n    /* \"#utility.yul\":2896:3281   */\ntag_42:\n    /* \"#utility.yul\":2978:2983   */\n  0x00\n    /* \"#utility.yul\":3027:3030   */\n  dup3\n    /* \"#utility.yul\":3020:3024   */\n  0x1f\n    /* \"#utility.yul\":3012:3018   */\n  dup4\n    /* \"#utility.yul\":3008:3025   */\n  add\n    /* \"#utility.yul\":3004:3031   */\n  slt\n    /* \"#utility.yul\":2994:3116   */\n  tag_91\n  jumpi\n    /* \"#utility.yul\":3035:3114   */\n  tag_92\n  tag_30\n  jump\t// in\ntag_92:\n    /* \"#utility.yul\":2994:3116   */\ntag_91:\n    /* \"#utility.yul\":3145:3151   */\n  dup2\n    /* \"#utility.yul\":3139:3152   */\n  mload\n    /* \"#utility.yul\":3170:3275   */\n  tag_93\n    /* \"#utility.yul\":3271:3274   */\n  dup5\n    /* \"#utility.yul\":3263:3269   */\n  dup3\n    /* \"#utility.yul\":3256:3260   */\n  0x20\n    /* \"#utility.yul\":3248:3254   */\n  dup7\n    /* \"#utility.yul\":3244:3261   */\n  add\n    /* \"#utility.yul\":3170:3275   */\n  tag_41\n  jump\t// in\ntag_93:\n    /* \"#utility.yul\":3161:3275   */\n  swap2\n  pop\n    /* \"#utility.yul\":2984:3281   */\n  pop\n    /* \"#utility.yul\":2896:3281   */\n  swap3\n  swap2\n  pop\n  pop\n  jump\t// out\n    /* \"#utility.yul\":3287:3364   */\ntag_43:\n    /* \"#utility.yul\":3324:3331   */\n  0x00\n    /* \"#utility.yul\":3353:3358   */\n  dup2\n    /* \"#utility.yul\":3342:3358   */\n  swap1\n  pop\n    /* \"#utility.yul\":3287:3364   */\n  swap2\n  swap1\n  pop\n  jump\t// out\n    /* \"#utility.yul\":3370:3492   */\ntag_44:\n    /* \"#utility.yul\":3443:3467   */\n  tag_96\n    /* \"#utility.yul\":3461:3466   */\n  dup2\n    /* \"#utility.yul\":3443:3467   */\n  tag_43\n  jump\t// in\ntag_96:\n    /* \"#utility.yul\":3436:3441   */\n  dup2\n    /* \"#utility.yul\":3433:3468   */\n  eq\n    /* \"#utility.yul\":3423:3486   */\n  tag_97\n  jumpi\n    /* \"#utility.yul\":3482:3483   */\n  0x00\n    /* \"#utility.yul\":3479:3480   */\n  dup1\n    /* \"#utility.yul\":3472:3484   */\n  revert\n    /* \"#utility.yul\":3423:3486   */\ntag_97:\n    /* \"#utility.yul\":3370:3492   */\n  pop\n  jump\t// out\n    /* \"#utility.yul\":3498:3641   */\ntag_45:\n    /* \"#utility.yul\":3555:3560   */\n  0x00\n    /* \"#utility.yul\":3586:3592   */\n  dup2\n    /* \"#utility.yul\":3580:3593   */\n  mload\n    /* \"#utility.yul\":3571:3593   */\n  swap1\n  pop\n    /* \"#utility.yul\":3602:3635   */\n  tag_99\n    /* \"#utility.yul\":3629:3634   */\n  dup2\n    /* \"#utility.yul\":3602:3635   */\n  tag_44\n  jump\t// in\ntag_99:\n    /* \"#utility.yul\":3498:3641   */\n  swap3\n  swap2\n  pop\n  pop\n  jump\t// out\n    /* \"#utility.yul\":3647:4357   */\ntag_3:\n    /* \"#utility.yul\":3751:3757   */\n  0x00\n    /* \"#utility.yul\":3759:3765   */\n  dup1\n    /* \"#utility.yul\":3808:3810   */\n  0x40\n    /* \"#utility.yul\":3796:3805   */\n  dup4\n    /* \"#utility.yul\":3787:3794   */\n  dup6\n    /* \"#utility.yul\":3783:3806   */\n  sub\n    /* \"#utility.yul\":3779:3811   */\n  slt\n    /* \"#utility.yul\":3776:3895   */\n  iszero\n  tag_101\n  jumpi\n    /* \"#utility.yul\":3814:3893   */\n  tag_102\n  tag_28\n  jump\t// in\ntag_102:\n    /* \"#utility.yul\":3776:3895   */\ntag_101:\n    /* \"#utility.yul\":3955:3956   */\n  0x00\n    /* \"#utility.yul\":3944:3953   */\n  dup4\n    /* \"#utility.yul\":3940:3957   */\n  add\n    /* \"#utility.yul\":3934:3958   */\n  mload\n    /* \"#utility.yul\":3985:4003   */\n  0xffffffffffffffff\n    /* \"#utility.yul\":3977:3983   */\n  dup2\n    /* \"#utility.yul\":3974:4004   */\n  gt\n    /* \"#utility.yul\":3971:4088   */\n  iszero\n  tag_103\n  jumpi\n    /* \"#utility.yul\":4007:4086   */\n  tag_104\n  tag_29\n  jump\t// in\ntag_104:\n    /* \"#utility.yul\":3971:4088   */\ntag_103:\n    /* \"#utility.yul\":4112:4201   */\n  tag_105\n    /* \"#utility.yul\":4193:4200   */\n  dup6\n    /* \"#utility.yul\":4184:4190   */\n  dup3\n    /* \"#utility.yul\":4173:4182   */\n  dup7\n    /* \"#utility.yul\":4169:4191   */\n  add\n    /* \"#utility.yul\":4112:4201   */\n  tag_42\n  jump\t// in\ntag_105:\n    /* \"#utility.yul\":4102:4201   */\n  swap3\n  pop\n    /* \"#utility.yul\":3905:4211   */\n  pop\n    /* \"#utility.yul\":4250:4252   */\n  0x20\n    /* \"#utility.yul\":4276:4340   */\n  tag_106\n    /* \"#utility.yul\":4332:4339   */\n  dup6\n    /* \"#utility.yul\":4323:4329   */\n  dup3\n    /* \"#utility.yul\":4312:4321   */\n  dup7\n    /* \"#utility.yul\":4308:4330   */\n  add\n    /* \"#utility.yul\":4276:4340   */\n  tag_45\n  jump\t// in\ntag_106:\n    /* \"#utility.yul\":4266:4340   */\n  swap2\n  pop\n    /* \"#utility.yul\":4221:4350   */\n  pop\n    /* \"#utility.yul\":3647:4357   */\n  swap3\n  pop\n  swap3\n  swap1\n  pop\n  jump\t// out\n    /* \"#utility.yul\":4363:4532   */\ntag_46:\n    /* \"#utility.yul\":4447:4458   */\n  0x00\n    /* \"#utility.yul\":4481:4487   */\n  dup3\n    /* \"#utility.yul\":4476:4479   */\n  dup3\n    /* \"#utility.yul\":4469:4488   */\n  mstore\n    /* \"#utility.yul\":4521:4525   */\n  0x20\n    /* \"#utility.yul\":4516:4519   */\n  dup3\n    /* \"#utility.yul\":4512:4526   */\n  add\n    /* \"#utility.yul\":4497:4526   */\n  swap1\n  pop\n    /* \"#utility.yul\":4363:4532   */\n  swap3\n  swap2\n  pop\n  pop\n  jump\t// out\n    /* \"#utility.yul\":4538:4714   */\ntag_47:\n    /* \"#utility.yul\":4678:4706   */\n  0x4d757374206265206f6e65206f776e6572206174206c65617374000000000000\n    /* \"#utility.yul\":4674:4675   */\n  0x00\n    /* \"#utility.yul\":4666:4672   */\n  dup3\n    /* \"#utility.yul\":4662:4676   */\n  add\n    /* \"#utility.yul\":4655:4707   */\n  mstore\n    /* \"#utility.yul\":4538:4714   */\n  pop\n  jump\t// out\n    /* \"#utility.yul\":4720:5086   */\ntag_48:\n    /* \"#utility.yul\":4862:4865   */\n  0x00\n    /* \"#utility.yul\":4883:4950   */\n  tag_110\n    /* \"#utility.yul\":4947:4949   */\n  0x1a\n    /* \"#utility.yul\":4942:4945   */\n  dup4\n    /* \"#utility.yul\":4883:4950   */\n  tag_46\n  jump\t// in\ntag_110:\n    /* \"#utility.yul\":4876:4950   */\n  swap2\n  pop\n    /* \"#utility.yul\":4959:5052   */\n  tag_111\n    /* \"#utility.yul\":5048:5051   */\n  dup3\n    /* \"#utility.yul\":4959:5052   */\n  tag_47\n  jump\t// in\ntag_111:\n    /* \"#utility.yul\":5077:5079   */\n  0x20\n    /* \"#utility.yul\":5072:5075   */\n  dup3\n    /* \"#utility.yul\":5068:5080   */\n  add\n    /* \"#utility.yul\":5061:5080   */\n  swap1\n  pop\n    /* \"#utility.yul\":4720:5086   */\n  swap2\n  swap1\n  pop\n  jump\t// out\n    /* \"#utility.yul\":5092:5511   */\ntag_8:\n    /* \"#utility.yul\":5258:5262   */\n  0x00\n    /* \"#utility.yul\":5296:5298   */\n  0x20\n    /* \"#utility.yul\":5285:5294   */\n  dup3\n    /* \"#utility.yul\":5281:5299   */\n  add\n    /* \"#utility.yul\":5273:5299   */\n  swap1\n  pop\n    /* \"#utility.yul\":5345:5354   */\n  dup2\n    /* \"#utility.yul\":5339:5343   */\n  dup2\n    /* \"#utility.yul\":5335:5355   */\n  sub\n    /* \"#utility.yul\":5331:5332   */\n  0x00\n    /* \"#utility.yul\":5320:5329   */\n  dup4\n    /* \"#utility.yul\":5316:5333   */\n  add\n    /* \"#utility.yul\":5309:5356   */\n  mstore\n    /* \"#utility.yul\":5373:5504   */\n  tag_113\n    /* \"#utility.yul\":5499:5503   */\n  dup2\n    /* \"#utility.yul\":5373:5504   */\n  tag_48\n  jump\t// in\ntag_113:\n    /* \"#utility.yul\":5365:5504   */\n  swap1\n  pop\n    /* \"#utility.yul\":5092:5511   */\n  swap2\n  swap1\n  pop\n  jump\t// out\n    /* \"#utility.yul\":5517:5748   */\ntag_49:\n    /* \"#utility.yul\":5657:5691   */\n  0x496e76616c6964207265717569726564207369676e617475726573206e756d62\n    /* \"#utility.yul\":5653:5654   */\n  0x00\n    /* \"#utility.yul\":5645:5651   */\n  dup3\n    /* \"#utility.yul\":5641:5655   */\n  add\n    /* \"#utility.yul\":5634:5692   */\n  mstore\n    /* \"#utility.yul\":5726:5740   */\n  0x6572206f66206f776e6572730000000000000000000000000000000000000000\n    /* \"#utility.yul\":5721:5723   */\n  0x20\n    /* \"#utility.yul\":5713:5719   */\n  dup3\n    /* \"#utility.yul\":5709:5724   */\n  add\n    /* \"#utility.yul\":5702:5741   */\n  mstore\n    /* \"#utility.yul\":5517:5748   */\n  pop\n  jump\t// out\n    /* \"#utility.yul\":5754:6120   */\ntag_50:\n    /* \"#utility.yul\":5896:5899   */\n  0x00\n    /* \"#utility.yul\":5917:5984   */\n  tag_116\n    /* \"#utility.yul\":5981:5983   */\n  0x2c\n    /* \"#utility.yul\":5976:5979   */\n  dup4\n    /* \"#utility.yul\":5917:5984   */\n  tag_46\n  jump\t// in\ntag_116:\n    /* \"#utility.yul\":5910:5984   */\n  swap2\n  pop\n    /* \"#utility.yul\":5993:6086   */\n  tag_117\n    /* \"#utility.yul\":6082:6085   */\n  dup3\n    /* \"#utility.yul\":5993:6086   */\n  tag_49\n  jump\t// in\ntag_117:\n    /* \"#utility.yul\":6111:6113   */\n  0x40\n    /* \"#utility.yul\":6106:6109   */\n  dup3\n    /* \"#utility.yul\":6102:6114   */\n  add\n    /* \"#utility.yul\":6095:6114   */\n  swap1\n  pop\n    /* \"#utility.yul\":5754:6120   */\n  swap2\n  swap1\n  pop\n  jump\t// out\n    /* \"#utility.yul\":6126:6545   */\ntag_12:\n    /* \"#utility.yul\":6292:6296   */\n  0x00\n    /* \"#utility.yul\":6330:6332   */\n  0x20\n    /* \"#utility.yul\":6319:6328   */\n  dup3\n    /* \"#utility.yul\":6315:6333   */\n  add\n    /* \"#utility.yul\":6307:6333   */\n  swap1\n  pop\n    /* \"#utility.yul\":6379:6388   */\n  dup2\n    /* \"#utility.yul\":6373:6377   */\n  dup2\n    /* \"#utility.yul\":6369:6389   */\n  sub\n    /* \"#utility.yul\":6365:6366   */\n  0x00\n    /* \"#utility.yul\":6354:6363   */\n  dup4\n    /* \"#utility.yul\":6350:6367   */\n  add\n    /* \"#utility.yul\":6343:6390   */\n  mstore\n    /* \"#utility.yul\":6407:6538   */\n  tag_119\n    /* \"#utility.yul\":6533:6537   */\n  dup2\n    /* \"#utility.yul\":6407:6538   */\n  tag_50\n  jump\t// in\ntag_119:\n    /* \"#utility.yul\":6399:6538   */\n  swap1\n  pop\n    /* \"#utility.yul\":6126:6545   */\n  swap2\n  swap1\n  pop\n  jump\t// out\n    /* \"#utility.yul\":6551:6731   */\ntag_18:\n    /* \"#utility.yul\":6599:6676   */\n  0x4e487b7100000000000000000000000000000000000000000000000000000000\n    /* \"#utility.yul\":6596:6597   */\n  0x00\n    /* \"#utility.yul\":6589:6677   */\n  mstore\n    /* \"#utility.yul\":6696:6700   */\n  0x32\n    /* \"#utility.yul\":6693:6694   */\n  0x04\n    /* \"#utility.yul\":6686:6701   */\n  mstore\n    /* \"#utility.yul\":6720:6724   */\n  0x24\n    /* \"#utility.yul\":6717:6718   */\n  0x00\n    /* \"#utility.yul\":6710:6725   */\n  revert\n    /* \"#utility.yul\":6737:6908   */\ntag_51:\n    /* \"#utility.yul\":6877:6900   */\n  0x496e76616c6964206f776e657220616464726573730000000000000000000000\n    /* \"#utility.yul\":6873:6874   */\n  0x00\n    /* \"#utility.yul\":6865:6871   */\n  dup3\n    /* \"#utility.yul\":6861:6875   */\n  add\n    /* \"#utility.yul\":6854:6901   */\n  mstore\n    /* \"#utility.yul\":6737:6908   */\n  pop\n  jump\t// out\n    /* \"#utility.yul\":6914:7280   */\ntag_52:\n    /* \"#utility.yul\":7056:7059   */\n  0x00\n    /* \"#utility.yul\":7077:7144   */\n  tag_123\n    /* \"#utility.yul\":7141:7143   */\n  0x15\n    /* \"#utility.yul\":7136:7139   */\n  dup4\n    /* \"#utility.yul\":7077:7144   */\n  tag_46\n  jump\t// in\ntag_123:\n    /* \"#utility.yul\":7070:7144   */\n  swap2\n  pop\n    /* \"#utility.yul\":7153:7246   */\n  tag_124\n    /* \"#utility.yul\":7242:7245   */\n  dup3\n    /* \"#utility.yul\":7153:7246   */\n  tag_51\n  jump\t// in\ntag_124:\n    /* \"#utility.yul\":7271:7273   */\n  0x20\n    /* \"#utility.yul\":7266:7269   */\n  dup3\n    /* \"#utility.yul\":7262:7274   */\n  add\n    /* \"#utility.yul\":7255:7274   */\n  swap1\n  pop\n    /* \"#utility.yul\":6914:7280   */\n  swap2\n  swap1\n  pop\n  jump\t// out\n    /* \"#utility.yul\":7286:7705   */\ntag_21:\n    /* \"#utility.yul\":7452:7456   */\n  0x00\n    /* \"#utility.yul\":7490:7492   */\n  0x20\n    /* \"#utility.yul\":7479:7488   */\n  dup3\n    /* \"#utility.yul\":7475:7493   */\n  add\n    /* \"#utility.yul\":7467:7493   */\n  swap1\n  pop\n    /* \"#utility.yul\":7539:7548   */\n  dup2\n    /* \"#utility.yul\":7533:7537   */\n  dup2\n    /* \"#utility.yul\":7529:7549   */\n  sub\n    /* \"#utility.yul\":7525:7526   */\n  0x00\n    /* \"#utility.yul\":7514:7523   */\n  dup4\n    /* \"#utility.yul\":7510:7527   */\n  add\n    /* \"#utility.yul\":7503:7550   */\n  mstore\n    /* \"#utility.yul\":7567:7698   */\n  tag_126\n    /* \"#utility.yul\":7693:7697   */\n  dup2\n    /* \"#utility.yul\":7567:7698   */\n  tag_52\n  jump\t// in\ntag_126:\n    /* \"#utility.yul\":7559:7698   */\n  swap1\n  pop\n    /* \"#utility.yul\":7286:7705   */\n  swap2\n  swap1\n  pop\n  jump\t// out\n    /* \"#utility.yul\":7711:7880   */\ntag_53:\n    /* \"#utility.yul\":7851:7872   */\n  0x4f776e6572206973206e6f7420756e6971756500000000000000000000000000\n    /* \"#utility.yul\":7847:7848   */\n  0x00\n    /* \"#utility.yul\":7839:7845   */\n  dup3\n    /* \"#utility.yul\":7835:7849   */\n  add\n    /* \"#utility.yul\":7828:7873   */\n  mstore\n    /* \"#utility.yul\":7711:7880   */\n  pop\n  jump\t// out\n    /* \"#utility.yul\":7886:8252   */\ntag_54:\n    /* \"#utility.yul\":8028:8031   */\n  0x00\n    /* \"#utility.yul\":8049:8116   */\n  tag_129\n    /* \"#utility.yul\":8113:8115   */\n  0x13\n    /* \"#utility.yul\":8108:8111   */\n  dup4\n    /* \"#utility.yul\":8049:8116   */\n  tag_46\n  jump\t// in\ntag_129:\n    /* \"#utility.yul\":8042:8116   */\n  swap2\n  pop\n    /* \"#utility.yul\":8125:8218   */\n  tag_130\n    /* \"#utility.yul\":8214:8217   */\n  dup3\n    /* \"#utility.yul\":8125:8218   */\n  tag_53\n  jump\t// in\ntag_130:\n    /* \"#utility.yul\":8243:8245   */\n  0x20\n    /* \"#utility.yul\":8238:8241   */\n  dup3\n    /* \"#utility.yul\":8234:8246   */\n  add\n    /* \"#utility.yul\":8227:8246   */\n  swap1\n  pop\n    /* \"#utility.yul\":7886:8252   */\n  swap2\n  swap1\n  pop\n  jump\t// out\n    /* \"#utility.yul\":8258:8677   */\ntag_24:\n    /* \"#utility.yul\":8424:8428   */\n  0x00\n    /* \"#utility.yul\":8462:8464   */\n  0x20\n    /* \"#utility.yul\":8451:8460   */\n  dup3\n    /* \"#utility.yul\":8447:8465   */\n  add\n    /* \"#utility.yul\":8439:8465   */\n  swap1\n  pop\n    /* \"#utility.yul\":8511:8520   */\n  dup2\n    /* \"#utility.yul\":8505:8509   */\n  dup2\n    /* \"#utility.yul\":8501:8521   */\n  sub\n    /* \"#utility.yul\":8497:8498   */\n  0x00\n    /* \"#utility.yul\":8486:8495   */\n  dup4\n    /* \"#utility.yul\":8482:8499   */\n  add\n    /* \"#utility.yul\":8475:8522   */\n  mstore\n    /* \"#utility.yul\":8539:8670   */\n  tag_132\n    /* \"#utility.yul\":8665:8669   */\n  dup2\n    /* \"#utility.yul\":8539:8670   */\n  tag_54\n  jump\t// in\ntag_132:\n    /* \"#utility.yul\":8531:8670   */\n  swap1\n  pop\n    /* \"#utility.yul\":8258:8677   */\n  swap2\n  swap1\n  pop\n  jump\t// out\n    /* \"contracts/MutiSignWallet.sol\":61:3677  contract MultiSigWallet {... */\ntag_26:\n  dataSize(sub_0)\n  dup1\n  dataOffset(sub_0)\n  0x00\n  codecopy\n  0x00\n  return\nstop\n\nsub_0: assembly {\n        /* \"contracts/MutiSignWallet.sol\":61:3677  contract MultiSigWallet {... */\n      mstore(0x40, 0x80)\n      jumpi(tag_1, lt(calldatasize, 0x04))\n      shr(0xe0, calldataload(0x00))\n      dup1\n      0x2f54bf6e\n      gt\n      tag_14\n      jumpi\n      dup1\n      0x2f54bf6e\n      eq\n      tag_8\n      jumpi\n      dup1\n      0x8253951a\n      eq\n      tag_9\n      jumpi\n      dup1\n      0x9ace38c2\n      eq\n      tag_10\n      jumpi\n      dup1\n      0xb759f954\n      eq\n      tag_11\n      jumpi\n      dup1\n      0xba7e7cab\n      eq\n      tag_12\n      jumpi\n      dup1\n      0xfe0d94c1\n      eq\n      tag_13\n      jumpi\n      jump(tag_2)\n    tag_14:\n      dup1\n      0x025e7c27\n      eq\n      tag_3\n      jumpi\n      dup1\n      0x12065fe0\n      eq\n      tag_4\n      jumpi\n      dup1\n      0x14de327f\n      eq\n      tag_5\n      jumpi\n      dup1\n      0x1c62298a\n      eq\n      tag_6\n      jumpi\n      dup1\n      0x20c5429b\n      eq\n      tag_7\n      jumpi\n      jump(tag_2)\n    tag_1:\n      jumpi(tag_2, calldatasize)\n        /* \"contracts/MutiSignWallet.sol\":774:784  msg.sender */\n      caller\n        /* \"contracts/MutiSignWallet.sol\":766:796  Deposit(msg.sender, msg.value) */\n      0xffffffffffffffffffffffffffffffffffffffff\n      and\n      0xe1fffcc4923d04b559f4d29a8bfc6cda04eb5b0d3c460751c2402c5c5cc9109c\n        /* \"contracts/MutiSignWallet.sol\":786:795  msg.value */\n      callvalue\n        /* \"contracts/MutiSignWallet.sol\":766:796  Deposit(msg.sender, msg.value) */\n      mload(0x40)\n      tag_17\n      swap2\n      swap1\n      tag_18\n      jump\t// in\n    tag_17:\n      mload(0x40)\n      dup1\n      swap2\n      sub\n      swap1\n      log2\n        /* \"contracts/MutiSignWallet.sol\":61:3677  contract MultiSigWallet {... */\n      stop\n    tag_2:\n      0x00\n      dup1\n      revert\n        /* \"contracts/MutiSignWallet.sol\":92:115  address[] public owners */\n    tag_3:\n      callvalue\n      dup1\n      iszero\n      tag_19\n      jumpi\n      0x00\n      dup1\n      revert\n    tag_19:\n      pop\n      tag_20\n      0x04\n      dup1\n      calldatasize\n      sub\n      dup2\n      add\n      swap1\n      tag_21\n      swap2\n      swap1\n      tag_22\n      jump\t// in\n    tag_21:\n      tag_23\n      jump\t// in\n    tag_20:\n      mload(0x40)\n      tag_24\n      swap2\n      swap1\n      tag_25\n      jump\t// in\n    tag_24:\n      mload(0x40)\n      dup1\n      swap2\n      sub\n      swap1\n      return\n        /* \"contracts/MutiSignWallet.sol\":2009:2110  function getBalance() external view returns (uint256) {... */\n    tag_4:\n      callvalue\n      dup1\n      iszero\n      tag_26\n      jumpi\n      0x00\n      dup1\n      revert\n    tag_26:\n      pop\n      tag_27\n      tag_28\n      jump\t// in\n    tag_27:\n      mload(0x40)\n      tag_29\n      swap2\n      swap1\n      tag_18\n      jump\t// in\n    tag_29:\n      mload(0x40)\n      dup1\n      swap2\n      sub\n      swap1\n      return\n        /* \"contracts/MutiSignWallet.sol\":2118:2444  function submit(address _to, uint256 _value, bytes calldata _data)... */\n    tag_5:\n      callvalue\n      dup1\n      iszero\n      tag_30\n      jumpi\n      0x00\n      dup1\n      revert\n    tag_30:\n      pop\n      tag_31\n      0x04\n      dup1\n      calldatasize\n      sub\n      dup2\n      add\n      swap1\n      tag_32\n      swap2\n      swap1\n      tag_33\n      jump\t// in\n    tag_32:\n      tag_34\n      jump\t// in\n    tag_31:\n      mload(0x40)\n      tag_35\n      swap2\n      swap1\n      tag_18\n      jump\t// in\n    tag_35:\n      mload(0x40)\n      dup1\n      swap2\n      sub\n      swap1\n      return\n        /* \"contracts/MutiSignWallet.sol\":168:196  uint256 public requiredSigns */\n    tag_6:\n      callvalue\n      dup1\n      iszero\n      tag_36\n      jumpi\n      0x00\n      dup1\n      revert\n    tag_36:\n      pop\n      tag_37\n      tag_38\n      jump\t// in\n    tag_37:\n      mload(0x40)\n      tag_39\n      swap2\n      swap1\n      tag_18\n      jump\t// in\n    tag_39:\n      mload(0x40)\n      dup1\n      swap2\n      sub\n      swap1\n      return\n        /* \"contracts/MutiSignWallet.sol\":3428:3674  function revoke(uint256 _txId) external onlyOwner txExists(_txId) notExecuted(_txId) {... */\n    tag_7:\n      callvalue\n      dup1\n      iszero\n      tag_40\n      jumpi\n      0x00\n      dup1\n      revert\n    tag_40:\n      pop\n      tag_41\n      0x04\n      dup1\n      calldatasize\n      sub\n      dup2\n      add\n      swap1\n      tag_42\n      swap2\n      swap1\n      tag_22\n      jump\t// in\n    tag_42:\n      tag_43\n      jump\t// in\n    tag_41:\n      stop\n        /* \"contracts/MutiSignWallet.sol\":122:161  mapping(address => bool) public isOwner */\n    tag_8:\n      callvalue\n      dup1\n      iszero\n      tag_44\n      jumpi\n      0x00\n      dup1\n      revert\n    tag_44:\n      pop\n      tag_45\n      0x04\n      dup1\n      calldatasize\n      sub\n      dup2\n      add\n      swap1\n      tag_46\n      swap2\n      swap1\n      tag_47\n      jump\t// in\n    tag_46:\n      tag_48\n      jump\t// in\n    tag_45:\n      mload(0x40)\n      tag_49\n      swap2\n      swap1\n      tag_50\n      jump\t// in\n    tag_49:\n      mload(0x40)\n      dup1\n      swap2\n      sub\n      swap1\n      return\n        /* \"contracts/MutiSignWallet.sol\":367:427  mapping(uint256 => mapping(address => bool)) public approved */\n    tag_9:\n      callvalue\n      dup1\n      iszero\n      tag_51\n      jumpi\n      0x00\n      dup1\n      revert\n    tag_51:\n      pop\n      tag_52\n      0x04\n      dup1\n      calldatasize\n      sub\n      dup2\n      add\n      swap1\n      tag_53\n      swap2\n      swap1\n      tag_54\n      jump\t// in\n    tag_53:\n      tag_55\n      jump\t// in\n    tag_52:\n      mload(0x40)\n      tag_56\n      swap2\n      swap1\n      tag_50\n      jump\t// in\n    tag_56:\n      mload(0x40)\n      dup1\n      swap2\n      sub\n      swap1\n      return\n        /* \"contracts/MutiSignWallet.sol\":327:360  Transaction[] public transactions */\n    tag_10:\n      callvalue\n      dup1\n      iszero\n      tag_57\n      jumpi\n      0x00\n      dup1\n      revert\n    tag_57:\n      pop\n      tag_58\n      0x04\n      dup1\n      calldatasize\n      sub\n      dup2\n      add\n      swap1\n      tag_59\n      swap2\n      swap1\n      tag_22\n      jump\t// in\n    tag_59:\n      tag_60\n      jump\t// in\n    tag_58:\n      mload(0x40)\n      tag_61\n      swap5\n      swap4\n      swap3\n      swap2\n      swap1\n      tag_62\n      jump\t// in\n    tag_61:\n      mload(0x40)\n      dup1\n      swap2\n      sub\n      swap1\n      return\n        /* \"contracts/MutiSignWallet.sol\":2452:2658  function approve(uint256 _txId) external onlyOwner txExists(_txId) notApproved(_txId) ... */\n    tag_11:\n      callvalue\n      dup1\n      iszero\n      tag_63\n      jumpi\n      0x00\n      dup1\n      revert\n    tag_63:\n      pop\n      tag_64\n      0x04\n      dup1\n      calldatasize\n      sub\n      dup2\n      add\n      swap1\n      tag_65\n      swap2\n      swap1\n      tag_22\n      jump\t// in\n    tag_65:\n      tag_66\n      jump\t// in\n    tag_64:\n      stop\n        /* \"contracts/MutiSignWallet.sol\":3140:3420  function getApprovalCount(uint256 _txId) public view returns(uint256 count) {... */\n    tag_12:\n      callvalue\n      dup1\n      iszero\n      tag_67\n      jumpi\n      0x00\n      dup1\n      revert\n    tag_67:\n      pop\n      tag_68\n      0x04\n      dup1\n      calldatasize\n      sub\n      dup2\n      add\n      swap1\n      tag_69\n      swap2\n      swap1\n      tag_22\n      jump\t// in\n    tag_69:\n      tag_70\n      jump\t// in\n    tag_68:\n      mload(0x40)\n      tag_71\n      swap2\n      swap1\n      tag_18\n      jump\t// in\n    tag_71:\n      mload(0x40)\n      dup1\n      swap2\n      sub\n      swap1\n      return\n        /* \"contracts/MutiSignWallet.sol\":2666:3132  function execute(uint256 _txId) external onlyOwner txExists(_txId) notExecuted(_txId) {... */\n    tag_13:\n      callvalue\n      dup1\n      iszero\n      tag_72\n      jumpi\n      0x00\n      dup1\n      revert\n    tag_72:\n      pop\n      tag_73\n      0x04\n      dup1\n      calldatasize\n      sub\n      dup2\n      add\n      swap1\n      tag_74\n      swap2\n      swap1\n      tag_22\n      jump\t// in\n    tag_74:\n      tag_75\n      jump\t// in\n    tag_73:\n      stop\n        /* \"contracts/MutiSignWallet.sol\":92:115  address[] public owners */\n    tag_23:\n      0x00\n      dup2\n      dup2\n      sload\n      dup2\n      lt\n      tag_76\n      jumpi\n      0x00\n      dup1\n      revert\n    tag_76:\n      swap1\n      0x00\n      mstore\n      keccak256(0x00, 0x20)\n      add\n      0x00\n      swap2\n      pop\n      sload\n      swap1\n      0x0100\n      exp\n      swap1\n      div\n      0xffffffffffffffffffffffffffffffffffffffff\n      and\n      dup2\n      jump\t// out\n        /* \"contracts/MutiSignWallet.sol\":2009:2110  function getBalance() external view returns (uint256) {... */\n    tag_28:\n        /* \"contracts/MutiSignWallet.sol\":2054:2061  uint256 */\n      0x00\n        /* \"contracts/MutiSignWallet.sol\":2081:2102  address(this).balance */\n      selfbalance\n        /* \"contracts/MutiSignWallet.sol\":2074:2102  return address(this).balance */\n      swap1\n      pop\n        /* \"contracts/MutiSignWallet.sol\":2009:2110  function getBalance() external view returns (uint256) {... */\n      swap1\n      jump\t// out\n        /* \"contracts/MutiSignWallet.sol\":2118:2444  function submit(address _to, uint256 _value, bytes calldata _data)... */\n    tag_34:\n        /* \"contracts/MutiSignWallet.sol\":2217:2224  uint256 */\n      0x00\n        /* \"contracts/MutiSignWallet.sol\":852:859  isOwner */\n      0x01\n        /* \"contracts/MutiSignWallet.sol\":852:871  isOwner[msg.sender] */\n      0x00\n        /* \"contracts/MutiSignWallet.sol\":860:870  msg.sender */\n      caller\n        /* \"contracts/MutiSignWallet.sol\":852:871  isOwner[msg.sender] */\n      0xffffffffffffffffffffffffffffffffffffffff\n      and\n      0xffffffffffffffffffffffffffffffffffffffff\n      and\n      dup2\n      mstore\n      0x20\n      add\n      swap1\n      dup2\n      mstore\n      0x20\n      add\n      0x00\n      keccak256\n      0x00\n      swap1\n      sload\n      swap1\n      0x0100\n      exp\n      swap1\n      div\n      0xff\n      and\n        /* \"contracts/MutiSignWallet.sol\":844:893  require(isOwner[msg.sender], \"You are not owner\") */\n      tag_80\n      jumpi\n      mload(0x40)\n      0x08c379a000000000000000000000000000000000000000000000000000000000\n      dup2\n      mstore\n      0x04\n      add\n      tag_81\n      swap1\n      tag_82\n      jump\t// in\n    tag_81:\n      mload(0x40)\n      dup1\n      swap2\n      sub\n      swap1\n      revert\n    tag_80:\n        /* \"contracts/MutiSignWallet.sol\":2237:2249  transactions */\n      0x03\n        /* \"contracts/MutiSignWallet.sol\":2269:2337  Transaction({to: _to, value: _value, data: _data, isExected: false}) */\n      mload(0x40)\n      dup1\n      0x80\n      add\n      0x40\n      mstore\n      dup1\n        /* \"contracts/MutiSignWallet.sol\":2286:2289  _to */\n      dup8\n        /* \"contracts/MutiSignWallet.sol\":2269:2337  Transaction({to: _to, value: _value, data: _data, isExected: false}) */\n      0xffffffffffffffffffffffffffffffffffffffff\n      and\n      dup2\n      mstore\n      0x20\n      add\n        /* \"contracts/MutiSignWallet.sol\":2298:2304  _value */\n      dup7\n        /* \"contracts/MutiSignWallet.sol\":2269:2337  Transaction({to: _to, value: _value, data: _data, isExected: false}) */\n      dup2\n      mstore\n      0x20\n      add\n        /* \"contracts/MutiSignWallet.sol\":2312:2317  _data */\n      dup6\n      dup6\n        /* \"contracts/MutiSignWallet.sol\":2269:2337  Transaction({to: _to, value: _value, data: _data, isExected: false}) */\n      dup1\n      dup1\n      0x1f\n      add\n      0x20\n      dup1\n      swap2\n      div\n      mul\n      0x20\n      add\n      mload(0x40)\n      swap1\n      dup2\n      add\n      0x40\n      mstore\n      dup1\n      swap4\n      swap3\n      swap2\n      swap1\n      dup2\n      dup2\n      mstore\n      0x20\n      add\n      dup4\n      dup4\n      dup1\n      dup3\n      dup5\n      calldatacopy\n      0x00\n      dup2\n      dup5\n      add\n      mstore\n      not(0x1f)\n      0x1f\n      dup3\n      add\n      and\n      swap1\n      pop\n      dup1\n      dup4\n      add\n      swap3\n      pop\n      pop\n      pop\n      pop\n      pop\n      pop\n      pop\n      dup2\n      mstore\n      0x20\n      add\n        /* \"contracts/MutiSignWallet.sol\":2330:2335  false */\n      0x00\n        /* \"contracts/MutiSignWallet.sol\":2269:2337  Transaction({to: _to, value: _value, data: _data, isExected: false}) */\n      iszero\n      iszero\n      dup2\n      mstore\n      pop\n        /* \"contracts/MutiSignWallet.sol\":2237:2348  transactions.push(... */\n      swap1\n      dup1\n      0x01\n      dup2\n      sload\n      add\n      dup1\n      dup3\n      sstore\n      dup1\n      swap2\n      pop\n      pop\n      0x01\n      swap1\n      sub\n      swap1\n      0x00\n      mstore\n      keccak256(0x00, 0x20)\n      swap1\n      0x04\n      mul\n      add\n      0x00\n      swap1\n      swap2\n      swap1\n      swap2\n      swap1\n      swap2\n      pop\n      0x00\n      dup3\n      add\n      mload\n      dup2\n      0x00\n      add\n      exp(0x0100, 0x00)\n      dup2\n      sload\n      dup2\n      0xffffffffffffffffffffffffffffffffffffffff\n      mul\n      not\n      and\n      swap1\n      dup4\n      0xffffffffffffffffffffffffffffffffffffffff\n      and\n      mul\n      or\n      swap1\n      sstore\n      pop\n      0x20\n      dup3\n      add\n      mload\n      dup2\n      0x01\n      add\n      sstore\n      0x40\n      dup3\n      add\n      mload\n      dup2\n      0x02\n      add\n      swap1\n      dup2\n      tag_85\n      swap2\n      swap1\n      tag_86\n      jump\t// in\n    tag_85:\n      pop\n      0x60\n      dup3\n      add\n      mload\n      dup2\n      0x03\n      add\n      exp(0x0100, 0x00)\n      dup2\n      sload\n      dup2\n      0xff\n      mul\n      not\n      and\n      swap1\n      dup4\n      iszero\n      iszero\n      mul\n      or\n      swap1\n      sstore\n      pop\n      pop\n      pop\n        /* \"contracts/MutiSignWallet.sol\":2393:2394  1 */\n      0x01\n        /* \"contracts/MutiSignWallet.sol\":2371:2383  transactions */\n      0x03\n        /* \"contracts/MutiSignWallet.sol\":2371:2390  transactions.length */\n      dup1\n      sload\n      swap1\n      pop\n        /* \"contracts/MutiSignWallet.sol\":2371:2394  transactions.length - 1 */\n      tag_87\n      swap2\n      swap1\n      tag_88\n      jump\t// in\n    tag_87:\n        /* \"contracts/MutiSignWallet.sol\":2364:2395  Submit(transactions.length - 1) */\n      0x08324b3d745b914e3abd4ffbfead91e3b78391a98c173202129215ab933adfbe\n      mload(0x40)\n      mload(0x40)\n      dup1\n      swap2\n      sub\n      swap1\n      log2\n        /* \"contracts/MutiSignWallet.sol\":2435:2436  1 */\n      0x01\n        /* \"contracts/MutiSignWallet.sol\":2413:2425  transactions */\n      0x03\n        /* \"contracts/MutiSignWallet.sol\":2413:2432  transactions.length */\n      dup1\n      sload\n      swap1\n      pop\n        /* \"contracts/MutiSignWallet.sol\":2413:2436  transactions.length - 1 */\n      tag_89\n      swap2\n      swap1\n      tag_88\n      jump\t// in\n    tag_89:\n        /* \"contracts/MutiSignWallet.sol\":2406:2436  return transactions.length - 1 */\n      swap1\n      pop\n        /* \"contracts/MutiSignWallet.sol\":2118:2444  function submit(address _to, uint256 _value, bytes calldata _data)... */\n      swap5\n      swap4\n      pop\n      pop\n      pop\n      pop\n      jump\t// out\n        /* \"contracts/MutiSignWallet.sol\":168:196  uint256 public requiredSigns */\n    tag_38:\n      sload(0x02)\n      dup2\n      jump\t// out\n        /* \"contracts/MutiSignWallet.sol\":3428:3674  function revoke(uint256 _txId) external onlyOwner txExists(_txId) notExecuted(_txId) {... */\n    tag_43:\n        /* \"contracts/MutiSignWallet.sol\":852:859  isOwner */\n      0x01\n        /* \"contracts/MutiSignWallet.sol\":852:871  isOwner[msg.sender] */\n      0x00\n        /* \"contracts/MutiSignWallet.sol\":860:870  msg.sender */\n      caller\n        /* \"contracts/MutiSignWallet.sol\":852:871  isOwner[msg.sender] */\n      0xffffffffffffffffffffffffffffffffffffffff\n      and\n      0xffffffffffffffffffffffffffffffffffffffff\n      and\n      dup2\n      mstore\n      0x20\n      add\n      swap1\n      dup2\n      mstore\n      0x20\n      add\n      0x00\n      keccak256\n      0x00\n      swap1\n      sload\n      swap1\n      0x0100\n      exp\n      swap1\n      div\n      0xff\n      and\n        /* \"contracts/MutiSignWallet.sol\":844:893  require(isOwner[msg.sender], \"You are not owner\") */\n      tag_91\n      jumpi\n      mload(0x40)\n      0x08c379a000000000000000000000000000000000000000000000000000000000\n      dup2\n      mstore\n      0x04\n      add\n      tag_92\n      swap1\n      tag_82\n      jump\t// in\n    tag_92:\n      mload(0x40)\n      dup1\n      swap2\n      sub\n      swap1\n      revert\n    tag_91:\n        /* \"contracts/MutiSignWallet.sol\":3487:3492  _txId */\n      dup1\n        /* \"contracts/MutiSignWallet.sol\":979:991  transactions */\n      0x03\n        /* \"contracts/MutiSignWallet.sol\":979:998  transactions.length */\n      dup1\n      sload\n      swap1\n      pop\n        /* \"contracts/MutiSignWallet.sol\":971:976  _txId */\n      dup2\n        /* \"contracts/MutiSignWallet.sol\":971:998  _txId < transactions.length */\n      lt\n        /* \"contracts/MutiSignWallet.sol\":963:1019  require(_txId < transactions.length, \"tx doesn't exist\") */\n      tag_94\n      jumpi\n      mload(0x40)\n      0x08c379a000000000000000000000000000000000000000000000000000000000\n      dup2\n      mstore\n      0x04\n      add\n      tag_95\n      swap1\n      tag_96\n      jump\t// in\n    tag_95:\n      mload(0x40)\n      dup1\n      swap2\n      sub\n      swap1\n      revert\n    tag_94:\n        /* \"contracts/MutiSignWallet.sol\":3506:3511  _txId */\n      dup2\n        /* \"contracts/MutiSignWallet.sol\":1234:1246  transactions */\n      0x03\n        /* \"contracts/MutiSignWallet.sol\":1247:1252  _txId */\n      dup2\n        /* \"contracts/MutiSignWallet.sol\":1234:1253  transactions[_txId] */\n      dup2\n      sload\n      dup2\n      lt\n      tag_98\n      jumpi\n      tag_99\n      tag_100\n      jump\t// in\n    tag_99:\n    tag_98:\n      swap1\n      0x00\n      mstore\n      keccak256(0x00, 0x20)\n      swap1\n      0x04\n      mul\n      add\n        /* \"contracts/MutiSignWallet.sol\":1234:1263  transactions[_txId].isExected */\n      0x03\n      add\n      0x00\n      swap1\n      sload\n      swap1\n      0x0100\n      exp\n      swap1\n      div\n      0xff\n      and\n        /* \"contracts/MutiSignWallet.sol\":1233:1263  !transactions[_txId].isExected */\n      iszero\n        /* \"contracts/MutiSignWallet.sol\":1225:1281  require(!transactions[_txId].isExected, \"tx is exected\") */\n      tag_102\n      jumpi\n      mload(0x40)\n      0x08c379a000000000000000000000000000000000000000000000000000000000\n      dup2\n      mstore\n      0x04\n      add\n      tag_103\n      swap1\n      tag_104\n      jump\t// in\n    tag_103:\n      mload(0x40)\n      dup1\n      swap2\n      sub\n      swap1\n      revert\n    tag_102:\n        /* \"contracts/MutiSignWallet.sol\":3532:3540  approved */\n      0x04\n        /* \"contracts/MutiSignWallet.sol\":3532:3547  approved[_txId] */\n      0x00\n        /* \"contracts/MutiSignWallet.sol\":3541:3546  _txId */\n      dup5\n        /* \"contracts/MutiSignWallet.sol\":3532:3547  approved[_txId] */\n      dup2\n      mstore\n      0x20\n      add\n      swap1\n      dup2\n      mstore\n      0x20\n      add\n      0x00\n      keccak256\n        /* \"contracts/MutiSignWallet.sol\":3532:3559  approved[_txId][msg.sender] */\n      0x00\n        /* \"contracts/MutiSignWallet.sol\":3548:3558  msg.sender */\n      caller\n        /* \"contracts/MutiSignWallet.sol\":3532:3559  approved[_txId][msg.sender] */\n      0xffffffffffffffffffffffffffffffffffffffff\n      and\n      0xffffffffffffffffffffffffffffffffffffffff\n      and\n      dup2\n      mstore\n      0x20\n      add\n      swap1\n      dup2\n      mstore\n      0x20\n      add\n      0x00\n      keccak256\n      0x00\n      swap1\n      sload\n      swap1\n      0x0100\n      exp\n      swap1\n      div\n      0xff\n      and\n        /* \"contracts/MutiSignWallet.sol\":3524:3579  require(approved[_txId][msg.sender], \"tx not approved\") */\n      tag_106\n      jumpi\n      mload(0x40)\n      0x08c379a000000000000000000000000000000000000000000000000000000000\n      dup2\n      mstore\n      0x04\n      add\n      tag_107\n      swap1\n      tag_108\n      jump\t// in\n    tag_107:\n      mload(0x40)\n      dup1\n      swap2\n      sub\n      swap1\n      revert\n    tag_106:\n        /* \"contracts/MutiSignWallet.sol\":3620:3625  false */\n      0x00\n        /* \"contracts/MutiSignWallet.sol\":3590:3598  approved */\n      0x04\n        /* \"contracts/MutiSignWallet.sol\":3590:3605  approved[_txId] */\n      0x00\n        /* \"contracts/MutiSignWallet.sol\":3599:3604  _txId */\n      dup6\n        /* \"contracts/MutiSignWallet.sol\":3590:3605  approved[_txId] */\n      dup2\n      mstore\n      0x20\n      add\n      swap1\n      dup2\n      mstore\n      0x20\n      add\n      0x00\n      keccak256\n        /* \"contracts/MutiSignWallet.sol\":3590:3617  approved[_txId][msg.sender] */\n      0x00\n        /* \"contracts/MutiSignWallet.sol\":3606:3616  msg.sender */\n      caller\n        /* \"contracts/MutiSignWallet.sol\":3590:3617  approved[_txId][msg.sender] */\n      0xffffffffffffffffffffffffffffffffffffffff\n      and\n      0xffffffffffffffffffffffffffffffffffffffff\n      and\n      dup2\n      mstore\n      0x20\n      add\n      swap1\n      dup2\n      mstore\n      0x20\n      add\n      0x00\n      keccak256\n      0x00\n        /* \"contracts/MutiSignWallet.sol\":3590:3625  approved[_txId][msg.sender] = false */\n      0x0100\n      exp\n      dup2\n      sload\n      dup2\n      0xff\n      mul\n      not\n      and\n      swap1\n      dup4\n      iszero\n      iszero\n      mul\n      or\n      swap1\n      sstore\n      pop\n        /* \"contracts/MutiSignWallet.sol\":3660:3665  _txId */\n      dup3\n        /* \"contracts/MutiSignWallet.sol\":3648:3658  msg.sender */\n      caller\n        /* \"contracts/MutiSignWallet.sol\":3641:3666  Revoke(msg.sender, _txId) */\n      0xffffffffffffffffffffffffffffffffffffffff\n      and\n      0xec9ab91322523c899ede7830ec9bfc992b5981cdcc27b91162fb23de5791117b\n      mload(0x40)\n      mload(0x40)\n      dup1\n      swap2\n      sub\n      swap1\n      log3\n        /* \"contracts/MutiSignWallet.sol\":1030:1031  _ */\n      pop\n        /* \"contracts/MutiSignWallet.sol\":904:905  _ */\n      pop\n        /* \"contracts/MutiSignWallet.sol\":3428:3674  function revoke(uint256 _txId) external onlyOwner txExists(_txId) notExecuted(_txId) {... */\n      pop\n      jump\t// out\n        /* \"contracts/MutiSignWallet.sol\":122:161  mapping(address => bool) public isOwner */\n    tag_48:\n      mstore(0x20, 0x01)\n      dup1\n      0x00\n      mstore\n      keccak256(0x00, 0x40)\n      0x00\n      swap2\n      pop\n      sload\n      swap1\n      0x0100\n      exp\n      swap1\n      div\n      0xff\n      and\n      dup2\n      jump\t// out\n        /* \"contracts/MutiSignWallet.sol\":367:427  mapping(uint256 => mapping(address => bool)) public approved */\n    tag_55:\n      mstore(0x20, 0x04)\n      dup2\n      0x00\n      mstore\n      mstore(0x20, keccak256(0x00, 0x40))\n      dup1\n      0x00\n      mstore\n      keccak256(0x00, 0x40)\n      0x00\n      swap2\n      pop\n      swap2\n      pop\n      swap1\n      sload\n      swap1\n      0x0100\n      exp\n      swap1\n      div\n      0xff\n      and\n      dup2\n      jump\t// out\n        /* \"contracts/MutiSignWallet.sol\":327:360  Transaction[] public transactions */\n    tag_60:\n      0x03\n      dup2\n      dup2\n      sload\n      dup2\n      lt\n      tag_109\n      jumpi\n      0x00\n      dup1\n      revert\n    tag_109:\n      swap1\n      0x00\n      mstore\n      keccak256(0x00, 0x20)\n      swap1\n      0x04\n      mul\n      add\n      0x00\n      swap2\n      pop\n      swap1\n      pop\n      dup1\n      0x00\n      add\n      0x00\n      swap1\n      sload\n      swap1\n      0x0100\n      exp\n      swap1\n      div\n      0xffffffffffffffffffffffffffffffffffffffff\n      and\n      swap1\n      dup1\n      0x01\n      add\n      sload\n      swap1\n      dup1\n      0x02\n      add\n      dup1\n      sload\n      tag_111\n      swap1\n      tag_112\n      jump\t// in\n    tag_111:\n      dup1\n      0x1f\n      add\n      0x20\n      dup1\n      swap2\n      div\n      mul\n      0x20\n      add\n      mload(0x40)\n      swap1\n      dup2\n      add\n      0x40\n      mstore\n      dup1\n      swap3\n      swap2\n      swap1\n      dup2\n      dup2\n      mstore\n      0x20\n      add\n      dup3\n      dup1\n      sload\n      tag_113\n      swap1\n      tag_112\n      jump\t// in\n    tag_113:\n      dup1\n      iszero\n      tag_114\n      jumpi\n      dup1\n      0x1f\n      lt\n      tag_115\n      jumpi\n      0x0100\n      dup1\n      dup4\n      sload\n      div\n      mul\n      dup4\n      mstore\n      swap2\n      0x20\n      add\n      swap2\n      jump(tag_114)\n    tag_115:\n      dup3\n      add\n      swap2\n      swap1\n      0x00\n      mstore\n      keccak256(0x00, 0x20)\n      swap1\n    tag_116:\n      dup2\n      sload\n      dup2\n      mstore\n      swap1\n      0x01\n      add\n      swap1\n      0x20\n      add\n      dup1\n      dup4\n      gt\n      tag_116\n      jumpi\n      dup3\n      swap1\n      sub\n      0x1f\n      and\n      dup3\n      add\n      swap2\n    tag_114:\n      pop\n      pop\n      pop\n      pop\n      pop\n      swap1\n      dup1\n      0x03\n      add\n      0x00\n      swap1\n      sload\n      swap1\n      0x0100\n      exp\n      swap1\n      div\n      0xff\n      and\n      swap1\n      pop\n      dup5\n      jump\t// out\n        /* \"contracts/MutiSignWallet.sol\":2452:2658  function approve(uint256 _txId) external onlyOwner txExists(_txId) notApproved(_txId) ... */\n    tag_66:\n        /* \"contracts/MutiSignWallet.sol\":852:859  isOwner */\n      0x01\n        /* \"contracts/MutiSignWallet.sol\":852:871  isOwner[msg.sender] */\n      0x00\n        /* \"contracts/MutiSignWallet.sol\":860:870  msg.sender */\n      caller\n        /* \"contracts/MutiSignWallet.sol\":852:871  isOwner[msg.sender] */\n      0xffffffffffffffffffffffffffffffffffffffff\n      and\n      0xffffffffffffffffffffffffffffffffffffffff\n      and\n      dup2\n      mstore\n      0x20\n      add\n      swap1\n      dup2\n      mstore\n      0x20\n      add\n      0x00\n      keccak256\n      0x00\n      swap1\n      sload\n      swap1\n      0x0100\n      exp\n      swap1\n      div\n      0xff\n      and\n        /* \"contracts/MutiSignWallet.sol\":844:893  require(isOwner[msg.sender], \"You are not owner\") */\n      tag_118\n      jumpi\n      mload(0x40)\n      0x08c379a000000000000000000000000000000000000000000000000000000000\n      dup2\n      mstore\n      0x04\n      add\n      tag_119\n      swap1\n      tag_82\n      jump\t// in\n    tag_119:\n      mload(0x40)\n      dup1\n      swap2\n      sub\n      swap1\n      revert\n    tag_118:\n        /* \"contracts/MutiSignWallet.sol\":2512:2517  _txId */\n      dup1\n        /* \"contracts/MutiSignWallet.sol\":979:991  transactions */\n      0x03\n        /* \"contracts/MutiSignWallet.sol\":979:998  transactions.length */\n      dup1\n      sload\n      swap1\n      pop\n        /* \"contracts/MutiSignWallet.sol\":971:976  _txId */\n      dup2\n        /* \"contracts/MutiSignWallet.sol\":971:998  _txId < transactions.length */\n      lt\n        /* \"contracts/MutiSignWallet.sol\":963:1019  require(_txId < transactions.length, \"tx doesn't exist\") */\n      tag_121\n      jumpi\n      mload(0x40)\n      0x08c379a000000000000000000000000000000000000000000000000000000000\n      dup2\n      mstore\n      0x04\n      add\n      tag_122\n      swap1\n      tag_96\n      jump\t// in\n    tag_122:\n      mload(0x40)\n      dup1\n      swap2\n      sub\n      swap1\n      revert\n    tag_121:\n        /* \"contracts/MutiSignWallet.sol\":2531:2536  _txId */\n      dup2\n        /* \"contracts/MutiSignWallet.sol\":1101:1109  approved */\n      0x04\n        /* \"contracts/MutiSignWallet.sol\":1101:1116  approved[_txId] */\n      0x00\n        /* \"contracts/MutiSignWallet.sol\":1110:1115  _txId */\n      dup3\n        /* \"contracts/MutiSignWallet.sol\":1101:1116  approved[_txId] */\n      dup2\n      mstore\n      0x20\n      add\n      swap1\n      dup2\n      mstore\n      0x20\n      add\n      0x00\n      keccak256\n        /* \"contracts/MutiSignWallet.sol\":1101:1128  approved[_txId][msg.sender] */\n      0x00\n        /* \"contracts/MutiSignWallet.sol\":1117:1127  msg.sender */\n      caller\n        /* \"contracts/MutiSignWallet.sol\":1101:1128  approved[_txId][msg.sender] */\n      0xffffffffffffffffffffffffffffffffffffffff\n      and\n      0xffffffffffffffffffffffffffffffffffffffff\n      and\n      dup2\n      mstore\n      0x20\n      add\n      swap1\n      dup2\n      mstore\n      0x20\n      add\n      0x00\n      keccak256\n      0x00\n      swap1\n      sload\n      swap1\n      0x0100\n      exp\n      swap1\n      div\n      0xff\n      and\n        /* \"contracts/MutiSignWallet.sol\":1100:1128  !approved[_txId][msg.sender] */\n      iszero\n        /* \"contracts/MutiSignWallet.sol\":1092:1152  require(!approved[_txId][msg.sender], \"tx already approved\") */\n      tag_124\n      jumpi\n      mload(0x40)\n      0x08c379a000000000000000000000000000000000000000000000000000000000\n      dup2\n      mstore\n      0x04\n      add\n      tag_125\n      swap1\n      tag_126\n      jump\t// in\n    tag_125:\n      mload(0x40)\n      dup1\n      swap2\n      sub\n      swap1\n      revert\n    tag_124:\n        /* \"contracts/MutiSignWallet.sol\":2556:2561  _txId */\n      dup3\n        /* \"contracts/MutiSignWallet.sol\":1234:1246  transactions */\n      0x03\n        /* \"contracts/MutiSignWallet.sol\":1247:1252  _txId */\n      dup2\n        /* \"contracts/MutiSignWallet.sol\":1234:1253  transactions[_txId] */\n      dup2\n      sload\n      dup2\n      lt\n      tag_128\n      jumpi\n      tag_129\n      tag_100\n      jump\t// in\n    tag_129:\n    tag_128:\n      swap1\n      0x00\n      mstore\n      keccak256(0x00, 0x20)\n      swap1\n      0x04\n      mul\n      add\n        /* \"contracts/MutiSignWallet.sol\":1234:1263  transactions[_txId].isExected */\n      0x03\n      add\n      0x00\n      swap1\n      sload\n      swap1\n      0x0100\n      exp\n      swap1\n      div\n      0xff\n      and\n        /* \"contracts/MutiSignWallet.sol\":1233:1263  !transactions[_txId].isExected */\n      iszero\n        /* \"contracts/MutiSignWallet.sol\":1225:1281  require(!transactions[_txId].isExected, \"tx is exected\") */\n      tag_131\n      jumpi\n      mload(0x40)\n      0x08c379a000000000000000000000000000000000000000000000000000000000\n      dup2\n      mstore\n      0x04\n      add\n      tag_132\n      swap1\n      tag_104\n      jump\t// in\n    tag_132:\n      mload(0x40)\n      dup1\n      swap2\n      sub\n      swap1\n      revert\n    tag_131:\n        /* \"contracts/MutiSignWallet.sol\":2604:2608  true */\n      0x01\n        /* \"contracts/MutiSignWallet.sol\":2574:2582  approved */\n      0x04\n        /* \"contracts/MutiSignWallet.sol\":2574:2589  approved[_txId] */\n      0x00\n        /* \"contracts/MutiSignWallet.sol\":2583:2588  _txId */\n      dup7\n        /* \"contracts/MutiSignWallet.sol\":2574:2589  approved[_txId] */\n      dup2\n      mstore\n      0x20\n      add\n      swap1\n      dup2\n      mstore\n      0x20\n      add\n      0x00\n      keccak256\n        /* \"contracts/MutiSignWallet.sol\":2574:2601  approved[_txId][msg.sender] */\n      0x00\n        /* \"contracts/MutiSignWallet.sol\":2590:2600  msg.sender */\n      caller\n        /* \"contracts/MutiSignWallet.sol\":2574:2601  approved[_txId][msg.sender] */\n      0xffffffffffffffffffffffffffffffffffffffff\n      and\n      0xffffffffffffffffffffffffffffffffffffffff\n      and\n      dup2\n      mstore\n      0x20\n      add\n      swap1\n      dup2\n      mstore\n      0x20\n      add\n      0x00\n      keccak256\n      0x00\n        /* \"contracts/MutiSignWallet.sol\":2574:2608  approved[_txId][msg.sender] = true */\n      0x0100\n      exp\n      dup2\n      sload\n      dup2\n      0xff\n      mul\n      not\n      and\n      swap1\n      dup4\n      iszero\n      iszero\n      mul\n      or\n      swap1\n      sstore\n      pop\n        /* \"contracts/MutiSignWallet.sol\":2644:2649  _txId */\n      dup4\n        /* \"contracts/MutiSignWallet.sol\":2632:2642  msg.sender */\n      caller\n        /* \"contracts/MutiSignWallet.sol\":2624:2650  Approve(msg.sender, _txId) */\n      0xffffffffffffffffffffffffffffffffffffffff\n      and\n      0x90ec57f18fa7b15c6b8d5e4d1deb90796c74b2ff23d4d0cecad0cb42a96b3128\n      mload(0x40)\n      mload(0x40)\n      dup1\n      swap2\n      sub\n      swap1\n      log3\n        /* \"contracts/MutiSignWallet.sol\":1163:1164  _ */\n      pop\n        /* \"contracts/MutiSignWallet.sol\":1030:1031  _ */\n      pop\n        /* \"contracts/MutiSignWallet.sol\":904:905  _ */\n      pop\n        /* \"contracts/MutiSignWallet.sol\":2452:2658  function approve(uint256 _txId) external onlyOwner txExists(_txId) notApproved(_txId) ... */\n      pop\n      jump\t// out\n        /* \"contracts/MutiSignWallet.sol\":3140:3420  function getApprovalCount(uint256 _txId) public view returns(uint256 count) {... */\n    tag_70:\n        /* \"contracts/MutiSignWallet.sol\":3201:3214  uint256 count */\n      0x00\n        /* \"contracts/MutiSignWallet.sol\":3232:3245  uint256 index */\n      dup1\n        /* \"contracts/MutiSignWallet.sol\":3248:3249  0 */\n      0x00\n        /* \"contracts/MutiSignWallet.sol\":3232:3249  uint256 index = 0 */\n      swap1\n      pop\n        /* \"contracts/MutiSignWallet.sol\":3227:3390  for (uint256 index = 0; index < owners.length; index++) {... */\n    tag_135:\n        /* \"contracts/MutiSignWallet.sol\":3259:3265  owners */\n      0x00\n        /* \"contracts/MutiSignWallet.sol\":3259:3272  owners.length */\n      dup1\n      sload\n      swap1\n      pop\n        /* \"contracts/MutiSignWallet.sol\":3251:3256  index */\n      dup2\n        /* \"contracts/MutiSignWallet.sol\":3251:3272  index < owners.length */\n      lt\n        /* \"contracts/MutiSignWallet.sol\":3227:3390  for (uint256 index = 0; index < owners.length; index++) {... */\n      iszero\n      tag_136\n      jumpi\n        /* \"contracts/MutiSignWallet.sol\":3302:3310  approved */\n      0x04\n        /* \"contracts/MutiSignWallet.sol\":3302:3317  approved[_txId] */\n      0x00\n        /* \"contracts/MutiSignWallet.sol\":3311:3316  _txId */\n      dup5\n        /* \"contracts/MutiSignWallet.sol\":3302:3317  approved[_txId] */\n      dup2\n      mstore\n      0x20\n      add\n      swap1\n      dup2\n      mstore\n      0x20\n      add\n      0x00\n      keccak256\n        /* \"contracts/MutiSignWallet.sol\":3302:3332  approved[_txId][owners[index]] */\n      0x00\n        /* \"contracts/MutiSignWallet.sol\":3318:3324  owners */\n      dup1\n        /* \"contracts/MutiSignWallet.sol\":3325:3330  index */\n      dup4\n        /* \"contracts/MutiSignWallet.sol\":3318:3331  owners[index] */\n      dup2\n      sload\n      dup2\n      lt\n      tag_138\n      jumpi\n      tag_139\n      tag_100\n      jump\t// in\n    tag_139:\n    tag_138:\n      swap1\n      0x00\n      mstore\n      keccak256(0x00, 0x20)\n      add\n      0x00\n      swap1\n      sload\n      swap1\n      0x0100\n      exp\n      swap1\n      div\n      0xffffffffffffffffffffffffffffffffffffffff\n      and\n        /* \"contracts/MutiSignWallet.sol\":3302:3332  approved[_txId][owners[index]] */\n      0xffffffffffffffffffffffffffffffffffffffff\n      and\n      0xffffffffffffffffffffffffffffffffffffffff\n      and\n      dup2\n      mstore\n      0x20\n      add\n      swap1\n      dup2\n      mstore\n      0x20\n      add\n      0x00\n      keccak256\n      0x00\n      swap1\n      sload\n      swap1\n      0x0100\n      exp\n      swap1\n      div\n      0xff\n      and\n        /* \"contracts/MutiSignWallet.sol\":3298:3379  if (approved[_txId][owners[index]]) {... */\n      iszero\n      tag_141\n      jumpi\n        /* \"contracts/MutiSignWallet.sol\":3362:3363  1 */\n      0x01\n        /* \"contracts/MutiSignWallet.sol\":3353:3363  count += 1 */\n      dup3\n      tag_142\n      swap2\n      swap1\n      tag_143\n      jump\t// in\n    tag_142:\n      swap2\n      pop\n        /* \"contracts/MutiSignWallet.sol\":3298:3379  if (approved[_txId][owners[index]]) {... */\n    tag_141:\n        /* \"contracts/MutiSignWallet.sol\":3274:3281  index++ */\n      dup1\n      dup1\n      0x01\n      add\n      swap2\n      pop\n      pop\n        /* \"contracts/MutiSignWallet.sol\":3227:3390  for (uint256 index = 0; index < owners.length; index++) {... */\n      jump(tag_135)\n    tag_136:\n      pop\n        /* \"contracts/MutiSignWallet.sol\":3140:3420  function getApprovalCount(uint256 _txId) public view returns(uint256 count) {... */\n      swap2\n      swap1\n      pop\n      jump\t// out\n        /* \"contracts/MutiSignWallet.sol\":2666:3132  function execute(uint256 _txId) external onlyOwner txExists(_txId) notExecuted(_txId) {... */\n    tag_75:\n        /* \"contracts/MutiSignWallet.sol\":852:859  isOwner */\n      0x01\n        /* \"contracts/MutiSignWallet.sol\":852:871  isOwner[msg.sender] */\n      0x00\n        /* \"contracts/MutiSignWallet.sol\":860:870  msg.sender */\n      caller\n        /* \"contracts/MutiSignWallet.sol\":852:871  isOwner[msg.sender] */\n      0xffffffffffffffffffffffffffffffffffffffff\n      and\n      0xffffffffffffffffffffffffffffffffffffffff\n      and\n      dup2\n      mstore\n      0x20\n      add\n      swap1\n      dup2\n      mstore\n      0x20\n      add\n      0x00\n      keccak256\n      0x00\n      swap1\n      sload\n      swap1\n      0x0100\n      exp\n      swap1\n      div\n      0xff\n      and\n        /* \"contracts/MutiSignWallet.sol\":844:893  require(isOwner[msg.sender], \"You are not owner\") */\n      tag_145\n      jumpi\n      mload(0x40)\n      0x08c379a000000000000000000000000000000000000000000000000000000000\n      dup2\n      mstore\n      0x04\n      add\n      tag_146\n      swap1\n      tag_82\n      jump\t// in\n    tag_146:\n      mload(0x40)\n      dup1\n      swap2\n      sub\n      swap1\n      revert\n    tag_145:\n        /* \"contracts/MutiSignWallet.sol\":2726:2731  _txId */\n      dup1\n        /* \"contracts/MutiSignWallet.sol\":979:991  transactions */\n      0x03\n        /* \"contracts/MutiSignWallet.sol\":979:998  transactions.length */\n      dup1\n      sload\n      swap1\n      pop\n        /* \"contracts/MutiSignWallet.sol\":971:976  _txId */\n      dup2\n        /* \"contracts/MutiSignWallet.sol\":971:998  _txId < transactions.length */\n      lt\n        /* \"contracts/MutiSignWallet.sol\":963:1019  require(_txId < transactions.length, \"tx doesn't exist\") */\n      tag_148\n      jumpi\n      mload(0x40)\n      0x08c379a000000000000000000000000000000000000000000000000000000000\n      dup2\n      mstore\n      0x04\n      add\n      tag_149\n      swap1\n      tag_96\n      jump\t// in\n    tag_149:\n      mload(0x40)\n      dup1\n      swap2\n      sub\n      swap1\n      revert\n    tag_148:\n        /* \"contracts/MutiSignWallet.sol\":2745:2750  _txId */\n      dup2\n        /* \"contracts/MutiSignWallet.sol\":1234:1246  transactions */\n      0x03\n        /* \"contracts/MutiSignWallet.sol\":1247:1252  _txId */\n      dup2\n        /* \"contracts/MutiSignWallet.sol\":1234:1253  transactions[_txId] */\n      dup2\n      sload\n      dup2\n      lt\n      tag_151\n      jumpi\n      tag_152\n      tag_100\n      jump\t// in\n    tag_152:\n    tag_151:\n      swap1\n      0x00\n      mstore\n      keccak256(0x00, 0x20)\n      swap1\n      0x04\n      mul\n      add\n        /* \"contracts/MutiSignWallet.sol\":1234:1263  transactions[_txId].isExected */\n      0x03\n      add\n      0x00\n      swap1\n      sload\n      swap1\n      0x0100\n      exp\n      swap1\n      div\n      0xff\n      and\n        /* \"contracts/MutiSignWallet.sol\":1233:1263  !transactions[_txId].isExected */\n      iszero\n        /* \"contracts/MutiSignWallet.sol\":1225:1281  require(!transactions[_txId].isExected, \"tx is exected\") */\n      tag_154\n      jumpi\n      mload(0x40)\n      0x08c379a000000000000000000000000000000000000000000000000000000000\n      dup2\n      mstore\n      0x04\n      add\n      tag_155\n      swap1\n      tag_104\n      jump\t// in\n    tag_155:\n      mload(0x40)\n      dup1\n      swap2\n      sub\n      swap1\n      revert\n    tag_154:\n        /* \"contracts/MutiSignWallet.sol\":2798:2811  requiredSigns */\n      sload(0x02)\n        /* \"contracts/MutiSignWallet.sol\":2771:2794  getApprovalCount(_txId) */\n      tag_157\n        /* \"contracts/MutiSignWallet.sol\":2788:2793  _txId */\n      dup5\n        /* \"contracts/MutiSignWallet.sol\":2771:2787  getApprovalCount */\n      tag_70\n        /* \"contracts/MutiSignWallet.sol\":2771:2794  getApprovalCount(_txId) */\n      jump\t// in\n    tag_157:\n        /* \"contracts/MutiSignWallet.sol\":2771:2811  getApprovalCount(_txId) >= requiredSigns */\n      lt\n      iszero\n        /* \"contracts/MutiSignWallet.sol\":2763:2852  require(getApprovalCount(_txId) >= requiredSigns, \"Approval count < required signatures\") */\n      tag_158\n      jumpi\n      mload(0x40)\n      0x08c379a000000000000000000000000000000000000000000000000000000000\n      dup2\n      mstore\n      0x04\n      add\n      tag_159\n      swap1\n      tag_160\n      jump\t// in\n    tag_159:\n      mload(0x40)\n      dup1\n      swap2\n      sub\n      swap1\n      revert\n    tag_158:\n        /* \"contracts/MutiSignWallet.sol\":2863:2894  Transaction storage transaction */\n      0x00\n        /* \"contracts/MutiSignWallet.sol\":2897:2909  transactions */\n      0x03\n        /* \"contracts/MutiSignWallet.sol\":2910:2915  _txId */\n      dup5\n        /* \"contracts/MutiSignWallet.sol\":2897:2916  transactions[_txId] */\n      dup2\n      sload\n      dup2\n      lt\n      tag_161\n      jumpi\n      tag_162\n      tag_100\n      jump\t// in\n    tag_162:\n    tag_161:\n      swap1\n      0x00\n      mstore\n      keccak256(0x00, 0x20)\n      swap1\n      0x04\n      mul\n      add\n        /* \"contracts/MutiSignWallet.sol\":2863:2916  Transaction storage transaction = transactions[_txId] */\n      swap1\n      pop\n        /* \"contracts/MutiSignWallet.sol\":2951:2955  true */\n      0x01\n        /* \"contracts/MutiSignWallet.sol\":2927:2938  transaction */\n      dup2\n        /* \"contracts/MutiSignWallet.sol\":2927:2948  transaction.isExected */\n      0x03\n      add\n      0x00\n        /* \"contracts/MutiSignWallet.sol\":2927:2955  transaction.isExected = true */\n      0x0100\n      exp\n      dup2\n      sload\n      dup2\n      0xff\n      mul\n      not\n      and\n      swap1\n      dup4\n      iszero\n      iszero\n      mul\n      or\n      swap1\n      sstore\n      pop\n        /* \"contracts/MutiSignWallet.sol\":2967:2978  bool sucess */\n      0x00\n        /* \"contracts/MutiSignWallet.sol\":2984:2995  transaction */\n      dup2\n        /* \"contracts/MutiSignWallet.sol\":2984:2998  transaction.to */\n      0x00\n      add\n      0x00\n      swap1\n      sload\n      swap1\n      0x0100\n      exp\n      swap1\n      div\n      0xffffffffffffffffffffffffffffffffffffffff\n      and\n        /* \"contracts/MutiSignWallet.sol\":2984:3003  transaction.to.call */\n      0xffffffffffffffffffffffffffffffffffffffff\n      and\n        /* \"contracts/MutiSignWallet.sol\":3011:3022  transaction */\n      dup3\n        /* \"contracts/MutiSignWallet.sol\":3011:3028  transaction.value */\n      0x01\n      add\n      sload\n        /* \"contracts/MutiSignWallet.sol\":3030:3041  transaction */\n      dup4\n        /* \"contracts/MutiSignWallet.sol\":3030:3046  transaction.data */\n      0x02\n      add\n        /* \"contracts/MutiSignWallet.sol\":2984:3047  transaction.to.call{value: transaction.value}(transaction.data) */\n      mload(0x40)\n      tag_164\n      swap2\n      swap1\n      tag_165\n      jump\t// in\n    tag_164:\n      0x00\n      mload(0x40)\n      dup1\n      dup4\n      sub\n      dup2\n      dup6\n      dup8\n      gas\n      call\n      swap3\n      pop\n      pop\n      pop\n      returndatasize\n      dup1\n      0x00\n      dup2\n      eq\n      tag_168\n      jumpi\n      mload(0x40)\n      swap2\n      pop\n      and(add(returndatasize, 0x3f), not(0x1f))\n      dup3\n      add\n      0x40\n      mstore\n      returndatasize\n      dup3\n      mstore\n      returndatasize\n      0x00\n      0x20\n      dup5\n      add\n      returndatacopy\n      jump(tag_167)\n    tag_168:\n      0x60\n      swap2\n      pop\n    tag_167:\n      pop\n        /* \"contracts/MutiSignWallet.sol\":2966:3047  (bool sucess, ) = transaction.to.call{value: transaction.value}(transaction.data) */\n      pop\n      swap1\n      pop\n        /* \"contracts/MutiSignWallet.sol\":3066:3072  sucess */\n      dup1\n        /* \"contracts/MutiSignWallet.sol\":3058:3094  require(sucess, \"tx execute failed\") */\n      tag_169\n      jumpi\n      mload(0x40)\n      0x08c379a000000000000000000000000000000000000000000000000000000000\n      dup2\n      mstore\n      0x04\n      add\n      tag_170\n      swap1\n      tag_171\n      jump\t// in\n    tag_170:\n      mload(0x40)\n      dup1\n      swap2\n      sub\n      swap1\n      revert\n    tag_169:\n        /* \"contracts/MutiSignWallet.sol\":3118:3123  _txId */\n      dup5\n        /* \"contracts/MutiSignWallet.sol\":3110:3124  Execute(_txId) */\n      0xddb556f1d2c1ec821e910b019d3685b229db152a0ecd517ca7e24b8bd7139289\n      mload(0x40)\n      mload(0x40)\n      dup1\n      swap2\n      sub\n      swap1\n      log2\n        /* \"contracts/MutiSignWallet.sol\":2752:3132  {... */\n      pop\n      pop\n        /* \"contracts/MutiSignWallet.sol\":1030:1031  _ */\n      pop\n        /* \"contracts/MutiSignWallet.sol\":904:905  _ */\n      pop\n        /* \"contracts/MutiSignWallet.sol\":2666:3132  function execute(uint256 _txId) external onlyOwner txExists(_txId) notExecuted(_txId) {... */\n      pop\n      jump\t// out\n        /* \"#utility.yul\":7:84   */\n    tag_172:\n        /* \"#utility.yul\":44:51   */\n      0x00\n        /* \"#utility.yul\":73:78   */\n      dup2\n        /* \"#utility.yul\":62:78   */\n      swap1\n      pop\n        /* \"#utility.yul\":7:84   */\n      swap2\n      swap1\n      pop\n      jump\t// out\n        /* \"#utility.yul\":90:208   */\n    tag_173:\n        /* \"#utility.yul\":177:201   */\n      tag_233\n        /* \"#utility.yul\":195:200   */\n      dup2\n        /* \"#utility.yul\":177:201   */\n      tag_172\n      jump\t// in\n    tag_233:\n        /* \"#utility.yul\":172:175   */\n      dup3\n        /* \"#utility.yul\":165:202   */\n      mstore\n        /* \"#utility.yul\":90:208   */\n      pop\n      pop\n      jump\t// out\n        /* \"#utility.yul\":214:436   */\n    tag_18:\n        /* \"#utility.yul\":307:311   */\n      0x00\n        /* \"#utility.yul\":345:347   */\n      0x20\n        /* \"#utility.yul\":334:343   */\n      dup3\n        /* \"#utility.yul\":330:348   */\n      add\n        /* \"#utility.yul\":322:348   */\n      swap1\n      pop\n        /* \"#utility.yul\":358:429   */\n      tag_235\n        /* \"#utility.yul\":426:427   */\n      0x00\n        /* \"#utility.yul\":415:424   */\n      dup4\n        /* \"#utility.yul\":411:428   */\n      add\n        /* \"#utility.yul\":402:408   */\n      dup5\n        /* \"#utility.yul\":358:429   */\n      tag_173\n      jump\t// in\n    tag_235:\n        /* \"#utility.yul\":214:436   */\n      swap3\n      swap2\n      pop\n      pop\n      jump\t// out\n        /* \"#utility.yul\":523:640   */\n    tag_175:\n        /* \"#utility.yul\":632:633   */\n      0x00\n        /* \"#utility.yul\":629:630   */\n      dup1\n        /* \"#utility.yul\":622:634   */\n      revert\n        /* \"#utility.yul\":646:763   */\n    tag_176:\n        /* \"#utility.yul\":755:756   */\n      0x00\n        /* \"#utility.yul\":752:753   */\n      dup1\n        /* \"#utility.yul\":745:757   */\n      revert\n        /* \"#utility.yul\":769:891   */\n    tag_177:\n        /* \"#utility.yul\":842:866   */\n      tag_240\n        /* \"#utility.yul\":860:865   */\n      dup2\n        /* \"#utility.yul\":842:866   */\n      tag_172\n      jump\t// in\n    tag_240:\n        /* \"#utility.yul\":835:840   */\n      dup2\n        /* \"#utility.yul\":832:867   */\n      eq\n        /* \"#utility.yul\":822:885   */\n      tag_241\n      jumpi\n        /* \"#utility.yul\":881:882   */\n      0x00\n        /* \"#utility.yul\":878:879   */\n      dup1\n        /* \"#utility.yul\":871:883   */\n      revert\n        /* \"#utility.yul\":822:885   */\n    tag_241:\n        /* \"#utility.yul\":769:891   */\n      pop\n      jump\t// out\n        /* \"#utility.yul\":897:1036   */\n    tag_178:\n        /* \"#utility.yul\":943:948   */\n      0x00\n        /* \"#utility.yul\":981:987   */\n      dup2\n        /* \"#utility.yul\":968:988   */\n      calldataload\n        /* \"#utility.yul\":959:988   */\n      swap1\n      pop\n        /* \"#utility.yul\":997:1030   */\n      tag_243\n        /* \"#utility.yul\":1024:1029   */\n      dup2\n        /* \"#utility.yul\":997:1030   */\n      tag_177\n      jump\t// in\n    tag_243:\n        /* \"#utility.yul\":897:1036   */\n      swap3\n      swap2\n      pop\n      pop\n      jump\t// out\n        /* \"#utility.yul\":1042:1371   */\n    tag_22:\n        /* \"#utility.yul\":1101:1107   */\n      0x00\n        /* \"#utility.yul\":1150:1152   */\n      0x20\n        /* \"#utility.yul\":1138:1147   */\n      dup3\n        /* \"#utility.yul\":1129:1136   */\n      dup5\n        /* \"#utility.yul\":1125:1148   */\n      sub\n        /* \"#utility.yul\":1121:1153   */\n      slt\n        /* \"#utility.yul\":1118:1237   */\n      iszero\n      tag_245\n      jumpi\n        /* \"#utility.yul\":1156:1235   */\n      tag_246\n      tag_175\n      jump\t// in\n    tag_246:\n        /* \"#utility.yul\":1118:1237   */\n    tag_245:\n        /* \"#utility.yul\":1276:1277   */\n      0x00\n        /* \"#utility.yul\":1301:1354   */\n      tag_247\n        /* \"#utility.yul\":1346:1353   */\n      dup5\n        /* \"#utility.yul\":1337:1343   */\n      dup3\n        /* \"#utility.yul\":1326:1335   */\n      dup6\n        /* \"#utility.yul\":1322:1344   */\n      add\n        /* \"#utility.yul\":1301:1354   */\n      tag_178\n      jump\t// in\n    tag_247:\n        /* \"#utility.yul\":1291:1354   */\n      swap2\n      pop\n        /* \"#utility.yul\":1247:1364   */\n      pop\n        /* \"#utility.yul\":1042:1371   */\n      swap3\n      swap2\n      pop\n      pop\n      jump\t// out\n        /* \"#utility.yul\":1377:1503   */\n    tag_179:\n        /* \"#utility.yul\":1414:1421   */\n      0x00\n        /* \"#utility.yul\":1454:1496   */\n      0xffffffffffffffffffffffffffffffffffffffff\n        /* \"#utility.yul\":1447:1452   */\n      dup3\n        /* \"#utility.yul\":1443:1497   */\n      and\n        /* \"#utility.yul\":1432:1497   */\n      swap1\n      pop\n        /* \"#utility.yul\":1377:1503   */\n      swap2\n      swap1\n      pop\n      jump\t// out\n        /* \"#utility.yul\":1509:1605   */\n    tag_180:\n        /* \"#utility.yul\":1546:1553   */\n      0x00\n        /* \"#utility.yul\":1575:1599   */\n      tag_250\n        /* \"#utility.yul\":1593:1598   */\n      dup3\n        /* \"#utility.yul\":1575:1599   */\n      tag_179\n      jump\t// in\n    tag_250:\n        /* \"#utility.yul\":1564:1599   */\n      swap1\n      pop\n        /* \"#utility.yul\":1509:1605   */\n      swap2\n      swap1\n      pop\n      jump\t// out\n        /* \"#utility.yul\":1611:1729   */\n    tag_181:\n        /* \"#utility.yul\":1698:1722   */\n      tag_252\n        /* \"#utility.yul\":1716:1721   */\n      dup2\n        /* \"#utility.yul\":1698:1722   */\n      tag_180\n      jump\t// in\n    tag_252:\n        /* \"#utility.yul\":1693:1696   */\n      dup3\n        /* \"#utility.yul\":1686:1723   */\n      mstore\n        /* \"#utility.yul\":1611:1729   */\n      pop\n      pop\n      jump\t// out\n        /* \"#utility.yul\":1735:1957   */\n    tag_25:\n        /* \"#utility.yul\":1828:1832   */\n      0x00\n        /* \"#utility.yul\":1866:1868   */\n      0x20\n        /* \"#utility.yul\":1855:1864   */\n      dup3\n        /* \"#utility.yul\":1851:1869   */\n      add\n        /* \"#utility.yul\":1843:1869   */\n      swap1\n      pop\n        /* \"#utility.yul\":1879:1950   */\n      tag_254\n        /* \"#utility.yul\":1947:1948   */\n      0x00\n        /* \"#utility.yul\":1936:1945   */\n      dup4\n        /* \"#utility.yul\":1932:1949   */\n      add\n        /* \"#utility.yul\":1923:1929   */\n      dup5\n        /* \"#utility.yul\":1879:1950   */\n      tag_181\n      jump\t// in\n    tag_254:\n        /* \"#utility.yul\":1735:1957   */\n      swap3\n      swap2\n      pop\n      pop\n      jump\t// out\n        /* \"#utility.yul\":1963:2085   */\n    tag_182:\n        /* \"#utility.yul\":2036:2060   */\n      tag_256\n        /* \"#utility.yul\":2054:2059   */\n      dup2\n        /* \"#utility.yul\":2036:2060   */\n      tag_180\n      jump\t// in\n    tag_256:\n        /* \"#utility.yul\":2029:2034   */\n      dup2\n        /* \"#utility.yul\":2026:2061   */\n      eq\n        /* \"#utility.yul\":2016:2079   */\n      tag_257\n      jumpi\n        /* \"#utility.yul\":2075:2076   */\n      0x00\n        /* \"#utility.yul\":2072:2073   */\n      dup1\n        /* \"#utility.yul\":2065:2077   */\n      revert\n        /* \"#utility.yul\":2016:2079   */\n    tag_257:\n        /* \"#utility.yul\":1963:2085   */\n      pop\n      jump\t// out\n        /* \"#utility.yul\":2091:2230   */\n    tag_183:\n        /* \"#utility.yul\":2137:2142   */\n      0x00\n        /* \"#utility.yul\":2175:2181   */\n      dup2\n        /* \"#utility.yul\":2162:2182   */\n      calldataload\n        /* \"#utility.yul\":2153:2182   */\n      swap1\n      pop\n        /* \"#utility.yul\":2191:2224   */\n      tag_259\n        /* \"#utility.yul\":2218:2223   */\n      dup2\n        /* \"#utility.yul\":2191:2224   */\n      tag_182\n      jump\t// in\n    tag_259:\n        /* \"#utility.yul\":2091:2230   */\n      swap3\n      swap2\n      pop\n      pop\n      jump\t// out\n        /* \"#utility.yul\":2236:2353   */\n    tag_184:\n        /* \"#utility.yul\":2345:2346   */\n      0x00\n        /* \"#utility.yul\":2342:2343   */\n      dup1\n        /* \"#utility.yul\":2335:2347   */\n      revert\n        /* \"#utility.yul\":2359:2476   */\n    tag_185:\n        /* \"#utility.yul\":2468:2469   */\n      0x00\n        /* \"#utility.yul\":2465:2466   */\n      dup1\n        /* \"#utility.yul\":2458:2470   */\n      revert\n        /* \"#utility.yul\":2482:2599   */\n    tag_186:\n        /* \"#utility.yul\":2591:2592   */\n      0x00\n        /* \"#utility.yul\":2588:2589   */\n      dup1\n        /* \"#utility.yul\":2581:2593   */\n      revert\n        /* \"#utility.yul\":2618:3170   */\n    tag_187:\n        /* \"#utility.yul\":2675:2683   */\n      0x00\n        /* \"#utility.yul\":2685:2691   */\n      dup1\n        /* \"#utility.yul\":2735:2738   */\n      dup4\n        /* \"#utility.yul\":2728:2732   */\n      0x1f\n        /* \"#utility.yul\":2720:2726   */\n      dup5\n        /* \"#utility.yul\":2716:2733   */\n      add\n        /* \"#utility.yul\":2712:2739   */\n      slt\n        /* \"#utility.yul\":2702:2824   */\n      tag_264\n      jumpi\n        /* \"#utility.yul\":2743:2822   */\n      tag_265\n      tag_184\n      jump\t// in\n    tag_265:\n        /* \"#utility.yul\":2702:2824   */\n    tag_264:\n        /* \"#utility.yul\":2856:2862   */\n      dup3\n        /* \"#utility.yul\":2843:2863   */\n      calldataload\n        /* \"#utility.yul\":2833:2863   */\n      swap1\n      pop\n        /* \"#utility.yul\":2886:2904   */\n      0xffffffffffffffff\n        /* \"#utility.yul\":2878:2884   */\n      dup2\n        /* \"#utility.yul\":2875:2905   */\n      gt\n        /* \"#utility.yul\":2872:2989   */\n      iszero\n      tag_266\n      jumpi\n        /* \"#utility.yul\":2908:2987   */\n      tag_267\n      tag_185\n      jump\t// in\n    tag_267:\n        /* \"#utility.yul\":2872:2989   */\n    tag_266:\n        /* \"#utility.yul\":3022:3026   */\n      0x20\n        /* \"#utility.yul\":3014:3020   */\n      dup4\n        /* \"#utility.yul\":3010:3027   */\n      add\n        /* \"#utility.yul\":2998:3027   */\n      swap2\n      pop\n        /* \"#utility.yul\":3076:3079   */\n      dup4\n        /* \"#utility.yul\":3068:3072   */\n      0x01\n        /* \"#utility.yul\":3060:3066   */\n      dup3\n        /* \"#utility.yul\":3056:3073   */\n      mul\n        /* \"#utility.yul\":3046:3054   */\n      dup4\n        /* \"#utility.yul\":3042:3074   */\n      add\n        /* \"#utility.yul\":3039:3080   */\n      gt\n        /* \"#utility.yul\":3036:3164   */\n      iszero\n      tag_268\n      jumpi\n        /* \"#utility.yul\":3083:3162   */\n      tag_269\n      tag_186\n      jump\t// in\n    tag_269:\n        /* \"#utility.yul\":3036:3164   */\n    tag_268:\n        /* \"#utility.yul\":2618:3170   */\n      swap3\n      pop\n      swap3\n      swap1\n      pop\n      jump\t// out\n        /* \"#utility.yul\":3176:3993   */\n    tag_33:\n        /* \"#utility.yul\":3264:3270   */\n      0x00\n        /* \"#utility.yul\":3272:3278   */\n      dup1\n        /* \"#utility.yul\":3280:3286   */\n      0x00\n        /* \"#utility.yul\":3288:3294   */\n      dup1\n        /* \"#utility.yul\":3337:3339   */\n      0x60\n        /* \"#utility.yul\":3325:3334   */\n      dup6\n        /* \"#utility.yul\":3316:3323   */\n      dup8\n        /* \"#utility.yul\":3312:3335   */\n      sub\n        /* \"#utility.yul\":3308:3340   */\n      slt\n        /* \"#utility.yul\":3305:3424   */\n      iszero\n      tag_271\n      jumpi\n        /* \"#utility.yul\":3343:3422   */\n      tag_272\n      tag_175\n      jump\t// in\n    tag_272:\n        /* \"#utility.yul\":3305:3424   */\n    tag_271:\n        /* \"#utility.yul\":3463:3464   */\n      0x00\n        /* \"#utility.yul\":3488:3541   */\n      tag_273\n        /* \"#utility.yul\":3533:3540   */\n      dup8\n        /* \"#utility.yul\":3524:3530   */\n      dup3\n        /* \"#utility.yul\":3513:3522   */\n      dup9\n        /* \"#utility.yul\":3509:3531   */\n      add\n        /* \"#utility.yul\":3488:3541   */\n      tag_183\n      jump\t// in\n    tag_273:\n        /* \"#utility.yul\":3478:3541   */\n      swap5\n      pop\n        /* \"#utility.yul\":3434:3551   */\n      pop\n        /* \"#utility.yul\":3590:3592   */\n      0x20\n        /* \"#utility.yul\":3616:3669   */\n      tag_274\n        /* \"#utility.yul\":3661:3668   */\n      dup8\n        /* \"#utility.yul\":3652:3658   */\n      dup3\n        /* \"#utility.yul\":3641:3650   */\n      dup9\n        /* \"#utility.yul\":3637:3659   */\n      add\n        /* \"#utility.yul\":3616:3669   */\n      tag_178\n      jump\t// in\n    tag_274:\n        /* \"#utility.yul\":3606:3669   */\n      swap4\n      pop\n        /* \"#utility.yul\":3561:3679   */\n      pop\n        /* \"#utility.yul\":3746:3748   */\n      0x40\n        /* \"#utility.yul\":3735:3744   */\n      dup6\n        /* \"#utility.yul\":3731:3749   */\n      add\n        /* \"#utility.yul\":3718:3750   */\n      calldataload\n        /* \"#utility.yul\":3777:3795   */\n      0xffffffffffffffff\n        /* \"#utility.yul\":3769:3775   */\n      dup2\n        /* \"#utility.yul\":3766:3796   */\n      gt\n        /* \"#utility.yul\":3763:3880   */\n      iszero\n      tag_275\n      jumpi\n        /* \"#utility.yul\":3799:3878   */\n      tag_276\n      tag_176\n      jump\t// in\n    tag_276:\n        /* \"#utility.yul\":3763:3880   */\n    tag_275:\n        /* \"#utility.yul\":3912:3976   */\n      tag_277\n        /* \"#utility.yul\":3968:3975   */\n      dup8\n        /* \"#utility.yul\":3959:3965   */\n      dup3\n        /* \"#utility.yul\":3948:3957   */\n      dup9\n        /* \"#utility.yul\":3944:3966   */\n      add\n        /* \"#utility.yul\":3912:3976   */\n      tag_187\n      jump\t// in\n    tag_277:\n        /* \"#utility.yul\":3894:3976   */\n      swap3\n      pop\n      swap3\n      pop\n        /* \"#utility.yul\":3689:3986   */\n      pop\n        /* \"#utility.yul\":3176:3993   */\n      swap3\n      swap6\n      swap2\n      swap5\n      pop\n      swap3\n      pop\n      jump\t// out\n        /* \"#utility.yul\":3999:4328   */\n    tag_47:\n        /* \"#utility.yul\":4058:4064   */\n      0x00\n        /* \"#utility.yul\":4107:4109   */\n      0x20\n        /* \"#utility.yul\":4095:4104   */\n      dup3\n        /* \"#utility.yul\":4086:4093   */\n      dup5\n        /* \"#utility.yul\":4082:4105   */\n      sub\n        /* \"#utility.yul\":4078:4110   */\n      slt\n        /* \"#utility.yul\":4075:4194   */\n      iszero\n      tag_279\n      jumpi\n        /* \"#utility.yul\":4113:4192   */\n      tag_280\n      tag_175\n      jump\t// in\n    tag_280:\n        /* \"#utility.yul\":4075:4194   */\n    tag_279:\n        /* \"#utility.yul\":4233:4234   */\n      0x00\n        /* \"#utility.yul\":4258:4311   */\n      tag_281\n        /* \"#utility.yul\":4303:4310   */\n      dup5\n        /* \"#utility.yul\":4294:4300   */\n      dup3\n        /* \"#utility.yul\":4283:4292   */\n      dup6\n        /* \"#utility.yul\":4279:4301   */\n      add\n        /* \"#utility.yul\":4258:4311   */\n      tag_183\n      jump\t// in\n    tag_281:\n        /* \"#utility.yul\":4248:4311   */\n      swap2\n      pop\n        /* \"#utility.yul\":4204:4321   */\n      pop\n        /* \"#utility.yul\":3999:4328   */\n      swap3\n      swap2\n      pop\n      pop\n      jump\t// out\n        /* \"#utility.yul\":4334:4424   */\n    tag_188:\n        /* \"#utility.yul\":4368:4375   */\n      0x00\n        /* \"#utility.yul\":4411:4416   */\n      dup2\n        /* \"#utility.yul\":4404:4417   */\n      iszero\n        /* \"#utility.yul\":4397:4418   */\n      iszero\n        /* \"#utility.yul\":4386:4418   */\n      swap1\n      pop\n        /* \"#utility.yul\":4334:4424   */\n      swap2\n      swap1\n      pop\n      jump\t// out\n        /* \"#utility.yul\":4430:4539   */\n    tag_189:\n        /* \"#utility.yul\":4511:4532   */\n      tag_284\n        /* \"#utility.yul\":4526:4531   */\n      dup2\n        /* \"#utility.yul\":4511:4532   */\n      tag_188\n      jump\t// in\n    tag_284:\n        /* \"#utility.yul\":4506:4509   */\n      dup3\n        /* \"#utility.yul\":4499:4533   */\n      mstore\n        /* \"#utility.yul\":4430:4539   */\n      pop\n      pop\n      jump\t// out\n        /* \"#utility.yul\":4545:4755   */\n    tag_50:\n        /* \"#utility.yul\":4632:4636   */\n      0x00\n        /* \"#utility.yul\":4670:4672   */\n      0x20\n        /* \"#utility.yul\":4659:4668   */\n      dup3\n        /* \"#utility.yul\":4655:4673   */\n      add\n        /* \"#utility.yul\":4647:4673   */\n      swap1\n      pop\n        /* \"#utility.yul\":4683:4748   */\n      tag_286\n        /* \"#utility.yul\":4745:4746   */\n      0x00\n        /* \"#utility.yul\":4734:4743   */\n      dup4\n        /* \"#utility.yul\":4730:4747   */\n      add\n        /* \"#utility.yul\":4721:4727   */\n      dup5\n        /* \"#utility.yul\":4683:4748   */\n      tag_189\n      jump\t// in\n    tag_286:\n        /* \"#utility.yul\":4545:4755   */\n      swap3\n      swap2\n      pop\n      pop\n      jump\t// out\n        /* \"#utility.yul\":4761:5235   */\n    tag_54:\n        /* \"#utility.yul\":4829:4835   */\n      0x00\n        /* \"#utility.yul\":4837:4843   */\n      dup1\n        /* \"#utility.yul\":4886:4888   */\n      0x40\n        /* \"#utility.yul\":4874:4883   */\n      dup4\n        /* \"#utility.yul\":4865:4872   */\n      dup6\n        /* \"#utility.yul\":4861:4884   */\n      sub\n        /* \"#utility.yul\":4857:4889   */\n      slt\n        /* \"#utility.yul\":4854:4973   */\n      iszero\n      tag_288\n      jumpi\n        /* \"#utility.yul\":4892:4971   */\n      tag_289\n      tag_175\n      jump\t// in\n    tag_289:\n        /* \"#utility.yul\":4854:4973   */\n    tag_288:\n        /* \"#utility.yul\":5012:5013   */\n      0x00\n        /* \"#utility.yul\":5037:5090   */\n      tag_290\n        /* \"#utility.yul\":5082:5089   */\n      dup6\n        /* \"#utility.yul\":5073:5079   */\n      dup3\n        /* \"#utility.yul\":5062:5071   */\n      dup7\n        /* \"#utility.yul\":5058:5080   */\n      add\n        /* \"#utility.yul\":5037:5090   */\n      tag_178\n      jump\t// in\n    tag_290:\n        /* \"#utility.yul\":5027:5090   */\n      swap3\n      pop\n        /* \"#utility.yul\":4983:5100   */\n      pop\n        /* \"#utility.yul\":5139:5141   */\n      0x20\n        /* \"#utility.yul\":5165:5218   */\n      tag_291\n        /* \"#utility.yul\":5210:5217   */\n      dup6\n        /* \"#utility.yul\":5201:5207   */\n      dup3\n        /* \"#utility.yul\":5190:5199   */\n      dup7\n        /* \"#utility.yul\":5186:5208   */\n      add\n        /* \"#utility.yul\":5165:5218   */\n      tag_183\n      jump\t// in\n    tag_291:\n        /* \"#utility.yul\":5155:5218   */\n      swap2\n      pop\n        /* \"#utility.yul\":5110:5228   */\n      pop\n        /* \"#utility.yul\":4761:5235   */\n      swap3\n      pop\n      swap3\n      swap1\n      pop\n      jump\t// out\n        /* \"#utility.yul\":5241:5339   */\n    tag_190:\n        /* \"#utility.yul\":5292:5298   */\n      0x00\n        /* \"#utility.yul\":5326:5331   */\n      dup2\n        /* \"#utility.yul\":5320:5332   */\n      mload\n        /* \"#utility.yul\":5310:5332   */\n      swap1\n      pop\n        /* \"#utility.yul\":5241:5339   */\n      swap2\n      swap1\n      pop\n      jump\t// out\n        /* \"#utility.yul\":5345:5513   */\n    tag_191:\n        /* \"#utility.yul\":5428:5439   */\n      0x00\n        /* \"#utility.yul\":5462:5468   */\n      dup3\n        /* \"#utility.yul\":5457:5460   */\n      dup3\n        /* \"#utility.yul\":5450:5469   */\n      mstore\n        /* \"#utility.yul\":5502:5506   */\n      0x20\n        /* \"#utility.yul\":5497:5500   */\n      dup3\n        /* \"#utility.yul\":5493:5507   */\n      add\n        /* \"#utility.yul\":5478:5507   */\n      swap1\n      pop\n        /* \"#utility.yul\":5345:5513   */\n      swap3\n      swap2\n      pop\n      pop\n      jump\t// out\n        /* \"#utility.yul\":5519:5658   */\n    tag_192:\n        /* \"#utility.yul\":5608:5614   */\n      dup3\n        /* \"#utility.yul\":5603:5606   */\n      dup2\n        /* \"#utility.yul\":5598:5601   */\n      dup4\n        /* \"#utility.yul\":5592:5615   */\n      mcopy\n        /* \"#utility.yul\":5649:5650   */\n      0x00\n        /* \"#utility.yul\":5640:5646   */\n      dup4\n        /* \"#utility.yul\":5635:5638   */\n      dup4\n        /* \"#utility.yul\":5631:5647   */\n      add\n        /* \"#utility.yul\":5624:5651   */\n      mstore\n        /* \"#utility.yul\":5519:5658   */\n      pop\n      pop\n      pop\n      jump\t// out\n        /* \"#utility.yul\":5664:5766   */\n    tag_193:\n        /* \"#utility.yul\":5705:5711   */\n      0x00\n        /* \"#utility.yul\":5756:5758   */\n      0x1f\n        /* \"#utility.yul\":5752:5759   */\n      not\n        /* \"#utility.yul\":5747:5749   */\n      0x1f\n        /* \"#utility.yul\":5740:5745   */\n      dup4\n        /* \"#utility.yul\":5736:5750   */\n      add\n        /* \"#utility.yul\":5732:5760   */\n      and\n        /* \"#utility.yul\":5722:5760   */\n      swap1\n      pop\n        /* \"#utility.yul\":5664:5766   */\n      swap2\n      swap1\n      pop\n      jump\t// out\n        /* \"#utility.yul\":5772:6145   */\n    tag_194:\n        /* \"#utility.yul\":5858:5861   */\n      0x00\n        /* \"#utility.yul\":5886:5924   */\n      tag_297\n        /* \"#utility.yul\":5918:5923   */\n      dup3\n        /* \"#utility.yul\":5886:5924   */\n      tag_190\n      jump\t// in\n    tag_297:\n        /* \"#utility.yul\":5940:6010   */\n      tag_298\n        /* \"#utility.yul\":6003:6009   */\n      dup2\n        /* \"#utility.yul\":5998:6001   */\n      dup6\n        /* \"#utility.yul\":5940:6010   */\n      tag_191\n      jump\t// in\n    tag_298:\n        /* \"#utility.yul\":5933:6010   */\n      swap4\n      pop\n        /* \"#utility.yul\":6019:6084   */\n      tag_299\n        /* \"#utility.yul\":6077:6083   */\n      dup2\n        /* \"#utility.yul\":6072:6075   */\n      dup6\n        /* \"#utility.yul\":6065:6069   */\n      0x20\n        /* \"#utility.yul\":6058:6063   */\n      dup7\n        /* \"#utility.yul\":6054:6070   */\n      add\n        /* \"#utility.yul\":6019:6084   */\n      tag_192\n      jump\t// in\n    tag_299:\n        /* \"#utility.yul\":6109:6138   */\n      tag_300\n        /* \"#utility.yul\":6131:6137   */\n      dup2\n        /* \"#utility.yul\":6109:6138   */\n      tag_193\n      jump\t// in\n    tag_300:\n        /* \"#utility.yul\":6104:6107   */\n      dup5\n        /* \"#utility.yul\":6100:6139   */\n      add\n        /* \"#utility.yul\":6093:6139   */\n      swap2\n      pop\n        /* \"#utility.yul\":5862:6145   */\n      pop\n        /* \"#utility.yul\":5772:6145   */\n      swap3\n      swap2\n      pop\n      pop\n      jump\t// out\n        /* \"#utility.yul\":6151:6779   */\n    tag_62:\n        /* \"#utility.yul\":6340:6344   */\n      0x00\n        /* \"#utility.yul\":6378:6381   */\n      0x80\n        /* \"#utility.yul\":6367:6376   */\n      dup3\n        /* \"#utility.yul\":6363:6382   */\n      add\n        /* \"#utility.yul\":6355:6382   */\n      swap1\n      pop\n        /* \"#utility.yul\":6392:6463   */\n      tag_302\n        /* \"#utility.yul\":6460:6461   */\n      0x00\n        /* \"#utility.yul\":6449:6458   */\n      dup4\n        /* \"#utility.yul\":6445:6462   */\n      add\n        /* \"#utility.yul\":6436:6442   */\n      dup8\n        /* \"#utility.yul\":6392:6463   */\n      tag_181\n      jump\t// in\n    tag_302:\n        /* \"#utility.yul\":6473:6545   */\n      tag_303\n        /* \"#utility.yul\":6541:6543   */\n      0x20\n        /* \"#utility.yul\":6530:6539   */\n      dup4\n        /* \"#utility.yul\":6526:6544   */\n      add\n        /* \"#utility.yul\":6517:6523   */\n      dup7\n        /* \"#utility.yul\":6473:6545   */\n      tag_173\n      jump\t// in\n    tag_303:\n        /* \"#utility.yul\":6592:6601   */\n      dup2\n        /* \"#utility.yul\":6586:6590   */\n      dup2\n        /* \"#utility.yul\":6582:6602   */\n      sub\n        /* \"#utility.yul\":6577:6579   */\n      0x40\n        /* \"#utility.yul\":6566:6575   */\n      dup4\n        /* \"#utility.yul\":6562:6580   */\n      add\n        /* \"#utility.yul\":6555:6603   */\n      mstore\n        /* \"#utility.yul\":6620:6696   */\n      tag_304\n        /* \"#utility.yul\":6691:6695   */\n      dup2\n        /* \"#utility.yul\":6682:6688   */\n      dup6\n        /* \"#utility.yul\":6620:6696   */\n      tag_194\n      jump\t// in\n    tag_304:\n        /* \"#utility.yul\":6612:6696   */\n      swap1\n      pop\n        /* \"#utility.yul\":6706:6772   */\n      tag_305\n        /* \"#utility.yul\":6768:6770   */\n      0x60\n        /* \"#utility.yul\":6757:6766   */\n      dup4\n        /* \"#utility.yul\":6753:6771   */\n      add\n        /* \"#utility.yul\":6744:6750   */\n      dup5\n        /* \"#utility.yul\":6706:6772   */\n      tag_189\n      jump\t// in\n    tag_305:\n        /* \"#utility.yul\":6151:6779   */\n      swap6\n      swap5\n      pop\n      pop\n      pop\n      pop\n      pop\n      jump\t// out\n        /* \"#utility.yul\":6785:6954   */\n    tag_195:\n        /* \"#utility.yul\":6869:6880   */\n      0x00\n        /* \"#utility.yul\":6903:6909   */\n      dup3\n        /* \"#utility.yul\":6898:6901   */\n      dup3\n        /* \"#utility.yul\":6891:6910   */\n      mstore\n        /* \"#utility.yul\":6943:6947   */\n      0x20\n        /* \"#utility.yul\":6938:6941   */\n      dup3\n        /* \"#utility.yul\":6934:6948   */\n      add\n        /* \"#utility.yul\":6919:6948   */\n      swap1\n      pop\n        /* \"#utility.yul\":6785:6954   */\n      swap3\n      swap2\n      pop\n      pop\n      jump\t// out\n        /* \"#utility.yul\":6960:7127   */\n    tag_196:\n        /* \"#utility.yul\":7100:7119   */\n      0x596f7520617265206e6f74206f776e6572000000000000000000000000000000\n        /* \"#utility.yul\":7096:7097   */\n      0x00\n        /* \"#utility.yul\":7088:7094   */\n      dup3\n        /* \"#utility.yul\":7084:7098   */\n      add\n        /* \"#utility.yul\":7077:7120   */\n      mstore\n        /* \"#utility.yul\":6960:7127   */\n      pop\n      jump\t// out\n        /* \"#utility.yul\":7133:7499   */\n    tag_197:\n        /* \"#utility.yul\":7275:7278   */\n      0x00\n        /* \"#utility.yul\":7296:7363   */\n      tag_309\n        /* \"#utility.yul\":7360:7362   */\n      0x11\n        /* \"#utility.yul\":7355:7358   */\n      dup4\n        /* \"#utility.yul\":7296:7363   */\n      tag_195\n      jump\t// in\n    tag_309:\n        /* \"#utility.yul\":7289:7363   */\n      swap2\n      pop\n        /* \"#utility.yul\":7372:7465   */\n      tag_310\n        /* \"#utility.yul\":7461:7464   */\n      dup3\n        /* \"#utility.yul\":7372:7465   */\n      tag_196\n      jump\t// in\n    tag_310:\n        /* \"#utility.yul\":7490:7492   */\n      0x20\n        /* \"#utility.yul\":7485:7488   */\n      dup3\n        /* \"#utility.yul\":7481:7493   */\n      add\n        /* \"#utility.yul\":7474:7493   */\n      swap1\n      pop\n        /* \"#utility.yul\":7133:7499   */\n      swap2\n      swap1\n      pop\n      jump\t// out\n        /* \"#utility.yul\":7505:7924   */\n    tag_82:\n        /* \"#utility.yul\":7671:7675   */\n      0x00\n        /* \"#utility.yul\":7709:7711   */\n      0x20\n        /* \"#utility.yul\":7698:7707   */\n      dup3\n        /* \"#utility.yul\":7694:7712   */\n      add\n        /* \"#utility.yul\":7686:7712   */\n      swap1\n      pop\n        /* \"#utility.yul\":7758:7767   */\n      dup2\n        /* \"#utility.yul\":7752:7756   */\n      dup2\n        /* \"#utility.yul\":7748:7768   */\n      sub\n        /* \"#utility.yul\":7744:7745   */\n      0x00\n        /* \"#utility.yul\":7733:7742   */\n      dup4\n        /* \"#utility.yul\":7729:7746   */\n      add\n        /* \"#utility.yul\":7722:7769   */\n      mstore\n        /* \"#utility.yul\":7786:7917   */\n      tag_312\n        /* \"#utility.yul\":7912:7916   */\n      dup2\n        /* \"#utility.yul\":7786:7917   */\n      tag_197\n      jump\t// in\n    tag_312:\n        /* \"#utility.yul\":7778:7917   */\n      swap1\n      pop\n        /* \"#utility.yul\":7505:7924   */\n      swap2\n      swap1\n      pop\n      jump\t// out\n        /* \"#utility.yul\":7930:8110   */\n    tag_198:\n        /* \"#utility.yul\":7978:8055   */\n      0x4e487b7100000000000000000000000000000000000000000000000000000000\n        /* \"#utility.yul\":7975:7976   */\n      0x00\n        /* \"#utility.yul\":7968:8056   */\n      mstore\n        /* \"#utility.yul\":8075:8079   */\n      0x41\n        /* \"#utility.yul\":8072:8073   */\n      0x04\n        /* \"#utility.yul\":8065:8080   */\n      mstore\n        /* \"#utility.yul\":8099:8103   */\n      0x24\n        /* \"#utility.yul\":8096:8097   */\n      0x00\n        /* \"#utility.yul\":8089:8104   */\n      revert\n        /* \"#utility.yul\":8116:8296   */\n    tag_199:\n        /* \"#utility.yul\":8164:8241   */\n      0x4e487b7100000000000000000000000000000000000000000000000000000000\n        /* \"#utility.yul\":8161:8162   */\n      0x00\n        /* \"#utility.yul\":8154:8242   */\n      mstore\n        /* \"#utility.yul\":8261:8265   */\n      0x22\n        /* \"#utility.yul\":8258:8259   */\n      0x04\n        /* \"#utility.yul\":8251:8266   */\n      mstore\n        /* \"#utility.yul\":8285:8289   */\n      0x24\n        /* \"#utility.yul\":8282:8283   */\n      0x00\n        /* \"#utility.yul\":8275:8290   */\n      revert\n        /* \"#utility.yul\":8302:8622   */\n    tag_112:\n        /* \"#utility.yul\":8346:8352   */\n      0x00\n        /* \"#utility.yul\":8383:8384   */\n      0x02\n        /* \"#utility.yul\":8377:8381   */\n      dup3\n        /* \"#utility.yul\":8373:8385   */\n      div\n        /* \"#utility.yul\":8363:8385   */\n      swap1\n      pop\n        /* \"#utility.yul\":8430:8431   */\n      0x01\n        /* \"#utility.yul\":8424:8428   */\n      dup3\n        /* \"#utility.yul\":8420:8432   */\n      and\n        /* \"#utility.yul\":8451:8469   */\n      dup1\n        /* \"#utility.yul\":8441:8522   */\n      tag_316\n      jumpi\n        /* \"#utility.yul\":8507:8511   */\n      0x7f\n        /* \"#utility.yul\":8499:8505   */\n      dup3\n        /* \"#utility.yul\":8495:8512   */\n      and\n        /* \"#utility.yul\":8485:8512   */\n      swap2\n      pop\n        /* \"#utility.yul\":8441:8522   */\n    tag_316:\n        /* \"#utility.yul\":8569:8571   */\n      0x20\n        /* \"#utility.yul\":8561:8567   */\n      dup3\n        /* \"#utility.yul\":8558:8572   */\n      lt\n        /* \"#utility.yul\":8538:8556   */\n      dup2\n        /* \"#utility.yul\":8535:8573   */\n      sub\n        /* \"#utility.yul\":8532:8616   */\n      tag_317\n      jumpi\n        /* \"#utility.yul\":8588:8606   */\n      tag_318\n      tag_199\n      jump\t// in\n    tag_318:\n        /* \"#utility.yul\":8532:8616   */\n    tag_317:\n        /* \"#utility.yul\":8353:8622   */\n      pop\n        /* \"#utility.yul\":8302:8622   */\n      swap2\n      swap1\n      pop\n      jump\t// out\n        /* \"#utility.yul\":8628:8768   */\n    tag_200:\n        /* \"#utility.yul\":8676:8680   */\n      0x00\n        /* \"#utility.yul\":8699:8702   */\n      dup2\n        /* \"#utility.yul\":8691:8702   */\n      swap1\n      pop\n        /* \"#utility.yul\":8722:8725   */\n      dup2\n        /* \"#utility.yul\":8719:8720   */\n      0x00\n        /* \"#utility.yul\":8712:8726   */\n      mstore\n        /* \"#utility.yul\":8756:8760   */\n      0x20\n        /* \"#utility.yul\":8753:8754   */\n      0x00\n        /* \"#utility.yul\":8743:8761   */\n      keccak256\n        /* \"#utility.yul\":8735:8761   */\n      swap1\n      pop\n        /* \"#utility.yul\":8628:8768   */\n      swap2\n      swap1\n      pop\n      jump\t// out\n        /* \"#utility.yul\":8774:8867   */\n    tag_201:\n        /* \"#utility.yul\":8811:8817   */\n      0x00\n        /* \"#utility.yul\":8858:8860   */\n      0x20\n        /* \"#utility.yul\":8853:8855   */\n      0x1f\n        /* \"#utility.yul\":8846:8851   */\n      dup4\n        /* \"#utility.yul\":8842:8856   */\n      add\n        /* \"#utility.yul\":8838:8861   */\n      div\n        /* \"#utility.yul\":8828:8861   */\n      swap1\n      pop\n        /* \"#utility.yul\":8774:8867   */\n      swap2\n      swap1\n      pop\n      jump\t// out\n        /* \"#utility.yul\":8873:8980   */\n    tag_202:\n        /* \"#utility.yul\":8917:8925   */\n      0x00\n        /* \"#utility.yul\":8967:8972   */\n      dup3\n        /* \"#utility.yul\":8961:8965   */\n      dup3\n        /* \"#utility.yul\":8957:8973   */\n      shl\n        /* \"#utility.yul\":8936:8973   */\n      swap1\n      pop\n        /* \"#utility.yul\":8873:8980   */\n      swap3\n      swap2\n      pop\n      pop\n      jump\t// out\n        /* \"#utility.yul\":8986:9379   */\n    tag_203:\n        /* \"#utility.yul\":9055:9061   */\n      0x00\n        /* \"#utility.yul\":9105:9106   */\n      0x08\n        /* \"#utility.yul\":9093:9103   */\n      dup4\n        /* \"#utility.yul\":9089:9107   */\n      mul\n        /* \"#utility.yul\":9128:9225   */\n      tag_323\n        /* \"#utility.yul\":9158:9224   */\n      0xffffffffffffffffffffffffffffffffffffffffffffffffffffffffffffffff\n        /* \"#utility.yul\":9147:9156   */\n      dup3\n        /* \"#utility.yul\":9128:9225   */\n      tag_202\n      jump\t// in\n    tag_323:\n        /* \"#utility.yul\":9246:9285   */\n      tag_324\n        /* \"#utility.yul\":9276:9284   */\n      dup7\n        /* \"#utility.yul\":9265:9274   */\n      dup4\n        /* \"#utility.yul\":9246:9285   */\n      tag_202\n      jump\t// in\n    tag_324:\n        /* \"#utility.yul\":9234:9285   */\n      swap6\n      pop\n        /* \"#utility.yul\":9318:9322   */\n      dup1\n        /* \"#utility.yul\":9314:9323   */\n      not\n        /* \"#utility.yul\":9307:9312   */\n      dup5\n        /* \"#utility.yul\":9303:9324   */\n      and\n        /* \"#utility.yul\":9294:9324   */\n      swap4\n      pop\n        /* \"#utility.yul\":9367:9371   */\n      dup1\n        /* \"#utility.yul\":9357:9365   */\n      dup7\n        /* \"#utility.yul\":9353:9372   */\n      and\n        /* \"#utility.yul\":9346:9351   */\n      dup5\n        /* \"#utility.yul\":9343:9373   */\n      or\n        /* \"#utility.yul\":9333:9373   */\n      swap3\n      pop\n        /* \"#utility.yul\":9062:9379   */\n      pop\n      pop\n        /* \"#utility.yul\":8986:9379   */\n      swap4\n      swap3\n      pop\n      pop\n      pop\n      jump\t// out\n        /* \"#utility.yul\":9385:9445   */\n    tag_204:\n        /* \"#utility.yul\":9413:9416   */\n      0x00\n        /* \"#utility.yul\":9434:9439   */\n      dup2\n        /* \"#utility.yul\":9427:9439   */\n      swap1\n      pop\n        /* \"#utility.yul\":9385:9445   */\n      swap2\n      swap1\n      pop\n      jump\t// out\n        /* \"#utility.yul\":9451:9593   */\n    tag_205:\n        /* \"#utility.yul\":9501:9510   */\n      0x00\n        /* \"#utility.yul\":9534:9587   */\n      tag_327\n        /* \"#utility.yul\":9552:9586   */\n      tag_328\n        /* \"#utility.yul\":9561:9585   */\n      tag_329\n        /* \"#utility.yul\":9579:9584   */\n      dup5\n        /* \"#utility.yul\":9561:9585   */\n      tag_172\n      jump\t// in\n    tag_329:\n        /* \"#utility.yul\":9552:9586   */\n      tag_204\n      jump\t// in\n    tag_328:\n        /* \"#utility.yul\":9534:9587   */\n      tag_172\n      jump\t// in\n    tag_327:\n        /* \"#utility.yul\":9521:9587   */\n      swap1\n      pop\n        /* \"#utility.yul\":9451:9593   */\n      swap2\n      swap1\n      pop\n      jump\t// out\n        /* \"#utility.yul\":9599:9674   */\n    tag_206:\n        /* \"#utility.yul\":9642:9645   */\n      0x00\n        /* \"#utility.yul\":9663:9668   */\n      dup2\n        /* \"#utility.yul\":9656:9668   */\n      swap1\n      pop\n        /* \"#utility.yul\":9599:9674   */\n      swap2\n      swap1\n      pop\n      jump\t// out\n        /* \"#utility.yul\":9680:9949   */\n    tag_207:\n        /* \"#utility.yul\":9790:9829   */\n      tag_332\n        /* \"#utility.yul\":9821:9828   */\n      dup4\n        /* \"#utility.yul\":9790:9829   */\n      tag_205\n      jump\t// in\n    tag_332:\n        /* \"#utility.yul\":9851:9942   */\n      tag_333\n        /* \"#utility.yul\":9900:9941   */\n      tag_334\n        /* \"#utility.yul\":9924:9940   */\n      dup3\n        /* \"#utility.yul\":9900:9941   */\n      tag_206\n      jump\t// in\n    tag_334:\n        /* \"#utility.yul\":9892:9898   */\n      dup5\n        /* \"#utility.yul\":9885:9889   */\n      dup5\n        /* \"#utility.yul\":9879:9890   */\n      sload\n        /* \"#utility.yul\":9851:9942   */\n      tag_203\n      jump\t// in\n    tag_333:\n        /* \"#utility.yul\":9845:9849   */\n      dup3\n        /* \"#utility.yul\":9838:9943   */\n      sstore\n        /* \"#utility.yul\":9756:9949   */\n      pop\n        /* \"#utility.yul\":9680:9949   */\n      pop\n      pop\n      pop\n      jump\t// out\n        /* \"#utility.yul\":9955:10028   */\n    tag_208:\n        /* \"#utility.yul\":10000:10003   */\n      0x00\n        /* \"#utility.yul\":9955:10028   */\n      swap1\n      jump\t// out\n        /* \"#utility.yul\":10034:10223   */\n    tag_209:\n        /* \"#utility.yul\":10111:10143   */\n      tag_337\n      tag_208\n      jump\t// in\n    tag_337:\n        /* \"#utility.yul\":10152:10217   */\n      tag_338\n        /* \"#utility.yul\":10210:10216   */\n      dup2\n        /* \"#utility.yul\":10202:10208   */\n      dup5\n        /* \"#utility.yul\":10196:10200   */\n      dup5\n        /* \"#utility.yul\":10152:10217   */\n      tag_207\n      jump\t// in\n    tag_338:\n        /* \"#utility.yul\":10087:10223   */\n      pop\n        /* \"#utility.yul\":10034:10223   */\n      pop\n      pop\n      jump\t// out\n        /* \"#utility.yul\":10229:10415   */\n    tag_210:\n        /* \"#utility.yul\":10289:10409   */\n    tag_340:\n        /* \"#utility.yul\":10306:10309   */\n      dup2\n        /* \"#utility.yul\":10299:10304   */\n      dup2\n        /* \"#utility.yul\":10296:10310   */\n      lt\n        /* \"#utility.yul\":10289:10409   */\n      iszero\n      tag_342\n      jumpi\n        /* \"#utility.yul\":10360:10399   */\n      tag_343\n        /* \"#utility.yul\":10397:10398   */\n      0x00\n        /* \"#utility.yul\":10390:10395   */\n      dup3\n        /* \"#utility.yul\":10360:10399   */\n      tag_209\n      jump\t// in\n    tag_343:\n        /* \"#utility.yul\":10333:10334   */\n      0x01\n        /* \"#utility.yul\":10326:10331   */\n      dup2\n        /* \"#utility.yul\":10322:10335   */\n      add\n        /* \"#utility.yul\":10313:10335   */\n      swap1\n      pop\n        /* \"#utility.yul\":10289:10409   */\n      jump(tag_340)\n    tag_342:\n        /* \"#utility.yul\":10229:10415   */\n      pop\n      pop\n      jump\t// out\n        /* \"#utility.yul\":10421:10962   */\n    tag_211:\n        /* \"#utility.yul\":10521:10523   */\n      0x1f\n        /* \"#utility.yul\":10516:10519   */\n      dup3\n        /* \"#utility.yul\":10513:10524   */\n      gt\n        /* \"#utility.yul\":10510:10955   */\n      iszero\n      tag_345\n      jumpi\n        /* \"#utility.yul\":10555:10592   */\n      tag_346\n        /* \"#utility.yul\":10586:10591   */\n      dup2\n        /* \"#utility.yul\":10555:10592   */\n      tag_200\n      jump\t// in\n    tag_346:\n        /* \"#utility.yul\":10638:10667   */\n      tag_347\n        /* \"#utility.yul\":10656:10666   */\n      dup5\n        /* \"#utility.yul\":10638:10667   */\n      tag_201\n      jump\t// in\n    tag_347:\n        /* \"#utility.yul\":10628:10636   */\n      dup2\n        /* \"#utility.yul\":10624:10668   */\n      add\n        /* \"#utility.yul\":10821:10823   */\n      0x20\n        /* \"#utility.yul\":10809:10819   */\n      dup6\n        /* \"#utility.yul\":10806:10824   */\n      lt\n        /* \"#utility.yul\":10803:10852   */\n      iszero\n      tag_348\n      jumpi\n        /* \"#utility.yul\":10842:10850   */\n      dup2\n        /* \"#utility.yul\":10827:10850   */\n      swap1\n      pop\n        /* \"#utility.yul\":10803:10852   */\n    tag_348:\n        /* \"#utility.yul\":10865:10945   */\n      tag_349\n        /* \"#utility.yul\":10921:10943   */\n      tag_350\n        /* \"#utility.yul\":10939:10942   */\n      dup6\n        /* \"#utility.yul\":10921:10943   */\n      tag_201\n      jump\t// in\n    tag_350:\n        /* \"#utility.yul\":10911:10919   */\n      dup4\n        /* \"#utility.yul\":10907:10944   */\n      add\n        /* \"#utility.yul\":10894:10905   */\n      dup3\n        /* \"#utility.yul\":10865:10945   */\n      tag_210\n      jump\t// in\n    tag_349:\n        /* \"#utility.yul\":10525:10955   */\n      pop\n      pop\n        /* \"#utility.yul\":10510:10955   */\n    tag_345:\n        /* \"#utility.yul\":10421:10962   */\n      pop\n      pop\n      pop\n      jump\t// out\n        /* \"#utility.yul\":10968:11085   */\n    tag_212:\n        /* \"#utility.yul\":11022:11030   */\n      0x00\n        /* \"#utility.yul\":11072:11077   */\n      dup3\n        /* \"#utility.yul\":11066:11070   */\n      dup3\n        /* \"#utility.yul\":11062:11078   */\n      shr\n        /* \"#utility.yul\":11041:11078   */\n      swap1\n      pop\n        /* \"#utility.yul\":10968:11085   */\n      swap3\n      swap2\n      pop\n      pop\n      jump\t// out\n        /* \"#utility.yul\":11091:11260   */\n    tag_213:\n        /* \"#utility.yul\":11135:11141   */\n      0x00\n        /* \"#utility.yul\":11168:11219   */\n      tag_353\n        /* \"#utility.yul\":11216:11217   */\n      0x00\n        /* \"#utility.yul\":11212:11218   */\n      not\n        /* \"#utility.yul\":11204:11209   */\n      dup5\n        /* \"#utility.yul\":11201:11202   */\n      0x08\n        /* \"#utility.yul\":11197:11210   */\n      mul\n        /* \"#utility.yul\":11168:11219   */\n      tag_212\n      jump\t// in\n    tag_353:\n        /* \"#utility.yul\":11164:11220   */\n      not\n        /* \"#utility.yul\":11249:11253   */\n      dup1\n        /* \"#utility.yul\":11243:11247   */\n      dup4\n        /* \"#utility.yul\":11239:11254   */\n      and\n        /* \"#utility.yul\":11229:11254   */\n      swap2\n      pop\n        /* \"#utility.yul\":11142:11260   */\n      pop\n        /* \"#utility.yul\":11091:11260   */\n      swap3\n      swap2\n      pop\n      pop\n      jump\t// out\n        /* \"#utility.yul\":11265:11560   */\n    tag_214:\n        /* \"#utility.yul\":11341:11345   */\n      0x00\n        /* \"#utility.yul\":11487:11516   */\n      tag_355\n        /* \"#utility.yul\":11512:11515   */\n      dup4\n        /* \"#utility.yul\":11506:11510   */\n      dup4\n        /* \"#utility.yul\":11487:11516   */\n      tag_213\n      jump\t// in\n    tag_355:\n        /* \"#utility.yul\":11479:11516   */\n      swap2\n      pop\n        /* \"#utility.yul\":11549:11552   */\n      dup3\n        /* \"#utility.yul\":11546:11547   */\n      0x02\n        /* \"#utility.yul\":11542:11553   */\n      mul\n        /* \"#utility.yul\":11536:11540   */\n      dup3\n        /* \"#utility.yul\":11533:11554   */\n      or\n        /* \"#utility.yul\":11525:11554   */\n      swap1\n      pop\n        /* \"#utility.yul\":11265:11560   */\n      swap3\n      swap2\n      pop\n      pop\n      jump\t// out\n        /* \"#utility.yul\":11565:12955   */\n    tag_86:\n        /* \"#utility.yul\":11680:11716   */\n      tag_357\n        /* \"#utility.yul\":11712:11715   */\n      dup3\n        /* \"#utility.yul\":11680:11716   */\n      tag_190\n      jump\t// in\n    tag_357:\n        /* \"#utility.yul\":11781:11799   */\n      0xffffffffffffffff\n        /* \"#utility.yul\":11773:11779   */\n      dup2\n        /* \"#utility.yul\":11770:11800   */\n      gt\n        /* \"#utility.yul\":11767:11823   */\n      iszero\n      tag_358\n      jumpi\n        /* \"#utility.yul\":11803:11821   */\n      tag_359\n      tag_198\n      jump\t// in\n    tag_359:\n        /* \"#utility.yul\":11767:11823   */\n    tag_358:\n        /* \"#utility.yul\":11847:11885   */\n      tag_360\n        /* \"#utility.yul\":11879:11883   */\n      dup3\n        /* \"#utility.yul\":11873:11884   */\n      sload\n        /* \"#utility.yul\":11847:11885   */\n      tag_112\n      jump\t// in\n    tag_360:\n        /* \"#utility.yul\":11932:11998   */\n      tag_361\n        /* \"#utility.yul\":11991:11997   */\n      dup3\n        /* \"#utility.yul\":11983:11989   */\n      dup3\n        /* \"#utility.yul\":11977:11981   */\n      dup6\n        /* \"#utility.yul\":11932:11998   */\n      tag_211\n      jump\t// in\n    tag_361:\n        /* \"#utility.yul\":12025:12026   */\n      0x00\n        /* \"#utility.yul\":12049:12053   */\n      0x20\n        /* \"#utility.yul\":12036:12053   */\n      swap1\n      pop\n        /* \"#utility.yul\":12081:12083   */\n      0x1f\n        /* \"#utility.yul\":12073:12079   */\n      dup4\n        /* \"#utility.yul\":12070:12084   */\n      gt\n        /* \"#utility.yul\":12098:12099   */\n      0x01\n        /* \"#utility.yul\":12093:12710   */\n      dup2\n      eq\n      tag_363\n      jumpi\n        /* \"#utility.yul\":12754:12755   */\n      0x00\n        /* \"#utility.yul\":12771:12777   */\n      dup5\n        /* \"#utility.yul\":12768:12845   */\n      iszero\n      tag_364\n      jumpi\n        /* \"#utility.yul\":12820:12829   */\n      dup3\n        /* \"#utility.yul\":12815:12818   */\n      dup8\n        /* \"#utility.yul\":12811:12830   */\n      add\n        /* \"#utility.yul\":12805:12831   */\n      mload\n        /* \"#utility.yul\":12796:12831   */\n      swap1\n      pop\n        /* \"#utility.yul\":12768:12845   */\n    tag_364:\n        /* \"#utility.yul\":12871:12938   */\n      tag_365\n        /* \"#utility.yul\":12931:12937   */\n      dup6\n        /* \"#utility.yul\":12924:12929   */\n      dup3\n        /* \"#utility.yul\":12871:12938   */\n      tag_214\n      jump\t// in\n    tag_365:\n        /* \"#utility.yul\":12865:12869   */\n      dup7\n        /* \"#utility.yul\":12858:12939   */\n      sstore\n        /* \"#utility.yul\":12727:12949   */\n      pop\n        /* \"#utility.yul\":12063:12949   */\n      jump(tag_362)\n        /* \"#utility.yul\":12093:12710   */\n    tag_363:\n        /* \"#utility.yul\":12145:12149   */\n      0x1f\n        /* \"#utility.yul\":12141:12150   */\n      not\n        /* \"#utility.yul\":12133:12139   */\n      dup5\n        /* \"#utility.yul\":12129:12151   */\n      and\n        /* \"#utility.yul\":12179:12215   */\n      tag_366\n        /* \"#utility.yul\":12210:12214   */\n      dup7\n        /* \"#utility.yul\":12179:12215   */\n      tag_200\n      jump\t// in\n    tag_366:\n        /* \"#utility.yul\":12237:12238   */\n      0x00\n        /* \"#utility.yul\":12251:12459   */\n    tag_367:\n        /* \"#utility.yul\":12265:12272   */\n      dup3\n        /* \"#utility.yul\":12262:12263   */\n      dup2\n        /* \"#utility.yul\":12259:12273   */\n      lt\n        /* \"#utility.yul\":12251:12459   */\n      iszero\n      tag_369\n      jumpi\n        /* \"#utility.yul\":12344:12353   */\n      dup5\n        /* \"#utility.yul\":12339:12342   */\n      dup10\n        /* \"#utility.yul\":12335:12354   */\n      add\n        /* \"#utility.yul\":12329:12355   */\n      mload\n        /* \"#utility.yul\":12321:12327   */\n      dup3\n        /* \"#utility.yul\":12314:12356   */\n      sstore\n        /* \"#utility.yul\":12395:12396   */\n      0x01\n        /* \"#utility.yul\":12387:12393   */\n      dup3\n        /* \"#utility.yul\":12383:12397   */\n      add\n        /* \"#utility.yul\":12373:12397   */\n      swap2\n      pop\n        /* \"#utility.yul\":12442:12444   */\n      0x20\n        /* \"#utility.yul\":12431:12440   */\n      dup6\n        /* \"#utility.yul\":12427:12445   */\n      add\n        /* \"#utility.yul\":12414:12445   */\n      swap5\n      pop\n        /* \"#utility.yul\":12288:12292   */\n      0x20\n        /* \"#utility.yul\":12285:12286   */\n      dup2\n        /* \"#utility.yul\":12281:12293   */\n      add\n        /* \"#utility.yul\":12276:12293   */\n      swap1\n      pop\n        /* \"#utility.yul\":12251:12459   */\n      jump(tag_367)\n    tag_369:\n        /* \"#utility.yul\":12487:12493   */\n      dup7\n        /* \"#utility.yul\":12478:12485   */\n      dup4\n        /* \"#utility.yul\":12475:12494   */\n      lt\n        /* \"#utility.yul\":12472:12651   */\n      iszero\n      tag_370\n      jumpi\n        /* \"#utility.yul\":12545:12554   */\n      dup5\n        /* \"#utility.yul\":12540:12543   */\n      dup10\n        /* \"#utility.yul\":12536:12555   */\n      add\n        /* \"#utility.yul\":12530:12556   */\n      mload\n        /* \"#utility.yul\":12588:12636   */\n      tag_371\n        /* \"#utility.yul\":12630:12634   */\n      0x1f\n        /* \"#utility.yul\":12622:12628   */\n      dup10\n        /* \"#utility.yul\":12618:12635   */\n      and\n        /* \"#utility.yul\":12607:12616   */\n      dup3\n        /* \"#utility.yul\":12588:12636   */\n      tag_213\n      jump\t// in\n    tag_371:\n        /* \"#utility.yul\":12580:12586   */\n      dup4\n        /* \"#utility.yul\":12573:12637   */\n      sstore\n        /* \"#utility.yul\":12495:12651   */\n      pop\n        /* \"#utility.yul\":12472:12651   */\n    tag_370:\n        /* \"#utility.yul\":12697:12698   */\n      0x01\n        /* \"#utility.yul\":12693:12694   */\n      0x02\n        /* \"#utility.yul\":12685:12691   */\n      dup9\n        /* \"#utility.yul\":12681:12695   */\n      mul\n        /* \"#utility.yul\":12677:12699   */\n      add\n        /* \"#utility.yul\":12671:12675   */\n      dup9\n        /* \"#utility.yul\":12664:12700   */\n      sstore\n        /* \"#utility.yul\":12100:12710   */\n      pop\n      pop\n      pop\n        /* \"#utility.yul\":12063:12949   */\n    tag_362:\n      pop\n        /* \"#utility.yul\":11655:12955   */\n      pop\n      pop\n      pop\n        /* \"#utility.yul\":11565:12955   */\n      pop\n      pop\n      jump\t// out\n        /* \"#utility.yul\":12961:13141   */\n    tag_215:\n        /* \"#utility.yul\":13009:13086   */\n      0x4e487b7100000000000000000000000000000000000000000000000000000000\n        /* \"#utility.yul\":13006:13007   */\n      0x00\n        /* \"#utility.yul\":12999:13087   */\n      mstore\n        /* \"#utility.yul\":13106:13110   */\n      0x11\n        /* \"#utility.yul\":13103:13104   */\n      0x04\n        /* \"#utility.yul\":13096:13111   */\n      mstore\n        /* \"#utility.yul\":13130:13134   */\n      0x24\n        /* \"#utility.yul\":13127:13128   */\n      0x00\n        /* \"#utility.yul\":13120:13135   */\n      revert\n        /* \"#utility.yul\":13147:13341   */\n    tag_88:\n        /* \"#utility.yul\":13187:13191   */\n      0x00\n        /* \"#utility.yul\":13207:13227   */\n      tag_374\n        /* \"#utility.yul\":13225:13226   */\n      dup3\n        /* \"#utility.yul\":13207:13227   */\n      tag_172\n      jump\t// in\n    tag_374:\n        /* \"#utility.yul\":13202:13227   */\n      swap2\n      pop\n        /* \"#utility.yul\":13241:13261   */\n      tag_375\n        /* \"#utility.yul\":13259:13260   */\n      dup4\n        /* \"#utility.yul\":13241:13261   */\n      tag_172\n      jump\t// in\n    tag_375:\n        /* \"#utility.yul\":13236:13261   */\n      swap3\n      pop\n        /* \"#utility.yul\":13285:13286   */\n      dup3\n        /* \"#utility.yul\":13282:13283   */\n      dup3\n        /* \"#utility.yul\":13278:13287   */\n      sub\n        /* \"#utility.yul\":13270:13287   */\n      swap1\n      pop\n        /* \"#utility.yul\":13309:13310   */\n      dup2\n        /* \"#utility.yul\":13303:13307   */\n      dup2\n        /* \"#utility.yul\":13300:13311   */\n      gt\n        /* \"#utility.yul\":13297:13334   */\n      iszero\n      tag_376\n      jumpi\n        /* \"#utility.yul\":13314:13332   */\n      tag_377\n      tag_215\n      jump\t// in\n    tag_377:\n        /* \"#utility.yul\":13297:13334   */\n    tag_376:\n        /* \"#utility.yul\":13147:13341   */\n      swap3\n      swap2\n      pop\n      pop\n      jump\t// out\n        /* \"#utility.yul\":13347:13513   */\n    tag_216:\n        /* \"#utility.yul\":13487:13505   */\n      0x747820646f65736e277420657869737400000000000000000000000000000000\n        /* \"#utility.yul\":13483:13484   */\n      0x00\n        /* \"#utility.yul\":13475:13481   */\n      dup3\n        /* \"#utility.yul\":13471:13485   */\n      add\n        /* \"#utility.yul\":13464:13506   */\n      mstore\n        /* \"#utility.yul\":13347:13513   */\n      pop\n      jump\t// out\n        /* \"#utility.yul\":13519:13885   */\n    tag_217:\n        /* \"#utility.yul\":13661:13664   */\n      0x00\n        /* \"#utility.yul\":13682:13749   */\n      tag_380\n        /* \"#utility.yul\":13746:13748   */\n      0x10\n        /* \"#utility.yul\":13741:13744   */\n      dup4\n        /* \"#utility.yul\":13682:13749   */\n      tag_195\n      jump\t// in\n    tag_380:\n        /* \"#utility.yul\":13675:13749   */\n      swap2\n      pop\n        /* \"#utility.yul\":13758:13851   */\n      tag_381\n        /* \"#utility.yul\":13847:13850   */\n      dup3\n        /* \"#utility.yul\":13758:13851   */\n      tag_216\n      jump\t// in\n    tag_381:\n        /* \"#utility.yul\":13876:13878   */\n      0x20\n        /* \"#utility.yul\":13871:13874   */\n      dup3\n        /* \"#utility.yul\":13867:13879   */\n      add\n        /* \"#utility.yul\":13860:13879   */\n      swap1\n      pop\n        /* \"#utility.yul\":13519:13885   */\n      swap2\n      swap1\n      pop\n      jump\t// out\n        /* \"#utility.yul\":13891:14310   */\n    tag_96:\n        /* \"#utility.yul\":14057:14061   */\n      0x00\n        /* \"#utility.yul\":14095:14097   */\n      0x20\n        /* \"#utility.yul\":14084:14093   */\n      dup3\n        /* \"#utility.yul\":14080:14098   */\n      add\n        /* \"#utility.yul\":14072:14098   */\n      swap1\n      pop\n        /* \"#utility.yul\":14144:14153   */\n      dup2\n        /* \"#utility.yul\":14138:14142   */\n      dup2\n        /* \"#utility.yul\":14134:14154   */\n      sub\n        /* \"#utility.yul\":14130:14131   */\n      0x00\n        /* \"#utility.yul\":14119:14128   */\n      dup4\n        /* \"#utility.yul\":14115:14132   */\n      add\n        /* \"#utility.yul\":14108:14155   */\n      mstore\n        /* \"#utility.yul\":14172:14303   */\n      tag_383\n        /* \"#utility.yul\":14298:14302   */\n      dup2\n        /* \"#utility.yul\":14172:14303   */\n      tag_217\n      jump\t// in\n    tag_383:\n        /* \"#utility.yul\":14164:14303   */\n      swap1\n      pop\n        /* \"#utility.yul\":13891:14310   */\n      swap2\n      swap1\n      pop\n      jump\t// out\n        /* \"#utility.yul\":14316:14496   */\n    tag_100:\n        /* \"#utility.yul\":14364:14441   */\n      0x4e487b7100000000000000000000000000000000000000000000000000000000\n        /* \"#utility.yul\":14361:14362   */\n      0x00\n        /* \"#utility.yul\":14354:14442   */\n      mstore\n        /* \"#utility.yul\":14461:14465   */\n      0x32\n        /* \"#utility.yul\":14458:14459   */\n      0x04\n        /* \"#utility.yul\":14451:14466   */\n      mstore\n        /* \"#utility.yul\":14485:14489   */\n      0x24\n        /* \"#utility.yul\":14482:14483   */\n      0x00\n        /* \"#utility.yul\":14475:14490   */\n      revert\n        /* \"#utility.yul\":14502:14665   */\n    tag_218:\n        /* \"#utility.yul\":14642:14657   */\n      0x7478206973206578656374656400000000000000000000000000000000000000\n        /* \"#utility.yul\":14638:14639   */\n      0x00\n        /* \"#utility.yul\":14630:14636   */\n      dup3\n        /* \"#utility.yul\":14626:14640   */\n      add\n        /* \"#utility.yul\":14619:14658   */\n      mstore\n        /* \"#utility.yul\":14502:14665   */\n      pop\n      jump\t// out\n        /* \"#utility.yul\":14671:15037   */\n    tag_219:\n        /* \"#utility.yul\":14813:14816   */\n      0x00\n        /* \"#utility.yul\":14834:14901   */\n      tag_387\n        /* \"#utility.yul\":14898:14900   */\n      0x0d\n        /* \"#utility.yul\":14893:14896   */\n      dup4\n        /* \"#utility.yul\":14834:14901   */\n      tag_195\n      jump\t// in\n    tag_387:\n        /* \"#utility.yul\":14827:14901   */\n      swap2\n      pop\n        /* \"#utility.yul\":14910:15003   */\n      tag_388\n        /* \"#utility.yul\":14999:15002   */\n      dup3\n        /* \"#utility.yul\":14910:15003   */\n      tag_218\n      jump\t// in\n    tag_388:\n        /* \"#utility.yul\":15028:15030   */\n      0x20\n        /* \"#utility.yul\":15023:15026   */\n      dup3\n        /* \"#utility.yul\":15019:15031   */\n      add\n        /* \"#utility.yul\":15012:15031   */\n      swap1\n      pop\n        /* \"#utility.yul\":14671:15037   */\n      swap2\n      swap1\n      pop\n      jump\t// out\n        /* \"#utility.yul\":15043:15462   */\n    tag_104:\n        /* \"#utility.yul\":15209:15213   */\n      0x00\n        /* \"#utility.yul\":15247:15249   */\n      0x20\n        /* \"#utility.yul\":15236:15245   */\n      dup3\n        /* \"#utility.yul\":15232:15250   */\n      add\n        /* \"#utility.yul\":15224:15250   */\n      swap1\n      pop\n        /* \"#utility.yul\":15296:15305   */\n      dup2\n        /* \"#utility.yul\":15290:15294   */\n      dup2\n        /* \"#utility.yul\":15286:15306   */\n      sub\n        /* \"#utility.yul\":15282:15283   */\n      0x00\n        /* \"#utility.yul\":15271:15280   */\n      dup4\n        /* \"#utility.yul\":15267:15284   */\n      add\n        /* \"#utility.yul\":15260:15307   */\n      mstore\n        /* \"#utility.yul\":15324:15455   */\n      tag_390\n        /* \"#utility.yul\":15450:15454   */\n      dup2\n        /* \"#utility.yul\":15324:15455   */\n      tag_219\n      jump\t// in\n    tag_390:\n        /* \"#utility.yul\":15316:15455   */\n      swap1\n      pop\n        /* \"#utility.yul\":15043:15462   */\n      swap2\n      swap1\n      pop\n      jump\t// out\n        /* \"#utility.yul\":15468:15633   */\n    tag_220:\n        /* \"#utility.yul\":15608:15625   */\n      0x7478206e6f7420617070726f7665640000000000000000000000000000000000\n        /* \"#utility.yul\":15604:15605   */\n      0x00\n        /* \"#utility.yul\":15596:15602   */\n      dup3\n        /* \"#utility.yul\":15592:15606   */\n      add\n        /* \"#utility.yul\":15585:15626   */\n      mstore\n        /* \"#utility.yul\":15468:15633   */\n      pop\n      jump\t// out\n        /* \"#utility.yul\":15639:16005   */\n    tag_221:\n        /* \"#utility.yul\":15781:15784   */\n      0x00\n        /* \"#utility.yul\":15802:15869   */\n      tag_393\n        /* \"#utility.yul\":15866:15868   */\n      0x0f\n        /* \"#utility.yul\":15861:15864   */\n      dup4\n        /* \"#utility.yul\":15802:15869   */\n      tag_195\n      jump\t// in\n    tag_393:\n        /* \"#utility.yul\":15795:15869   */\n      swap2\n      pop\n        /* \"#utility.yul\":15878:15971   */\n      tag_394\n        /* \"#utility.yul\":15967:15970   */\n      dup3\n        /* \"#utility.yul\":15878:15971   */\n      tag_220\n      jump\t// in\n    tag_394:\n        /* \"#utility.yul\":15996:15998   */\n      0x20\n        /* \"#utility.yul\":15991:15994   */\n      dup3\n        /* \"#utility.yul\":15987:15999   */\n      add\n        /* \"#utility.yul\":15980:15999   */\n      swap1\n      pop\n        /* \"#utility.yul\":15639:16005   */\n      swap2\n      swap1\n      pop\n      jump\t// out\n        /* \"#utility.yul\":16011:16430   */\n    tag_108:\n        /* \"#utility.yul\":16177:16181   */\n      0x00\n        /* \"#utility.yul\":16215:16217   */\n      0x20\n        /* \"#utility.yul\":16204:16213   */\n      dup3\n        /* \"#utility.yul\":16200:16218   */\n      add\n        /* \"#utility.yul\":16192:16218   */\n      swap1\n      pop\n        /* \"#utility.yul\":16264:16273   */\n      dup2\n        /* \"#utility.yul\":16258:16262   */\n      dup2\n        /* \"#utility.yul\":16254:16274   */\n      sub\n        /* \"#utility.yul\":16250:16251   */\n      0x00\n        /* \"#utility.yul\":16239:16248   */\n      dup4\n        /* \"#utility.yul\":16235:16252   */\n      add\n        /* \"#utility.yul\":16228:16275   */\n      mstore\n        /* \"#utility.yul\":16292:16423   */\n      tag_396\n        /* \"#utility.yul\":16418:16422   */\n      dup2\n        /* \"#utility.yul\":16292:16423   */\n      tag_221\n      jump\t// in\n    tag_396:\n        /* \"#utility.yul\":16284:16423   */\n      swap1\n      pop\n        /* \"#utility.yul\":16011:16430   */\n      swap2\n      swap1\n      pop\n      jump\t// out\n        /* \"#utility.yul\":16436:16605   */\n    tag_222:\n        /* \"#utility.yul\":16576:16597   */\n      0x747820616c726561647920617070726f76656400000000000000000000000000\n        /* \"#utility.yul\":16572:16573   */\n      0x00\n        /* \"#utility.yul\":16564:16570   */\n      dup3\n        /* \"#utility.yul\":16560:16574   */\n      add\n        /* \"#utility.yul\":16553:16598   */\n      mstore\n        /* \"#utility.yul\":16436:16605   */\n      pop\n      jump\t// out\n        /* \"#utility.yul\":16611:16977   */\n    tag_223:\n        /* \"#utility.yul\":16753:16756   */\n      0x00\n        /* \"#utility.yul\":16774:16841   */\n      tag_399\n        /* \"#utility.yul\":16838:16840   */\n      0x13\n        /* \"#utility.yul\":16833:16836   */\n      dup4\n        /* \"#utility.yul\":16774:16841   */\n      tag_195\n      jump\t// in\n    tag_399:\n        /* \"#utility.yul\":16767:16841   */\n      swap2\n      pop\n        /* \"#utility.yul\":16850:16943   */\n      tag_400\n        /* \"#utility.yul\":16939:16942   */\n      dup3\n        /* \"#utility.yul\":16850:16943   */\n      tag_222\n      jump\t// in\n    tag_400:\n        /* \"#utility.yul\":16968:16970   */\n      0x20\n        /* \"#utility.yul\":16963:16966   */\n      dup3\n        /* \"#utility.yul\":16959:16971   */\n      add\n        /* \"#utility.yul\":16952:16971   */\n      swap1\n      pop\n        /* \"#utility.yul\":16611:16977   */\n      swap2\n      swap1\n      pop\n      jump\t// out\n        /* \"#utility.yul\":16983:17402   */\n    tag_126:\n        /* \"#utility.yul\":17149:17153   */\n      0x00\n        /* \"#utility.yul\":17187:17189   */\n      0x20\n        /* \"#utility.yul\":17176:17185   */\n      dup3\n        /* \"#utility.yul\":17172:17190   */\n      add\n        /* \"#utility.yul\":17164:17190   */\n      swap1\n      pop\n        /* \"#utility.yul\":17236:17245   */\n      dup2\n        /* \"#utility.yul\":17230:17234   */\n      dup2\n        /* \"#utility.yul\":17226:17246   */\n      sub\n        /* \"#utility.yul\":17222:17223   */\n      0x00\n        /* \"#utility.yul\":17211:17220   */\n      dup4\n        /* \"#utility.yul\":17207:17224   */\n      add\n        /* \"#utility.yul\":17200:17247   */\n      mstore\n        /* \"#utility.yul\":17264:17395   */\n      tag_402\n        /* \"#utility.yul\":17390:17394   */\n      dup2\n        /* \"#utility.yul\":17264:17395   */\n      tag_223\n      jump\t// in\n    tag_402:\n        /* \"#utility.yul\":17256:17395   */\n      swap1\n      pop\n        /* \"#utility.yul\":16983:17402   */\n      swap2\n      swap1\n      pop\n      jump\t// out\n        /* \"#utility.yul\":17408:17599   */\n    tag_143:\n        /* \"#utility.yul\":17448:17451   */\n      0x00\n        /* \"#utility.yul\":17467:17487   */\n      tag_404\n        /* \"#utility.yul\":17485:17486   */\n      dup3\n        /* \"#utility.yul\":17467:17487   */\n      tag_172\n      jump\t// in\n    tag_404:\n        /* \"#utility.yul\":17462:17487   */\n      swap2\n      pop\n        /* \"#utility.yul\":17501:17521   */\n      tag_405\n        /* \"#utility.yul\":17519:17520   */\n      dup4\n        /* \"#utility.yul\":17501:17521   */\n      tag_172\n      jump\t// in\n    tag_405:\n        /* \"#utility.yul\":17496:17521   */\n      swap3\n      pop\n        /* \"#utility.yul\":17544:17545   */\n      dup3\n        /* \"#utility.yul\":17541:17542   */\n      dup3\n        /* \"#utility.yul\":17537:17546   */\n      add\n        /* \"#utility.yul\":17530:17546   */\n      swap1\n      pop\n        /* \"#utility.yul\":17565:17568   */\n      dup1\n        /* \"#utility.yul\":17562:17563   */\n      dup3\n        /* \"#utility.yul\":17559:17569   */\n      gt\n        /* \"#utility.yul\":17556:17592   */\n      iszero\n      tag_406\n      jumpi\n        /* \"#utility.yul\":17572:17590   */\n      tag_407\n      tag_215\n      jump\t// in\n    tag_407:\n        /* \"#utility.yul\":17556:17592   */\n    tag_406:\n        /* \"#utility.yul\":17408:17599   */\n      swap3\n      swap2\n      pop\n      pop\n      jump\t// out\n        /* \"#utility.yul\":17605:17828   */\n    tag_224:\n        /* \"#utility.yul\":17745:17779   */\n      0x417070726f76616c20636f756e74203c207265717569726564207369676e6174\n        /* \"#utility.yul\":17741:17742   */\n      0x00\n        /* \"#utility.yul\":17733:17739   */\n      dup3\n        /* \"#utility.yul\":17729:17743   */\n      add\n        /* \"#utility.yul\":17722:17780   */\n      mstore\n        /* \"#utility.yul\":17814:17820   */\n      0x7572657300000000000000000000000000000000000000000000000000000000\n        /* \"#utility.yul\":17809:17811   */\n      0x20\n        /* \"#utility.yul\":17801:17807   */\n      dup3\n        /* \"#utility.yul\":17797:17812   */\n      add\n        /* \"#utility.yul\":17790:17821   */\n      mstore\n        /* \"#utility.yul\":17605:17828   */\n      pop\n      jump\t// out\n        /* \"#utility.yul\":17834:18200   */\n    tag_225:\n        /* \"#utility.yul\":17976:17979   */\n      0x00\n        /* \"#utility.yul\":17997:18064   */\n      tag_410\n        /* \"#utility.yul\":18061:18063   */\n      0x24\n        /* \"#utility.yul\":18056:18059   */\n      dup4\n        /* \"#utility.yul\":17997:18064   */\n      tag_195\n      jump\t// in\n    tag_410:\n        /* \"#utility.yul\":17990:18064   */\n      swap2\n      pop\n        /* \"#utility.yul\":18073:18166   */\n      tag_411\n        /* \"#utility.yul\":18162:18165   */\n      dup3\n        /* \"#utility.yul\":18073:18166   */\n      tag_224\n      jump\t// in\n    tag_411:\n        /* \"#utility.yul\":18191:18193   */\n      0x40\n        /* \"#utility.yul\":18186:18189   */\n      dup3\n        /* \"#utility.yul\":18182:18194   */\n      add\n        /* \"#utility.yul\":18175:18194   */\n      swap1\n      pop\n        /* \"#utility.yul\":17834:18200   */\n      swap2\n      swap1\n      pop\n      jump\t// out\n        /* \"#utility.yul\":18206:18625   */\n    tag_160:\n        /* \"#utility.yul\":18372:18376   */\n      0x00\n        /* \"#utility.yul\":18410:18412   */\n      0x20\n        /* \"#utility.yul\":18399:18408   */\n      dup3\n        /* \"#utility.yul\":18395:18413   */\n      add\n        /* \"#utility.yul\":18387:18413   */\n      swap1\n      pop\n        /* \"#utility.yul\":18459:18468   */\n      dup2\n        /* \"#utility.yul\":18453:18457   */\n      dup2\n        /* \"#utility.yul\":18449:18469   */\n      sub\n        /* \"#utility.yul\":18445:18446   */\n      0x00\n        /* \"#utility.yul\":18434:18443   */\n      dup4\n        /* \"#utility.yul\":18430:18447   */\n      add\n        /* \"#utility.yul\":18423:18470   */\n      mstore\n        /* \"#utility.yul\":18487:18618   */\n      tag_413\n        /* \"#utility.yul\":18613:18617   */\n      dup2\n        /* \"#utility.yul\":18487:18618   */\n      tag_225\n      jump\t// in\n    tag_413:\n        /* \"#utility.yul\":18479:18618   */\n      swap1\n      pop\n        /* \"#utility.yul\":18206:18625   */\n      swap2\n      swap1\n      pop\n      jump\t// out\n        /* \"#utility.yul\":18631:18778   */\n    tag_226:\n        /* \"#utility.yul\":18732:18743   */\n      0x00\n        /* \"#utility.yul\":18769:18772   */\n      dup2\n        /* \"#utility.yul\":18754:18772   */\n      swap1\n      pop\n        /* \"#utility.yul\":18631:18778   */\n      swap3\n      swap2\n      pop\n      pop\n      jump\t// out\n        /* \"#utility.yul\":18806:19676   */\n    tag_227:\n        /* \"#utility.yul\":18907:18910   */\n      0x00\n        /* \"#utility.yul\":18944:18949   */\n      dup2\n        /* \"#utility.yul\":18938:18950   */\n      sload\n        /* \"#utility.yul\":18973:19009   */\n      tag_416\n        /* \"#utility.yul\":18999:19008   */\n      dup2\n        /* \"#utility.yul\":18973:19009   */\n      tag_112\n      jump\t// in\n    tag_416:\n        /* \"#utility.yul\":19025:19113   */\n      tag_417\n        /* \"#utility.yul\":19106:19112   */\n      dup2\n        /* \"#utility.yul\":19101:19104   */\n      dup7\n        /* \"#utility.yul\":19025:19113   */\n      tag_226\n      jump\t// in\n    tag_417:\n        /* \"#utility.yul\":19018:19113   */\n      swap5\n      pop\n        /* \"#utility.yul\":19144:19145   */\n      0x01\n        /* \"#utility.yul\":19133:19142   */\n      dup3\n        /* \"#utility.yul\":19129:19146   */\n      and\n        /* \"#utility.yul\":19160:19161   */\n      0x00\n        /* \"#utility.yul\":19155:19321   */\n      dup2\n      eq\n      tag_419\n      jumpi\n        /* \"#utility.yul\":19335:19336   */\n      0x01\n        /* \"#utility.yul\":19330:19670   */\n      dup2\n      eq\n      tag_420\n      jumpi\n        /* \"#utility.yul\":19122:19670   */\n      jump(tag_418)\n        /* \"#utility.yul\":19155:19321   */\n    tag_419:\n        /* \"#utility.yul\":19239:19243   */\n      0xff\n        /* \"#utility.yul\":19235:19244   */\n      not\n        /* \"#utility.yul\":19224:19233   */\n      dup4\n        /* \"#utility.yul\":19220:19245   */\n      and\n        /* \"#utility.yul\":19215:19218   */\n      dup7\n        /* \"#utility.yul\":19208:19246   */\n      mstore\n        /* \"#utility.yul\":19301:19307   */\n      dup2\n        /* \"#utility.yul\":19294:19308   */\n      iszero\n        /* \"#utility.yul\":19287:19309   */\n      iszero\n        /* \"#utility.yul\":19279:19285   */\n      dup3\n        /* \"#utility.yul\":19275:19310   */\n      mul\n        /* \"#utility.yul\":19270:19273   */\n      dup7\n        /* \"#utility.yul\":19266:19311   */\n      add\n        /* \"#utility.yul\":19259:19311   */\n      swap4\n      pop\n        /* \"#utility.yul\":19155:19321   */\n      jump(tag_418)\n        /* \"#utility.yul\":19330:19670   */\n    tag_420:\n        /* \"#utility.yul\":19397:19434   */\n      tag_421\n        /* \"#utility.yul\":19428:19433   */\n      dup6\n        /* \"#utility.yul\":19397:19434   */\n      tag_200\n      jump\t// in\n    tag_421:\n        /* \"#utility.yul\":19456:19457   */\n      0x00\n        /* \"#utility.yul\":19470:19624   */\n    tag_422:\n        /* \"#utility.yul\":19484:19490   */\n      dup4\n        /* \"#utility.yul\":19481:19482   */\n      dup2\n        /* \"#utility.yul\":19478:19491   */\n      lt\n        /* \"#utility.yul\":19470:19624   */\n      iszero\n      tag_424\n      jumpi\n        /* \"#utility.yul\":19558:19565   */\n      dup2\n        /* \"#utility.yul\":19552:19566   */\n      sload\n        /* \"#utility.yul\":19548:19549   */\n      dup2\n        /* \"#utility.yul\":19543:19546   */\n      dup10\n        /* \"#utility.yul\":19539:19550   */\n      add\n        /* \"#utility.yul\":19532:19567   */\n      mstore\n        /* \"#utility.yul\":19608:19609   */\n      0x01\n        /* \"#utility.yul\":19599:19606   */\n      dup3\n        /* \"#utility.yul\":19595:19610   */\n      add\n        /* \"#utility.yul\":19584:19610   */\n      swap2\n      pop\n        /* \"#utility.yul\":19506:19510   */\n      0x20\n        /* \"#utility.yul\":19503:19504   */\n      dup2\n        /* \"#utility.yul\":19499:19511   */\n      add\n        /* \"#utility.yul\":19494:19511   */\n      swap1\n      pop\n        /* \"#utility.yul\":19470:19624   */\n      jump(tag_422)\n    tag_424:\n        /* \"#utility.yul\":19653:19659   */\n      dup4\n        /* \"#utility.yul\":19648:19651   */\n      dup9\n        /* \"#utility.yul\":19644:19660   */\n      add\n        /* \"#utility.yul\":19637:19660   */\n      swap6\n      pop\n        /* \"#utility.yul\":19337:19670   */\n      pop\n      pop\n        /* \"#utility.yul\":19122:19670   */\n    tag_418:\n      pop\n        /* \"#utility.yul\":18911:19676   */\n      pop\n      pop\n        /* \"#utility.yul\":18806:19676   */\n      swap3\n      swap2\n      pop\n      pop\n      jump\t// out\n        /* \"#utility.yul\":19682:19947   */\n    tag_165:\n        /* \"#utility.yul\":19809:19812   */\n      0x00\n        /* \"#utility.yul\":19831:19921   */\n      tag_426\n        /* \"#utility.yul\":19917:19920   */\n      dup3\n        /* \"#utility.yul\":19908:19914   */\n      dup5\n        /* \"#utility.yul\":19831:19921   */\n      tag_227\n      jump\t// in\n    tag_426:\n        /* \"#utility.yul\":19824:19921   */\n      swap2\n      pop\n        /* \"#utility.yul\":19938:19941   */\n      dup2\n        /* \"#utility.yul\":19931:19941   */\n      swap1\n      pop\n        /* \"#utility.yul\":19682:19947   */\n      swap3\n      swap2\n      pop\n      pop\n      jump\t// out\n        /* \"#utility.yul\":19953:20120   */\n    tag_228:\n        /* \"#utility.yul\":20093:20112   */\n      0x74782065786563757465206661696c6564000000000000000000000000000000\n        /* \"#utility.yul\":20089:20090   */\n      0x00\n        /* \"#utility.yul\":20081:20087   */\n      dup3\n        /* \"#utility.yul\":20077:20091   */\n      add\n        /* \"#utility.yul\":20070:20113   */\n      mstore\n        /* \"#utility.yul\":19953:20120   */\n      pop\n      jump\t// out\n        /* \"#utility.yul\":20126:20492   */\n    tag_229:\n        /* \"#utility.yul\":20268:20271   */\n      0x00\n        /* \"#utility.yul\":20289:20356   */\n      tag_429\n        /* \"#utility.yul\":20353:20355   */\n      0x11\n        /* \"#utility.yul\":20348:20351   */\n      dup4\n        /* \"#utility.yul\":20289:20356   */\n      tag_195\n      jump\t// in\n    tag_429:\n        /* \"#utility.yul\":20282:20356   */\n      swap2\n      pop\n        /* \"#utility.yul\":20365:20458   */\n      tag_430\n        /* \"#utility.yul\":20454:20457   */\n      dup3\n        /* \"#utility.yul\":20365:20458   */\n      tag_228\n      jump\t// in\n    tag_430:\n        /* \"#utility.yul\":20483:20485   */\n      0x20\n        /* \"#utility.yul\":20478:20481   */\n      dup3\n        /* \"#utility.yul\":20474:20486   */\n      add\n        /* \"#utility.yul\":20467:20486   */\n      swap1\n      pop\n        /* \"#utility.yul\":20126:20492   */\n      swap2\n      swap1\n      pop\n      jump\t// out\n        /* \"#utility.yul\":20498:20917   */\n    tag_171:\n        /* \"#utility.yul\":20664:20668   */\n      0x00\n        /* \"#utility.yul\":20702:20704   */\n      0x20\n        /* \"#utility.yul\":20691:20700   */\n      dup3\n        /* \"#utility.yul\":20687:20705   */\n      add\n        /* \"#utility.yul\":20679:20705   */\n      swap1\n      pop\n        /* \"#utility.yul\":20751:20760   */\n      dup2\n        /* \"#utility.yul\":20745:20749   */\n      dup2\n        /* \"#utility.yul\":20741:20761   */\n      sub\n        /* \"#utility.yul\":20737:20738   */\n      0x00\n        /* \"#utility.yul\":20726:20735   */\n      dup4\n        /* \"#utility.yul\":20722:20739   */\n      add\n        /* \"#utility.yul\":20715:20762   */\n      mstore\n        /* \"#utility.yul\":20779:20910   */\n      tag_432\n        /* \"#utility.yul\":20905:20909   */\n      dup2\n        /* \"#utility.yul\":20779:20910   */\n      tag_229\n      jump\t// in\n    tag_432:\n        /* \"#utility.yul\":20771:20910   */\n      swap1\n      pop\n        /* \"#utility.yul\":20498:20917   */\n      swap2\n      swap1\n      pop\n      jump\t// out\n\n    auxdata: 0xa2646970667358221220f75c245a83b9fe1a936ce5538dd367a7495268d557b4f0c05ae921a9e674491864736f6c634300081a0033\n}\n",
				"bytecode": {
					"linkReferences": {},
					"object": "608060405234801561000f575f80fd5b50604051612146380380612146833981810160405281019061003191906104a2565b5f825111610074576040517f08c379a000000000000000000000000000000000000000000000000000000000815260040161006b90610556565b60405180910390fd5b5f81118015610084575081518111155b6100c3576040517f08c379a00000000000000000000000000000000000000000000000000000000081526004016100ba906105e4565b60405180910390fd5b5f5b82518110156102a5575f8382815181106100e2576100e1610602565b5b602002602001015190505f73ffffffffffffffffffffffffffffffffffffffff168173ffffffffffffffffffffffffffffffffffffffff160361015a576040517f08c379a000000000000000000000000000000000000000000000000000000000815260040161015190610679565b60405180910390fd5b60015f8273ffffffffffffffffffffffffffffffffffffffff1673ffffffffffffffffffffffffffffffffffffffff1681526020019081526020015f205f9054906101000a900460ff16156101e4576040517f08c379a00000000000000000000000000000000000000000000000000000000081526004016101db906106e1565b60405180910390fd5b6001805f8373ffffffffffffffffffffffffffffffffffffffff1673ffffffffffffffffffffffffffffffffffffffff1681526020019081526020015f205f6101000a81548160ff0219169083151502179055505f81908060018154018082558091505060019003905f5260205f20015f9091909190916101000a81548173ffffffffffffffffffffffffffffffffffffffff021916908373ffffffffffffffffffffffffffffffffffffffff1602179055505080806001019150506100c5565b508060028190555050506106ff565b5f604051905090565b5f80fd5b5f80fd5b5f80fd5b5f601f19601f8301169050919050565b7f4e487b71000000000000000000000000000000000000000000000000000000005f52604160045260245ffd5b61030f826102c9565b810181811067ffffffffffffffff8211171561032e5761032d6102d9565b5b80604052505050565b5f6103406102b4565b905061034c8282610306565b919050565b5f67ffffffffffffffff82111561036b5761036a6102d9565b5b602082029050602081019050919050565b5f80fd5b5f73ffffffffffffffffffffffffffffffffffffffff82169050919050565b5f6103a982610380565b9050919050565b6103b98161039f565b81146103c3575f80fd5b50565b5f815190506103d4816103b0565b92915050565b5f6103ec6103e784610351565b610337565b9050808382526020820190506020840283018581111561040f5761040e61037c565b5b835b81811015610438578061042488826103c6565b845260208401935050602081019050610411565b5050509392505050565b5f82601f830112610456576104556102c5565b5b81516104668482602086016103da565b91505092915050565b5f819050919050565b6104818161046f565b811461048b575f80fd5b50565b5f8151905061049c81610478565b92915050565b5f80604083850312156104b8576104b76102bd565b5b5f83015167ffffffffffffffff8111156104d5576104d46102c1565b5b6104e185828601610442565b92505060206104f28582860161048e565b9150509250929050565b5f82825260208201905092915050565b7f4d757374206265206f6e65206f776e6572206174206c656173740000000000005f82015250565b5f610540601a836104fc565b915061054b8261050c565b602082019050919050565b5f6020820190508181035f83015261056d81610534565b9050919050565b7f496e76616c6964207265717569726564207369676e617475726573206e756d625f8201527f6572206f66206f776e6572730000000000000000000000000000000000000000602082015250565b5f6105ce602c836104fc565b91506105d982610574565b604082019050919050565b5f6020820190508181035f8301526105fb816105c2565b9050919050565b7f4e487b71000000000000000000000000000000000000000000000000000000005f52603260045260245ffd5b7f496e76616c6964206f776e6572206164647265737300000000000000000000005f82015250565b5f6106636015836104fc565b915061066e8261062f565b602082019050919050565b5f6020820190508181035f83015261069081610657565b9050919050565b7f4f776e6572206973206e6f7420756e69717565000000000000000000000000005f82015250565b5f6106cb6013836104fc565b91506106d682610697565b602082019050919050565b5f6020820190508181035f8301526106f8816106bf565b9050919050565b611a3a8061070c5f395ff3fe60806040526004361061009f575f3560e01c80632f54bf6e116100635780632f54bf6e146101ec5780638253951a146102285780639ace38c214610264578063b759f954146102a3578063ba7e7cab146102cb578063fe0d94c114610307576100f4565b8063025e7c27146100f857806312065fe01461013457806314de327f1461015e5780631c62298a1461019a57806320c5429b146101c4576100f4565b366100f4573373ffffffffffffffffffffffffffffffffffffffff167fe1fffcc4923d04b559f4d29a8bfc6cda04eb5b0d3c460751c2402c5c5cc9109c346040516100ea9190610f80565b60405180910390a2005b5f80fd5b348015610103575f80fd5b5061011e60048036038101906101199190610fcb565b61032f565b60405161012b9190611035565b60405180910390f35b34801561013f575f80fd5b50610148610369565b6040516101559190610f80565b60405180910390f35b348015610169575f80fd5b50610184600480360381019061017f91906110d9565b610370565b6040516101919190610f80565b60405180910390f35b3480156101a5575f80fd5b506101ae61057d565b6040516101bb9190610f80565b60405180910390f35b3480156101cf575f80fd5b506101ea60048036038101906101e59190610fcb565b610583565b005b3480156101f7575f80fd5b50610212600480360381019061020d919061114a565b610809565b60405161021f919061118f565b60405180910390f35b348015610233575f80fd5b5061024e600480360381019061024991906111a8565b610826565b60405161025b919061118f565b60405180910390f35b34801561026f575f80fd5b5061028a60048036038101906102859190610fcb565b610850565b60405161029a9493929190611256565b60405180910390f35b3480156102ae575f80fd5b506102c960048036038101906102c49190610fcb565b61093c565b005b3480156102d6575f80fd5b506102f160048036038101906102ec9190610fcb565b610bc6565b6040516102fe9190610f80565b60405180910390f35b348015610312575f80fd5b5061032d60048036038101906103289190610fcb565b610c93565b005b5f818154811061033d575f80fd5b905f5260205f20015f915054906101000a900473ffffffffffffffffffffffffffffffffffffffff1681565b5f47905090565b5f60015f3373ffffffffffffffffffffffffffffffffffffffff1673ffffffffffffffffffffffffffffffffffffffff1681526020019081526020015f205f9054906101000a900460ff166103fa576040517f08c379a00000000000000000000000000000000000000000000000000000000081526004016103f1906112fa565b60405180910390fd5b600360405180608001604052808773ffffffffffffffffffffffffffffffffffffffff16815260200186815260200185858080601f0160208091040260200160405190810160405280939291908181526020018383808284375f81840152601f19601f8201169050808301925050505050505081526020015f1515815250908060018154018082558091505060019003905f5260205f2090600402015f909190919091505f820151815f015f6101000a81548173ffffffffffffffffffffffffffffffffffffffff021916908373ffffffffffffffffffffffffffffffffffffffff160217905550602082015181600101556040820151816002019081610501919061153f565b506060820151816003015f6101000a81548160ff02191690831515021790555050506001600380549050610535919061163b565b7f08324b3d745b914e3abd4ffbfead91e3b78391a98c173202129215ab933adfbe60405160405180910390a26001600380549050610573919061163b565b9050949350505050565b60025481565b60015f3373ffffffffffffffffffffffffffffffffffffffff1673ffffffffffffffffffffffffffffffffffffffff1681526020019081526020015f205f9054906101000a900460ff1661060c576040517f08c379a0000000000000000000000000000000000000000000000000000000008152600401610603906112fa565b60405180910390fd5b806003805490508110610654576040517f08c379a000000000000000000000000000000000000000000000000000000000815260040161064b906116b8565b60405180910390fd5b8160038181548110610669576106686116d6565b5b905f5260205f2090600402016003015f9054906101000a900460ff16156106c5576040517f08c379a00000000000000000000000000000000000000000000000000000000081526004016106bc9061174d565b60405180910390fd5b60045f8481526020019081526020015f205f3373ffffffffffffffffffffffffffffffffffffffff1673ffffffffffffffffffffffffffffffffffffffff1681526020019081526020015f205f9054906101000a900460ff1661075d576040517f08c379a0000000000000000000000000000000000000000000000000000000008152600401610754906117b5565b60405180910390fd5b5f60045f8581526020019081526020015f205f3373ffffffffffffffffffffffffffffffffffffffff1673ffffffffffffffffffffffffffffffffffffffff1681526020019081526020015f205f6101000a81548160ff021916908315150217905550823373ffffffffffffffffffffffffffffffffffffffff167fec9ab91322523c899ede7830ec9bfc992b5981cdcc27b91162fb23de5791117b60405160405180910390a3505050565b6001602052805f5260405f205f915054906101000a900460ff1681565b6004602052815f5260405f20602052805f5260405f205f915091509054906101000a900460ff1681565b6003818154811061085f575f80fd5b905f5260205f2090600402015f91509050805f015f9054906101000a900473ffffffffffffffffffffffffffffffffffffffff16908060010154908060020180546108a990611372565b80601f01602080910402602001604051908101604052809291908181526020018280546108d590611372565b80156109205780601f106108f757610100808354040283529160200191610920565b820191905f5260205f20905b81548152906001019060200180831161090357829003601f168201915b505050505090806003015f9054906101000a900460ff16905084565b60015f3373ffffffffffffffffffffffffffffffffffffffff1673ffffffffffffffffffffffffffffffffffffffff1681526020019081526020015f205f9054906101000a900460ff166109c5576040517f08c379a00000000000000000000000000000000000000000000000000000000081526004016109bc906112fa565b60405180910390fd5b806003805490508110610a0d576040517f08c379a0000000000000000000000000000000000000000000000000000000008152600401610a04906116b8565b60405180910390fd5b8160045f8281526020019081526020015f205f3373ffffffffffffffffffffffffffffffffffffffff1673ffffffffffffffffffffffffffffffffffffffff1681526020019081526020015f205f9054906101000a900460ff1615610aa7576040517f08c379a0000000000000000000000000000000000000000000000000000000008152600401610a9e9061181d565b60405180910390fd5b8260038181548110610abc57610abb6116d6565b5b905f5260205f2090600402016003015f9054906101000a900460ff1615610b18576040517f08c379a0000000000000000000000000000000000000000000000000000000008152600401610b0f9061174d565b60405180910390fd5b600160045f8681526020019081526020015f205f3373ffffffffffffffffffffffffffffffffffffffff1673ffffffffffffffffffffffffffffffffffffffff1681526020019081526020015f205f6101000a81548160ff021916908315150217905550833373ffffffffffffffffffffffffffffffffffffffff167f90ec57f18fa7b15c6b8d5e4d1deb90796c74b2ff23d4d0cecad0cb42a96b312860405160405180910390a350505050565b5f805f90505b5f80549050811015610c8d5760045f8481526020019081526020015f205f808381548110610bfd57610bfc6116d6565b5b905f5260205f20015f9054906101000a900473ffffffffffffffffffffffffffffffffffffffff1673ffffffffffffffffffffffffffffffffffffffff1673ffffffffffffffffffffffffffffffffffffffff1681526020019081526020015f205f9054906101000a900460ff1615610c8057600182610c7d919061183b565b91505b8080600101915050610bcc565b50919050565b60015f3373ffffffffffffffffffffffffffffffffffffffff1673ffffffffffffffffffffffffffffffffffffffff1681526020019081526020015f205f9054906101000a900460ff16610d1c576040517f08c379a0000000000000000000000000000000000000000000000000000000008152600401610d13906112fa565b60405180910390fd5b806003805490508110610d64576040517f08c379a0000000000000000000000000000000000000000000000000000000008152600401610d5b906116b8565b60405180910390fd5b8160038181548110610d7957610d786116d6565b5b905f5260205f2090600402016003015f9054906101000a900460ff1615610dd5576040517f08c379a0000000000000000000000000000000000000000000000000000000008152600401610dcc9061174d565b60405180910390fd5b600254610de184610bc6565b1015610e22576040517f08c379a0000000000000000000000000000000000000000000000000000000008152600401610e19906118de565b60405180910390fd5b5f60038481548110610e3757610e366116d6565b5b905f5260205f20906004020190506001816003015f6101000a81548160ff0219169083151502179055505f815f015f9054906101000a900473ffffffffffffffffffffffffffffffffffffffff1673ffffffffffffffffffffffffffffffffffffffff16826001015483600201604051610eb19190611986565b5f6040518083038185875af1925050503d805f8114610eeb576040519150601f19603f3d011682016040523d82523d5f602084013e610ef0565b606091505b5050905080610f34576040517f08c379a0000000000000000000000000000000000000000000000000000000008152600401610f2b906119e6565b60405180910390fd5b847fddb556f1d2c1ec821e910b019d3685b229db152a0ecd517ca7e24b8bd713928960405160405180910390a25050505050565b5f819050919050565b610f7a81610f68565b82525050565b5f602082019050610f935f830184610f71565b92915050565b5f80fd5b5f80fd5b610faa81610f68565b8114610fb4575f80fd5b50565b5f81359050610fc581610fa1565b92915050565b5f60208284031215610fe057610fdf610f99565b5b5f610fed84828501610fb7565b91505092915050565b5f73ffffffffffffffffffffffffffffffffffffffff82169050919050565b5f61101f82610ff6565b9050919050565b61102f81611015565b82525050565b5f6020820190506110485f830184611026565b92915050565b61105781611015565b8114611061575f80fd5b50565b5f813590506110728161104e565b92915050565b5f80fd5b5f80fd5b5f80fd5b5f8083601f84011261109957611098611078565b5b8235905067ffffffffffffffff8111156110b6576110b561107c565b5b6020830191508360018202830111156110d2576110d1611080565b5b9250929050565b5f805f80606085870312156110f1576110f0610f99565b5b5f6110fe87828801611064565b945050602061110f87828801610fb7565b935050604085013567ffffffffffffffff8111156111305761112f610f9d565b5b61113c87828801611084565b925092505092959194509250565b5f6020828403121561115f5761115e610f99565b5b5f61116c84828501611064565b91505092915050565b5f8115159050919050565b61118981611175565b82525050565b5f6020820190506111a25f830184611180565b92915050565b5f80604083850312156111be576111bd610f99565b5b5f6111cb85828601610fb7565b92505060206111dc85828601611064565b9150509250929050565b5f81519050919050565b5f82825260208201905092915050565b8281835e5f83830152505050565b5f601f19601f8301169050919050565b5f611228826111e6565b61123281856111f0565b9350611242818560208601611200565b61124b8161120e565b840191505092915050565b5f6080820190506112695f830187611026565b6112766020830186610f71565b8181036040830152611288818561121e565b90506112976060830184611180565b95945050505050565b5f82825260208201905092915050565b7f596f7520617265206e6f74206f776e65720000000000000000000000000000005f82015250565b5f6112e46011836112a0565b91506112ef826112b0565b602082019050919050565b5f6020820190508181035f830152611311816112d8565b9050919050565b7f4e487b71000000000000000000000000000000000000000000000000000000005f52604160045260245ffd5b7f4e487b71000000000000000000000000000000000000000000000000000000005f52602260045260245ffd5b5f600282049050600182168061138957607f821691505b60208210810361139c5761139b611345565b5b50919050565b5f819050815f5260205f209050919050565b5f6020601f8301049050919050565b5f82821b905092915050565b5f600883026113fe7fffffffffffffffffffffffffffffffffffffffffffffffffffffffffffffffff826113c3565b61140886836113c3565b95508019841693508086168417925050509392505050565b5f819050919050565b5f61144361143e61143984610f68565b611420565b610f68565b9050919050565b5f819050919050565b61145c83611429565b6114706114688261144a565b8484546113cf565b825550505050565b5f90565b611484611478565b61148f818484611453565b505050565b5b818110156114b2576114a75f8261147c565b600181019050611495565b5050565b601f8211156114f7576114c8816113a2565b6114d1846113b4565b810160208510156114e0578190505b6114f46114ec856113b4565b830182611494565b50505b505050565b5f82821c905092915050565b5f6115175f19846008026114fc565b1980831691505092915050565b5f61152f8383611508565b9150826002028217905092915050565b611548826111e6565b67ffffffffffffffff81111561156157611560611318565b5b61156b8254611372565b6115768282856114b6565b5f60209050601f8311600181146115a7575f8415611595578287015190505b61159f8582611524565b865550611606565b601f1984166115b5866113a2565b5f5b828110156115dc578489015182556001820191506020850194506020810190506115b7565b868310156115f957848901516115f5601f891682611508565b8355505b6001600288020188555050505b505050505050565b7f4e487b71000000000000000000000000000000000000000000000000000000005f52601160045260245ffd5b5f61164582610f68565b915061165083610f68565b92508282039050818111156116685761166761160e565b5b92915050565b7f747820646f65736e2774206578697374000000000000000000000000000000005f82015250565b5f6116a26010836112a0565b91506116ad8261166e565b602082019050919050565b5f6020820190508181035f8301526116cf81611696565b9050919050565b7f4e487b71000000000000000000000000000000000000000000000000000000005f52603260045260245ffd5b7f74782069732065786563746564000000000000000000000000000000000000005f82015250565b5f611737600d836112a0565b915061174282611703565b602082019050919050565b5f6020820190508181035f8301526117648161172b565b9050919050565b7f7478206e6f7420617070726f76656400000000000000000000000000000000005f82015250565b5f61179f600f836112a0565b91506117aa8261176b565b602082019050919050565b5f6020820190508181035f8301526117cc81611793565b9050919050565b7f747820616c726561647920617070726f766564000000000000000000000000005f82015250565b5f6118076013836112a0565b9150611812826117d3565b602082019050919050565b5f6020820190508181035f830152611834816117fb565b9050919050565b5f61184582610f68565b915061185083610f68565b92508282019050808211156118685761186761160e565b5b92915050565b7f417070726f76616c20636f756e74203c207265717569726564207369676e61745f8201527f7572657300000000000000000000000000000000000000000000000000000000602082015250565b5f6118c86024836112a0565b91506118d38261186e565b604082019050919050565b5f6020820190508181035f8301526118f5816118bc565b9050919050565b5f81905092915050565b5f815461191281611372565b61191c81866118fc565b9450600182165f8114611936576001811461194b5761197d565b60ff198316865281151582028601935061197d565b611954856113a2565b5f5b8381101561197557815481890152600182019150602081019050611956565b838801955050505b50505092915050565b5f6119918284611906565b915081905092915050565b7f74782065786563757465206661696c65640000000000000000000000000000005f82015250565b5f6119d06011836112a0565b91506119db8261199c565b602082019050919050565b5f6020820190508181035f8301526119fd816119c4565b905091905056fea2646970667358221220f75c245a83b9fe1a936ce5538dd367a7495268d557b4f0c05ae921a9e674491864736f6c634300081a0033",
					"opcodes": "PUSH1 0x80 PUSH1 0x40 MSTORE CALLVALUE DUP1 ISZERO PUSH2 0xF JUMPI PUSH0 DUP1 REVERT JUMPDEST POP PUSH1 0x40 MLOAD PUSH2 0x2146 CODESIZE SUB DUP1 PUSH2 0x2146 DUP4 CODECOPY DUP2 DUP2 ADD PUSH1 0x40 MSTORE DUP2 ADD SWAP1 PUSH2 0x31 SWAP2 SWAP1 PUSH2 0x4A2 JUMP JUMPDEST PUSH0 DUP3 MLOAD GT PUSH2 0x74 JUMPI PUSH1 0x40 MLOAD PUSH32 0x8C379A000000000000000000000000000000000000000000000000000000000 DUP2 MSTORE PUSH1 0x4 ADD PUSH2 0x6B SWAP1 PUSH2 0x556 JUMP JUMPDEST PUSH1 0x40 MLOAD DUP1 SWAP2 SUB SWAP1 REVERT JUMPDEST PUSH0 DUP2 GT DUP1 ISZERO PUSH2 0x84 JUMPI POP DUP2 MLOAD DUP2 GT ISZERO JUMPDEST PUSH2 0xC3 JUMPI PUSH1 0x40 MLOAD PUSH32 0x8C379A000000000000000000000000000000000000000000000000000000000 DUP2 MSTORE PUSH1 0x4 ADD PUSH2 0xBA SWAP1 PUSH2 0x5E4 JUMP JUMPDEST PUSH1 0x40 MLOAD DUP1 SWAP2 SUB SWAP1 REVERT JUMPDEST PUSH0 JUMPDEST DUP3 MLOAD DUP2 LT ISZERO PUSH2 0x2A5 JUMPI PUSH0 DUP4 DUP3 DUP2 MLOAD DUP2 LT PUSH2 0xE2 JUMPI PUSH2 0xE1 PUSH2 0x602 JUMP JUMPDEST JUMPDEST PUSH1 0x20 MUL PUSH1 0x20 ADD ADD MLOAD SWAP1 POP PUSH0 PUSH20 0xFFFFFFFFFFFFFFFFFFFFFFFFFFFFFFFFFFFFFFFF AND DUP2 PUSH20 0xFFFFFFFFFFFFFFFFFFFFFFFFFFFFFFFFFFFFFFFF AND SUB PUSH2 0x15A JUMPI PUSH1 0x40 MLOAD PUSH32 0x8C379A000000000000000000000000000000000000000000000000000000000 DUP2 MSTORE PUSH1 0x4 ADD PUSH2 0x151 SWAP1 PUSH2 0x679 JUMP JUMPDEST PUSH1 0x40 MLOAD DUP1 SWAP2 SUB SWAP1 REVERT JUMPDEST PUSH1 0x1 PUSH0 DUP3 PUSH20 0xFFFFFFFFFFFFFFFFFFFFFFFFFFFFFFFFFFFFFFFF AND PUSH20 0xFFFFFFFFFFFFFFFFFFFFFFFFFFFFFFFFFFFFFFFF AND DUP2 MSTORE PUSH1 0x20 ADD SWAP1 DUP2 MSTORE PUSH1 0x20 ADD PUSH0 KECCAK256 PUSH0 SWAP1 SLOAD SWAP1 PUSH2 0x100 EXP SWAP1 DIV PUSH1 0xFF AND ISZERO PUSH2 0x1E4 JUMPI PUSH1 0x40 MLOAD PUSH32 0x8C379A000000000000000000000000000000000000000000000000000000000 DUP2 MSTORE PUSH1 0x4 ADD PUSH2 0x1DB SWAP1 PUSH2 0x6E1 JUMP JUMPDEST PUSH1 0x40 MLOAD DUP1 SWAP2 SUB SWAP1 REVERT JUMPDEST PUSH1 0x1 DUP1 PUSH0 DUP4 PUSH20 0xFFFFFFFFFFFFFFFFFFFFFFFFFFFFFFFFFFFFFFFF AND PUSH20 0xFFFFFFFFFFFFFFFFFFFFFFFFFFFFFFFFFFFFFFFF AND DUP2 MSTORE PUSH1 0x20 ADD SWAP1 DUP2 MSTORE PUSH1 0x20 ADD PUSH0 KECCAK256 PUSH0 PUSH2 0x100 EXP DUP2 SLOAD DUP2 PUSH1 0xFF MUL NOT AND SWAP1 DUP4 ISZERO ISZERO MUL OR SWAP1 SSTORE POP PUSH0 DUP2 SWAP1 DUP1 PUSH1 0x1 DUP2 SLOAD ADD DUP1 DUP3 SSTORE DUP1 SWAP2 POP POP PUSH1 0x1 SWAP1 SUB SWAP1 PUSH0 MSTORE PUSH1 0x20 PUSH0 KECCAK256 ADD PUSH0 SWAP1 SWAP2 SWAP1 SWAP2 SWAP1 SWAP2 PUSH2 0x100 EXP DUP2 SLOAD DUP2 PUSH20 0xFFFFFFFFFFFFFFFFFFFFFFFFFFFFFFFFFFFFFFFF MUL NOT AND SWAP1 DUP4 PUSH20 0xFFFFFFFFFFFFFFFFFFFFFFFFFFFFFFFFFFFFFFFF AND MUL OR SWAP1 SSTORE POP POP DUP1 DUP1 PUSH1 0x1 ADD SWAP2 POP POP PUSH2 0xC5 JUMP JUMPDEST POP DUP1 PUSH1 0x2 DUP2 SWAP1 SSTORE POP POP POP PUSH2 0x6FF JUMP JUMPDEST PUSH0 PUSH1 0x40 MLOAD SWAP1 POP SWAP1 JUMP JUMPDEST PUSH0 DUP1 REVERT JUMPDEST PUSH0 DUP1 REVERT JUMPDEST PUSH0 DUP1 REVERT JUMPDEST PUSH0 PUSH1 0x1F NOT PUSH1 0x1F DUP4 ADD AND SWAP1 POP SWAP2 SWAP1 POP JUMP JUMPDEST PUSH32 0x4E487B7100000000000000000000000000000000000000000000000000000000 PUSH0 MSTORE PUSH1 0x41 PUSH1 0x4 MSTORE PUSH1 0x24 PUSH0 REVERT JUMPDEST PUSH2 0x30F DUP3 PUSH2 0x2C9 JUMP JUMPDEST DUP2 ADD DUP2 DUP2 LT PUSH8 0xFFFFFFFFFFFFFFFF DUP3 GT OR ISZERO PUSH2 0x32E JUMPI PUSH2 0x32D PUSH2 0x2D9 JUMP JUMPDEST JUMPDEST DUP1 PUSH1 0x40 MSTORE POP POP POP JUMP JUMPDEST PUSH0 PUSH2 0x340 PUSH2 0x2B4 JUMP JUMPDEST SWAP1 POP PUSH2 0x34C DUP3 DUP3 PUSH2 0x306 JUMP JUMPDEST SWAP2 SWAP1 POP JUMP JUMPDEST PUSH0 PUSH8 0xFFFFFFFFFFFFFFFF DUP3 GT ISZERO PUSH2 0x36B JUMPI PUSH2 0x36A PUSH2 0x2D9 JUMP JUMPDEST JUMPDEST PUSH1 0x20 DUP3 MUL SWAP1 POP PUSH1 0x20 DUP2 ADD SWAP1 POP SWAP2 SWAP1 POP JUMP JUMPDEST PUSH0 DUP1 REVERT JUMPDEST PUSH0 PUSH20 0xFFFFFFFFFFFFFFFFFFFFFFFFFFFFFFFFFFFFFFFF DUP3 AND SWAP1 POP SWAP2 SWAP1 POP JUMP JUMPDEST PUSH0 PUSH2 0x3A9 DUP3 PUSH2 0x380 JUMP JUMPDEST SWAP1 POP SWAP2 SWAP1 POP JUMP JUMPDEST PUSH2 0x3B9 DUP2 PUSH2 0x39F JUMP JUMPDEST DUP2 EQ PUSH2 0x3C3 JUMPI PUSH0 DUP1 REVERT JUMPDEST POP JUMP JUMPDEST PUSH0 DUP2 MLOAD SWAP1 POP PUSH2 0x3D4 DUP2 PUSH2 0x3B0 JUMP JUMPDEST SWAP3 SWAP2 POP POP JUMP JUMPDEST PUSH0 PUSH2 0x3EC PUSH2 0x3E7 DUP5 PUSH2 0x351 JUMP JUMPDEST PUSH2 0x337 JUMP JUMPDEST SWAP1 POP DUP1 DUP4 DUP3 MSTORE PUSH1 0x20 DUP3 ADD SWAP1 POP PUSH1 0x20 DUP5 MUL DUP4 ADD DUP6 DUP2 GT ISZERO PUSH2 0x40F JUMPI PUSH2 0x40E PUSH2 0x37C JUMP JUMPDEST JUMPDEST DUP4 JUMPDEST DUP2 DUP2 LT ISZERO PUSH2 0x438 JUMPI DUP1 PUSH2 0x424 DUP9 DUP3 PUSH2 0x3C6 JUMP JUMPDEST DUP5 MSTORE PUSH1 0x20 DUP5 ADD SWAP4 POP POP PUSH1 0x20 DUP2 ADD SWAP1 POP PUSH2 0x411 JUMP JUMPDEST POP POP POP SWAP4 SWAP3 POP POP POP JUMP JUMPDEST PUSH0 DUP3 PUSH1 0x1F DUP4 ADD SLT PUSH2 0x456 JUMPI PUSH2 0x455 PUSH2 0x2C5 JUMP JUMPDEST JUMPDEST DUP2 MLOAD PUSH2 0x466 DUP5 DUP3 PUSH1 0x20 DUP7 ADD PUSH2 0x3DA JUMP JUMPDEST SWAP2 POP POP SWAP3 SWAP2 POP POP JUMP JUMPDEST PUSH0 DUP2 SWAP1 POP SWAP2 SWAP1 POP JUMP JUMPDEST PUSH2 0x481 DUP2 PUSH2 0x46F JUMP JUMPDEST DUP2 EQ PUSH2 0x48B JUMPI PUSH0 DUP1 REVERT JUMPDEST POP JUMP JUMPDEST PUSH0 DUP2 MLOAD SWAP1 POP PUSH2 0x49C DUP2 PUSH2 0x478 JUMP JUMPDEST SWAP3 SWAP2 POP POP JUMP JUMPDEST PUSH0 DUP1 PUSH1 0x40 DUP4 DUP6 SUB SLT ISZERO PUSH2 0x4B8 JUMPI PUSH2 0x4B7 PUSH2 0x2BD JUMP JUMPDEST JUMPDEST PUSH0 DUP4 ADD MLOAD PUSH8 0xFFFFFFFFFFFFFFFF DUP2 GT ISZERO PUSH2 0x4D5 JUMPI PUSH2 0x4D4 PUSH2 0x2C1 JUMP JUMPDEST JUMPDEST PUSH2 0x4E1 DUP6 DUP3 DUP7 ADD PUSH2 0x442 JUMP JUMPDEST SWAP3 POP POP PUSH1 0x20 PUSH2 0x4F2 DUP6 DUP3 DUP7 ADD PUSH2 0x48E JUMP JUMPDEST SWAP2 POP POP SWAP3 POP SWAP3 SWAP1 POP JUMP JUMPDEST PUSH0 DUP3 DUP3 MSTORE PUSH1 0x20 DUP3 ADD SWAP1 POP SWAP3 SWAP2 POP POP JUMP JUMPDEST PUSH32 0x4D757374206265206F6E65206F776E6572206174206C65617374000000000000 PUSH0 DUP3 ADD MSTORE POP JUMP JUMPDEST PUSH0 PUSH2 0x540 PUSH1 0x1A DUP4 PUSH2 0x4FC JUMP JUMPDEST SWAP2 POP PUSH2 0x54B DUP3 PUSH2 0x50C JUMP JUMPDEST PUSH1 0x20 DUP3 ADD SWAP1 POP SWAP2 SWAP1 POP JUMP JUMPDEST PUSH0 PUSH1 0x20 DUP3 ADD SWAP1 POP DUP2 DUP2 SUB PUSH0 DUP4 ADD MSTORE PUSH2 0x56D DUP2 PUSH2 0x534 JUMP JUMPDEST SWAP1 POP SWAP2 SWAP1 POP JUMP JUMPDEST PUSH32 0x496E76616C6964207265717569726564207369676E617475726573206E756D62 PUSH0 DUP3 ADD MSTORE PUSH32 0x6572206F66206F776E6572730000000000000000000000000000000000000000 PUSH1 0x20 DUP3 ADD MSTORE POP JUMP JUMPDEST PUSH0 PUSH2 0x5CE PUSH1 0x2C DUP4 PUSH2 0x4FC JUMP JUMPDEST SWAP2 POP PUSH2 0x5D9 DUP3 PUSH2 0x574 JUMP JUMPDEST PUSH1 0x40 DUP3 ADD SWAP1 POP SWAP2 SWAP1 POP JUMP JUMPDEST PUSH0 PUSH1 0x20 DUP3 ADD SWAP1 POP DUP2 DUP2 SUB PUSH0 DUP4 ADD MSTORE PUSH2 0x5FB DUP2 PUSH2 0x5C2 JUMP JUMPDEST SWAP1 POP SWAP2 SWAP1 POP JUMP JUMPDEST PUSH32 0x4E487B7100000000000000000000000000000000000000000000000000000000 PUSH0 MSTORE PUSH1 0x32 PUSH1 0x4 MSTORE PUSH1 0x24 PUSH0 REVERT JUMPDEST PUSH32 0x496E76616C6964206F776E657220616464726573730000000000000000000000 PUSH0 DUP3 ADD MSTORE POP JUMP JUMPDEST PUSH0 PUSH2 0x663 PUSH1 0x15 DUP4 PUSH2 0x4FC JUMP JUMPDEST SWAP2 POP PUSH2 0x66E DUP3 PUSH2 0x62F JUMP JUMPDEST PUSH1 0x20 DUP3 ADD SWAP1 POP SWAP2 SWAP1 POP JUMP JUMPDEST PUSH0 PUSH1 0x20 DUP3 ADD SWAP1 POP DUP2 DUP2 SUB PUSH0 DUP4 ADD MSTORE PUSH2 0x690 DUP2 PUSH2 0x657 JUMP JUMPDEST SWAP1 POP SWAP2 SWAP1 POP JUMP JUMPDEST PUSH32 0x4F776E6572206973206E6F7420756E6971756500000000000000000000000000 PUSH0 DUP3 ADD MSTORE POP JUMP JUMPDEST PUSH0 PUSH2 0x6CB PUSH1 0x13 DUP4 PUSH2 0x4FC JUMP JUMPDEST SWAP2 POP PUSH2 0x6D6 DUP3 PUSH2 0x697 JUMP JUMPDEST PUSH1 0x20 DUP3 ADD SWAP1 POP SWAP2 SWAP1 POP JUMP JUMPDEST PUSH0 PUSH1 0x20 DUP3 ADD SWAP1 POP DUP2 DUP2 SUB PUSH0 DUP4 ADD MSTORE PUSH2 0x6F8 DUP2 PUSH2 0x6BF JUMP JUMPDEST SWAP1 POP SWAP2 SWAP1 POP JUMP JUMPDEST PUSH2 0x1A3A DUP1 PUSH2 0x70C PUSH0 CODECOPY PUSH0 RETURN INVALID PUSH1 0x80 PUSH1 0x40 MSTORE PUSH1 0x4 CALLDATASIZE LT PUSH2 0x9F JUMPI PUSH0 CALLDATALOAD PUSH1 0xE0 SHR DUP1 PUSH4 0x2F54BF6E GT PUSH2 0x63 JUMPI DUP1 PUSH4 0x2F54BF6E EQ PUSH2 0x1EC JUMPI DUP1 PUSH4 0x8253951A EQ PUSH2 0x228 JUMPI DUP1 PUSH4 0x9ACE38C2 EQ PUSH2 0x264 JUMPI DUP1 PUSH4 0xB759F954 EQ PUSH2 0x2A3 JUMPI DUP1 PUSH4 0xBA7E7CAB EQ PUSH2 0x2CB JUMPI DUP1 PUSH4 0xFE0D94C1 EQ PUSH2 0x307 JUMPI PUSH2 0xF4 JUMP JUMPDEST DUP1 PUSH4 0x25E7C27 EQ PUSH2 0xF8 JUMPI DUP1 PUSH4 0x12065FE0 EQ PUSH2 0x134 JUMPI DUP1 PUSH4 0x14DE327F EQ PUSH2 0x15E JUMPI DUP1 PUSH4 0x1C62298A EQ PUSH2 0x19A JUMPI DUP1 PUSH4 0x20C5429B EQ PUSH2 0x1C4 JUMPI PUSH2 0xF4 JUMP JUMPDEST CALLDATASIZE PUSH2 0xF4 JUMPI CALLER PUSH20 0xFFFFFFFFFFFFFFFFFFFFFFFFFFFFFFFFFFFFFFFF AND PUSH32 0xE1FFFCC4923D04B559F4D29A8BFC6CDA04EB5B0D3C460751C2402C5C5CC9109C CALLVALUE PUSH1 0x40 MLOAD PUSH2 0xEA SWAP2 SWAP1 PUSH2 0xF80 JUMP JUMPDEST PUSH1 0x40 MLOAD DUP1 SWAP2 SUB SWAP1 LOG2 STOP JUMPDEST PUSH0 DUP1 REVERT JUMPDEST CALLVALUE DUP1 ISZERO PUSH2 0x103 JUMPI PUSH0 DUP1 REVERT JUMPDEST POP PUSH2 0x11E PUSH1 0x4 DUP1 CALLDATASIZE SUB DUP2 ADD SWAP1 PUSH2 0x119 SWAP2 SWAP1 PUSH2 0xFCB JUMP JUMPDEST PUSH2 0x32F JUMP JUMPDEST PUSH1 0x40 MLOAD PUSH2 0x12B SWAP2 SWAP1 PUSH2 0x1035 JUMP JUMPDEST PUSH1 0x40 MLOAD DUP1 SWAP2 SUB SWAP1 RETURN JUMPDEST CALLVALUE DUP1 ISZERO PUSH2 0x13F JUMPI PUSH0 DUP1 REVERT JUMPDEST POP PUSH2 0x148 PUSH2 0x369 JUMP JUMPDEST PUSH1 0x40 MLOAD PUSH2 0x155 SWAP2 SWAP1 PUSH2 0xF80 JUMP JUMPDEST PUSH1 0x40 MLOAD DUP1 SWAP2 SUB SWAP1 RETURN JUMPDEST CALLVALUE DUP1 ISZERO PUSH2 0x169 JUMPI PUSH0 DUP1 REVERT JUMPDEST POP PUSH2 0x184 PUSH1 0x4 DUP1 CALLDATASIZE SUB DUP2 ADD SWAP1 PUSH2 0x17F SWAP2 SWAP1 PUSH2 0x10D9 JUMP JUMPDEST PUSH2 0x370 JUMP JUMPDEST PUSH1 0x40 MLOAD PUSH2 0x191 SWAP2 SWAP1 PUSH2 0xF80 JUMP JUMPDEST PUSH1 0x40 MLOAD DUP1 SWAP2 SUB SWAP1 RETURN JUMPDEST CALLVALUE DUP1 ISZERO PUSH2 0x1A5 JUMPI PUSH0 DUP1 REVERT JUMPDEST POP PUSH2 0x1AE PUSH2 0x57D JUMP JUMPDEST PUSH1 0x40 MLOAD PUSH2 0x1BB SWAP2 SWAP1 PUSH2 0xF80 JUMP JUMPDEST PUSH1 0x40 MLOAD DUP1 SWAP2 SUB SWAP1 RETURN JUMPDEST CALLVALUE DUP1 ISZERO PUSH2 0x1CF JUMPI PUSH0 DUP1 REVERT JUMPDEST POP PUSH2 0x1EA PUSH1 0x4 DUP1 CALLDATASIZE SUB DUP2 ADD SWAP1 PUSH2 0x1E5 SWAP2 SWAP1 PUSH2 0xFCB JUMP JUMPDEST PUSH2 0x583 JUMP JUMPDEST STOP JUMPDEST CALLVALUE DUP1 ISZERO PUSH2 0x1F7 JUMPI PUSH0 DUP1 REVERT JUMPDEST POP PUSH2 0x212 PUSH1 0x4 DUP1 CALLDATASIZE SUB DUP2 ADD SWAP1 PUSH2 0x20D SWAP2 SWAP1 PUSH2 0x114A JUMP JUMPDEST PUSH2 0x809 JUMP JUMPDEST PUSH1 0x40 MLOAD PUSH2 0x21F SWAP2 SWAP1 PUSH2 0x118F JUMP JUMPDEST PUSH1 0x40 MLOAD DUP1 SWAP2 SUB SWAP1 RETURN JUMPDEST CALLVALUE DUP1 ISZERO PUSH2 0x233 JUMPI PUSH0 DUP1 REVERT JUMPDEST POP PUSH2 0x24E PUSH1 0x4 DUP1 CALLDATASIZE SUB DUP2 ADD SWAP1 PUSH2 0x249 SWAP2 SWAP1 PUSH2 0x11A8 JUMP JUMPDEST PUSH2 0x826 JUMP JUMPDEST PUSH1 0x40 MLOAD PUSH2 0x25B SWAP2 SWAP1 PUSH2 0x118F JUMP JUMPDEST PUSH1 0x40 MLOAD DUP1 SWAP2 SUB SWAP1 RETURN JUMPDEST CALLVALUE DUP1 ISZERO PUSH2 0x26F JUMPI PUSH0 DUP1 REVERT JUMPDEST POP PUSH2 0x28A PUSH1 0x4 DUP1 CALLDATASIZE SUB DUP2 ADD SWAP1 PUSH2 0x285 SWAP2 SWAP1 PUSH2 0xFCB JUMP JUMPDEST PUSH2 0x850 JUMP JUMPDEST PUSH1 0x40 MLOAD PUSH2 0x29A SWAP5 SWAP4 SWAP3 SWAP2 SWAP1 PUSH2 0x1256 JUMP JUMPDEST PUSH1 0x40 MLOAD DUP1 SWAP2 SUB SWAP1 RETURN JUMPDEST CALLVALUE DUP1 ISZERO PUSH2 0x2AE JUMPI PUSH0 DUP1 REVERT JUMPDEST POP PUSH2 0x2C9 PUSH1 0x4 DUP1 CALLDATASIZE SUB DUP2 ADD SWAP1 PUSH2 0x2C4 SWAP2 SWAP1 PUSH2 0xFCB JUMP JUMPDEST PUSH2 0x93C JUMP JUMPDEST STOP JUMPDEST CALLVALUE DUP1 ISZERO PUSH2 0x2D6 JUMPI PUSH0 DUP1 REVERT JUMPDEST POP PUSH2 0x2F1 PUSH1 0x4 DUP1 CALLDATASIZE SUB DUP2 ADD SWAP1 PUSH2 0x2EC SWAP2 SWAP1 PUSH2 0xFCB JUMP JUMPDEST PUSH2 0xBC6 JUMP JUMPDEST PUSH1 0x40 MLOAD PUSH2 0x2FE SWAP2 SWAP1 PUSH2 0xF80 JUMP JUMPDEST PUSH1 0x40 MLOAD DUP1 SWAP2 SUB SWAP1 RETURN JUMPDEST CALLVALUE DUP1 ISZERO PUSH2 0x312 JUMPI PUSH0 DUP1 REVERT JUMPDEST POP PUSH2 0x32D PUSH1 0x4 DUP1 CALLDATASIZE SUB DUP2 ADD SWAP1 PUSH2 0x328 SWAP2 SWAP1 PUSH2 0xFCB JUMP JUMPDEST PUSH2 0xC93 JUMP JUMPDEST STOP JUMPDEST PUSH0 DUP2 DUP2 SLOAD DUP2 LT PUSH2 0x33D JUMPI PUSH0 DUP1 REVERT JUMPDEST SWAP1 PUSH0 MSTORE PUSH1 0x20 PUSH0 KECCAK256 ADD PUSH0 SWAP2 POP SLOAD SWAP1 PUSH2 0x100 EXP SWAP1 DIV PUSH20 0xFFFFFFFFFFFFFFFFFFFFFFFFFFFFFFFFFFFFFFFF AND DUP2 JUMP JUMPDEST PUSH0 SELFBALANCE SWAP1 POP SWAP1 JUMP JUMPDEST PUSH0 PUSH1 0x1 PUSH0 CALLER PUSH20 0xFFFFFFFFFFFFFFFFFFFFFFFFFFFFFFFFFFFFFFFF AND PUSH20 0xFFFFFFFFFFFFFFFFFFFFFFFFFFFFFFFFFFFFFFFF AND DUP2 MSTORE PUSH1 0x20 ADD SWAP1 DUP2 MSTORE PUSH1 0x20 ADD PUSH0 KECCAK256 PUSH0 SWAP1 SLOAD SWAP1 PUSH2 0x100 EXP SWAP1 DIV PUSH1 0xFF AND PUSH2 0x3FA JUMPI PUSH1 0x40 MLOAD PUSH32 0x8C379A000000000000000000000000000000000000000000000000000000000 DUP2 MSTORE PUSH1 0x4 ADD PUSH2 0x3F1 SWAP1 PUSH2 0x12FA JUMP JUMPDEST PUSH1 0x40 MLOAD DUP1 SWAP2 SUB SWAP1 REVERT JUMPDEST PUSH1 0x3 PUSH1 0x40 MLOAD DUP1 PUSH1 0x80 ADD PUSH1 0x40 MSTORE DUP1 DUP8 PUSH20 0xFFFFFFFFFFFFFFFFFFFFFFFFFFFFFFFFFFFFFFFF AND DUP2 MSTORE PUSH1 0x20 ADD DUP7 DUP2 MSTORE PUSH1 0x20 ADD DUP6 DUP6 DUP1 DUP1 PUSH1 0x1F ADD PUSH1 0x20 DUP1 SWAP2 DIV MUL PUSH1 0x20 ADD PUSH1 0x40 MLOAD SWAP1 DUP2 ADD PUSH1 0x40 MSTORE DUP1 SWAP4 SWAP3 SWAP2 SWAP1 DUP2 DUP2 MSTORE PUSH1 0x20 ADD DUP4 DUP4 DUP1 DUP3 DUP5 CALLDATACOPY PUSH0 DUP2 DUP5 ADD MSTORE PUSH1 0x1F NOT PUSH1 0x1F DUP3 ADD AND SWAP1 POP DUP1 DUP4 ADD SWAP3 POP POP POP POP POP POP POP DUP2 MSTORE PUSH1 0x20 ADD PUSH0 ISZERO ISZERO DUP2 MSTORE POP SWAP1 DUP1 PUSH1 0x1 DUP2 SLOAD ADD DUP1 DUP3 SSTORE DUP1 SWAP2 POP POP PUSH1 0x1 SWAP1 SUB SWAP1 PUSH0 MSTORE PUSH1 0x20 PUSH0 KECCAK256 SWAP1 PUSH1 0x4 MUL ADD PUSH0 SWAP1 SWAP2 SWAP1 SWAP2 SWAP1 SWAP2 POP PUSH0 DUP3 ADD MLOAD DUP2 PUSH0 ADD PUSH0 PUSH2 0x100 EXP DUP2 SLOAD DUP2 PUSH20 0xFFFFFFFFFFFFFFFFFFFFFFFFFFFFFFFFFFFFFFFF MUL NOT AND SWAP1 DUP4 PUSH20 0xFFFFFFFFFFFFFFFFFFFFFFFFFFFFFFFFFFFFFFFF AND MUL OR SWAP1 SSTORE POP PUSH1 0x20 DUP3 ADD MLOAD DUP2 PUSH1 0x1 ADD SSTORE PUSH1 0x40 DUP3 ADD MLOAD DUP2 PUSH1 0x2 ADD SWAP1 DUP2 PUSH2 0x501 SWAP2 SWAP1 PUSH2 0x153F JUMP JUMPDEST POP PUSH1 0x60 DUP3 ADD MLOAD DUP2 PUSH1 0x3 ADD PUSH0 PUSH2 0x100 EXP DUP2 SLOAD DUP2 PUSH1 0xFF MUL NOT AND SWAP1 DUP4 ISZERO ISZERO MUL OR SWAP1 SSTORE POP POP POP PUSH1 0x1 PUSH1 0x3 DUP1 SLOAD SWAP1 POP PUSH2 0x535 SWAP2 SWAP1 PUSH2 0x163B JUMP JUMPDEST PUSH32 0x8324B3D745B914E3ABD4FFBFEAD91E3B78391A98C173202129215AB933ADFBE PUSH1 0x40 MLOAD PUSH1 0x40 MLOAD DUP1 SWAP2 SUB SWAP1 LOG2 PUSH1 0x1 PUSH1 0x3 DUP1 SLOAD SWAP1 POP PUSH2 0x573 SWAP2 SWAP1 PUSH2 0x163B JUMP JUMPDEST SWAP1 POP SWAP5 SWAP4 POP POP POP POP JUMP JUMPDEST PUSH1 0x2 SLOAD DUP2 JUMP JUMPDEST PUSH1 0x1 PUSH0 CALLER PUSH20 0xFFFFFFFFFFFFFFFFFFFFFFFFFFFFFFFFFFFFFFFF AND PUSH20 0xFFFFFFFFFFFFFFFFFFFFFFFFFFFFFFFFFFFFFFFF AND DUP2 MSTORE PUSH1 0x20 ADD SWAP1 DUP2 MSTORE PUSH1 0x20 ADD PUSH0 KECCAK256 PUSH0 SWAP1 SLOAD SWAP1 PUSH2 0x100 EXP SWAP1 DIV PUSH1 0xFF AND PUSH2 0x60C JUMPI PUSH1 0x40 MLOAD PUSH32 0x8C379A000000000000000000000000000000000000000000000000000000000 DUP2 MSTORE PUSH1 0x4 ADD PUSH2 0x603 SWAP1 PUSH2 0x12FA JUMP JUMPDEST PUSH1 0x40 MLOAD DUP1 SWAP2 SUB SWAP1 REVERT JUMPDEST DUP1 PUSH1 0x3 DUP1 SLOAD SWAP1 POP DUP2 LT PUSH2 0x654 JUMPI PUSH1 0x40 MLOAD PUSH32 0x8C379A000000000000000000000000000000000000000000000000000000000 DUP2 MSTORE PUSH1 0x4 ADD PUSH2 0x64B SWAP1 PUSH2 0x16B8 JUMP JUMPDEST PUSH1 0x40 MLOAD DUP1 SWAP2 SUB SWAP1 REVERT JUMPDEST DUP2 PUSH1 0x3 DUP2 DUP2 SLOAD DUP2 LT PUSH2 0x669 JUMPI PUSH2 0x668 PUSH2 0x16D6 JUMP JUMPDEST JUMPDEST SWAP1 PUSH0 MSTORE PUSH1 0x20 PUSH0 KECCAK256 SWAP1 PUSH1 0x4 MUL ADD PUSH1 0x3 ADD PUSH0 SWAP1 SLOAD SWAP1 PUSH2 0x100 EXP SWAP1 DIV PUSH1 0xFF AND ISZERO PUSH2 0x6C5 JUMPI PUSH1 0x40 MLOAD PUSH32 0x8C379A000000000000000000000000000000000000000000000000000000000 DUP2 MSTORE PUSH1 0x4 ADD PUSH2 0x6BC SWAP1 PUSH2 0x174D JUMP JUMPDEST PUSH1 0x40 MLOAD DUP1 SWAP2 SUB SWAP1 REVERT JUMPDEST PUSH1 0x4 PUSH0 DUP5 DUP2 MSTORE PUSH1 0x20 ADD SWAP1 DUP2 MSTORE PUSH1 0x20 ADD PUSH0 KECCAK256 PUSH0 CALLER PUSH20 0xFFFFFFFFFFFFFFFFFFFFFFFFFFFFFFFFFFFFFFFF AND PUSH20 0xFFFFFFFFFFFFFFFFFFFFFFFFFFFFFFFFFFFFFFFF AND DUP2 MSTORE PUSH1 0x20 ADD SWAP1 DUP2 MSTORE PUSH1 0x20 ADD PUSH0 KECCAK256 PUSH0 SWAP1 SLOAD SWAP1 PUSH2 0x100 EXP SWAP1 DIV PUSH1 0xFF AND PUSH2 0x75D JUMPI PUSH1 0x40 MLOAD PUSH32 0x8C379A000000000000000000000000000000000000000000000000000000000 DUP2 MSTORE PUSH1 0x4 ADD PUSH2 0x754 SWAP1 PUSH2 0x17B5 JUMP JUMPDEST PUSH1 0x40 MLOAD DUP1 SWAP2 SUB SWAP1 REVERT JUMPDEST PUSH0 PUSH1 0x4 PUSH0 DUP6 DUP2 MSTORE PUSH1 0x20 ADD SWAP1 DUP2 MSTORE PUSH1 0x20 ADD PUSH0 KECCAK256 PUSH0 CALLER PUSH20 0xFFFFFFFFFFFFFFFFFFFFFFFFFFFFFFFFFFFFFFFF AND PUSH20 0xFFFFFFFFFFFFFFFFFFFFFFFFFFFFFFFFFFFFFFFF AND DUP2 MSTORE PUSH1 0x20 ADD SWAP1 DUP2 MSTORE PUSH1 0x20 ADD PUSH0 KECCAK256 PUSH0 PUSH2 0x100 EXP DUP2 SLOAD DUP2 PUSH1 0xFF MUL NOT AND SWAP1 DUP4 ISZERO ISZERO MUL OR SWAP1 SSTORE POP DUP3 CALLER PUSH20 0xFFFFFFFFFFFFFFFFFFFFFFFFFFFFFFFFFFFFFFFF AND PUSH32 0xEC9AB91322523C899EDE7830EC9BFC992B5981CDCC27B91162FB23DE5791117B PUSH1 0x40 MLOAD PUSH1 0x40 MLOAD DUP1 SWAP2 SUB SWAP1 LOG3 POP POP POP JUMP JUMPDEST PUSH1 0x1 PUSH1 0x20 MSTORE DUP1 PUSH0 MSTORE PUSH1 0x40 PUSH0 KECCAK256 PUSH0 SWAP2 POP SLOAD SWAP1 PUSH2 0x100 EXP SWAP1 DIV PUSH1 0xFF AND DUP2 JUMP JUMPDEST PUSH1 0x4 PUSH1 0x20 MSTORE DUP2 PUSH0 MSTORE PUSH1 0x40 PUSH0 KECCAK256 PUSH1 0x20 MSTORE DUP1 PUSH0 MSTORE PUSH1 0x40 PUSH0 KECCAK256 PUSH0 SWAP2 POP SWAP2 POP SWAP1 SLOAD SWAP1 PUSH2 0x100 EXP SWAP1 DIV PUSH1 0xFF AND DUP2 JUMP JUMPDEST PUSH1 0x3 DUP2 DUP2 SLOAD DUP2 LT PUSH2 0x85F JUMPI PUSH0 DUP1 REVERT JUMPDEST SWAP1 PUSH0 MSTORE PUSH1 0x20 PUSH0 KECCAK256 SWAP1 PUSH1 0x4 MUL ADD PUSH0 SWAP2 POP SWAP1 POP DUP1 PUSH0 ADD PUSH0 SWAP1 SLOAD SWAP1 PUSH2 0x100 EXP SWAP1 DIV PUSH20 0xFFFFFFFFFFFFFFFFFFFFFFFFFFFFFFFFFFFFFFFF AND SWAP1 DUP1 PUSH1 0x1 ADD SLOAD SWAP1 DUP1 PUSH1 0x2 ADD DUP1 SLOAD PUSH2 0x8A9 SWAP1 PUSH2 0x1372 JUMP JUMPDEST DUP1 PUSH1 0x1F ADD PUSH1 0x20 DUP1 SWAP2 DIV MUL PUSH1 0x20 ADD PUSH1 0x40 MLOAD SWAP1 DUP2 ADD PUSH1 0x40 MSTORE DUP1 SWAP3 SWAP2 SWAP1 DUP2 DUP2 MSTORE PUSH1 0x20 ADD DUP3 DUP1 SLOAD PUSH2 0x8D5 SWAP1 PUSH2 0x1372 JUMP JUMPDEST DUP1 ISZERO PUSH2 0x920 JUMPI DUP1 PUSH1 0x1F LT PUSH2 0x8F7 JUMPI PUSH2 0x100 DUP1 DUP4 SLOAD DIV MUL DUP4 MSTORE SWAP2 PUSH1 0x20 ADD SWAP2 PUSH2 0x920 JUMP JUMPDEST DUP3 ADD SWAP2 SWAP1 PUSH0 MSTORE PUSH1 0x20 PUSH0 KECCAK256 SWAP1 JUMPDEST DUP2 SLOAD DUP2 MSTORE SWAP1 PUSH1 0x1 ADD SWAP1 PUSH1 0x20 ADD DUP1 DUP4 GT PUSH2 0x903 JUMPI DUP3 SWAP1 SUB PUSH1 0x1F AND DUP3 ADD SWAP2 JUMPDEST POP POP POP POP POP SWAP1 DUP1 PUSH1 0x3 ADD PUSH0 SWAP1 SLOAD SWAP1 PUSH2 0x100 EXP SWAP1 DIV PUSH1 0xFF AND SWAP1 POP DUP5 JUMP JUMPDEST PUSH1 0x1 PUSH0 CALLER PUSH20 0xFFFFFFFFFFFFFFFFFFFFFFFFFFFFFFFFFFFFFFFF AND PUSH20 0xFFFFFFFFFFFFFFFFFFFFFFFFFFFFFFFFFFFFFFFF AND DUP2 MSTORE PUSH1 0x20 ADD SWAP1 DUP2 MSTORE PUSH1 0x20 ADD PUSH0 KECCAK256 PUSH0 SWAP1 SLOAD SWAP1 PUSH2 0x100 EXP SWAP1 DIV PUSH1 0xFF AND PUSH2 0x9C5 JUMPI PUSH1 0x40 MLOAD PUSH32 0x8C379A000000000000000000000000000000000000000000000000000000000 DUP2 MSTORE PUSH1 0x4 ADD PUSH2 0x9BC SWAP1 PUSH2 0x12FA JUMP JUMPDEST PUSH1 0x40 MLOAD DUP1 SWAP2 SUB SWAP1 REVERT JUMPDEST DUP1 PUSH1 0x3 DUP1 SLOAD SWAP1 POP DUP2 LT PUSH2 0xA0D JUMPI PUSH1 0x40 MLOAD PUSH32 0x8C379A000000000000000000000000000000000000000000000000000000000 DUP2 MSTORE PUSH1 0x4 ADD PUSH2 0xA04 SWAP1 PUSH2 0x16B8 JUMP JUMPDEST PUSH1 0x40 MLOAD DUP1 SWAP2 SUB SWAP1 REVERT JUMPDEST DUP2 PUSH1 0x4 PUSH0 DUP3 DUP2 MSTORE PUSH1 0x20 ADD SWAP1 DUP2 MSTORE PUSH1 0x20 ADD PUSH0 KECCAK256 PUSH0 CALLER PUSH20 0xFFFFFFFFFFFFFFFFFFFFFFFFFFFFFFFFFFFFFFFF AND PUSH20 0xFFFFFFFFFFFFFFFFFFFFFFFFFFFFFFFFFFFFFFFF AND DUP2 MSTORE PUSH1 0x20 ADD SWAP1 DUP2 MSTORE PUSH1 0x20 ADD PUSH0 KECCAK256 PUSH0 SWAP1 SLOAD SWAP1 PUSH2 0x100 EXP SWAP1 DIV PUSH1 0xFF AND ISZERO PUSH2 0xAA7 JUMPI PUSH1 0x40 MLOAD PUSH32 0x8C379A000000000000000000000000000000000000000000000000000000000 DUP2 MSTORE PUSH1 0x4 ADD PUSH2 0xA9E SWAP1 PUSH2 0x181D JUMP JUMPDEST PUSH1 0x40 MLOAD DUP1 SWAP2 SUB SWAP1 REVERT JUMPDEST DUP3 PUSH1 0x3 DUP2 DUP2 SLOAD DUP2 LT PUSH2 0xABC JUMPI PUSH2 0xABB PUSH2 0x16D6 JUMP JUMPDEST JUMPDEST SWAP1 PUSH0 MSTORE PUSH1 0x20 PUSH0 KECCAK256 SWAP1 PUSH1 0x4 MUL ADD PUSH1 0x3 ADD PUSH0 SWAP1 SLOAD SWAP1 PUSH2 0x100 EXP SWAP1 DIV PUSH1 0xFF AND ISZERO PUSH2 0xB18 JUMPI PUSH1 0x40 MLOAD PUSH32 0x8C379A000000000000000000000000000000000000000000000000000000000 DUP2 MSTORE PUSH1 0x4 ADD PUSH2 0xB0F SWAP1 PUSH2 0x174D JUMP JUMPDEST PUSH1 0x40 MLOAD DUP1 SWAP2 SUB SWAP1 REVERT JUMPDEST PUSH1 0x1 PUSH1 0x4 PUSH0 DUP7 DUP2 MSTORE PUSH1 0x20 ADD SWAP1 DUP2 MSTORE PUSH1 0x20 ADD PUSH0 KECCAK256 PUSH0 CALLER PUSH20 0xFFFFFFFFFFFFFFFFFFFFFFFFFFFFFFFFFFFFFFFF AND PUSH20 0xFFFFFFFFFFFFFFFFFFFFFFFFFFFFFFFFFFFFFFFF AND DUP2 MSTORE PUSH1 0x20 ADD SWAP1 DUP2 MSTORE PUSH1 0x20 ADD PUSH0 KECCAK256 PUSH0 PUSH2 0x100 EXP DUP2 SLOAD DUP2 PUSH1 0xFF MUL NOT AND SWAP1 DUP4 ISZERO ISZERO MUL OR SWAP1 SSTORE POP DUP4 CALLER PUSH20 0xFFFFFFFFFFFFFFFFFFFFFFFFFFFFFFFFFFFFFFFF AND PUSH32 0x90EC57F18FA7B15C6B8D5E4D1DEB90796C74B2FF23D4D0CECAD0CB42A96B3128 PUSH1 0x40 MLOAD PUSH1 0x40 MLOAD DUP1 SWAP2 SUB SWAP1 LOG3 POP POP POP POP JUMP JUMPDEST PUSH0 DUP1 PUSH0 SWAP1 POP JUMPDEST PUSH0 DUP1 SLOAD SWAP1 POP DUP2 LT ISZERO PUSH2 0xC8D JUMPI PUSH1 0x4 PUSH0 DUP5 DUP2 MSTORE PUSH1 0x20 ADD SWAP1 DUP2 MSTORE PUSH1 0x20 ADD PUSH0 KECCAK256 PUSH0 DUP1 DUP4 DUP2 SLOAD DUP2 LT PUSH2 0xBFD JUMPI PUSH2 0xBFC PUSH2 0x16D6 JUMP JUMPDEST JUMPDEST SWAP1 PUSH0 MSTORE PUSH1 0x20 PUSH0 KECCAK256 ADD PUSH0 SWAP1 SLOAD SWAP1 PUSH2 0x100 EXP SWAP1 DIV PUSH20 0xFFFFFFFFFFFFFFFFFFFFFFFFFFFFFFFFFFFFFFFF AND PUSH20 0xFFFFFFFFFFFFFFFFFFFFFFFFFFFFFFFFFFFFFFFF AND PUSH20 0xFFFFFFFFFFFFFFFFFFFFFFFFFFFFFFFFFFFFFFFF AND DUP2 MSTORE PUSH1 0x20 ADD SWAP1 DUP2 MSTORE PUSH1 0x20 ADD PUSH0 KECCAK256 PUSH0 SWAP1 SLOAD SWAP1 PUSH2 0x100 EXP SWAP1 DIV PUSH1 0xFF AND ISZERO PUSH2 0xC80 JUMPI PUSH1 0x1 DUP3 PUSH2 0xC7D SWAP2 SWAP1 PUSH2 0x183B JUMP JUMPDEST SWAP2 POP JUMPDEST DUP1 DUP1 PUSH1 0x1 ADD SWAP2 POP POP PUSH2 0xBCC JUMP JUMPDEST POP SWAP2 SWAP1 POP JUMP JUMPDEST PUSH1 0x1 PUSH0 CALLER PUSH20 0xFFFFFFFFFFFFFFFFFFFFFFFFFFFFFFFFFFFFFFFF AND PUSH20 0xFFFFFFFFFFFFFFFFFFFFFFFFFFFFFFFFFFFFFFFF AND DUP2 MSTORE PUSH1 0x20 ADD SWAP1 DUP2 MSTORE PUSH1 0x20 ADD PUSH0 KECCAK256 PUSH0 SWAP1 SLOAD SWAP1 PUSH2 0x100 EXP SWAP1 DIV PUSH1 0xFF AND PUSH2 0xD1C JUMPI PUSH1 0x40 MLOAD PUSH32 0x8C379A000000000000000000000000000000000000000000000000000000000 DUP2 MSTORE PUSH1 0x4 ADD PUSH2 0xD13 SWAP1 PUSH2 0x12FA JUMP JUMPDEST PUSH1 0x40 MLOAD DUP1 SWAP2 SUB SWAP1 REVERT JUMPDEST DUP1 PUSH1 0x3 DUP1 SLOAD SWAP1 POP DUP2 LT PUSH2 0xD64 JUMPI PUSH1 0x40 MLOAD PUSH32 0x8C379A000000000000000000000000000000000000000000000000000000000 DUP2 MSTORE PUSH1 0x4 ADD PUSH2 0xD5B SWAP1 PUSH2 0x16B8 JUMP JUMPDEST PUSH1 0x40 MLOAD DUP1 SWAP2 SUB SWAP1 REVERT JUMPDEST DUP2 PUSH1 0x3 DUP2 DUP2 SLOAD DUP2 LT PUSH2 0xD79 JUMPI PUSH2 0xD78 PUSH2 0x16D6 JUMP JUMPDEST JUMPDEST SWAP1 PUSH0 MSTORE PUSH1 0x20 PUSH0 KECCAK256 SWAP1 PUSH1 0x4 MUL ADD PUSH1 0x3 ADD PUSH0 SWAP1 SLOAD SWAP1 PUSH2 0x100 EXP SWAP1 DIV PUSH1 0xFF AND ISZERO PUSH2 0xDD5 JUMPI PUSH1 0x40 MLOAD PUSH32 0x8C379A000000000000000000000000000000000000000000000000000000000 DUP2 MSTORE PUSH1 0x4 ADD PUSH2 0xDCC SWAP1 PUSH2 0x174D JUMP JUMPDEST PUSH1 0x40 MLOAD DUP1 SWAP2 SUB SWAP1 REVERT JUMPDEST PUSH1 0x2 SLOAD PUSH2 0xDE1 DUP5 PUSH2 0xBC6 JUMP JUMPDEST LT ISZERO PUSH2 0xE22 JUMPI PUSH1 0x40 MLOAD PUSH32 0x8C379A000000000000000000000000000000000000000000000000000000000 DUP2 MSTORE PUSH1 0x4 ADD PUSH2 0xE19 SWAP1 PUSH2 0x18DE JUMP JUMPDEST PUSH1 0x40 MLOAD DUP1 SWAP2 SUB SWAP1 REVERT JUMPDEST PUSH0 PUSH1 0x3 DUP5 DUP2 SLOAD DUP2 LT PUSH2 0xE37 JUMPI PUSH2 0xE36 PUSH2 0x16D6 JUMP JUMPDEST JUMPDEST SWAP1 PUSH0 MSTORE PUSH1 0x20 PUSH0 KECCAK256 SWAP1 PUSH1 0x4 MUL ADD SWAP1 POP PUSH1 0x1 DUP2 PUSH1 0x3 ADD PUSH0 PUSH2 0x100 EXP DUP2 SLOAD DUP2 PUSH1 0xFF MUL NOT AND SWAP1 DUP4 ISZERO ISZERO MUL OR SWAP1 SSTORE POP PUSH0 DUP2 PUSH0 ADD PUSH0 SWAP1 SLOAD SWAP1 PUSH2 0x100 EXP SWAP1 DIV PUSH20 0xFFFFFFFFFFFFFFFFFFFFFFFFFFFFFFFFFFFFFFFF AND PUSH20 0xFFFFFFFFFFFFFFFFFFFFFFFFFFFFFFFFFFFFFFFF AND DUP3 PUSH1 0x1 ADD SLOAD DUP4 PUSH1 0x2 ADD PUSH1 0x40 MLOAD PUSH2 0xEB1 SWAP2 SWAP1 PUSH2 0x1986 JUMP JUMPDEST PUSH0 PUSH1 0x40 MLOAD DUP1 DUP4 SUB DUP2 DUP6 DUP8 GAS CALL SWAP3 POP POP POP RETURNDATASIZE DUP1 PUSH0 DUP2 EQ PUSH2 0xEEB JUMPI PUSH1 0x40 MLOAD SWAP2 POP PUSH1 0x1F NOT PUSH1 0x3F RETURNDATASIZE ADD AND DUP3 ADD PUSH1 0x40 MSTORE RETURNDATASIZE DUP3 MSTORE RETURNDATASIZE PUSH0 PUSH1 0x20 DUP5 ADD RETURNDATACOPY PUSH2 0xEF0 JUMP JUMPDEST PUSH1 0x60 SWAP2 POP JUMPDEST POP POP SWAP1 POP DUP1 PUSH2 0xF34 JUMPI PUSH1 0x40 MLOAD PUSH32 0x8C379A000000000000000000000000000000000000000000000000000000000 DUP2 MSTORE PUSH1 0x4 ADD PUSH2 0xF2B SWAP1 PUSH2 0x19E6 JUMP JUMPDEST PUSH1 0x40 MLOAD DUP1 SWAP2 SUB SWAP1 REVERT JUMPDEST DUP5 PUSH32 0xDDB556F1D2C1EC821E910B019D3685B229DB152A0ECD517CA7E24B8BD7139289 PUSH1 0x40 MLOAD PUSH1 0x40 MLOAD DUP1 SWAP2 SUB SWAP1 LOG2 POP POP POP POP POP JUMP JUMPDEST PUSH0 DUP2 SWAP1 POP SWAP2 SWAP1 POP JUMP JUMPDEST PUSH2 0xF7A DUP2 PUSH2 0xF68 JUMP JUMPDEST DUP3 MSTORE POP POP JUMP JUMPDEST PUSH0 PUSH1 0x20 DUP3 ADD SWAP1 POP PUSH2 0xF93 PUSH0 DUP4 ADD DUP5 PUSH2 0xF71 JUMP JUMPDEST SWAP3 SWAP2 POP POP JUMP JUMPDEST PUSH0 DUP1 REVERT JUMPDEST PUSH0 DUP1 REVERT JUMPDEST PUSH2 0xFAA DUP2 PUSH2 0xF68 JUMP JUMPDEST DUP2 EQ PUSH2 0xFB4 JUMPI PUSH0 DUP1 REVERT JUMPDEST POP JUMP JUMPDEST PUSH0 DUP2 CALLDATALOAD SWAP1 POP PUSH2 0xFC5 DUP2 PUSH2 0xFA1 JUMP JUMPDEST SWAP3 SWAP2 POP POP JUMP JUMPDEST PUSH0 PUSH1 0x20 DUP3 DUP5 SUB SLT ISZERO PUSH2 0xFE0 JUMPI PUSH2 0xFDF PUSH2 0xF99 JUMP JUMPDEST JUMPDEST PUSH0 PUSH2 0xFED DUP5 DUP3 DUP6 ADD PUSH2 0xFB7 JUMP JUMPDEST SWAP2 POP POP SWAP3 SWAP2 POP POP JUMP JUMPDEST PUSH0 PUSH20 0xFFFFFFFFFFFFFFFFFFFFFFFFFFFFFFFFFFFFFFFF DUP3 AND SWAP1 POP SWAP2 SWAP1 POP JUMP JUMPDEST PUSH0 PUSH2 0x101F DUP3 PUSH2 0xFF6 JUMP JUMPDEST SWAP1 POP SWAP2 SWAP1 POP JUMP JUMPDEST PUSH2 0x102F DUP2 PUSH2 0x1015 JUMP JUMPDEST DUP3 MSTORE POP POP JUMP JUMPDEST PUSH0 PUSH1 0x20 DUP3 ADD SWAP1 POP PUSH2 0x1048 PUSH0 DUP4 ADD DUP5 PUSH2 0x1026 JUMP JUMPDEST SWAP3 SWAP2 POP POP JUMP JUMPDEST PUSH2 0x1057 DUP2 PUSH2 0x1015 JUMP JUMPDEST DUP2 EQ PUSH2 0x1061 JUMPI PUSH0 DUP1 REVERT JUMPDEST POP JUMP JUMPDEST PUSH0 DUP2 CALLDATALOAD SWAP1 POP PUSH2 0x1072 DUP2 PUSH2 0x104E JUMP JUMPDEST SWAP3 SWAP2 POP POP JUMP JUMPDEST PUSH0 DUP1 REVERT JUMPDEST PUSH0 DUP1 REVERT JUMPDEST PUSH0 DUP1 REVERT JUMPDEST PUSH0 DUP1 DUP4 PUSH1 0x1F DUP5 ADD SLT PUSH2 0x1099 JUMPI PUSH2 0x1098 PUSH2 0x1078 JUMP JUMPDEST JUMPDEST DUP3 CALLDATALOAD SWAP1 POP PUSH8 0xFFFFFFFFFFFFFFFF DUP2 GT ISZERO PUSH2 0x10B6 JUMPI PUSH2 0x10B5 PUSH2 0x107C JUMP JUMPDEST JUMPDEST PUSH1 0x20 DUP4 ADD SWAP2 POP DUP4 PUSH1 0x1 DUP3 MUL DUP4 ADD GT ISZERO PUSH2 0x10D2 JUMPI PUSH2 0x10D1 PUSH2 0x1080 JUMP JUMPDEST JUMPDEST SWAP3 POP SWAP3 SWAP1 POP JUMP JUMPDEST PUSH0 DUP1 PUSH0 DUP1 PUSH1 0x60 DUP6 DUP8 SUB SLT ISZERO PUSH2 0x10F1 JUMPI PUSH2 0x10F0 PUSH2 0xF99 JUMP JUMPDEST JUMPDEST PUSH0 PUSH2 0x10FE DUP8 DUP3 DUP9 ADD PUSH2 0x1064 JUMP JUMPDEST SWAP5 POP POP PUSH1 0x20 PUSH2 0x110F DUP8 DUP3 DUP9 ADD PUSH2 0xFB7 JUMP JUMPDEST SWAP4 POP POP PUSH1 0x40 DUP6 ADD CALLDATALOAD PUSH8 0xFFFFFFFFFFFFFFFF DUP2 GT ISZERO PUSH2 0x1130 JUMPI PUSH2 0x112F PUSH2 0xF9D JUMP JUMPDEST JUMPDEST PUSH2 0x113C DUP8 DUP3 DUP9 ADD PUSH2 0x1084 JUMP JUMPDEST SWAP3 POP SWAP3 POP POP SWAP3 SWAP6 SWAP2 SWAP5 POP SWAP3 POP JUMP JUMPDEST PUSH0 PUSH1 0x20 DUP3 DUP5 SUB SLT ISZERO PUSH2 0x115F JUMPI PUSH2 0x115E PUSH2 0xF99 JUMP JUMPDEST JUMPDEST PUSH0 PUSH2 0x116C DUP5 DUP3 DUP6 ADD PUSH2 0x1064 JUMP JUMPDEST SWAP2 POP POP SWAP3 SWAP2 POP POP JUMP JUMPDEST PUSH0 DUP2 ISZERO ISZERO SWAP1 POP SWAP2 SWAP1 POP JUMP JUMPDEST PUSH2 0x1189 DUP2 PUSH2 0x1175 JUMP JUMPDEST DUP3 MSTORE POP POP JUMP JUMPDEST PUSH0 PUSH1 0x20 DUP3 ADD SWAP1 POP PUSH2 0x11A2 PUSH0 DUP4 ADD DUP5 PUSH2 0x1180 JUMP JUMPDEST SWAP3 SWAP2 POP POP JUMP JUMPDEST PUSH0 DUP1 PUSH1 0x40 DUP4 DUP6 SUB SLT ISZERO PUSH2 0x11BE JUMPI PUSH2 0x11BD PUSH2 0xF99 JUMP JUMPDEST JUMPDEST PUSH0 PUSH2 0x11CB DUP6 DUP3 DUP7 ADD PUSH2 0xFB7 JUMP JUMPDEST SWAP3 POP POP PUSH1 0x20 PUSH2 0x11DC DUP6 DUP3 DUP7 ADD PUSH2 0x1064 JUMP JUMPDEST SWAP2 POP POP SWAP3 POP SWAP3 SWAP1 POP JUMP JUMPDEST PUSH0 DUP2 MLOAD SWAP1 POP SWAP2 SWAP1 POP JUMP JUMPDEST PUSH0 DUP3 DUP3 MSTORE PUSH1 0x20 DUP3 ADD SWAP1 POP SWAP3 SWAP2 POP POP JUMP JUMPDEST DUP3 DUP2 DUP4 MCOPY PUSH0 DUP4 DUP4 ADD MSTORE POP POP POP JUMP JUMPDEST PUSH0 PUSH1 0x1F NOT PUSH1 0x1F DUP4 ADD AND SWAP1 POP SWAP2 SWAP1 POP JUMP JUMPDEST PUSH0 PUSH2 0x1228 DUP3 PUSH2 0x11E6 JUMP JUMPDEST PUSH2 0x1232 DUP2 DUP6 PUSH2 0x11F0 JUMP JUMPDEST SWAP4 POP PUSH2 0x1242 DUP2 DUP6 PUSH1 0x20 DUP7 ADD PUSH2 0x1200 JUMP JUMPDEST PUSH2 0x124B DUP2 PUSH2 0x120E JUMP JUMPDEST DUP5 ADD SWAP2 POP POP SWAP3 SWAP2 POP POP JUMP JUMPDEST PUSH0 PUSH1 0x80 DUP3 ADD SWAP1 POP PUSH2 0x1269 PUSH0 DUP4 ADD DUP8 PUSH2 0x1026 JUMP JUMPDEST PUSH2 0x1276 PUSH1 0x20 DUP4 ADD DUP7 PUSH2 0xF71 JUMP JUMPDEST DUP2 DUP2 SUB PUSH1 0x40 DUP4 ADD MSTORE PUSH2 0x1288 DUP2 DUP6 PUSH2 0x121E JUMP JUMPDEST SWAP1 POP PUSH2 0x1297 PUSH1 0x60 DUP4 ADD DUP5 PUSH2 0x1180 JUMP JUMPDEST SWAP6 SWAP5 POP POP POP POP POP JUMP JUMPDEST PUSH0 DUP3 DUP3 MSTORE PUSH1 0x20 DUP3 ADD SWAP1 POP SWAP3 SWAP2 POP POP JUMP JUMPDEST PUSH32 0x596F7520617265206E6F74206F776E6572000000000000000000000000000000 PUSH0 DUP3 ADD MSTORE POP JUMP JUMPDEST PUSH0 PUSH2 0x12E4 PUSH1 0x11 DUP4 PUSH2 0x12A0 JUMP JUMPDEST SWAP2 POP PUSH2 0x12EF DUP3 PUSH2 0x12B0 JUMP JUMPDEST PUSH1 0x20 DUP3 ADD SWAP1 POP SWAP2 SWAP1 POP JUMP JUMPDEST PUSH0 PUSH1 0x20 DUP3 ADD SWAP1 POP DUP2 DUP2 SUB PUSH0 DUP4 ADD MSTORE PUSH2 0x1311 DUP2 PUSH2 0x12D8 JUMP JUMPDEST SWAP1 POP SWAP2 SWAP1 POP JUMP JUMPDEST PUSH32 0x4E487B7100000000000000000000000000000000000000000000000000000000 PUSH0 MSTORE PUSH1 0x41 PUSH1 0x4 MSTORE PUSH1 0x24 PUSH0 REVERT JUMPDEST PUSH32 0x4E487B7100000000000000000000000000000000000000000000000000000000 PUSH0 MSTORE PUSH1 0x22 PUSH1 0x4 MSTORE PUSH1 0x24 PUSH0 REVERT JUMPDEST PUSH0 PUSH1 0x2 DUP3 DIV SWAP1 POP PUSH1 0x1 DUP3 AND DUP1 PUSH2 0x1389 JUMPI PUSH1 0x7F DUP3 AND SWAP2 POP JUMPDEST PUSH1 0x20 DUP3 LT DUP2 SUB PUSH2 0x139C JUMPI PUSH2 0x139B PUSH2 0x1345 JUMP JUMPDEST JUMPDEST POP SWAP2 SWAP1 POP JUMP JUMPDEST PUSH0 DUP2 SWAP1 POP DUP2 PUSH0 MSTORE PUSH1 0x20 PUSH0 KECCAK256 SWAP1 POP SWAP2 SWAP1 POP JUMP JUMPDEST PUSH0 PUSH1 0x20 PUSH1 0x1F DUP4 ADD DIV SWAP1 POP SWAP2 SWAP1 POP JUMP JUMPDEST PUSH0 DUP3 DUP3 SHL SWAP1 POP SWAP3 SWAP2 POP POP JUMP JUMPDEST PUSH0 PUSH1 0x8 DUP4 MUL PUSH2 0x13FE PUSH32 0xFFFFFFFFFFFFFFFFFFFFFFFFFFFFFFFFFFFFFFFFFFFFFFFFFFFFFFFFFFFFFFFF DUP3 PUSH2 0x13C3 JUMP JUMPDEST PUSH2 0x1408 DUP7 DUP4 PUSH2 0x13C3 JUMP JUMPDEST SWAP6 POP DUP1 NOT DUP5 AND SWAP4 POP DUP1 DUP7 AND DUP5 OR SWAP3 POP POP POP SWAP4 SWAP3 POP POP POP JUMP JUMPDEST PUSH0 DUP2 SWAP1 POP SWAP2 SWAP1 POP JUMP JUMPDEST PUSH0 PUSH2 0x1443 PUSH2 0x143E PUSH2 0x1439 DUP5 PUSH2 0xF68 JUMP JUMPDEST PUSH2 0x1420 JUMP JUMPDEST PUSH2 0xF68 JUMP JUMPDEST SWAP1 POP SWAP2 SWAP1 POP JUMP JUMPDEST PUSH0 DUP2 SWAP1 POP SWAP2 SWAP1 POP JUMP JUMPDEST PUSH2 0x145C DUP4 PUSH2 0x1429 JUMP JUMPDEST PUSH2 0x1470 PUSH2 0x1468 DUP3 PUSH2 0x144A JUMP JUMPDEST DUP5 DUP5 SLOAD PUSH2 0x13CF JUMP JUMPDEST DUP3 SSTORE POP POP POP POP JUMP JUMPDEST PUSH0 SWAP1 JUMP JUMPDEST PUSH2 0x1484 PUSH2 0x1478 JUMP JUMPDEST PUSH2 0x148F DUP2 DUP5 DUP5 PUSH2 0x1453 JUMP JUMPDEST POP POP POP JUMP JUMPDEST JUMPDEST DUP2 DUP2 LT ISZERO PUSH2 0x14B2 JUMPI PUSH2 0x14A7 PUSH0 DUP3 PUSH2 0x147C JUMP JUMPDEST PUSH1 0x1 DUP2 ADD SWAP1 POP PUSH2 0x1495 JUMP JUMPDEST POP POP JUMP JUMPDEST PUSH1 0x1F DUP3 GT ISZERO PUSH2 0x14F7 JUMPI PUSH2 0x14C8 DUP2 PUSH2 0x13A2 JUMP JUMPDEST PUSH2 0x14D1 DUP5 PUSH2 0x13B4 JUMP JUMPDEST DUP2 ADD PUSH1 0x20 DUP6 LT ISZERO PUSH2 0x14E0 JUMPI DUP2 SWAP1 POP JUMPDEST PUSH2 0x14F4 PUSH2 0x14EC DUP6 PUSH2 0x13B4 JUMP JUMPDEST DUP4 ADD DUP3 PUSH2 0x1494 JUMP JUMPDEST POP POP JUMPDEST POP POP POP JUMP JUMPDEST PUSH0 DUP3 DUP3 SHR SWAP1 POP SWAP3 SWAP2 POP POP JUMP JUMPDEST PUSH0 PUSH2 0x1517 PUSH0 NOT DUP5 PUSH1 0x8 MUL PUSH2 0x14FC JUMP JUMPDEST NOT DUP1 DUP4 AND SWAP2 POP POP SWAP3 SWAP2 POP POP JUMP JUMPDEST PUSH0 PUSH2 0x152F DUP4 DUP4 PUSH2 0x1508 JUMP JUMPDEST SWAP2 POP DUP3 PUSH1 0x2 MUL DUP3 OR SWAP1 POP SWAP3 SWAP2 POP POP JUMP JUMPDEST PUSH2 0x1548 DUP3 PUSH2 0x11E6 JUMP JUMPDEST PUSH8 0xFFFFFFFFFFFFFFFF DUP2 GT ISZERO PUSH2 0x1561 JUMPI PUSH2 0x1560 PUSH2 0x1318 JUMP JUMPDEST JUMPDEST PUSH2 0x156B DUP3 SLOAD PUSH2 0x1372 JUMP JUMPDEST PUSH2 0x1576 DUP3 DUP3 DUP6 PUSH2 0x14B6 JUMP JUMPDEST PUSH0 PUSH1 0x20 SWAP1 POP PUSH1 0x1F DUP4 GT PUSH1 0x1 DUP2 EQ PUSH2 0x15A7 JUMPI PUSH0 DUP5 ISZERO PUSH2 0x1595 JUMPI DUP3 DUP8 ADD MLOAD SWAP1 POP JUMPDEST PUSH2 0x159F DUP6 DUP3 PUSH2 0x1524 JUMP JUMPDEST DUP7 SSTORE POP PUSH2 0x1606 JUMP JUMPDEST PUSH1 0x1F NOT DUP5 AND PUSH2 0x15B5 DUP7 PUSH2 0x13A2 JUMP JUMPDEST PUSH0 JUMPDEST DUP3 DUP2 LT ISZERO PUSH2 0x15DC JUMPI DUP5 DUP10 ADD MLOAD DUP3 SSTORE PUSH1 0x1 DUP3 ADD SWAP2 POP PUSH1 0x20 DUP6 ADD SWAP5 POP PUSH1 0x20 DUP2 ADD SWAP1 POP PUSH2 0x15B7 JUMP JUMPDEST DUP7 DUP4 LT ISZERO PUSH2 0x15F9 JUMPI DUP5 DUP10 ADD MLOAD PUSH2 0x15F5 PUSH1 0x1F DUP10 AND DUP3 PUSH2 0x1508 JUMP JUMPDEST DUP4 SSTORE POP JUMPDEST PUSH1 0x1 PUSH1 0x2 DUP9 MUL ADD DUP9 SSTORE POP POP POP JUMPDEST POP POP POP POP POP POP JUMP JUMPDEST PUSH32 0x4E487B7100000000000000000000000000000000000000000000000000000000 PUSH0 MSTORE PUSH1 0x11 PUSH1 0x4 MSTORE PUSH1 0x24 PUSH0 REVERT JUMPDEST PUSH0 PUSH2 0x1645 DUP3 PUSH2 0xF68 JUMP JUMPDEST SWAP2 POP PUSH2 0x1650 DUP4 PUSH2 0xF68 JUMP JUMPDEST SWAP3 POP DUP3 DUP3 SUB SWAP1 POP DUP2 DUP2 GT ISZERO PUSH2 0x1668 JUMPI PUSH2 0x1667 PUSH2 0x160E JUMP JUMPDEST JUMPDEST SWAP3 SWAP2 POP POP JUMP JUMPDEST PUSH32 0x747820646F65736E277420657869737400000000000000000000000000000000 PUSH0 DUP3 ADD MSTORE POP JUMP JUMPDEST PUSH0 PUSH2 0x16A2 PUSH1 0x10 DUP4 PUSH2 0x12A0 JUMP JUMPDEST SWAP2 POP PUSH2 0x16AD DUP3 PUSH2 0x166E JUMP JUMPDEST PUSH1 0x20 DUP3 ADD SWAP1 POP SWAP2 SWAP1 POP JUMP JUMPDEST PUSH0 PUSH1 0x20 DUP3 ADD SWAP1 POP DUP2 DUP2 SUB PUSH0 DUP4 ADD MSTORE PUSH2 0x16CF DUP2 PUSH2 0x1696 JUMP JUMPDEST SWAP1 POP SWAP2 SWAP1 POP JUMP JUMPDEST PUSH32 0x4E487B7100000000000000000000000000000000000000000000000000000000 PUSH0 MSTORE PUSH1 0x32 PUSH1 0x4 MSTORE PUSH1 0x24 PUSH0 REVERT JUMPDEST PUSH32 0x7478206973206578656374656400000000000000000000000000000000000000 PUSH0 DUP3 ADD MSTORE POP JUMP JUMPDEST PUSH0 PUSH2 0x1737 PUSH1 0xD DUP4 PUSH2 0x12A0 JUMP JUMPDEST SWAP2 POP PUSH2 0x1742 DUP3 PUSH2 0x1703 JUMP JUMPDEST PUSH1 0x20 DUP3 ADD SWAP1 POP SWAP2 SWAP1 POP JUMP JUMPDEST PUSH0 PUSH1 0x20 DUP3 ADD SWAP1 POP DUP2 DUP2 SUB PUSH0 DUP4 ADD MSTORE PUSH2 0x1764 DUP2 PUSH2 0x172B JUMP JUMPDEST SWAP1 POP SWAP2 SWAP1 POP JUMP JUMPDEST PUSH32 0x7478206E6F7420617070726F7665640000000000000000000000000000000000 PUSH0 DUP3 ADD MSTORE POP JUMP JUMPDEST PUSH0 PUSH2 0x179F PUSH1 0xF DUP4 PUSH2 0x12A0 JUMP JUMPDEST SWAP2 POP PUSH2 0x17AA DUP3 PUSH2 0x176B JUMP JUMPDEST PUSH1 0x20 DUP3 ADD SWAP1 POP SWAP2 SWAP1 POP JUMP JUMPDEST PUSH0 PUSH1 0x20 DUP3 ADD SWAP1 POP DUP2 DUP2 SUB PUSH0 DUP4 ADD MSTORE PUSH2 0x17CC DUP2 PUSH2 0x1793 JUMP JUMPDEST SWAP1 POP SWAP2 SWAP1 POP JUMP JUMPDEST PUSH32 0x747820616C726561647920617070726F76656400000000000000000000000000 PUSH0 DUP3 ADD MSTORE POP JUMP JUMPDEST PUSH0 PUSH2 0x1807 PUSH1 0x13 DUP4 PUSH2 0x12A0 JUMP JUMPDEST SWAP2 POP PUSH2 0x1812 DUP3 PUSH2 0x17D3 JUMP JUMPDEST PUSH1 0x20 DUP3 ADD SWAP1 POP SWAP2 SWAP1 POP JUMP JUMPDEST PUSH0 PUSH1 0x20 DUP3 ADD SWAP1 POP DUP2 DUP2 SUB PUSH0 DUP4 ADD MSTORE PUSH2 0x1834 DUP2 PUSH2 0x17FB JUMP JUMPDEST SWAP1 POP SWAP2 SWAP1 POP JUMP JUMPDEST PUSH0 PUSH2 0x1845 DUP3 PUSH2 0xF68 JUMP JUMPDEST SWAP2 POP PUSH2 0x1850 DUP4 PUSH2 0xF68 JUMP JUMPDEST SWAP3 POP DUP3 DUP3 ADD SWAP1 POP DUP1 DUP3 GT ISZERO PUSH2 0x1868 JUMPI PUSH2 0x1867 PUSH2 0x160E JUMP JUMPDEST JUMPDEST SWAP3 SWAP2 POP POP JUMP JUMPDEST PUSH32 0x417070726F76616C20636F756E74203C207265717569726564207369676E6174 PUSH0 DUP3 ADD MSTORE PUSH32 0x7572657300000000000000000000000000000000000000000000000000000000 PUSH1 0x20 DUP3 ADD MSTORE POP JUMP JUMPDEST PUSH0 PUSH2 0x18C8 PUSH1 0x24 DUP4 PUSH2 0x12A0 JUMP JUMPDEST SWAP2 POP PUSH2 0x18D3 DUP3 PUSH2 0x186E JUMP JUMPDEST PUSH1 0x40 DUP3 ADD SWAP1 POP SWAP2 SWAP1 POP JUMP JUMPDEST PUSH0 PUSH1 0x20 DUP3 ADD SWAP1 POP DUP2 DUP2 SUB PUSH0 DUP4 ADD MSTORE PUSH2 0x18F5 DUP2 PUSH2 0x18BC JUMP JUMPDEST SWAP1 POP SWAP2 SWAP1 POP JUMP JUMPDEST PUSH0 DUP2 SWAP1 POP SWAP3 SWAP2 POP POP JUMP JUMPDEST PUSH0 DUP2 SLOAD PUSH2 0x1912 DUP2 PUSH2 0x1372 JUMP JUMPDEST PUSH2 0x191C DUP2 DUP7 PUSH2 0x18FC JUMP JUMPDEST SWAP5 POP PUSH1 0x1 DUP3 AND PUSH0 DUP2 EQ PUSH2 0x1936 JUMPI PUSH1 0x1 DUP2 EQ PUSH2 0x194B JUMPI PUSH2 0x197D JUMP JUMPDEST PUSH1 0xFF NOT DUP4 AND DUP7 MSTORE DUP2 ISZERO ISZERO DUP3 MUL DUP7 ADD SWAP4 POP PUSH2 0x197D JUMP JUMPDEST PUSH2 0x1954 DUP6 PUSH2 0x13A2 JUMP JUMPDEST PUSH0 JUMPDEST DUP4 DUP2 LT ISZERO PUSH2 0x1975 JUMPI DUP2 SLOAD DUP2 DUP10 ADD MSTORE PUSH1 0x1 DUP3 ADD SWAP2 POP PUSH1 0x20 DUP2 ADD SWAP1 POP PUSH2 0x1956 JUMP JUMPDEST DUP4 DUP9 ADD SWAP6 POP POP POP JUMPDEST POP POP POP SWAP3 SWAP2 POP POP JUMP JUMPDEST PUSH0 PUSH2 0x1991 DUP3 DUP5 PUSH2 0x1906 JUMP JUMPDEST SWAP2 POP DUP2 SWAP1 POP SWAP3 SWAP2 POP POP JUMP JUMPDEST PUSH32 0x74782065786563757465206661696C6564000000000000000000000000000000 PUSH0 DUP3 ADD MSTORE POP JUMP JUMPDEST PUSH0 PUSH2 0x19D0 PUSH1 0x11 DUP4 PUSH2 0x12A0 JUMP JUMPDEST SWAP2 POP PUSH2 0x19DB DUP3 PUSH2 0x199C JUMP JUMPDEST PUSH1 0x20 DUP3 ADD SWAP1 POP SWAP2 SWAP1 POP JUMP JUMPDEST PUSH0 PUSH1 0x20 DUP3 ADD SWAP1 POP DUP2 DUP2 SUB PUSH0 DUP4 ADD MSTORE PUSH2 0x19FD DUP2 PUSH2 0x19C4 JUMP JUMPDEST SWAP1 POP SWAP2 SWAP1 POP JUMP INVALID LOG2 PUSH5 0x6970667358 0x22 SLT KECCAK256 0xF7 TLOAD 0x24 GAS DUP4 0xB9 INVALID BYTE SWAP4 PUSH13 0xE5538DD367A7495268D557B4F0 0xC0 GAS 0xE9 0x21 0xA9 0xE6 PUSH21 0x491864736F6C634300081A00330000000000000000 "
				},
				"gasEstimates": {
					"creation": {
						"codeDepositCost": "1342800",
						"executionCost": "infinite",
						"totalCost": "infinite"
					},
					"external": {
						"approve(uint256)": "37487",
						"approved(uint256,address)": "3093",
						"execute(uint256)": "infinite",
						"getApprovalCount(uint256)": "infinite",
						"getBalance()": "357",
						"isOwner(address)": "2833",
						"owners(uint256)": "4944",
						"requiredSigns()": "2492",
						"revoke(uint256)": "37501",
						"submit(address,uint256,bytes)": "infinite",
						"transactions(uint256)": "infinite"
					}
				},
				"methodIdentifiers": {
					"approve(uint256)": "b759f954",
					"approved(uint256,address)": "8253951a",
					"execute(uint256)": "fe0d94c1",
					"getApprovalCount(uint256)": "ba7e7cab",
					"getBalance()": "12065fe0",
					"isOwner(address)": "2f54bf6e",
					"owners(uint256)": "025e7c27",
					"requiredSigns()": "1c62298a",
					"revoke(uint256)": "20c5429b",
					"submit(address,uint256,bytes)": "14de327f",
					"transactions(uint256)": "9ace38c2"
				}
			},
			"storageLayout": {
				"storage": [
					{
						"astId": 4,
						"contract": "contracts/MutiSignWallet.sol:MultiSigWallet",
						"label": "owners",
						"offset": 0,
						"slot": "0",
						"type": "t_array(t_address)dyn_storage"
					},
					{
						"astId": 8,
						"contract": "contracts/MutiSignWallet.sol:MultiSigWallet",
						"label": "isOwner",
						"offset": 0,
						"slot": "1",
						"type": "t_mapping(t_address,t_bool)"
					},
					{
						"astId": 10,
						"contract": "contracts/MutiSignWallet.sol:MultiSigWallet",
						"label": "requiredSigns",
						"offset": 0,
						"slot": "2",
						"type": "t_uint256"
					},
					{
						"astId": 23,
						"contract": "contracts/MutiSignWallet.sol:MultiSigWallet",
						"label": "transactions",
						"offset": 0,
						"slot": "3",
						"type": "t_array(t_struct(Transaction)19_storage)dyn_storage"
					},
					{
						"astId": 29,
						"contract": "contracts/MutiSignWallet.sol:MultiSigWallet",
						"label": "approved",
						"offset": 0,
						"slot": "4",
						"type": "t_mapping(t_uint256,t_mapping(t_address,t_bool))"
					}
				],
				"types": {
					"t_address": {
						"encoding": "inplace",
						"label": "address",
						"numberOfBytes": "20"
					},
					"t_array(t_address)dyn_storage": {
						"base": "t_address",
						"encoding": "dynamic_array",
						"label": "address[]",
						"numberOfBytes": "32"
					},
					"t_array(t_struct(Transaction)19_storage)dyn_storage": {
						"base": "t_struct(Transaction)19_storage",
						"encoding": "dynamic_array",
						"label": "struct MultiSigWallet.Transaction[]",
						"numberOfBytes": "32"
					},
					"t_bool": {
						"encoding": "inplace",
						"label": "bool",
						"numberOfBytes": "1"
					},
					"t_bytes_storage": {
						"encoding": "bytes",
						"label": "bytes",
						"numberOfBytes": "32"
					},
					"t_mapping(t_address,t_bool)": {
						"encoding": "mapping",
						"key": "t_address",
						"label": "mapping(address => bool)",
						"numberOfBytes": "32",
						"value": "t_bool"
					},
					"t_mapping(t_uint256,t_mapping(t_address,t_bool))": {
						"encoding": "mapping",
						"key": "t_uint256",
						"label": "mapping(uint256 => mapping(address => bool))",
						"numberOfBytes": "32",
						"value": "t_mapping(t_address,t_bool)"
					},
					"t_struct(Transaction)19_storage": {
						"encoding": "inplace",
						"label": "struct MultiSigWallet.Transaction",
						"members": [
							{
								"astId": 12,
								"contract": "contracts/MutiSignWallet.sol:MultiSigWallet",
								"label": "to",
								"offset": 0,
								"slot": "0",
								"type": "t_address"
							},
							{
								"astId": 14,
								"contract": "contracts/MutiSignWallet.sol:MultiSigWallet",
								"label": "value",
								"offset": 0,
								"slot": "1",
								"type": "t_uint256"
							},
							{
								"astId": 16,
								"contract": "contracts/MutiSignWallet.sol:MultiSigWallet",
								"label": "data",
								"offset": 0,
								"slot": "2",
								"type": "t_bytes_storage"
							},
							{
								"astId": 18,
								"contract": "contracts/MutiSignWallet.sol:MultiSigWallet",
								"label": "isExected",
								"offset": 0,
								"slot": "3",
								"type": "t_bool"
							}
						],
						"numberOfBytes": "128"
					},
					"t_uint256": {
						"encoding": "inplace",
						"label": "uint256",
						"numberOfBytes": "32"
					}
				}
			},
			"userdoc": {
				"kind": "user",
				"methods": {},
				"version": 1
			}
		}
	}
}